{
  "_format": "hh-sol-artifact-1",
  "contractName": "LiquidityFactory",
  "sourceName": "contracts/LiquidityFactory.sol",
  "abi": [
    {
      "anonymous": false,
      "inputs": [
        {
          "indexed": true,
          "internalType": "address",
          "name": "bidderAddress",
          "type": "address"
        },
        {
          "indexed": true,
          "internalType": "address",
          "name": "nftAddress",
          "type": "address"
        },
        {
          "indexed": false,
          "internalType": "uint256",
          "name": "weiPriceEach",
          "type": "uint256"
        },
        {
          "indexed": false,
          "internalType": "uint256",
          "name": "quantity",
          "type": "uint256"
        },
        {
          "indexed": false,
          "internalType": "uint256",
          "name": "tokenId",
          "type": "uint256"
        }
      ],
      "name": "BidCanceled",
      "type": "event"
    },
    {
      "anonymous": false,
      "inputs": [
        {
          "indexed": true,
          "internalType": "address",
          "name": "bidderAddress",
          "type": "address"
        },
        {
          "indexed": true,
          "internalType": "address",
          "name": "nftAddress",
          "type": "address"
        },
        {
          "indexed": false,
          "internalType": "uint256",
          "name": "weiPriceEach",
          "type": "uint256"
        },
        {
          "indexed": false,
          "internalType": "uint256",
          "name": "quantity",
          "type": "uint256"
        },
        {
          "indexed": false,
          "internalType": "uint256",
          "name": "tokenId",
          "type": "uint256"
        }
      ],
      "name": "NewBid",
      "type": "event"
    },
    {
      "anonymous": false,
      "inputs": [
        {
          "indexed": true,
          "internalType": "address",
          "name": "bidderAddress",
          "type": "address"
        },
        {
          "indexed": true,
          "internalType": "address",
          "name": "sellerAddress",
          "type": "address"
        },
        {
          "indexed": true,
          "internalType": "address",
          "name": "nftAddress",
          "type": "address"
        },
        {
          "indexed": false,
          "internalType": "uint256",
          "name": "weiPriceEach",
          "type": "uint256"
        },
        {
          "indexed": false,
          "internalType": "uint256",
          "name": "quantity",
          "type": "uint256"
        },
        {
          "indexed": false,
          "internalType": "uint256",
          "name": "tokenId",
          "type": "uint256"
        }
      ],
      "name": "NewTrade",
      "type": "event"
    },
    {
      "anonymous": false,
      "inputs": [
        {
          "indexed": true,
          "internalType": "address",
          "name": "previousOwner",
          "type": "address"
        },
        {
          "indexed": true,
          "internalType": "address",
          "name": "newOwner",
          "type": "address"
        }
      ],
      "name": "OwnershipTransferred",
      "type": "event"
    },
    {
      "inputs": [
        {
          "internalType": "address",
          "name": "_nftAddress",
          "type": "address"
        }
      ],
      "name": "cancelBid",
      "outputs": [],
      "stateMutability": "nonpayable",
      "type": "function"
    },
    {
      "inputs": [
        {
          "internalType": "uint256",
          "name": "_newPlatformFee",
          "type": "uint256"
        }
      ],
      "name": "changePlatformFee",
      "outputs": [],
      "stateMutability": "nonpayable",
      "type": "function"
    },
    {
      "inputs": [
        {
          "internalType": "address",
          "name": "_bidderAddress",
          "type": "address"
        },
        {
          "internalType": "address",
          "name": "_nftAddress",
          "type": "address"
        }
      ],
      "name": "getBid",
      "outputs": [
        {
          "components": [
            {
              "internalType": "uint256",
              "name": "weiPriceEach",
              "type": "uint256"
            },
            {
              "internalType": "uint256",
              "name": "quantity",
              "type": "uint256"
            }
          ],
          "internalType": "struct LiquidityFactory.Bid",
          "name": "",
          "type": "tuple"
        }
      ],
      "stateMutability": "view",
      "type": "function"
    },
    {
      "inputs": [
        {
          "internalType": "address[]",
          "name": "_bidderAddresses",
          "type": "address[]"
        },
        {
          "internalType": "address[]",
          "name": "_nftAddresses",
          "type": "address[]"
        }
      ],
      "name": "getBids",
      "outputs": [
        {
          "components": [
            {
              "internalType": "uint256",
              "name": "weiPriceEach",
              "type": "uint256"
            },
            {
              "internalType": "uint256",
              "name": "quantity",
              "type": "uint256"
            }
          ],
          "internalType": "struct LiquidityFactory.Bid[]",
          "name": "",
          "type": "tuple[]"
        }
      ],
      "stateMutability": "view",
      "type": "function"
    },
    {
      "inputs": [
        {
          "internalType": "address",
          "name": "_bidderAddress",
          "type": "address"
        },
        {
          "internalType": "address",
          "name": "_nftAddress",
          "type": "address"
        },
        {
          "internalType": "uint256",
          "name": "_tokenId",
          "type": "uint256"
        },
        {
          "internalType": "uint256",
          "name": "_expectedWeiPriceEach",
          "type": "uint256"
        }
      ],
      "name": "hitBid",
      "outputs": [
        {
          "internalType": "uint256",
          "name": "",
          "type": "uint256"
        }
      ],
      "stateMutability": "nonpayable",
      "type": "function"
    },
    {
      "inputs": [
        {
          "internalType": "address[]",
          "name": "_bidderAddresses",
          "type": "address[]"
        },
        {
          "internalType": "address",
          "name": "_nftAddress",
          "type": "address"
        },
        {
          "internalType": "uint256[]",
          "name": "_tokenIds",
          "type": "uint256[]"
        },
        {
          "internalType": "uint256[]",
          "name": "_expectedWeiPriceEach",
          "type": "uint256[]"
        }
      ],
      "name": "hitMultipleBids",
      "outputs": [
        {
          "internalType": "uint256[]",
          "name": "",
          "type": "uint256[]"
        }
      ],
      "stateMutability": "nonpayable",
      "type": "function"
    },
    {
      "inputs": [],
      "name": "maxPlatformFee",
      "outputs": [
        {
          "internalType": "uint256",
          "name": "",
          "type": "uint256"
        }
      ],
      "stateMutability": "view",
      "type": "function"
    },
    {
      "inputs": [],
      "name": "owner",
      "outputs": [
        {
          "internalType": "address",
          "name": "",
          "type": "address"
        }
      ],
      "stateMutability": "view",
      "type": "function"
    },
    {
      "inputs": [],
      "name": "platformFee",
      "outputs": [
        {
          "internalType": "uint256",
          "name": "",
          "type": "uint256"
        }
      ],
      "stateMutability": "view",
      "type": "function"
    },
    {
      "inputs": [],
      "name": "renounceOwnership",
      "outputs": [],
      "stateMutability": "nonpayable",
      "type": "function"
    },
    {
      "inputs": [
        {
          "internalType": "address",
          "name": "_nftAddress",
          "type": "address"
        },
        {
          "internalType": "uint256",
          "name": "_quantity",
          "type": "uint256"
        }
      ],
      "name": "submitBid",
      "outputs": [],
      "stateMutability": "payable",
      "type": "function"
    },
    {
      "inputs": [
        {
          "internalType": "address",
          "name": "newOwner",
          "type": "address"
        }
      ],
      "name": "transferOwnership",
      "outputs": [],
      "stateMutability": "nonpayable",
      "type": "function"
    },
    {
      "inputs": [],
      "name": "withdraw",
      "outputs": [],
      "stateMutability": "nonpayable",
      "type": "function"
    }
  ],
  "bytecode": "0x608060405260c86001556101f4600255600060035534801561002057600080fd5b5060006100316100d460201b60201c565b9050806000806101000a81548173ffffffffffffffffffffffffffffffffffffffff021916908373ffffffffffffffffffffffffffffffffffffffff1602179055508073ffffffffffffffffffffffffffffffffffffffff16600073ffffffffffffffffffffffffffffffffffffffff167f8be0079c531659141344cd1fd0a4f28419497f9722a3daafe3b4186f6b6457e060405160405180910390a3506100dc565b600033905090565b612508806100eb6000396000f3fe6080604052600436106100c25760003560e01c8063715018a61161007f578063d7a5791a11610059578063d7a5791a14610256578063f2a4f2d61461027f578063f2fde38b1461029b578063f7762b97146102c4576100c2565b8063715018a6146101d75780638da5cb5b146101ee578063a68c9bbb14610219576100c2565b806326232a2e146100c75780633ccfd60b146100f25780633f3a5027146101095780635646ad451461013257806362a6f6a61461016f5780636680a8731461019a575b600080fd5b3480156100d357600080fd5b506100dc610301565b6040516100e99190611e25565b60405180910390f35b3480156100fe57600080fd5b50610107610307565b005b34801561011557600080fd5b50610130600480360381019061012b9190611682565b6103a6565b005b34801561013e57600080fd5b5061015960048036038101906101549190611831565b6105b1565b6040516101669190611c66565b60405180910390f35b34801561017b57600080fd5b506101846107bb565b6040516101919190611e25565b60405180910390f35b3480156101a657600080fd5b506101c160048036038101906101bc91906116e7565b6107c1565b6040516101ce9190611e25565b60405180910390f35b3480156101e357600080fd5b506101ec610adf565b005b3480156101fa57600080fd5b50610203610c19565b6040516102109190611c14565b60405180910390f35b34801561022557600080fd5b50610240600480360381019061023b91906116ab565b610c42565b60405161024d9190611e0a565b60405180910390f35b34801561026257600080fd5b5061027d6004803603810190610278919061189d565b610ced565b005b6102996004803603810190610294919061174a565b610db8565b005b3480156102a757600080fd5b506102c260048036038101906102bd9190611682565b611069565b005b3480156102d057600080fd5b506102eb60048036038101906102e69190611786565b611212565b6040516102f89190611c88565b60405180910390f35b60015481565b61030f611416565b73ffffffffffffffffffffffffffffffffffffffff1661032d610c19565b73ffffffffffffffffffffffffffffffffffffffff1614610383576040517f08c379a000000000000000000000000000000000000000000000000000000000815260040161037a90611d6a565b60405180910390fd5b6000600354905060006003819055506103a361039d610c19565b8261141e565b50565b6000600460003373ffffffffffffffffffffffffffffffffffffffff1673ffffffffffffffffffffffffffffffffffffffff16815260200190815260200160002060008373ffffffffffffffffffffffffffffffffffffffff1673ffffffffffffffffffffffffffffffffffffffff16815260200190815260200160002060405180604001604052908160008201548152602001600182015481525050905060008160200151826000015161045b9190612040565b905060008114156104a1576040517f08c379a000000000000000000000000000000000000000000000000000000000815260040161049890611d8a565b60405180910390fd5b600460003373ffffffffffffffffffffffffffffffffffffffff1673ffffffffffffffffffffffffffffffffffffffff16815260200190815260200160002060008473ffffffffffffffffffffffffffffffffffffffff1673ffffffffffffffffffffffffffffffffffffffff1681526020019081526020016000206000808201600090556001820160009055505061053a338261141e565b8273ffffffffffffffffffffffffffffffffffffffff163373ffffffffffffffffffffffffffffffffffffffff167fac86862bd75c1a456d082679c83d18254b660d83b51a9351d80f1bbff667e9f08460000151856020015160006040516105a493929190611e77565b60405180910390a3505050565b60606000835167ffffffffffffffff8111156105f6577f4e487b7100000000000000000000000000000000000000000000000000000000600052604160045260246000fd5b60405190808252806020026020018201604052801561062f57816020015b61061c611512565b8152602001906001900390816106145790505b50905060005b84518110156107b0576004600086838151811061067b577f4e487b7100000000000000000000000000000000000000000000000000000000600052603260045260246000fd5b602002602001015173ffffffffffffffffffffffffffffffffffffffff1673ffffffffffffffffffffffffffffffffffffffff16815260200190815260200160002060008583815181106106f8577f4e487b7100000000000000000000000000000000000000000000000000000000600052603260045260246000fd5b602002602001015173ffffffffffffffffffffffffffffffffffffffff1673ffffffffffffffffffffffffffffffffffffffff16815260200190815260200160002060405180604001604052908160008201548152602001600182015481525050828281518110610792577f4e487b7100000000000000000000000000000000000000000000000000000000600052603260045260246000fd5b602002602001018190525080806107a89061215f565b915050610635565b508091505092915050565b60025481565b600080600460008773ffffffffffffffffffffffffffffffffffffffff1673ffffffffffffffffffffffffffffffffffffffff16815260200190815260200160002060008673ffffffffffffffffffffffffffffffffffffffff1673ffffffffffffffffffffffffffffffffffffffff16815260200190815260200160002060405180604001604052908160008201548152602001600182015481525050905060008160200151116108a8576040517f08c379a000000000000000000000000000000000000000000000000000000000815260040161089f90611dca565b60405180910390fd5b82816000015110156108ef576040517f08c379a00000000000000000000000000000000000000000000000000000000081526004016108e690611d0a565b60405180910390fd5b60018160200151610900919061209a565b600460008873ffffffffffffffffffffffffffffffffffffffff1673ffffffffffffffffffffffffffffffffffffffff16815260200190815260200160002060008773ffffffffffffffffffffffffffffffffffffffff1673ffffffffffffffffffffffffffffffffffffffff168152602001908152602001600020600101819055506000612710600154836000015161099a9190612040565b6109a4919061200f565b905080600360008282546109b89190611fb9565b925050819055508573ffffffffffffffffffffffffffffffffffffffff166342842e0e3389886040518463ffffffff1660e01b81526004016109fc93929190611c2f565b600060405180830381600087803b158015610a1657600080fd5b505af1158015610a2a573d6000803e3d6000fd5b505050506000818360000151610a40919061209a565b9050610a4c338261141e565b8673ffffffffffffffffffffffffffffffffffffffff163373ffffffffffffffffffffffffffffffffffffffff168973ffffffffffffffffffffffffffffffffffffffff167f82e5eeacc4d7f1d267e5a406341bed50eebba642a88138ef034a9ccff864a99b866000015160018b604051610ac993929190611e40565b60405180910390a4809350505050949350505050565b610ae7611416565b73ffffffffffffffffffffffffffffffffffffffff16610b05610c19565b73ffffffffffffffffffffffffffffffffffffffff1614610b5b576040517f08c379a0000000000000000000000000000000000000000000000000000000008152600401610b5290611d6a565b60405180910390fd5b600073ffffffffffffffffffffffffffffffffffffffff1660008054906101000a900473ffffffffffffffffffffffffffffffffffffffff1673ffffffffffffffffffffffffffffffffffffffff167f8be0079c531659141344cd1fd0a4f28419497f9722a3daafe3b4186f6b6457e060405160405180910390a360008060006101000a81548173ffffffffffffffffffffffffffffffffffffffff021916908373ffffffffffffffffffffffffffffffffffffffff160217905550565b60008060009054906101000a900473ffffffffffffffffffffffffffffffffffffffff16905090565b610c4a611512565b600460008473ffffffffffffffffffffffffffffffffffffffff1673ffffffffffffffffffffffffffffffffffffffff16815260200190815260200160002060008373ffffffffffffffffffffffffffffffffffffffff1673ffffffffffffffffffffffffffffffffffffffff16815260200190815260200160002060405180604001604052908160008201548152602001600182015481525050905092915050565b610cf5611416565b73ffffffffffffffffffffffffffffffffffffffff16610d13610c19565b73ffffffffffffffffffffffffffffffffffffffff1614610d69576040517f08c379a0000000000000000000000000000000000000000000000000000000008152600401610d6090611d6a565b60405180910390fd5b600254811115610dae576040517f08c379a0000000000000000000000000000000000000000000000000000000008152600401610da590611dea565b60405180910390fd5b8060018190555050565b6000600460003373ffffffffffffffffffffffffffffffffffffffff1673ffffffffffffffffffffffffffffffffffffffff16815260200190815260200160002060008473ffffffffffffffffffffffffffffffffffffffff1673ffffffffffffffffffffffffffffffffffffffff1681526020019081526020016000206040518060400160405290816000820154815260200160018201548152505090506000816020015114610e9e576040517f08c379a0000000000000000000000000000000000000000000000000000000008152600401610e9590611d4a565b60405180910390fd5b60003411610ee1576040517f08c379a0000000000000000000000000000000000000000000000000000000008152600401610ed890611daa565b60405180910390fd5b60008234610eef919061200f565b905080600460003373ffffffffffffffffffffffffffffffffffffffff1673ffffffffffffffffffffffffffffffffffffffff16815260200190815260200160002060008673ffffffffffffffffffffffffffffffffffffffff1673ffffffffffffffffffffffffffffffffffffffff1681526020019081526020016000206000018190555082600460003373ffffffffffffffffffffffffffffffffffffffff1673ffffffffffffffffffffffffffffffffffffffff16815260200190815260200160002060008673ffffffffffffffffffffffffffffffffffffffff1673ffffffffffffffffffffffffffffffffffffffff168152602001908152602001600020600101819055508373ffffffffffffffffffffffffffffffffffffffff163373ffffffffffffffffffffffffffffffffffffffff167f911d834cc781bcb7a08922b9dd1f1d175c0a0467d9705194c2e200f8ce2786bb8386600060405161105b93929190611e77565b60405180910390a350505050565b611071611416565b73ffffffffffffffffffffffffffffffffffffffff1661108f610c19565b73ffffffffffffffffffffffffffffffffffffffff16146110e5576040517f08c379a00000000000000000000000000000000000000000000000000000000081526004016110dc90611d6a565b60405180910390fd5b600073ffffffffffffffffffffffffffffffffffffffff168173ffffffffffffffffffffffffffffffffffffffff161415611155576040517f08c379a000000000000000000000000000000000000000000000000000000000815260040161114c90611caa565b60405180910390fd5b8073ffffffffffffffffffffffffffffffffffffffff1660008054906101000a900473ffffffffffffffffffffffffffffffffffffffff1673ffffffffffffffffffffffffffffffffffffffff167f8be0079c531659141344cd1fd0a4f28419497f9722a3daafe3b4186f6b6457e060405160405180910390a3806000806101000a81548173ffffffffffffffffffffffffffffffffffffffff021916908373ffffffffffffffffffffffffffffffffffffffff16021790555050565b606082518551148015611226575081518351145b611265576040517f08c379a000000000000000000000000000000000000000000000000000000000815260040161125c90611d2a565b60405180910390fd5b6000855167ffffffffffffffff8111156112a8577f4e487b7100000000000000000000000000000000000000000000000000000000600052604160045260246000fd5b6040519080825280602002602001820160405280156112d65781602001602082028036833780820191505090505b50905060005b8651811015611409576113b1878281518110611321577f4e487b7100000000000000000000000000000000000000000000000000000000600052603260045260246000fd5b602002602001015187878481518110611363577f4e487b7100000000000000000000000000000000000000000000000000000000600052603260045260246000fd5b60200260200101518785815181106113a4577f4e487b7100000000000000000000000000000000000000000000000000000000600052603260045260246000fd5b60200260200101516107c1565b8282815181106113ea577f4e487b7100000000000000000000000000000000000000000000000000000000600052603260045260246000fd5b60200260200101818152505080806114019061215f565b9150506112dc565b5080915050949350505050565b600033905090565b80471015611461576040517f08c379a000000000000000000000000000000000000000000000000000000000815260040161145890611cea565b60405180910390fd5b60008273ffffffffffffffffffffffffffffffffffffffff168260405161148790611bff565b60006040518083038185875af1925050503d80600081146114c4576040519150601f19603f3d011682016040523d82523d6000602084013e6114c9565b606091505b505090508061150d576040517f08c379a000000000000000000000000000000000000000000000000000000000815260040161150490611cca565b60405180910390fd5b505050565b604051806040016040528060008152602001600081525090565b600061153f61153a84611ed3565b611eae565b9050808382526020820190508285602086028201111561155e57600080fd5b60005b8581101561158e57816115748882611604565b845260208401935060208301925050600181019050611561565b5050509392505050565b60006115ab6115a684611eff565b611eae565b905080838252602082019050828560208602820111156115ca57600080fd5b60005b858110156115fa57816115e0888261166d565b8452602084019350602083019250506001810190506115cd565b5050509392505050565b600081359050611613816124a4565b92915050565b600082601f83011261162a57600080fd5b813561163a84826020860161152c565b91505092915050565b600082601f83011261165457600080fd5b8135611664848260208601611598565b91505092915050565b60008135905061167c816124bb565b92915050565b60006020828403121561169457600080fd5b60006116a284828501611604565b91505092915050565b600080604083850312156116be57600080fd5b60006116cc85828601611604565b92505060206116dd85828601611604565b9150509250929050565b600080600080608085870312156116fd57600080fd5b600061170b87828801611604565b945050602061171c87828801611604565b935050604061172d8782880161166d565b925050606061173e8782880161166d565b91505092959194509250565b6000806040838503121561175d57600080fd5b600061176b85828601611604565b925050602061177c8582860161166d565b9150509250929050565b6000806000806080858703121561179c57600080fd5b600085013567ffffffffffffffff8111156117b657600080fd5b6117c287828801611619565b94505060206117d387828801611604565b935050604085013567ffffffffffffffff8111156117f057600080fd5b6117fc87828801611643565b925050606085013567ffffffffffffffff81111561181957600080fd5b61182587828801611643565b91505092959194509250565b6000806040838503121561184457600080fd5b600083013567ffffffffffffffff81111561185e57600080fd5b61186a85828601611619565b925050602083013567ffffffffffffffff81111561188757600080fd5b61189385828601611619565b9150509250929050565b6000602082840312156118af57600080fd5b60006118bd8482850161166d565b91505092915050565b60006118d28383611b83565b60408301905092915050565b60006118ea8383611be1565b60208301905092915050565b6118ff816120ce565b82525050565b600061191082611f4b565b61191a8185611f7b565b935061192583611f2b565b8060005b8381101561195657815161193d88826118c6565b975061194883611f61565b925050600181019050611929565b5085935050505092915050565b600061196e82611f56565b6119788185611f8c565b935061198383611f3b565b8060005b838110156119b457815161199b88826118de565b97506119a683611f6e565b925050600181019050611987565b5085935050505092915050565b6119ca8161210a565b82525050565b6119d98161211c565b82525050565b60006119ec602683611fa8565b91506119f782612246565b604082019050919050565b6000611a0f603a83611fa8565b9150611a1a82612295565b604082019050919050565b6000611a32601d83611fa8565b9150611a3d826122e4565b602082019050919050565b6000611a55601483611fa8565b9150611a608261230d565b602082019050919050565b6000611a78601983611fa8565b9150611a8382612336565b602082019050919050565b6000611a9b602d83611fa8565b9150611aa68261235f565b604082019050919050565b6000611abe602083611fa8565b9150611ac9826123ae565b602082019050919050565b6000611ae1602a83611fa8565b9150611aec826123d7565b604082019050919050565b6000611b04600083611f9d565b9150611b0f82612426565b600082019050919050565b6000611b27601c83611fa8565b9150611b3282612429565b602082019050919050565b6000611b4a601883611fa8565b9150611b5582612452565b602082019050919050565b6000611b6d601c83611fa8565b9150611b788261247b565b602082019050919050565b604082016000820151611b996000850182611be1565b506020820151611bac6020850182611be1565b50505050565b604082016000820151611bc86000850182611be1565b506020820151611bdb6020850182611be1565b50505050565b611bea81612100565b82525050565b611bf981612100565b82525050565b6000611c0a82611af7565b9150819050919050565b6000602082019050611c2960008301846118f6565b92915050565b6000606082019050611c4460008301866118f6565b611c5160208301856118f6565b611c5e6040830184611bf0565b949350505050565b60006020820190508181036000830152611c808184611905565b905092915050565b60006020820190508181036000830152611ca28184611963565b905092915050565b60006020820190508181036000830152611cc3816119df565b9050919050565b60006020820190508181036000830152611ce381611a02565b9050919050565b60006020820190508181036000830152611d0381611a25565b9050919050565b60006020820190508181036000830152611d2381611a48565b9050919050565b60006020820190508181036000830152611d4381611a6b565b9050919050565b60006020820190508181036000830152611d6381611a8e565b9050919050565b60006020820190508181036000830152611d8381611ab1565b9050919050565b60006020820190508181036000830152611da381611ad4565b9050919050565b60006020820190508181036000830152611dc381611b1a565b9050919050565b60006020820190508181036000830152611de381611b3d565b9050919050565b60006020820190508181036000830152611e0381611b60565b9050919050565b6000604082019050611e1f6000830184611bb2565b92915050565b6000602082019050611e3a6000830184611bf0565b92915050565b6000606082019050611e556000830186611bf0565b611e6260208301856119d0565b611e6f6040830184611bf0565b949350505050565b6000606082019050611e8c6000830186611bf0565b611e996020830185611bf0565b611ea660408301846119c1565b949350505050565b6000611eb8611ec9565b9050611ec4828261212e565b919050565b6000604051905090565b600067ffffffffffffffff821115611eee57611eed612206565b5b602082029050602081019050919050565b600067ffffffffffffffff821115611f1a57611f19612206565b5b602082029050602081019050919050565b6000819050602082019050919050565b6000819050602082019050919050565b600081519050919050565b600081519050919050565b6000602082019050919050565b6000602082019050919050565b600082825260208201905092915050565b600082825260208201905092915050565b600081905092915050565b600082825260208201905092915050565b6000611fc482612100565b9150611fcf83612100565b9250827fffffffffffffffffffffffffffffffffffffffffffffffffffffffffffffffff03821115612004576120036121a8565b5b828201905092915050565b600061201a82612100565b915061202583612100565b925082612035576120346121d7565b5b828204905092915050565b600061204b82612100565b915061205683612100565b9250817fffffffffffffffffffffffffffffffffffffffffffffffffffffffffffffffff048311821515161561208f5761208e6121a8565b5b828202905092915050565b60006120a582612100565b91506120b083612100565b9250828210156120c3576120c26121a8565b5b828203905092915050565b60006120d9826120e0565b9050919050565b600073ffffffffffffffffffffffffffffffffffffffff82169050919050565b6000819050919050565b600061211582612100565b9050919050565b600061212782612100565b9050919050565b61213782612235565b810181811067ffffffffffffffff8211171561215657612155612206565b5b80604052505050565b600061216a82612100565b91507fffffffffffffffffffffffffffffffffffffffffffffffffffffffffffffffff82141561219d5761219c6121a8565b5b600182019050919050565b7f4e487b7100000000000000000000000000000000000000000000000000000000600052601160045260246000fd5b7f4e487b7100000000000000000000000000000000000000000000000000000000600052601260045260246000fd5b7f4e487b7100000000000000000000000000000000000000000000000000000000600052604160045260246000fd5b6000601f19601f8301169050919050565b7f4f776e61626c653a206e6577206f776e657220697320746865207a65726f206160008201527f6464726573730000000000000000000000000000000000000000000000000000602082015250565b7f416464726573733a20756e61626c6520746f2073656e642076616c75652c207260008201527f6563697069656e74206d61792068617665207265766572746564000000000000602082015250565b7f416464726573733a20696e73756666696369656e742062616c616e6365000000600082015250565b7f42696420697320696e73756666696369656e742e000000000000000000000000600082015250565b7f4d69736d61746368696e67206172726179206c656e6774687300000000000000600082015250565b7f43616e63656c206578697374696e6720626964206265666f726520706c61636960008201527f6e672061206e6577206f6e652e00000000000000000000000000000000000000602082015250565b7f4f776e61626c653a2063616c6c6572206973206e6f7420746865206f776e6572600082015250565b7f596f752068617665206e6f206c697665206269647320666f722074686973206360008201527f6f6c6c656374696f6e2e00000000000000000000000000000000000000000000602082015250565b50565b7f4269642076616c7565206d757374206578636565642030204554482e00000000600082015250565b7f546869732062696420646f6573206e6f742065786973742e0000000000000000600082015250565b7f43616e6e6f7420657863656564206d6178506c6174666f726d46656500000000600082015250565b6124ad816120ce565b81146124b857600080fd5b50565b6124c481612100565b81146124cf57600080fd5b5056fea2646970667358221220db3ac970ee80dc39a03c951b19b7f7437fe294d4b7a81c17d720c38ec7b010cc64736f6c63430008030033",
  "linkReferences": {},
  "deployedLinkReferences": {}
}