{
  "contractName": "CreatorTokenFees",
  "abi": [
    {
      "inputs": [
        {
          "internalType": "string",
          "name": "uri",
          "type": "string"
        }
      ],
      "stateMutability": "nonpayable",
      "type": "constructor"
    },
    {
      "anonymous": false,
      "inputs": [
        {
          "indexed": true,
          "internalType": "address",
          "name": "account",
          "type": "address"
        },
        {
          "indexed": true,
          "internalType": "address",
          "name": "operator",
          "type": "address"
        },
        {
          "indexed": false,
          "internalType": "bool",
          "name": "approved",
          "type": "bool"
        }
      ],
      "name": "ApprovalForAll",
      "type": "event"
    },
    {
      "anonymous": false,
      "inputs": [
        {
          "indexed": false,
          "internalType": "uint256",
          "name": "tokenId",
          "type": "uint256"
        },
        {
          "indexed": false,
          "internalType": "address payable",
          "name": "creatorAddress",
          "type": "address"
        },
        {
          "indexed": false,
          "internalType": "string",
          "name": "name",
          "type": "string"
        },
        {
          "indexed": false,
          "internalType": "string",
          "name": "symbol",
          "type": "string"
        },
        {
          "indexed": false,
          "internalType": "string",
          "name": "description",
          "type": "string"
        },
        {
          "indexed": false,
          "internalType": "bool",
          "name": "verified",
          "type": "bool"
        },
        {
          "indexed": false,
          "internalType": "uint256",
          "name": "outstanding",
          "type": "uint256"
        },
        {
          "indexed": false,
          "internalType": "uint256",
          "name": "maxSupply",
          "type": "uint256"
        }
      ],
      "name": "NewCreatorToken",
      "type": "event"
    },
    {
      "anonymous": false,
      "inputs": [
        {
          "indexed": true,
          "internalType": "address",
          "name": "previousOwner",
          "type": "address"
        },
        {
          "indexed": true,
          "internalType": "address",
          "name": "newOwner",
          "type": "address"
        }
      ],
      "name": "OwnershipTransferred",
      "type": "event"
    },
    {
      "anonymous": false,
      "inputs": [
        {
          "indexed": true,
          "internalType": "address",
          "name": "operator",
          "type": "address"
        },
        {
          "indexed": true,
          "internalType": "address",
          "name": "from",
          "type": "address"
        },
        {
          "indexed": true,
          "internalType": "address",
          "name": "to",
          "type": "address"
        },
        {
          "indexed": false,
          "internalType": "uint256[]",
          "name": "ids",
          "type": "uint256[]"
        },
        {
          "indexed": false,
          "internalType": "uint256[]",
          "name": "values",
          "type": "uint256[]"
        }
      ],
      "name": "TransferBatch",
      "type": "event"
    },
    {
      "anonymous": false,
      "inputs": [
        {
          "indexed": true,
          "internalType": "address",
          "name": "operator",
          "type": "address"
        },
        {
          "indexed": true,
          "internalType": "address",
          "name": "from",
          "type": "address"
        },
        {
          "indexed": true,
          "internalType": "address",
          "name": "to",
          "type": "address"
        },
        {
          "indexed": false,
          "internalType": "uint256",
          "name": "id",
          "type": "uint256"
        },
        {
          "indexed": false,
          "internalType": "uint256",
          "name": "value",
          "type": "uint256"
        }
      ],
      "name": "TransferSingle",
      "type": "event"
    },
    {
      "anonymous": false,
      "inputs": [
        {
          "indexed": false,
          "internalType": "string",
          "name": "value",
          "type": "string"
        },
        {
          "indexed": true,
          "internalType": "uint256",
          "name": "id",
          "type": "uint256"
        }
      ],
      "name": "URI",
      "type": "event"
    },
    {
      "inputs": [
        {
          "internalType": "uint256",
          "name": "_startingSupply",
          "type": "uint256"
        },
        {
          "internalType": "uint256",
          "name": "_amount",
          "type": "uint256"
        },
        {
          "internalType": "uint256",
          "name": "_mNumerator",
          "type": "uint256"
        },
        {
          "internalType": "uint256",
          "name": "_mDenominator",
          "type": "uint256"
        },
        {
          "internalType": "uint256",
          "name": "_maxSupply",
          "type": "uint256"
        },
        {
          "internalType": "uint256",
          "name": "_profitMargin",
          "type": "uint256"
        }
      ],
      "name": "_saleFunction",
      "outputs": [
        {
          "internalType": "uint256",
          "name": "",
          "type": "uint256"
        }
      ],
      "stateMutability": "pure",
      "type": "function"
    },
    {
      "inputs": [
        {
          "internalType": "address",
          "name": "",
          "type": "address"
        },
        {
          "internalType": "address",
          "name": "",
          "type": "address"
        }
      ],
      "name": "approvals",
      "outputs": [
        {
          "internalType": "bool",
          "name": "",
          "type": "bool"
        }
      ],
      "stateMutability": "view",
      "type": "function"
    },
    {
      "inputs": [
        {
          "internalType": "address",
          "name": "account",
          "type": "address"
        },
        {
          "internalType": "uint256",
          "name": "id",
          "type": "uint256"
        }
      ],
      "name": "balanceOf",
      "outputs": [
        {
          "internalType": "uint256",
          "name": "",
          "type": "uint256"
        }
      ],
      "stateMutability": "view",
      "type": "function"
    },
    {
      "inputs": [
        {
          "internalType": "address[]",
          "name": "accounts",
          "type": "address[]"
        },
        {
          "internalType": "uint256[]",
          "name": "ids",
          "type": "uint256[]"
        }
      ],
      "name": "balanceOfBatch",
      "outputs": [
        {
          "internalType": "uint256[]",
          "name": "",
          "type": "uint256[]"
        }
      ],
      "stateMutability": "view",
      "type": "function"
    },
    {
      "inputs": [
        {
          "internalType": "uint256",
          "name": "_tokenId",
          "type": "uint256"
        },
        {
          "internalType": "address payable",
          "name": "_newCreatorAddress",
          "type": "address"
        }
      ],
      "name": "changeAddress",
      "outputs": [],
      "stateMutability": "nonpayable",
      "type": "function"
    },
    {
      "inputs": [
        {
          "internalType": "uint256",
          "name": "_tokenId",
          "type": "uint256"
        },
        {
          "internalType": "string",
          "name": "_newDescription",
          "type": "string"
        }
      ],
      "name": "changeDescription",
      "outputs": [],
      "stateMutability": "nonpayable",
      "type": "function"
    },
    {
      "inputs": [
        {
          "internalType": "uint256",
          "name": "_tokenId",
          "type": "uint256"
        },
        {
          "internalType": "string",
          "name": "_newName",
          "type": "string"
        }
      ],
      "name": "changeName",
      "outputs": [],
      "stateMutability": "nonpayable",
      "type": "function"
    },
    {
      "inputs": [
        {
          "internalType": "uint256",
          "name": "_newPlatformFee",
          "type": "uint256"
        }
      ],
      "name": "changePlatformFee",
      "outputs": [],
      "stateMutability": "nonpayable",
      "type": "function"
    },
    {
      "inputs": [
        {
          "internalType": "uint256",
          "name": "_newProfitMargin",
          "type": "uint256"
        }
      ],
      "name": "changeProfitMargin",
      "outputs": [],
      "stateMutability": "nonpayable",
      "type": "function"
    },
    {
      "inputs": [
        {
          "internalType": "uint256",
          "name": "_tokenId",
          "type": "uint256"
        },
        {
          "internalType": "string",
          "name": "_newSymbol",
          "type": "string"
        }
      ],
      "name": "changeSymbol",
      "outputs": [],
      "stateMutability": "nonpayable",
      "type": "function"
    },
    {
      "inputs": [
        {
          "internalType": "uint256",
          "name": "_tokenId",
          "type": "uint256"
        },
        {
          "internalType": "bool",
          "name": "_verified",
          "type": "bool"
        }
      ],
      "name": "changeVerification",
      "outputs": [],
      "stateMutability": "nonpayable",
      "type": "function"
    },
    {
      "inputs": [
        {
          "internalType": "address payable",
          "name": "_creatorAddress",
          "type": "address"
        },
        {
          "internalType": "string",
          "name": "_name",
          "type": "string"
        },
        {
          "internalType": "string",
          "name": "_symbol",
          "type": "string"
        },
        {
          "internalType": "string",
          "name": "_description",
          "type": "string"
        }
      ],
      "name": "createCreatorToken",
      "outputs": [],
      "stateMutability": "nonpayable",
      "type": "function"
    },
    {
      "inputs": [
        {
          "internalType": "uint256",
          "name": "",
          "type": "uint256"
        }
      ],
      "name": "creatorTokens",
      "outputs": [
        {
          "internalType": "address payable",
          "name": "creatorAddress",
          "type": "address"
        },
        {
          "internalType": "string",
          "name": "name",
          "type": "string"
        },
        {
          "internalType": "string",
          "name": "symbol",
          "type": "string"
        },
        {
          "internalType": "string",
          "name": "description",
          "type": "string"
        },
        {
          "internalType": "bool",
          "name": "verified",
          "type": "bool"
        },
        {
          "internalType": "uint256",
          "name": "outstanding",
          "type": "uint256"
        },
        {
          "internalType": "uint256",
          "name": "maxSupply",
          "type": "uint256"
        },
        {
          "internalType": "uint256",
          "name": "lastPrice",
          "type": "uint256"
        },
        {
          "internalType": "uint256",
          "name": "creatorTokenId",
          "type": "uint256"
        }
      ],
      "stateMutability": "view",
      "type": "function"
    },
    {
      "inputs": [],
      "name": "getCreatorTokenCount",
      "outputs": [
        {
          "internalType": "uint256",
          "name": "",
          "type": "uint256"
        }
      ],
      "stateMutability": "view",
      "type": "function"
    },
    {
      "inputs": [
        {
          "internalType": "address",
          "name": "_account",
          "type": "address"
        },
        {
          "internalType": "address",
          "name": "_operator",
          "type": "address"
        }
      ],
      "name": "isApprovedForAll",
      "outputs": [
        {
          "internalType": "bool",
          "name": "",
          "type": "bool"
        }
      ],
      "stateMutability": "view",
      "type": "function"
    },
    {
      "inputs": [],
      "name": "numCreatorTokens",
      "outputs": [
        {
          "internalType": "uint256",
          "name": "",
          "type": "uint256"
        }
      ],
      "stateMutability": "view",
      "type": "function"
    },
    {
      "inputs": [],
      "name": "owner",
      "outputs": [
        {
          "internalType": "address",
          "name": "",
          "type": "address"
        }
      ],
      "stateMutability": "view",
      "type": "function"
    },
    {
      "inputs": [
        {
          "internalType": "address payable",
          "name": "_owner",
          "type": "address"
        }
      ],
      "name": "payoutPlatformFees",
      "outputs": [],
      "stateMutability": "nonpayable",
      "type": "function"
    },
    {
      "inputs": [],
      "name": "platformFeesOwed",
      "outputs": [
        {
          "internalType": "uint256",
          "name": "",
          "type": "uint256"
        }
      ],
      "stateMutability": "view",
      "type": "function"
    },
    {
      "inputs": [],
      "name": "renounceOwnership",
      "outputs": [],
      "stateMutability": "nonpayable",
      "type": "function"
    },
    {
      "inputs": [
        {
          "internalType": "address",
          "name": "_from",
          "type": "address"
        },
        {
          "internalType": "address",
          "name": "_to",
          "type": "address"
        },
        {
          "internalType": "uint256[]",
          "name": "_ids",
          "type": "uint256[]"
        },
        {
          "internalType": "uint256[]",
          "name": "_amounts",
          "type": "uint256[]"
        },
        {
          "internalType": "bytes",
          "name": "_data",
          "type": "bytes"
        }
      ],
      "name": "safeBatchTransferFrom",
      "outputs": [],
      "stateMutability": "nonpayable",
      "type": "function"
    },
    {
      "inputs": [
        {
          "internalType": "address",
          "name": "_from",
          "type": "address"
        },
        {
          "internalType": "address",
          "name": "_to",
          "type": "address"
        },
        {
          "internalType": "uint256",
          "name": "_id",
          "type": "uint256"
        },
        {
          "internalType": "uint256",
          "name": "_amount",
          "type": "uint256"
        },
        {
          "internalType": "bytes",
          "name": "_data",
          "type": "bytes"
        }
      ],
      "name": "safeTransferFrom",
      "outputs": [],
      "stateMutability": "nonpayable",
      "type": "function"
    },
    {
      "inputs": [
        {
          "internalType": "address",
          "name": "_operator",
          "type": "address"
        },
        {
          "internalType": "bool",
          "name": "_approved",
          "type": "bool"
        }
      ],
      "name": "setApprovalForAll",
      "outputs": [],
      "stateMutability": "nonpayable",
      "type": "function"
    },
    {
      "inputs": [
        {
          "internalType": "bytes4",
          "name": "interfaceId",
          "type": "bytes4"
        }
      ],
      "name": "supportsInterface",
      "outputs": [
        {
          "internalType": "bool",
          "name": "",
          "type": "bool"
        }
      ],
      "stateMutability": "view",
      "type": "function"
    },
    {
      "inputs": [
        {
          "internalType": "uint256",
          "name": "",
          "type": "uint256"
        },
        {
          "internalType": "address",
          "name": "",
          "type": "address"
        }
      ],
      "name": "tokenHoldership",
      "outputs": [
        {
          "internalType": "uint256",
          "name": "",
          "type": "uint256"
        }
      ],
      "stateMutability": "view",
      "type": "function"
    },
    {
      "inputs": [
        {
          "internalType": "uint256",
          "name": "",
          "type": "uint256"
        }
      ],
      "name": "tokenToCreator",
      "outputs": [
        {
          "internalType": "address",
          "name": "",
          "type": "address"
        }
      ],
      "stateMutability": "view",
      "type": "function"
    },
    {
      "inputs": [
        {
          "internalType": "uint256",
          "name": "",
          "type": "uint256"
        }
      ],
      "name": "tokenValueTransferred",
      "outputs": [
        {
          "internalType": "uint256",
          "name": "",
          "type": "uint256"
        }
      ],
      "stateMutability": "view",
      "type": "function"
    },
    {
      "inputs": [],
      "name": "totalPlatformFees",
      "outputs": [
        {
          "internalType": "uint256",
          "name": "",
          "type": "uint256"
        }
      ],
      "stateMutability": "view",
      "type": "function"
    },
    {
      "inputs": [
        {
          "internalType": "uint256",
          "name": "",
          "type": "uint256"
        }
      ],
      "name": "totalValueLocked",
      "outputs": [
        {
          "internalType": "uint256",
          "name": "",
          "type": "uint256"
        }
      ],
      "stateMutability": "view",
      "type": "function"
    },
    {
      "inputs": [
        {
          "internalType": "address",
          "name": "newOwner",
          "type": "address"
        }
      ],
      "name": "transferOwnership",
      "outputs": [],
      "stateMutability": "nonpayable",
      "type": "function"
    },
    {
      "inputs": [
        {
          "internalType": "uint256",
          "name": "",
          "type": "uint256"
        }
      ],
      "name": "uri",
      "outputs": [
        {
          "internalType": "string",
          "name": "",
          "type": "string"
        }
      ],
      "stateMutability": "view",
      "type": "function"
    },
    {
      "inputs": [
        {
          "internalType": "address",
          "name": "",
          "type": "address"
        },
        {
          "internalType": "uint256",
          "name": "",
          "type": "uint256"
        }
      ],
      "name": "userToHoldings",
      "outputs": [
        {
          "internalType": "uint256",
          "name": "",
          "type": "uint256"
        }
      ],
      "stateMutability": "view",
      "type": "function"
    },
    {
      "inputs": [
        {
          "internalType": "address payable",
          "name": "_owner",
          "type": "address"
        }
      ],
      "name": "withdraw",
      "outputs": [],
      "stateMutability": "nonpayable",
      "type": "function"
    },
    {
      "inputs": [
        {
          "internalType": "uint256",
          "name": "_proceedsRequired",
          "type": "uint256"
        }
      ],
      "name": "_feeProceeds",
      "outputs": [
        {
          "internalType": "uint256",
          "name": "",
          "type": "uint256"
        }
      ],
      "stateMutability": "view",
      "type": "function"
    }
  ],
  "bytecode": "0x608060405260018055600060025560006003556000600455601460055565082f79cd900060065560b96007553480156200003857600080fd5b5060405162003b9438038062003b9483398181016040528101906200005e91906200027e565b8080806000620000736200012c60201b60201c565b9050806000806101000a81548173ffffffffffffffffffffffffffffffffffffffff021916908373ffffffffffffffffffffffffffffffffffffffff1602179055508073ffffffffffffffffffffffffffffffffffffffff16600073ffffffffffffffffffffffffffffffffffffffff167f8be0079c531659141344cd1fd0a4f28419497f9722a3daafe3b4186f6b6457e060405160405180910390a35062000122816200013460201b60201c565b5050505062000453565b600033905090565b80601190805190602001906200014c92919062000150565b5050565b8280546200015e9062000364565b90600052602060002090601f016020900481019282620001825760008555620001ce565b82601f106200019d57805160ff1916838001178555620001ce565b82800160010185558215620001ce579182015b82811115620001cd578251825591602001919060010190620001b0565b5b509050620001dd9190620001e1565b5090565b5b80821115620001fc576000816000905550600101620001e2565b5090565b6000620002176200021184620002f8565b620002cf565b90508281526020810184848401111562000236576200023562000433565b5b620002438482856200032e565b509392505050565b600082601f8301126200026357620002626200042e565b5b81516200027584826020860162000200565b91505092915050565b6000602082840312156200029757620002966200043d565b5b600082015167ffffffffffffffff811115620002b857620002b762000438565b5b620002c6848285016200024b565b91505092915050565b6000620002db620002ee565b9050620002e982826200039a565b919050565b6000604051905090565b600067ffffffffffffffff821115620003165762000315620003ff565b5b620003218262000442565b9050602081019050919050565b60005b838110156200034e57808201518184015260208101905062000331565b838111156200035e576000848401525b50505050565b600060028204905060018216806200037d57607f821691505b60208210811415620003945762000393620003d0565b5b50919050565b620003a58262000442565b810181811067ffffffffffffffff82111715620003c757620003c6620003ff565b5b80604052505050565b7f4e487b7100000000000000000000000000000000000000000000000000000000600052602260045260246000fd5b7f4e487b7100000000000000000000000000000000000000000000000000000000600052604160045260246000fd5b600080fd5b600080fd5b600080fd5b600080fd5b6000601f19601f8301169050919050565b61373180620004636000396000f3fe608060405234801561001057600080fd5b50600436106102055760003560e01c8063ba111a051161011a578063d7a5791a116100ad578063e985e9c51161007c578063e985e9c51461063a578063eb8417591461066a578063f242432a14610686578063f2fde38b146106a2578063f7374e2e146106be57610205565b8063d7a5791a146105a2578063d9bd3a40146105be578063de6a06ed146105ee578063df3c00b11461060a57610205565b8063c539c317116100e9578063c539c31714610514578063ce901d8a14610530578063d3631fa514610568578063d56b72c71461058657610205565b8063ba111a051461047a578063bfb48c9c146104aa578063c1d33049146104da578063c39cbef1146104f857610205565b80632eb2c2d61161019d5780638da5cb5b1161016c5780638da5cb5b146103c257806392724afa146103e0578063a22cb46514610410578063a32ce11e1461042c578063afb218321461045c57610205565b80632eb2c2d6146103505780634e1273f41461036c57806351cff8d91461039c578063715018a6146103b857610205565b806317bcaa08116101d957806317bcaa08146102b657806318892ae8146102e65780631d5ad18b146103165780632a2b237c1461033257610205565b8062fdd58e1461020a57806301ffc9a71461023a57806306e320f51461026a5780630e89341c14610286575b600080fd5b610224600480360381019061021f919061298b565b6106da565b6040516102319190612fb2565b60405180910390f35b610254600480360381019061024f9190612a43565b6107a4565b6040516102619190612ef5565b60405180910390f35b610284600480360381019061027f9190612b5d565b610886565b005b6102a0600480360381019061029b9190612a70565b61092d565b6040516102ad9190612f10565b60405180910390f35b6102d060048036038101906102cb9190612a70565b6109c1565b6040516102dd9190612fb2565b60405180910390f35b61030060048036038101906102fb9190612a70565b6109d9565b60405161030d9190612ddf565b60405180910390f35b610330600480360381019061032b9190612add565b610a0c565b005b61033a610ae1565b6040516103479190612fb2565b60405180910390f35b61036a600480360381019061036591906127e5565b610aee565b005b610386600480360381019061038191906129cb565b610c5a565b6040516103939190612e9c565b60405180910390f35b6103b660048036038101906103b191906126bd565b610d73565b005b6103c0610e39565b005b6103ca610f73565b6040516103d79190612ddf565b60405180910390f35b6103fa60048036038101906103f5919061298b565b610f9c565b6040516104079190612fb2565b60405180910390f35b61042a6004803603810190610425919061294b565b610fc1565b005b610446600480360381019061044191906127a5565b6110be565b6040516104539190612ef5565b60405180910390f35b6104646110ed565b6040516104719190612fb2565b60405180910390f35b610494600480360381019061048f9190612a70565b6110f3565b6040516104a19190612fb2565b60405180910390f35b6104c460048036038101906104bf9190612a9d565b611116565b6040516104d19190612fb2565b60405180910390f35b6104e261113b565b6040516104ef9190612fb2565b60405180910390f35b610512600480360381019061050d9190612b5d565b611141565b005b61052e60048036038101906105299190612a70565b6111e8565b005b61054a60048036038101906105459190612a70565b61126e565b60405161055f99989796959493929190612dfa565b60405180910390f35b610570611491565b60405161057d9190612fb2565b60405180910390f35b6105a0600480360381019061059b91906126ea565b611497565b005b6105bc60048036038101906105b79190612a70565b6116ca565b005b6105d860048036038101906105d39190612a70565b611750565b6040516105e59190612fb2565b60405180910390f35b61060860048036038101906106039190612b5d565b611768565b005b610624600480360381019061061f9190612bbd565b61180f565b6040516106319190612fb2565b60405180910390f35b610654600480360381019061064f91906127a5565b611888565b6040516106619190612ef5565b60405180910390f35b610684600480360381019061067f91906126bd565b61191c565b005b6106a0600480360381019061069b91906128b4565b6119ec565b005b6106bc60048036038101906106b79190612690565b611ad0565b005b6106d860048036038101906106d39190612b1d565b611c79565b005b60008073ffffffffffffffffffffffffffffffffffffffff168373ffffffffffffffffffffffffffffffffffffffff16141561074b576040517f08c379a000000000000000000000000000000000000000000000000000000000815260040161074290612f32565b60405180910390fd5b600f600083815260200190815260200160002060008473ffffffffffffffffffffffffffffffffffffffff1673ffffffffffffffffffffffffffffffffffffffff16815260200190815260200160002054905092915050565b60007fd9b67a26000000000000000000000000000000000000000000000000000000007bffffffffffffffffffffffffffffffffffffffffffffffffffffffff1916827bffffffffffffffffffffffffffffffffffffffffffffffffffffffff1916148061086f57507f0e89341c000000000000000000000000000000000000000000000000000000007bffffffffffffffffffffffffffffffffffffffffffffffffffffffff1916827bffffffffffffffffffffffffffffffffffffffffffffffffffffffff1916145b8061087f575061087e82611d36565b5b9050919050565b826009600082815260200190815260200160002060009054906101000a900473ffffffffffffffffffffffffffffffffffffffff1673ffffffffffffffffffffffffffffffffffffffff163373ffffffffffffffffffffffffffffffffffffffff16146108f257600080fd5b828260088681548110610908576109076134e5565b5b9060005260206000209060090201600201919061092692919061228c565b5050505050565b60606011805461093c906133ac565b80601f0160208091040260200160405190810160405280929190818152602001828054610968906133ac565b80156109b55780601f1061098a576101008083540402835291602001916109b5565b820191906000526020600020905b81548152906001019060200180831161099857829003601f168201915b50505050509050919050565b600a6020528060005260406000206000915090505481565b60096020528060005260406000206000915054906101000a900473ffffffffffffffffffffffffffffffffffffffff1681565b816009600082815260200190815260200160002060009054906101000a900473ffffffffffffffffffffffffffffffffffffffff1673ffffffffffffffffffffffffffffffffffffffff163373ffffffffffffffffffffffffffffffffffffffff1614610a7857600080fd5b8160088481548110610a8d57610a8c6134e5565b5b906000526020600020906009020160000160006101000a81548173ffffffffffffffffffffffffffffffffffffffff021916908373ffffffffffffffffffffffffffffffffffffffff160217905550505050565b6000600880549050905090565b60005b8351811015610bd4578573ffffffffffffffffffffffffffffffffffffffff163373ffffffffffffffffffffffffffffffffffffffff161480610b3a5750610b398686611888565b5b610b4357600080fd5b610b8286858381518110610b5a57610b596134e5565b5b6020026020010151858481518110610b7557610b746134e5565b5b6020026020010151611da0565b610bc185858381518110610b9957610b986134e5565b5b6020026020010151858481518110610bb457610bb36134e5565b5b6020026020010151611e73565b8080610bcc9061340f565b915050610af1565b508373ffffffffffffffffffffffffffffffffffffffff168573ffffffffffffffffffffffffffffffffffffffff163373ffffffffffffffffffffffffffffffffffffffff167f4a39dc06d4c0dbc64b70af90fd698a233a518aa5d07e595d983b8c0526c8f7fb8686604051610c4b929190612ebe565b60405180910390a45050505050565b60608151835114610ca0576040517f08c379a0000000000000000000000000000000000000000000000000000000008152600401610c9790612f92565b60405180910390fd5b6000835167ffffffffffffffff811115610cbd57610cbc613514565b5b604051908082528060200260200182016040528015610ceb5781602001602082028036833780820191505090505b50905060005b8451811015610d6857610d38858281518110610d1057610d0f6134e5565b5b6020026020010151858381518110610d2b57610d2a6134e5565b5b60200260200101516106da565b828281518110610d4b57610d4a6134e5565b5b60200260200101818152505080610d619061340f565b9050610cf1565b508091505092915050565b610d7b611f46565b73ffffffffffffffffffffffffffffffffffffffff16610d99610f73565b73ffffffffffffffffffffffffffffffffffffffff1614610def576040517f08c379a0000000000000000000000000000000000000000000000000000000008152600401610de690612f72565b60405180910390fd5b8073ffffffffffffffffffffffffffffffffffffffff166108fc479081150290604051600060405180830381858888f19350505050158015610e35573d6000803e3d6000fd5b5050565b610e41611f46565b73ffffffffffffffffffffffffffffffffffffffff16610e5f610f73565b73ffffffffffffffffffffffffffffffffffffffff1614610eb5576040517f08c379a0000000000000000000000000000000000000000000000000000000008152600401610eac90612f72565b60405180910390fd5b600073ffffffffffffffffffffffffffffffffffffffff1660008054906101000a900473ffffffffffffffffffffffffffffffffffffffff1673ffffffffffffffffffffffffffffffffffffffff167f8be0079c531659141344cd1fd0a4f28419497f9722a3daafe3b4186f6b6457e060405160405180910390a360008060006101000a81548173ffffffffffffffffffffffffffffffffffffffff021916908373ffffffffffffffffffffffffffffffffffffffff160217905550565b60008060009054906101000a900473ffffffffffffffffffffffffffffffffffffffff16905090565b600c602052816000526040600020602052806000526040600020600091509150505481565b80600d60003373ffffffffffffffffffffffffffffffffffffffff1673ffffffffffffffffffffffffffffffffffffffff16815260200190815260200160002060008473ffffffffffffffffffffffffffffffffffffffff1673ffffffffffffffffffffffffffffffffffffffff16815260200190815260200160002060006101000a81548160ff0219169083151502179055508173ffffffffffffffffffffffffffffffffffffffff163373ffffffffffffffffffffffffffffffffffffffff167f17307eab39ab6107e8899845ad3d59bd9653f200f220920489ca2b5937696c31836040516110b29190612ef5565b60405180910390a35050565b600d6020528160005260406000206020528060005260406000206000915091509054906101000a900460ff1681565b60045481565b60006064600154836111059190613244565b61110f9190613213565b9050919050565b600b602052816000526040600020602052806000526040600020600091509150505481565b60035481565b826009600082815260200190815260200160002060009054906101000a900473ffffffffffffffffffffffffffffffffffffffff1673ffffffffffffffffffffffffffffffffffffffff163373ffffffffffffffffffffffffffffffffffffffff16146111ad57600080fd5b8282600886815481106111c3576111c26134e5565b5b906000526020600020906009020160010191906111e192919061228c565b5050505050565b6111f0611f46565b73ffffffffffffffffffffffffffffffffffffffff1661120e610f73565b73ffffffffffffffffffffffffffffffffffffffff1614611264576040517f08c379a000000000000000000000000000000000000000000000000000000000815260040161125b90612f72565b60405180910390fd5b8060058190555050565b6008818154811061127e57600080fd5b90600052602060002090600902016000915090508060000160009054906101000a900473ffffffffffffffffffffffffffffffffffffffff16908060010180546112c7906133ac565b80601f01602080910402602001604051908101604052809291908181526020018280546112f3906133ac565b80156113405780601f1061131557610100808354040283529160200191611340565b820191906000526020600020905b81548152906001019060200180831161132357829003601f168201915b505050505090806002018054611355906133ac565b80601f0160208091040260200160405190810160405280929190818152602001828054611381906133ac565b80156113ce5780601f106113a3576101008083540402835291602001916113ce565b820191906000526020600020905b8154815290600101906020018083116113b157829003601f168201915b5050505050908060030180546113e3906133ac565b80601f016020809104026020016040519081016040528092919081815260200182805461140f906133ac565b801561145c5780601f106114315761010080835404028352916020019161145c565b820191906000526020600020905b81548152906001019060200180831161143f57829003601f168201915b5050505050908060040160009054906101000a900460ff16908060050154908060060154908060070154908060080154905089565b60025481565b6000600880549050905060086040518061012001604052808773ffffffffffffffffffffffffffffffffffffffff16815260200186815260200185815260200184815260200160001515815260200160008152602001600081526020016000815260200183815250908060018154018082558091505060019003906000526020600020906009020160009091909190915060008201518160000160006101000a81548173ffffffffffffffffffffffffffffffffffffffff021916908373ffffffffffffffffffffffffffffffffffffffff160217905550602082015181600101908051906020019061158b929190612312565b5060408201518160020190805190602001906115a8929190612312565b5060608201518160030190805190602001906115c5929190612312565b5060808201518160040160006101000a81548160ff02191690831515021790555060a0820151816005015560c0820151816006015560e0820151816007015561010082015181600801555050846009600083815260200190815260200160002060006101000a81548173ffffffffffffffffffffffffffffffffffffffff021916908373ffffffffffffffffffffffffffffffffffffffff1602179055506000600a6000838152602001908152602001600020819055507f3ef624c0f3fb7ad40b94c02078ea3e3a797dbfc21e921ee4bd2b8ad0ca6aa113818686868660008060006040516116bb989796959493929190612fcd565b60405180910390a15050505050565b6116d2611f46565b73ffffffffffffffffffffffffffffffffffffffff166116f0610f73565b73ffffffffffffffffffffffffffffffffffffffff1614611746576040517f08c379a000000000000000000000000000000000000000000000000000000000815260040161173d90612f72565b60405180910390fd5b8060018190555050565b600e6020528060005260406000206000915090505481565b826009600082815260200190815260200160002060009054906101000a900473ffffffffffffffffffffffffffffffffffffffff1673ffffffffffffffffffffffffffffffffffffffff163373ffffffffffffffffffffffffffffffffffffffff16146117d457600080fd5b8282600886815481106117ea576117e96134e5565b5b9060005260206000209060090201600301919061180892919061228c565b5050505050565b6000806000806118238a8a8a8a8a8a611f4e565b9250925092506000838b10156118465761183f84848d85611fc9565b9050611877565b838210156118645761185d84848d858d8d8d61206c565b9050611876565b61187384848d858d8d8d61218e565b90505b5b809450505050509695505050505050565b6000600d60008473ffffffffffffffffffffffffffffffffffffffff1673ffffffffffffffffffffffffffffffffffffffff16815260200190815260200160002060008373ffffffffffffffffffffffffffffffffffffffff1673ffffffffffffffffffffffffffffffffffffffff16815260200190815260200160002060009054906101000a900460ff16905092915050565b611924611f46565b73ffffffffffffffffffffffffffffffffffffffff16611942610f73565b73ffffffffffffffffffffffffffffffffffffffff1614611998576040517f08c379a000000000000000000000000000000000000000000000000000000000815260040161198f90612f72565b60405180910390fd5b8073ffffffffffffffffffffffffffffffffffffffff166108fc6003549081150290604051600060405180830381858888f193505050501580156119e0573d6000803e3d6000fd5b50600060038190555050565b8473ffffffffffffffffffffffffffffffffffffffff163373ffffffffffffffffffffffffffffffffffffffff161480611a2c5750611a2b8585611888565b5b611a3557600080fd5b611a40858484611da0565b611a4b848484611e73565b8373ffffffffffffffffffffffffffffffffffffffff168573ffffffffffffffffffffffffffffffffffffffff163373ffffffffffffffffffffffffffffffffffffffff167fc3d58168c5ae7397731d063d5bbf3d657854427343f4c083240f7aacaa2d0f628686604051611ac1929190613060565b60405180910390a45050505050565b611ad8611f46565b73ffffffffffffffffffffffffffffffffffffffff16611af6610f73565b73ffffffffffffffffffffffffffffffffffffffff1614611b4c576040517f08c379a0000000000000000000000000000000000000000000000000000000008152600401611b4390612f72565b60405180910390fd5b600073ffffffffffffffffffffffffffffffffffffffff168173ffffffffffffffffffffffffffffffffffffffff161415611bbc576040517f08c379a0000000000000000000000000000000000000000000000000000000008152600401611bb390612f52565b60405180910390fd5b8073ffffffffffffffffffffffffffffffffffffffff1660008054906101000a900473ffffffffffffffffffffffffffffffffffffffff1673ffffffffffffffffffffffffffffffffffffffff167f8be0079c531659141344cd1fd0a4f28419497f9722a3daafe3b4186f6b6457e060405160405180910390a3806000806101000a81548173ffffffffffffffffffffffffffffffffffffffff021916908373ffffffffffffffffffffffffffffffffffffffff16021790555050565b611c81611f46565b73ffffffffffffffffffffffffffffffffffffffff16611c9f610f73565b73ffffffffffffffffffffffffffffffffffffffff1614611cf5576040517f08c379a0000000000000000000000000000000000000000000000000000000008152600401611cec90612f72565b60405180910390fd5b8060088381548110611d0a57611d096134e5565b5b906000526020600020906009020160040160006101000a81548160ff0219169083151502179055505050565b60007f01ffc9a7000000000000000000000000000000000000000000000000000000007bffffffffffffffffffffffffffffffffffffffffffffffffffffffff1916827bffffffffffffffffffffffffffffffffffffffffffffffffffffffff1916149050919050565b80600b600084815260200190815260200160002060008573ffffffffffffffffffffffffffffffffffffffff1673ffffffffffffffffffffffffffffffffffffffff1681526020019081526020016000206000828254611e00919061329e565b9250508190555080600c60008573ffffffffffffffffffffffffffffffffffffffff1673ffffffffffffffffffffffffffffffffffffffff16815260200190815260200160002060008481526020019081526020016000206000828254611e67919061329e565b92505081905550505050565b80600b600084815260200190815260200160002060008573ffffffffffffffffffffffffffffffffffffffff1673ffffffffffffffffffffffffffffffffffffffff1681526020019081526020016000206000828254611ed391906131bd565b9250508190555080600c60008573ffffffffffffffffffffffffffffffffffffffff1673ffffffffffffffffffffffffffffffffffffffff16815260200190815260200160002060008481526020019081526020016000206000828254611f3a91906131bd565b92505081905550505050565b600033905090565b600080600080600286611f619190613213565b9050600087896064886032611f76919061329e565b8a611f819190613244565b611f8b9190613213565b611f959190613244565b611f9f9190613213565b905060008a8c611faf919061329e565b905082828295509550955050505096509650969350505050565b6000808286611fd8919061329e565b8686611fe49190613213565b611fee9190613244565b85611ff9919061329e565b905060008487612009919061329e565b87876120159190613213565b61201f9190613244565b8661202a919061329e565b90506000848661203a919061329e565b9050600281838561204b91906131bd565b6120559190613244565b61205f9190613213565b9350505050949350505050565b600080858961207b919061329e565b89896120879190613213565b6120919190613244565b8861209c919061329e565b905060008890506000878b6120b1919061329e565b9050600060028284866120c491906131bd565b6120ce9190613244565b6120d89190613213565b905060008b8d8c6120e9919061329e565b8e896120f5919061329e565b8e8b8b8e6121039190613244565b61210d9190613213565b612117919061329e565b6121219190613213565b61212b9190613244565b61213591906131bd565b905060008d8c612145919061329e565b90506000600282848861215891906131bd565b6121629190613244565b61216c9190613213565b9050808461217a91906131bd565b975050505050505050979650505050505050565b60008087898761219e919061329e565b8a856121aa919061329e565b8a87878a6121b89190613244565b6121c29190613213565b6121cc919061329e565b6121d69190613213565b6121e09190613244565b6121ea91906131bd565b90506000888a896121fb919061329e565b8b86612207919061329e565b8b88888b6122159190613244565b61221f9190613213565b612229919061329e565b6122339190613213565b61223d9190613244565b61224791906131bd565b905060008789612257919061329e565b9050600281838561226891906131bd565b6122729190613244565b61227c9190613213565b9350505050979650505050505050565b828054612298906133ac565b90600052602060002090601f0160209004810192826122ba5760008555612301565b82601f106122d357803560ff1916838001178555612301565b82800160010185558215612301579182015b828111156123005782358255916020019190600101906122e5565b5b50905061230e9190612398565b5090565b82805461231e906133ac565b90600052602060002090601f0160209004810192826123405760008555612387565b82601f1061235957805160ff1916838001178555612387565b82800160010185558215612387579182015b8281111561238657825182559160200191906001019061236b565b5b5090506123949190612398565b5090565b5b808211156123b1576000816000905550600101612399565b5090565b60006123c86123c3846130ae565b613089565b905080838252602082019050828560208602820111156123eb576123ea61354d565b5b60005b8581101561241b57816124018882612519565b8452602084019350602083019250506001810190506123ee565b5050509392505050565b6000612438612433846130da565b613089565b9050808382526020820190508285602086028201111561245b5761245a61354d565b5b60005b8581101561248b5781612471888261267b565b84526020840193506020830192505060018101905061245e565b5050509392505050565b60006124a86124a384613106565b613089565b9050828152602081018484840111156124c4576124c3613552565b5b6124cf84828561336a565b509392505050565b60006124ea6124e584613137565b613089565b90508281526020810184848401111561250657612505613552565b5b61251184828561336a565b509392505050565b60008135905061252881613688565b92915050565b60008135905061253d8161369f565b92915050565b600082601f83011261255857612557613548565b5b81356125688482602086016123b5565b91505092915050565b600082601f83011261258657612585613548565b5b8135612596848260208601612425565b91505092915050565b6000813590506125ae816136b6565b92915050565b6000813590506125c3816136cd565b92915050565b600082601f8301126125de576125dd613548565b5b81356125ee848260208601612495565b91505092915050565b60008083601f84011261260d5761260c613548565b5b8235905067ffffffffffffffff81111561262a57612629613543565b5b6020830191508360018202830111156126465761264561354d565b5b9250929050565b600082601f83011261266257612661613548565b5b81356126728482602086016124d7565b91505092915050565b60008135905061268a816136e4565b92915050565b6000602082840312156126a6576126a561355c565b5b60006126b484828501612519565b91505092915050565b6000602082840312156126d3576126d261355c565b5b60006126e18482850161252e565b91505092915050565b600080600080608085870312156127045761270361355c565b5b60006127128782880161252e565b945050602085013567ffffffffffffffff81111561273357612732613557565b5b61273f8782880161264d565b935050604085013567ffffffffffffffff8111156127605761275f613557565b5b61276c8782880161264d565b925050606085013567ffffffffffffffff81111561278d5761278c613557565b5b6127998782880161264d565b91505092959194509250565b600080604083850312156127bc576127bb61355c565b5b60006127ca85828601612519565b92505060206127db85828601612519565b9150509250929050565b600080600080600060a086880312156128015761280061355c565b5b600061280f88828901612519565b955050602061282088828901612519565b945050604086013567ffffffffffffffff81111561284157612840613557565b5b61284d88828901612571565b935050606086013567ffffffffffffffff81111561286e5761286d613557565b5b61287a88828901612571565b925050608086013567ffffffffffffffff81111561289b5761289a613557565b5b6128a7888289016125c9565b9150509295509295909350565b600080600080600060a086880312156128d0576128cf61355c565b5b60006128de88828901612519565b95505060206128ef88828901612519565b94505060406129008882890161267b565b93505060606129118882890161267b565b925050608086013567ffffffffffffffff81111561293257612931613557565b5b61293e888289016125c9565b9150509295509295909350565b600080604083850312156129625761296161355c565b5b600061297085828601612519565b92505060206129818582860161259f565b9150509250929050565b600080604083850312156129a2576129a161355c565b5b60006129b085828601612519565b92505060206129c18582860161267b565b9150509250929050565b600080604083850312156129e2576129e161355c565b5b600083013567ffffffffffffffff811115612a00576129ff613557565b5b612a0c85828601612543565b925050602083013567ffffffffffffffff811115612a2d57612a2c613557565b5b612a3985828601612571565b9150509250929050565b600060208284031215612a5957612a5861355c565b5b6000612a67848285016125b4565b91505092915050565b600060208284031215612a8657612a8561355c565b5b6000612a948482850161267b565b91505092915050565b60008060408385031215612ab457612ab361355c565b5b6000612ac28582860161267b565b9250506020612ad385828601612519565b9150509250929050565b60008060408385031215612af457612af361355c565b5b6000612b028582860161267b565b9250506020612b138582860161252e565b9150509250929050565b60008060408385031215612b3457612b3361355c565b5b6000612b428582860161267b565b9250506020612b538582860161259f565b9150509250929050565b600080600060408486031215612b7657612b7561355c565b5b6000612b848682870161267b565b935050602084013567ffffffffffffffff811115612ba557612ba4613557565b5b612bb1868287016125f7565b92509250509250925092565b60008060008060008060c08789031215612bda57612bd961355c565b5b6000612be889828a0161267b565b9650506020612bf989828a0161267b565b9550506040612c0a89828a0161267b565b9450506060612c1b89828a0161267b565b9350506080612c2c89828a0161267b565b92505060a0612c3d89828a0161267b565b9150509295509295509295565b6000612c568383612dc1565b60208301905092915050565b612c6b816132e4565b82525050565b612c7a816132d2565b82525050565b6000612c8b82613178565b612c95818561319b565b9350612ca083613168565b8060005b83811015612cd1578151612cb88882612c4a565b9750612cc38361318e565b925050600181019050612ca4565b5085935050505092915050565b612ce7816132f6565b82525050565b612cf681613358565b82525050565b6000612d0782613183565b612d1181856131ac565b9350612d21818560208601613379565b612d2a81613561565b840191505092915050565b6000612d42602b836131ac565b9150612d4d82613572565b604082019050919050565b6000612d656026836131ac565b9150612d70826135c1565b604082019050919050565b6000612d886020836131ac565b9150612d9382613610565b602082019050919050565b6000612dab6029836131ac565b9150612db682613639565b604082019050919050565b612dca8161334e565b82525050565b612dd98161334e565b82525050565b6000602082019050612df46000830184612c71565b92915050565b600061012082019050612e10600083018c612c62565b8181036020830152612e22818b612cfc565b90508181036040830152612e36818a612cfc565b90508181036060830152612e4a8189612cfc565b9050612e596080830188612cde565b612e6660a0830187612dd0565b612e7360c0830186612dd0565b612e8060e0830185612dd0565b612e8e610100830184612dd0565b9a9950505050505050505050565b60006020820190508181036000830152612eb68184612c80565b905092915050565b60006040820190508181036000830152612ed88185612c80565b90508181036020830152612eec8184612c80565b90509392505050565b6000602082019050612f0a6000830184612cde565b92915050565b60006020820190508181036000830152612f2a8184612cfc565b905092915050565b60006020820190508181036000830152612f4b81612d35565b9050919050565b60006020820190508181036000830152612f6b81612d58565b9050919050565b60006020820190508181036000830152612f8b81612d7b565b9050919050565b60006020820190508181036000830152612fab81612d9e565b9050919050565b6000602082019050612fc76000830184612dd0565b92915050565b600061010082019050612fe3600083018b612dd0565b612ff0602083018a612c62565b81810360408301526130028189612cfc565b905081810360608301526130168188612cfc565b9050818103608083015261302a8187612cfc565b905061303960a0830186612cde565b61304660c0830185612ced565b61305360e0830184612ced565b9998505050505050505050565b60006040820190506130756000830185612dd0565b6130826020830184612dd0565b9392505050565b60006130936130a4565b905061309f82826133de565b919050565b6000604051905090565b600067ffffffffffffffff8211156130c9576130c8613514565b5b602082029050602081019050919050565b600067ffffffffffffffff8211156130f5576130f4613514565b5b602082029050602081019050919050565b600067ffffffffffffffff82111561312157613120613514565b5b61312a82613561565b9050602081019050919050565b600067ffffffffffffffff82111561315257613151613514565b5b61315b82613561565b9050602081019050919050565b6000819050602082019050919050565b600081519050919050565b600081519050919050565b6000602082019050919050565b600082825260208201905092915050565b600082825260208201905092915050565b60006131c88261334e565b91506131d38361334e565b9250827fffffffffffffffffffffffffffffffffffffffffffffffffffffffffffffffff0382111561320857613207613458565b5b828201905092915050565b600061321e8261334e565b91506132298361334e565b92508261323957613238613487565b5b828204905092915050565b600061324f8261334e565b915061325a8361334e565b9250817fffffffffffffffffffffffffffffffffffffffffffffffffffffffffffffffff048311821515161561329357613292613458565b5b828202905092915050565b60006132a98261334e565b91506132b48361334e565b9250828210156132c7576132c6613458565b5b828203905092915050565b60006132dd8261332e565b9050919050565b60006132ef8261332e565b9050919050565b60008115159050919050565b60007fffffffff0000000000000000000000000000000000000000000000000000000082169050919050565b600073ffffffffffffffffffffffffffffffffffffffff82169050919050565b6000819050919050565b60006133638261334e565b9050919050565b82818337600083830152505050565b60005b8381101561339757808201518184015260208101905061337c565b838111156133a6576000848401525b50505050565b600060028204905060018216806133c457607f821691505b602082108114156133d8576133d76134b6565b5b50919050565b6133e782613561565b810181811067ffffffffffffffff8211171561340657613405613514565b5b80604052505050565b600061341a8261334e565b91507fffffffffffffffffffffffffffffffffffffffffffffffffffffffffffffffff82141561344d5761344c613458565b5b600182019050919050565b7f4e487b7100000000000000000000000000000000000000000000000000000000600052601160045260246000fd5b7f4e487b7100000000000000000000000000000000000000000000000000000000600052601260045260246000fd5b7f4e487b7100000000000000000000000000000000000000000000000000000000600052602260045260246000fd5b7f4e487b7100000000000000000000000000000000000000000000000000000000600052603260045260246000fd5b7f4e487b7100000000000000000000000000000000000000000000000000000000600052604160045260246000fd5b600080fd5b600080fd5b600080fd5b600080fd5b600080fd5b600080fd5b6000601f19601f8301169050919050565b7f455243313135353a2062616c616e636520717565727920666f7220746865207a60008201527f65726f2061646472657373000000000000000000000000000000000000000000602082015250565b7f4f776e61626c653a206e6577206f776e657220697320746865207a65726f206160008201527f6464726573730000000000000000000000000000000000000000000000000000602082015250565b7f4f776e61626c653a2063616c6c6572206973206e6f7420746865206f776e6572600082015250565b7f455243313135353a206163636f756e747320616e6420696473206c656e67746860008201527f206d69736d617463680000000000000000000000000000000000000000000000602082015250565b613691816132d2565b811461369c57600080fd5b50565b6136a8816132e4565b81146136b357600080fd5b50565b6136bf816132f6565b81146136ca57600080fd5b50565b6136d681613302565b81146136e157600080fd5b50565b6136ed8161334e565b81146136f857600080fd5b5056fea2646970667358221220d0fb019ac55c97102df1a7b4c307cc43a6f5f28ad3e76a7442fe07ff0d9f7a3e64736f6c63430008070033",
  "immutableReferences": {},
  "source": "// SPDX-License-Identifier: MIT\npragma solidity ^0.8.0;\n\nimport \"./creatortokenformulas.sol\";\n\n/// @title Computation of fees owed to platform, and payout of creator\n/// @author Kamil Alizai Sadik\ncontract CreatorTokenFees is CreatorTokenFormulas {\n\n\tconstructor(string memory uri) CreatorTokenFormulas(uri) { }\n\n\t/// @dev Calculates the fee associated with a buy transaction\n\t/// @param _proceedsRequired The proceeds required for the buy transaction (before addition of fees)\n\t/// @return Fee associated with transaction\n\tfunction _feeProceeds(uint _proceedsRequired) public view returns (uint256) {\n\t\treturn _proceedsRequired*platformFee/100;\n\t}\n\n\t/// @dev Updates platform fee tracker mappings\n\t/// @param _fee Fee being added to the tracker\n\tfunction _platformFeeUpdater(uint _fee) internal {\n\t\ttotalPlatformFees += _fee;\n\t\tplatformFeesOwed += _fee;\n\t}\n\n\t/// @dev Transfers excess liquidity to the creator (triggered only when a CreatorToken hits a new maxSupply)\n\t/// @param _tokenId ID of the token in question\n\t/// @param _creatorAddress Wallet address of the creator of the token\n\tfunction _payCreator(uint _tokenId, address payable _creatorAddress) internal {\n\t\t// Create a variable showing excess liquidity that has already been transferred out of this token's liquidity pool\n\t\tuint alreadyTransferred = tokenValueTransferred[_tokenId];\n\t\t// Initialize totalProfit\n\t\tuint totalProfit = 0;\n\t\t// Calculate totalProfit (area between b(x) and s(x) from 0 to maxSupply)\n\t\ttotalProfit = _buyFunction(0, creatorTokens[_tokenId].maxSupply, mNumerator, mDenominator) - _saleFunction(creatorTokens[_tokenId].maxSupply, creatorTokens[_tokenId].maxSupply, mNumerator, mDenominator, creatorTokens[_tokenId].maxSupply, profitMargin);\n\t\t// Calculate creator's new profit created from new excess liquidity created\n\t\tuint newProfit = totalProfit - alreadyTransferred;\n\t\t// Transfer newProfit wei to creator\n\t\t_creatorAddress.transfer(newProfit);\n\t\t// Update amount of value transferred to creator\n\t\ttokenValueTransferred[_tokenId] = totalProfit;\n\t}\n}",
  "sourcePath": "/Users/kamilalizaisadik/DeFi/Dynamic Automated Market Maker/CreatorTokenExchange/contracts/creatortokenfees.sol",
  "compiler": {
    "name": "solc",
    "version": "0.8.7+commit.e28d00a7.Emscripten.clang"
  },
  "schemaVersion": "3.4.1",
  "updatedAt": "2021-08-14T13:08:18.383Z",
  "devdoc": {
    "author": "Kamil Alizai Sadik",
    "kind": "dev",
    "methods": {
      "_feeProceeds(uint256)": {
        "details": "Calculates the fee associated with a buy transaction",
        "params": {
          "_proceedsRequired": "The proceeds required for the buy transaction (before addition of fees)"
        },
        "returns": {
          "_0": "Fee associated with transaction"
        }
      },
      "_saleFunction(uint256,uint256,uint256,uint256,uint256,uint256)": {
        "details": "Calculates area under sale price function",
        "params": {
          "_amount": "Amount of token being transacted",
          "_mDenominator": "Denominator of the slope of the buy price function",
          "_mNumerator": "Numerator of the slope of the buy price function",
          "_maxSupply": "Peak level of supply of the token to date",
          "_profitMargin": "percentage of total revenue generated routed to creator",
          "_startingSupply": "Supply of token in circulation before the transaction"
        },
        "returns": {
          "_0": "Area under sale price function denoting total proceeds received when selling _amount tokens (before fees)"
        }
      },
      "balanceOf(address,uint256)": {
        "details": "See {IERC1155-balanceOf}. Requirements: - `account` cannot be the zero address."
      },
      "balanceOfBatch(address[],uint256[])": {
        "details": "See {IERC1155-balanceOfBatch}. Requirements: - `accounts` and `ids` must have the same length."
      },
      "changeAddress(uint256,address)": {
        "details": "Allows token creator to change their address",
        "params": {
          "_newCreatorAddress": "New creator address associated with the token",
          "_tokenId": "ID of the token in question"
        }
      },
      "changeDescription(uint256,string)": {
        "details": "Allows token creator to change the description of their token",
        "params": {
          "_newDescription": "New description associated with the token",
          "_tokenId": "ID of the token in question"
        }
      },
      "changeName(uint256,string)": {
        "details": "Allows token creator to change the name of their token",
        "params": {
          "_newName": "New name associated with the token",
          "_tokenId": "ID of the token in question"
        }
      },
      "changePlatformFee(uint256)": {
        "details": "Allows owner to change platformFee",
        "params": {
          "_newPlatformFee": "New platform fee"
        }
      },
      "changeProfitMargin(uint256)": {
        "details": "Allows owner to change profit_margin",
        "params": {
          "_newProfitMargin": "New profit margin"
        }
      },
      "changeSymbol(uint256,string)": {
        "details": "Allows token creator to change the symbol of their token",
        "params": {
          "_newSymbol": "New symbol associated with the token",
          "_tokenId": "ID of the token in question"
        }
      },
      "changeVerification(uint256,bool)": {
        "details": "Allows owner to verify (or undo verification) of a CreatorToken",
        "params": {
          "_tokenId": "ID of the token in question",
          "_verified": "Verification status of the token in question"
        }
      },
      "createCreatorToken(address,string,string,string)": {
        "details": "Creates a new creator token",
        "params": {
          "_creatorAddress": "Address of the creator of the token",
          "_description": "chosen by the creator of the tokens",
          "_name": "Name chosen by the creator of the token",
          "_symbol": "Ticker symbol chosen by the creator of the token"
        }
      },
      "getCreatorTokenCount()": {
        "details": "Returns the current length of the creatorTokens array",
        "returns": {
          "_0": "uint representing number of unique Creator Tokens"
        }
      },
      "isApprovedForAll(address,address)": {
        "details": "Denotes whether operator is approved to transfer account's tokens",
        "params": {
          "_account": "Wallet address holding tokens",
          "_operator": "Wallet address which is/isn't approved to transfer _account's tokens"
        },
        "returns": {
          "_0": "Boolean value indicating approval status"
        }
      },
      "owner()": {
        "details": "Returns the address of the current owner."
      },
      "payoutPlatformFees(address)": {
        "details": "Pays out platform fees owed to owner (might opt to call this daily)",
        "params": {
          "_owner": "Owner of the smart contract"
        }
      },
      "renounceOwnership()": {
        "details": "Leaves the contract without owner. It will not be possible to call `onlyOwner` functions anymore. Can only be called by the current owner. NOTE: Renouncing ownership will leave the contract without an owner, thereby removing any functionality that is only available to the owner."
      },
      "safeBatchTransferFrom(address,address,uint256[],uint256[],bytes)": {
        "details": "Transfers a batch of tokens",
        "params": {
          "_amounts": "Array of quantities of token to be transferred",
          "_data": "Data",
          "_from": "Address token is being transferred from",
          "_ids": "Array of IDs of tokens being transferred",
          "_to": "Address token is being transferred to"
        }
      },
      "safeTransferFrom(address,address,uint256,uint256,bytes)": {
        "details": "Transfers a token",
        "params": {
          "_amount": "Quantity of token to be transferred",
          "_data": "Data",
          "_from": "Address token is being transferred from",
          "_id": "ID of token being transferred",
          "_to": "Address token is being transferred to"
        }
      },
      "setApprovalForAll(address,bool)": {
        "details": "Gives operator permission to transfer caller's tokens",
        "params": {
          "_approved": "Boolean value indicating whether operator is approved",
          "_operator": "Wallet address being granted permission"
        }
      },
      "supportsInterface(bytes4)": {
        "details": "See {IERC165-supportsInterface}."
      },
      "transferOwnership(address)": {
        "details": "Transfers ownership of the contract to a new account (`newOwner`). Can only be called by the current owner."
      },
      "uri(uint256)": {
        "details": "See {IERC1155MetadataURI-uri}. This implementation returns the same URI for *all* token types. It relies on the token type ID substitution mechanism https://eips.ethereum.org/EIPS/eip-1155#metadata[defined in the EIP]. Clients calling this function must replace the `\\{id\\}` substring with the actual token type ID."
      },
      "withdraw(address)": {
        "details": "Ownable function allowing for withdrawal",
        "params": {
          "_owner": "Owner of the smart contract"
        }
      }
    },
    "title": "Computation of fees owed to platform, and payout of creator",
    "version": 1
  },
  "userdoc": {
    "kind": "user",
    "methods": {},
    "version": 1
  }
}