{
  "contractName": "CreatorTokenHelper",
  "abi": [
    {
      "anonymous": false,
      "inputs": [
        {
          "indexed": false,
          "internalType": "uint256",
          "name": "tokenId",
          "type": "uint256"
        },
        {
          "indexed": false,
          "internalType": "address payable",
          "name": "creatorAddress",
          "type": "address"
        },
        {
          "indexed": false,
          "internalType": "string",
          "name": "name",
          "type": "string"
        },
        {
          "indexed": false,
          "internalType": "string",
          "name": "symbol",
          "type": "string"
        },
        {
          "indexed": false,
          "internalType": "string",
          "name": "description",
          "type": "string"
        },
        {
          "indexed": false,
          "internalType": "bool",
          "name": "verified",
          "type": "bool"
        },
        {
          "indexed": false,
          "internalType": "uint256",
          "name": "outstanding",
          "type": "uint256"
        },
        {
          "indexed": false,
          "internalType": "uint256",
          "name": "maxSupply",
          "type": "uint256"
        }
      ],
      "name": "NewCreatorToken",
      "type": "event"
    },
    {
      "anonymous": false,
      "inputs": [
        {
          "indexed": true,
          "internalType": "address",
          "name": "previousOwner",
          "type": "address"
        },
        {
          "indexed": true,
          "internalType": "address",
          "name": "newOwner",
          "type": "address"
        }
      ],
      "name": "OwnershipTransferred",
      "type": "event"
    },
    {
      "inputs": [
        {
          "internalType": "address",
          "name": "",
          "type": "address"
        },
        {
          "internalType": "address",
          "name": "",
          "type": "address"
        }
      ],
      "name": "approvals",
      "outputs": [
        {
          "internalType": "bool",
          "name": "",
          "type": "bool"
        }
      ],
      "stateMutability": "view",
      "type": "function"
    },
    {
      "inputs": [
        {
          "internalType": "address payable",
          "name": "_creatorAddress",
          "type": "address"
        },
        {
          "internalType": "string",
          "name": "_name",
          "type": "string"
        },
        {
          "internalType": "string",
          "name": "_symbol",
          "type": "string"
        },
        {
          "internalType": "string",
          "name": "_description",
          "type": "string"
        }
      ],
      "name": "createCreatorToken",
      "outputs": [],
      "stateMutability": "nonpayable",
      "type": "function"
    },
    {
      "inputs": [
        {
          "internalType": "uint256",
          "name": "",
          "type": "uint256"
        }
      ],
      "name": "creatorTokens",
      "outputs": [
        {
          "internalType": "address payable",
          "name": "creatorAddress",
          "type": "address"
        },
        {
          "internalType": "string",
          "name": "name",
          "type": "string"
        },
        {
          "internalType": "string",
          "name": "symbol",
          "type": "string"
        },
        {
          "internalType": "string",
          "name": "description",
          "type": "string"
        },
        {
          "internalType": "bool",
          "name": "verified",
          "type": "bool"
        },
        {
          "internalType": "uint256",
          "name": "outstanding",
          "type": "uint256"
        },
        {
          "internalType": "uint256",
          "name": "maxSupply",
          "type": "uint256"
        },
        {
          "internalType": "uint256",
          "name": "lastPrice",
          "type": "uint256"
        },
        {
          "internalType": "uint256",
          "name": "creatorTokenId",
          "type": "uint256"
        }
      ],
      "stateMutability": "view",
      "type": "function"
    },
    {
      "inputs": [],
      "name": "getCreatorTokenCount",
      "outputs": [
        {
          "internalType": "uint256",
          "name": "",
          "type": "uint256"
        }
      ],
      "stateMutability": "view",
      "type": "function"
    },
    {
      "inputs": [],
      "name": "numCreatorTokens",
      "outputs": [
        {
          "internalType": "uint256",
          "name": "",
          "type": "uint256"
        }
      ],
      "stateMutability": "view",
      "type": "function"
    },
    {
      "inputs": [],
      "name": "owner",
      "outputs": [
        {
          "internalType": "address",
          "name": "",
          "type": "address"
        }
      ],
      "stateMutability": "view",
      "type": "function"
    },
    {
      "inputs": [],
      "name": "platformFeesOwed",
      "outputs": [
        {
          "internalType": "uint256",
          "name": "",
          "type": "uint256"
        }
      ],
      "stateMutability": "view",
      "type": "function"
    },
    {
      "inputs": [],
      "name": "renounceOwnership",
      "outputs": [],
      "stateMutability": "nonpayable",
      "type": "function"
    },
    {
      "inputs": [
        {
          "internalType": "uint256",
          "name": "",
          "type": "uint256"
        },
        {
          "internalType": "address",
          "name": "",
          "type": "address"
        }
      ],
      "name": "tokenHoldership",
      "outputs": [
        {
          "internalType": "uint256",
          "name": "",
          "type": "uint256"
        }
      ],
      "stateMutability": "view",
      "type": "function"
    },
    {
      "inputs": [
        {
          "internalType": "uint256",
          "name": "",
          "type": "uint256"
        }
      ],
      "name": "tokenToCreator",
      "outputs": [
        {
          "internalType": "address",
          "name": "",
          "type": "address"
        }
      ],
      "stateMutability": "view",
      "type": "function"
    },
    {
      "inputs": [
        {
          "internalType": "uint256",
          "name": "",
          "type": "uint256"
        }
      ],
      "name": "tokenValueTransferred",
      "outputs": [
        {
          "internalType": "uint256",
          "name": "",
          "type": "uint256"
        }
      ],
      "stateMutability": "view",
      "type": "function"
    },
    {
      "inputs": [],
      "name": "totalPlatformFees",
      "outputs": [
        {
          "internalType": "uint256",
          "name": "",
          "type": "uint256"
        }
      ],
      "stateMutability": "view",
      "type": "function"
    },
    {
      "inputs": [
        {
          "internalType": "uint256",
          "name": "",
          "type": "uint256"
        }
      ],
      "name": "totalValueLocked",
      "outputs": [
        {
          "internalType": "uint256",
          "name": "",
          "type": "uint256"
        }
      ],
      "stateMutability": "view",
      "type": "function"
    },
    {
      "inputs": [
        {
          "internalType": "address",
          "name": "newOwner",
          "type": "address"
        }
      ],
      "name": "transferOwnership",
      "outputs": [],
      "stateMutability": "nonpayable",
      "type": "function"
    },
    {
      "inputs": [
        {
          "internalType": "address",
          "name": "",
          "type": "address"
        },
        {
          "internalType": "uint256",
          "name": "",
          "type": "uint256"
        }
      ],
      "name": "userToHoldings",
      "outputs": [
        {
          "internalType": "uint256",
          "name": "",
          "type": "uint256"
        }
      ],
      "stateMutability": "view",
      "type": "function"
    },
    {
      "inputs": [
        {
          "internalType": "address payable",
          "name": "_owner",
          "type": "address"
        }
      ],
      "name": "withdraw",
      "outputs": [],
      "stateMutability": "nonpayable",
      "type": "function"
    },
    {
      "inputs": [
        {
          "internalType": "address payable",
          "name": "_owner",
          "type": "address"
        }
      ],
      "name": "payoutPlatformFees",
      "outputs": [],
      "stateMutability": "nonpayable",
      "type": "function"
    },
    {
      "inputs": [
        {
          "internalType": "uint256",
          "name": "_newPlatformFee",
          "type": "uint256"
        }
      ],
      "name": "changePlatformFee",
      "outputs": [],
      "stateMutability": "nonpayable",
      "type": "function"
    },
    {
      "inputs": [
        {
          "internalType": "uint256",
          "name": "_newProfitMargin",
          "type": "uint256"
        }
      ],
      "name": "changeProfitMargin",
      "outputs": [],
      "stateMutability": "nonpayable",
      "type": "function"
    },
    {
      "inputs": [
        {
          "internalType": "uint256",
          "name": "_tokenId",
          "type": "uint256"
        },
        {
          "internalType": "bool",
          "name": "_verified",
          "type": "bool"
        }
      ],
      "name": "changeVerification",
      "outputs": [],
      "stateMutability": "nonpayable",
      "type": "function"
    },
    {
      "inputs": [
        {
          "internalType": "uint256",
          "name": "_tokenId",
          "type": "uint256"
        },
        {
          "internalType": "address payable",
          "name": "_newCreatorAddress",
          "type": "address"
        }
      ],
      "name": "changeAddress",
      "outputs": [],
      "stateMutability": "nonpayable",
      "type": "function"
    },
    {
      "inputs": [
        {
          "internalType": "uint256",
          "name": "_tokenId",
          "type": "uint256"
        },
        {
          "internalType": "string",
          "name": "_newName",
          "type": "string"
        }
      ],
      "name": "changeName",
      "outputs": [],
      "stateMutability": "nonpayable",
      "type": "function"
    },
    {
      "inputs": [
        {
          "internalType": "uint256",
          "name": "_tokenId",
          "type": "uint256"
        },
        {
          "internalType": "string",
          "name": "_newSymbol",
          "type": "string"
        }
      ],
      "name": "changeSymbol",
      "outputs": [],
      "stateMutability": "nonpayable",
      "type": "function"
    },
    {
      "inputs": [
        {
          "internalType": "uint256",
          "name": "_tokenId",
          "type": "uint256"
        },
        {
          "internalType": "string",
          "name": "_newDescription",
          "type": "string"
        }
      ],
      "name": "changeDescription",
      "outputs": [],
      "stateMutability": "nonpayable",
      "type": "function"
    }
  ],
  "bytecode": "0x608060405260018055600060025560006003556000600455601460055565082f79cd900060065560b960075534801561003757600080fd5b5060006100486100eb60201b60201c565b9050806000806101000a81548173ffffffffffffffffffffffffffffffffffffffff021916908373ffffffffffffffffffffffffffffffffffffffff1602179055508073ffffffffffffffffffffffffffffffffffffffff16600073ffffffffffffffffffffffffffffffffffffffff167f8be0079c531659141344cd1fd0a4f28419497f9722a3daafe3b4186f6b6457e060405160405180910390a3506100f3565b600033905090565b611e15806101026000396000f3fe608060405234801561001057600080fd5b50600436106101585760003560e01c8063c1d33049116100c3578063d7a5791a1161007c578063d7a5791a146103cd578063d9bd3a40146103e9578063de6a06ed14610419578063eb84175914610435578063f2fde38b14610451578063f7374e2e1461046d57610158565b8063c1d3304914610305578063c39cbef114610323578063c539c3171461033f578063ce901d8a1461035b578063d3631fa514610393578063d56b72c7146103b157610158565b8063715018a611610115578063715018a61461022f5780638da5cb5b1461023957806392724afa14610257578063a32ce11e14610287578063afb21832146102b7578063bfb48c9c146102d557610158565b806306e320f51461015d57806317bcaa081461017957806318892ae8146101a95780631d5ad18b146101d95780632a2b237c146101f557806351cff8d914610213575b600080fd5b610177600480360381019061017291906117dc565b610489565b005b610193600480360381019061018e91906116ef565b610530565b6040516101a09190611a1e565b60405180910390f35b6101c360048036038101906101be91906116ef565b610548565b6040516101d09190611906565b60405180910390f35b6101f360048036038101906101ee919061175c565b61057b565b005b6101fd610650565b60405161020a9190611a1e565b60405180910390f35b61022d60048036038101906102289190611587565b61065d565b005b610237610723565b005b61024161085d565b60405161024e9190611906565b60405180910390f35b610271600480360381019061026c91906116af565b610886565b60405161027e9190611a1e565b60405180910390f35b6102a1600480360381019061029c919061166f565b6108ab565b6040516102ae91906119c3565b60405180910390f35b6102bf6108da565b6040516102cc9190611a1e565b60405180910390f35b6102ef60048036038101906102ea919061171c565b6108e0565b6040516102fc9190611a1e565b60405180910390f35b61030d610905565b60405161031a9190611a1e565b60405180910390f35b61033d600480360381019061033891906117dc565b61090b565b005b610359600480360381019061035491906116ef565b6109b2565b005b610375600480360381019061037091906116ef565b610a38565b60405161038a99989796959493929190611921565b60405180910390f35b61039b610c5b565b6040516103a89190611a1e565b60405180910390f35b6103cb60048036038101906103c691906115b4565b610c61565b005b6103e760048036038101906103e291906116ef565b610e94565b005b61040360048036038101906103fe91906116ef565b610f1a565b6040516104109190611a1e565b60405180910390f35b610433600480360381019061042e91906117dc565b610f32565b005b61044f600480360381019061044a9190611587565b610fd9565b005b61046b6004803603810190610466919061155a565b6110a9565b005b6104876004803603810190610482919061179c565b611252565b005b826009600082815260200190815260200160002060009054906101000a900473ffffffffffffffffffffffffffffffffffffffff1673ffffffffffffffffffffffffffffffffffffffff163373ffffffffffffffffffffffffffffffffffffffff16146104f557600080fd5b82826008868154811061050b5761050a611c7e565b5b90600052602060002090600902016002019190610529929190611317565b5050505050565b600a6020528060005260406000206000915090505481565b60096020528060005260406000206000915054906101000a900473ffffffffffffffffffffffffffffffffffffffff1681565b816009600082815260200190815260200160002060009054906101000a900473ffffffffffffffffffffffffffffffffffffffff1673ffffffffffffffffffffffffffffffffffffffff163373ffffffffffffffffffffffffffffffffffffffff16146105e757600080fd5b81600884815481106105fc576105fb611c7e565b5b906000526020600020906009020160000160006101000a81548173ffffffffffffffffffffffffffffffffffffffff021916908373ffffffffffffffffffffffffffffffffffffffff160217905550505050565b6000600880549050905090565b61066561130f565b73ffffffffffffffffffffffffffffffffffffffff1661068361085d565b73ffffffffffffffffffffffffffffffffffffffff16146106d9576040517f08c379a00000000000000000000000000000000000000000000000000000000081526004016106d0906119fe565b60405180910390fd5b8073ffffffffffffffffffffffffffffffffffffffff166108fc479081150290604051600060405180830381858888f1935050505015801561071f573d6000803e3d6000fd5b5050565b61072b61130f565b73ffffffffffffffffffffffffffffffffffffffff1661074961085d565b73ffffffffffffffffffffffffffffffffffffffff161461079f576040517f08c379a0000000000000000000000000000000000000000000000000000000008152600401610796906119fe565b60405180910390fd5b600073ffffffffffffffffffffffffffffffffffffffff1660008054906101000a900473ffffffffffffffffffffffffffffffffffffffff1673ffffffffffffffffffffffffffffffffffffffff167f8be0079c531659141344cd1fd0a4f28419497f9722a3daafe3b4186f6b6457e060405160405180910390a360008060006101000a81548173ffffffffffffffffffffffffffffffffffffffff021916908373ffffffffffffffffffffffffffffffffffffffff160217905550565b60008060009054906101000a900473ffffffffffffffffffffffffffffffffffffffff16905090565b600c602052816000526040600020602052806000526040600020600091509150505481565b600d6020528160005260406000206020528060005260406000206000915091509054906101000a900460ff1681565b60045481565b600b602052816000526040600020602052806000526040600020600091509150505481565b60035481565b826009600082815260200190815260200160002060009054906101000a900473ffffffffffffffffffffffffffffffffffffffff1673ffffffffffffffffffffffffffffffffffffffff163373ffffffffffffffffffffffffffffffffffffffff161461097757600080fd5b82826008868154811061098d5761098c611c7e565b5b906000526020600020906009020160010191906109ab929190611317565b5050505050565b6109ba61130f565b73ffffffffffffffffffffffffffffffffffffffff166109d861085d565b73ffffffffffffffffffffffffffffffffffffffff1614610a2e576040517f08c379a0000000000000000000000000000000000000000000000000000000008152600401610a25906119fe565b60405180910390fd5b8060058190555050565b60088181548110610a4857600080fd5b90600052602060002090600902016000915090508060000160009054906101000a900473ffffffffffffffffffffffffffffffffffffffff1690806001018054610a9190611bec565b80601f0160208091040260200160405190810160405280929190818152602001828054610abd90611bec565b8015610b0a5780601f10610adf57610100808354040283529160200191610b0a565b820191906000526020600020905b815481529060010190602001808311610aed57829003601f168201915b505050505090806002018054610b1f90611bec565b80601f0160208091040260200160405190810160405280929190818152602001828054610b4b90611bec565b8015610b985780601f10610b6d57610100808354040283529160200191610b98565b820191906000526020600020905b815481529060010190602001808311610b7b57829003601f168201915b505050505090806003018054610bad90611bec565b80601f0160208091040260200160405190810160405280929190818152602001828054610bd990611bec565b8015610c265780601f10610bfb57610100808354040283529160200191610c26565b820191906000526020600020905b815481529060010190602001808311610c0957829003601f168201915b5050505050908060040160009054906101000a900460ff16908060050154908060060154908060070154908060080154905089565b60025481565b6000600880549050905060086040518061012001604052808773ffffffffffffffffffffffffffffffffffffffff16815260200186815260200185815260200184815260200160001515815260200160008152602001600081526020016000815260200183815250908060018154018082558091505060019003906000526020600020906009020160009091909190915060008201518160000160006101000a81548173ffffffffffffffffffffffffffffffffffffffff021916908373ffffffffffffffffffffffffffffffffffffffff1602179055506020820151816001019080519060200190610d5592919061139d565b506040820151816002019080519060200190610d7292919061139d565b506060820151816003019080519060200190610d8f92919061139d565b5060808201518160040160006101000a81548160ff02191690831515021790555060a0820151816005015560c0820151816006015560e0820151816007015561010082015181600801555050846009600083815260200190815260200160002060006101000a81548173ffffffffffffffffffffffffffffffffffffffff021916908373ffffffffffffffffffffffffffffffffffffffff1602179055506000600a6000838152602001908152602001600020819055507f3ef624c0f3fb7ad40b94c02078ea3e3a797dbfc21e921ee4bd2b8ad0ca6aa11381868686866000806000604051610e85989796959493929190611a39565b60405180910390a15050505050565b610e9c61130f565b73ffffffffffffffffffffffffffffffffffffffff16610eba61085d565b73ffffffffffffffffffffffffffffffffffffffff1614610f10576040517f08c379a0000000000000000000000000000000000000000000000000000000008152600401610f07906119fe565b60405180910390fd5b8060018190555050565b600e6020528060005260406000206000915090505481565b826009600082815260200190815260200160002060009054906101000a900473ffffffffffffffffffffffffffffffffffffffff1673ffffffffffffffffffffffffffffffffffffffff163373ffffffffffffffffffffffffffffffffffffffff1614610f9e57600080fd5b828260088681548110610fb457610fb3611c7e565b5b90600052602060002090600902016003019190610fd2929190611317565b5050505050565b610fe161130f565b73ffffffffffffffffffffffffffffffffffffffff16610fff61085d565b73ffffffffffffffffffffffffffffffffffffffff1614611055576040517f08c379a000000000000000000000000000000000000000000000000000000000815260040161104c906119fe565b60405180910390fd5b8073ffffffffffffffffffffffffffffffffffffffff166108fc6003549081150290604051600060405180830381858888f1935050505015801561109d573d6000803e3d6000fd5b50600060038190555050565b6110b161130f565b73ffffffffffffffffffffffffffffffffffffffff166110cf61085d565b73ffffffffffffffffffffffffffffffffffffffff1614611125576040517f08c379a000000000000000000000000000000000000000000000000000000000815260040161111c906119fe565b60405180910390fd5b600073ffffffffffffffffffffffffffffffffffffffff168173ffffffffffffffffffffffffffffffffffffffff161415611195576040517f08c379a000000000000000000000000000000000000000000000000000000000815260040161118c906119de565b60405180910390fd5b8073ffffffffffffffffffffffffffffffffffffffff1660008054906101000a900473ffffffffffffffffffffffffffffffffffffffff1673ffffffffffffffffffffffffffffffffffffffff167f8be0079c531659141344cd1fd0a4f28419497f9722a3daafe3b4186f6b6457e060405160405180910390a3806000806101000a81548173ffffffffffffffffffffffffffffffffffffffff021916908373ffffffffffffffffffffffffffffffffffffffff16021790555050565b61125a61130f565b73ffffffffffffffffffffffffffffffffffffffff1661127861085d565b73ffffffffffffffffffffffffffffffffffffffff16146112ce576040517f08c379a00000000000000000000000000000000000000000000000000000000081526004016112c5906119fe565b60405180910390fd5b80600883815481106112e3576112e2611c7e565b5b906000526020600020906009020160040160006101000a81548160ff0219169083151502179055505050565b600033905090565b82805461132390611bec565b90600052602060002090601f016020900481019282611345576000855561138c565b82601f1061135e57803560ff191683800117855561138c565b8280016001018555821561138c579182015b8281111561138b578235825591602001919060010190611370565b5b5090506113999190611423565b5090565b8280546113a990611bec565b90600052602060002090601f0160209004810192826113cb5760008555611412565b82601f106113e457805160ff1916838001178555611412565b82800160010185558215611412579182015b828111156114115782518255916020019190600101906113f6565b5b50905061141f9190611423565b5090565b5b8082111561143c576000816000905550600101611424565b5090565b600061145361144e84611af1565b611acc565b90508281526020810184848401111561146f5761146e611ceb565b5b61147a848285611baa565b509392505050565b60008135905061149181611d83565b92915050565b6000813590506114a681611d9a565b92915050565b6000813590506114bb81611db1565b92915050565b60008083601f8401126114d7576114d6611ce1565b5b8235905067ffffffffffffffff8111156114f4576114f3611cdc565b5b6020830191508360018202830111156115105761150f611ce6565b5b9250929050565b600082601f83011261152c5761152b611ce1565b5b813561153c848260208601611440565b91505092915050565b60008135905061155481611dc8565b92915050565b6000602082840312156115705761156f611cf5565b5b600061157e84828501611482565b91505092915050565b60006020828403121561159d5761159c611cf5565b5b60006115ab84828501611497565b91505092915050565b600080600080608085870312156115ce576115cd611cf5565b5b60006115dc87828801611497565b945050602085013567ffffffffffffffff8111156115fd576115fc611cf0565b5b61160987828801611517565b935050604085013567ffffffffffffffff81111561162a57611629611cf0565b5b61163687828801611517565b925050606085013567ffffffffffffffff81111561165757611656611cf0565b5b61166387828801611517565b91505092959194509250565b6000806040838503121561168657611685611cf5565b5b600061169485828601611482565b92505060206116a585828601611482565b9150509250929050565b600080604083850312156116c6576116c5611cf5565b5b60006116d485828601611482565b92505060206116e585828601611545565b9150509250929050565b60006020828403121561170557611704611cf5565b5b600061171384828501611545565b91505092915050565b6000806040838503121561173357611732611cf5565b5b600061174185828601611545565b925050602061175285828601611482565b9150509250929050565b6000806040838503121561177357611772611cf5565b5b600061178185828601611545565b925050602061179285828601611497565b9150509250929050565b600080604083850312156117b3576117b2611cf5565b5b60006117c185828601611545565b92505060206117d2858286016114ac565b9150509250929050565b6000806000604084860312156117f5576117f4611cf5565b5b600061180386828701611545565b935050602084013567ffffffffffffffff81111561182457611823611cf0565b5b611830868287016114c1565b92509250509250925092565b61184581611b50565b82525050565b61185481611b3e565b82525050565b61186381611b62565b82525050565b61187281611b98565b82525050565b600061188382611b22565b61188d8185611b2d565b935061189d818560208601611bb9565b6118a681611cfa565b840191505092915050565b60006118be602683611b2d565b91506118c982611d0b565b604082019050919050565b60006118e1602083611b2d565b91506118ec82611d5a565b602082019050919050565b61190081611b8e565b82525050565b600060208201905061191b600083018461184b565b92915050565b600061012082019050611937600083018c61183c565b8181036020830152611949818b611878565b9050818103604083015261195d818a611878565b905081810360608301526119718189611878565b9050611980608083018861185a565b61198d60a08301876118f7565b61199a60c08301866118f7565b6119a760e08301856118f7565b6119b56101008301846118f7565b9a9950505050505050505050565b60006020820190506119d8600083018461185a565b92915050565b600060208201905081810360008301526119f7816118b1565b9050919050565b60006020820190508181036000830152611a17816118d4565b9050919050565b6000602082019050611a3360008301846118f7565b92915050565b600061010082019050611a4f600083018b6118f7565b611a5c602083018a61183c565b8181036040830152611a6e8189611878565b90508181036060830152611a828188611878565b90508181036080830152611a968187611878565b9050611aa560a083018661185a565b611ab260c0830185611869565b611abf60e0830184611869565b9998505050505050505050565b6000611ad6611ae7565b9050611ae28282611c1e565b919050565b6000604051905090565b600067ffffffffffffffff821115611b0c57611b0b611cad565b5b611b1582611cfa565b9050602081019050919050565b600081519050919050565b600082825260208201905092915050565b6000611b4982611b6e565b9050919050565b6000611b5b82611b6e565b9050919050565b60008115159050919050565b600073ffffffffffffffffffffffffffffffffffffffff82169050919050565b6000819050919050565b6000611ba382611b8e565b9050919050565b82818337600083830152505050565b60005b83811015611bd7578082015181840152602081019050611bbc565b83811115611be6576000848401525b50505050565b60006002820490506001821680611c0457607f821691505b60208210811415611c1857611c17611c4f565b5b50919050565b611c2782611cfa565b810181811067ffffffffffffffff82111715611c4657611c45611cad565b5b80604052505050565b7f4e487b7100000000000000000000000000000000000000000000000000000000600052602260045260246000fd5b7f4e487b7100000000000000000000000000000000000000000000000000000000600052603260045260246000fd5b7f4e487b7100000000000000000000000000000000000000000000000000000000600052604160045260246000fd5b600080fd5b600080fd5b600080fd5b600080fd5b600080fd5b600080fd5b6000601f19601f8301169050919050565b7f4f776e61626c653a206e6577206f776e657220697320746865207a65726f206160008201527f6464726573730000000000000000000000000000000000000000000000000000602082015250565b7f4f776e61626c653a2063616c6c6572206973206e6f7420746865206f776e6572600082015250565b611d8c81611b3e565b8114611d9757600080fd5b50565b611da381611b50565b8114611dae57600080fd5b50565b611dba81611b62565b8114611dc557600080fd5b50565b611dd181611b8e565b8114611ddc57600080fd5b5056fea26469706673582212203100b19563f28e3015f9d9157caf9aad936733487c5c80e2677415736d66866b64736f6c63430008070033",
  "immutableReferences": {},
  "source": "// SPDX-License-Identifier: MIT\npragma solidity ^0.8.0;\n\nimport \"./creatortokenfactory.sol\";\n\n/// @title A contract with helper functions enabling Owner- and creator-specific functions\n/// @author Kamil Alizai Sadik\ncontract CreatorTokenHelper is CreatorTokenFactory {\n\n\t/// @dev Modifier checking whether user is creator of the token\n\t/// @param _tokenId ID of the token in question\n\tmodifier onlyCreatorOf(uint _tokenId) {\n\t\trequire(msg.sender == tokenToCreator[_tokenId]);\n\t\t_;\n\t}\n\n\t/// @dev Ownable function allowing for withdrawal\n\t/// @param _owner Owner of the smart contract\n\tfunction withdraw(address payable _owner) external onlyOwner {\n\t\t_owner.transfer(address(this).balance);\n\t}\n\n\t/// @dev Pays out platform fees owed to owner (might opt to call this daily)\n\t/// @param _owner Owner of the smart contract\n\tfunction payoutPlatformFees(address payable _owner) external onlyOwner {\n\t\t_owner.transfer(platformFeesOwed);\n\t\t// Reset platformFeesOwed to zero after payout\n\t\tplatformFeesOwed = 0;\n\t}\n\n\t/// @dev Allows owner to change platformFee\n\t/// @param _newPlatformFee New platform fee\n\tfunction changePlatformFee(uint _newPlatformFee) external onlyOwner {\n\t\tplatformFee = _newPlatformFee;\n\t}\n\n\t/// @dev Allows owner to change profit_margin\n\t/// @param _newProfitMargin New profit margin\n\tfunction changeProfitMargin(uint _newProfitMargin) external onlyOwner {\n\t\tprofitMargin = _newProfitMargin;\n\t}\n\n\t/// @dev Allows owner to verify (or undo verification) of a CreatorToken\n\t/// @param _tokenId ID of the token in question\n\t/// @param _verified Verification status of the token in question\n\tfunction changeVerification(uint _tokenId, bool _verified) external onlyOwner {\n\t\tcreatorTokens[_tokenId].verified = _verified;\n\t}\n\n\t/// @dev Allows token creator to change their address\n\t/// @param _tokenId ID of the token in question\n\t/// @param _newCreatorAddress New creator address associated with the token\n\tfunction changeAddress(uint _tokenId, address payable _newCreatorAddress) external onlyCreatorOf(_tokenId) {\n\t\tcreatorTokens[_tokenId].creatorAddress = _newCreatorAddress;\n\t}\n\n\t/// @dev Allows token creator to change the name of their token\n\t/// @param _tokenId ID of the token in question\n\t/// @param _newName New name associated with the token\n\tfunction changeName(uint _tokenId, string calldata _newName) external onlyCreatorOf(_tokenId) {\n\t\tcreatorTokens[_tokenId].name = _newName;\n\t}\n\n\t/// @dev Allows token creator to change the symbol of their token\n\t/// @param _tokenId ID of the token in question\n\t/// @param _newSymbol New symbol associated with the token\n\tfunction changeSymbol(uint _tokenId, string calldata _newSymbol) external onlyCreatorOf(_tokenId) {\n\t\tcreatorTokens[_tokenId].symbol = _newSymbol;\n\t}\n\n\t/// @dev Allows token creator to change the description of their token\n\t/// @param _tokenId ID of the token in question\n\t/// @param _newDescription New description associated with the token\n\tfunction changeDescription(uint _tokenId, string calldata _newDescription) external onlyCreatorOf(_tokenId) {\n\t\tcreatorTokens[_tokenId].description = _newDescription;\n\t}\n}",
  "sourcePath": "/Users/kamilalizaisadik/DeFi/Dynamic Automated Market Maker/CreatorTokenExchange/contracts/creatortokenhelper.sol",
  "compiler": {
    "name": "solc",
    "version": "0.8.7+commit.e28d00a7.Emscripten.clang"
  },
  "schemaVersion": "3.4.1",
  "updatedAt": "2021-08-14T13:08:18.422Z",
  "devdoc": {
    "author": "Kamil Alizai Sadik",
    "kind": "dev",
    "methods": {
      "changeAddress(uint256,address)": {
        "details": "Allows token creator to change their address",
        "params": {
          "_newCreatorAddress": "New creator address associated with the token",
          "_tokenId": "ID of the token in question"
        }
      },
      "changeDescription(uint256,string)": {
        "details": "Allows token creator to change the description of their token",
        "params": {
          "_newDescription": "New description associated with the token",
          "_tokenId": "ID of the token in question"
        }
      },
      "changeName(uint256,string)": {
        "details": "Allows token creator to change the name of their token",
        "params": {
          "_newName": "New name associated with the token",
          "_tokenId": "ID of the token in question"
        }
      },
      "changePlatformFee(uint256)": {
        "details": "Allows owner to change platformFee",
        "params": {
          "_newPlatformFee": "New platform fee"
        }
      },
      "changeProfitMargin(uint256)": {
        "details": "Allows owner to change profit_margin",
        "params": {
          "_newProfitMargin": "New profit margin"
        }
      },
      "changeSymbol(uint256,string)": {
        "details": "Allows token creator to change the symbol of their token",
        "params": {
          "_newSymbol": "New symbol associated with the token",
          "_tokenId": "ID of the token in question"
        }
      },
      "changeVerification(uint256,bool)": {
        "details": "Allows owner to verify (or undo verification) of a CreatorToken",
        "params": {
          "_tokenId": "ID of the token in question",
          "_verified": "Verification status of the token in question"
        }
      },
      "createCreatorToken(address,string,string,string)": {
        "details": "Creates a new creator token",
        "params": {
          "_creatorAddress": "Address of the creator of the token",
          "_description": "chosen by the creator of the tokens",
          "_name": "Name chosen by the creator of the token",
          "_symbol": "Ticker symbol chosen by the creator of the token"
        }
      },
      "getCreatorTokenCount()": {
        "details": "Returns the current length of the creatorTokens array",
        "returns": {
          "_0": "uint representing number of unique Creator Tokens"
        }
      },
      "owner()": {
        "details": "Returns the address of the current owner."
      },
      "payoutPlatformFees(address)": {
        "details": "Pays out platform fees owed to owner (might opt to call this daily)",
        "params": {
          "_owner": "Owner of the smart contract"
        }
      },
      "renounceOwnership()": {
        "details": "Leaves the contract without owner. It will not be possible to call `onlyOwner` functions anymore. Can only be called by the current owner. NOTE: Renouncing ownership will leave the contract without an owner, thereby removing any functionality that is only available to the owner."
      },
      "transferOwnership(address)": {
        "details": "Transfers ownership of the contract to a new account (`newOwner`). Can only be called by the current owner."
      },
      "withdraw(address)": {
        "details": "Ownable function allowing for withdrawal",
        "params": {
          "_owner": "Owner of the smart contract"
        }
      }
    },
    "title": "A contract with helper functions enabling Owner- and creator-specific functions",
    "version": 1
  },
  "userdoc": {
    "kind": "user",
    "methods": {},
    "version": 1
  }
}