{
  "contractName": "CreatorTokenOwnership",
  "abi": [
    {
      "inputs": [
        {
          "internalType": "string",
          "name": "uri",
          "type": "string"
        }
      ],
      "stateMutability": "nonpayable",
      "type": "constructor"
    },
    {
      "anonymous": false,
      "inputs": [
        {
          "indexed": true,
          "internalType": "address",
          "name": "account",
          "type": "address"
        },
        {
          "indexed": true,
          "internalType": "address",
          "name": "operator",
          "type": "address"
        },
        {
          "indexed": false,
          "internalType": "bool",
          "name": "approved",
          "type": "bool"
        }
      ],
      "name": "ApprovalForAll",
      "type": "event"
    },
    {
      "anonymous": false,
      "inputs": [
        {
          "indexed": false,
          "internalType": "uint256",
          "name": "tokenId",
          "type": "uint256"
        },
        {
          "indexed": false,
          "internalType": "address payable",
          "name": "creatorAddress",
          "type": "address"
        },
        {
          "indexed": false,
          "internalType": "string",
          "name": "name",
          "type": "string"
        },
        {
          "indexed": false,
          "internalType": "string",
          "name": "symbol",
          "type": "string"
        },
        {
          "indexed": false,
          "internalType": "string",
          "name": "description",
          "type": "string"
        },
        {
          "indexed": false,
          "internalType": "bool",
          "name": "verified",
          "type": "bool"
        },
        {
          "indexed": false,
          "internalType": "uint256",
          "name": "outstanding",
          "type": "uint256"
        },
        {
          "indexed": false,
          "internalType": "uint256",
          "name": "maxSupply",
          "type": "uint256"
        }
      ],
      "name": "NewCreatorToken",
      "type": "event"
    },
    {
      "anonymous": false,
      "inputs": [
        {
          "indexed": true,
          "internalType": "address",
          "name": "previousOwner",
          "type": "address"
        },
        {
          "indexed": true,
          "internalType": "address",
          "name": "newOwner",
          "type": "address"
        }
      ],
      "name": "OwnershipTransferred",
      "type": "event"
    },
    {
      "anonymous": false,
      "inputs": [
        {
          "indexed": true,
          "internalType": "address",
          "name": "operator",
          "type": "address"
        },
        {
          "indexed": true,
          "internalType": "address",
          "name": "from",
          "type": "address"
        },
        {
          "indexed": true,
          "internalType": "address",
          "name": "to",
          "type": "address"
        },
        {
          "indexed": false,
          "internalType": "uint256[]",
          "name": "ids",
          "type": "uint256[]"
        },
        {
          "indexed": false,
          "internalType": "uint256[]",
          "name": "values",
          "type": "uint256[]"
        }
      ],
      "name": "TransferBatch",
      "type": "event"
    },
    {
      "anonymous": false,
      "inputs": [
        {
          "indexed": true,
          "internalType": "address",
          "name": "operator",
          "type": "address"
        },
        {
          "indexed": true,
          "internalType": "address",
          "name": "from",
          "type": "address"
        },
        {
          "indexed": true,
          "internalType": "address",
          "name": "to",
          "type": "address"
        },
        {
          "indexed": false,
          "internalType": "uint256",
          "name": "id",
          "type": "uint256"
        },
        {
          "indexed": false,
          "internalType": "uint256",
          "name": "value",
          "type": "uint256"
        }
      ],
      "name": "TransferSingle",
      "type": "event"
    },
    {
      "anonymous": false,
      "inputs": [
        {
          "indexed": false,
          "internalType": "string",
          "name": "value",
          "type": "string"
        },
        {
          "indexed": true,
          "internalType": "uint256",
          "name": "id",
          "type": "uint256"
        }
      ],
      "name": "URI",
      "type": "event"
    },
    {
      "inputs": [
        {
          "internalType": "address",
          "name": "",
          "type": "address"
        },
        {
          "internalType": "address",
          "name": "",
          "type": "address"
        }
      ],
      "name": "approvals",
      "outputs": [
        {
          "internalType": "bool",
          "name": "",
          "type": "bool"
        }
      ],
      "stateMutability": "view",
      "type": "function"
    },
    {
      "inputs": [
        {
          "internalType": "address",
          "name": "account",
          "type": "address"
        },
        {
          "internalType": "uint256",
          "name": "id",
          "type": "uint256"
        }
      ],
      "name": "balanceOf",
      "outputs": [
        {
          "internalType": "uint256",
          "name": "",
          "type": "uint256"
        }
      ],
      "stateMutability": "view",
      "type": "function"
    },
    {
      "inputs": [
        {
          "internalType": "address[]",
          "name": "accounts",
          "type": "address[]"
        },
        {
          "internalType": "uint256[]",
          "name": "ids",
          "type": "uint256[]"
        }
      ],
      "name": "balanceOfBatch",
      "outputs": [
        {
          "internalType": "uint256[]",
          "name": "",
          "type": "uint256[]"
        }
      ],
      "stateMutability": "view",
      "type": "function"
    },
    {
      "inputs": [
        {
          "internalType": "uint256",
          "name": "_tokenId",
          "type": "uint256"
        },
        {
          "internalType": "address payable",
          "name": "_newCreatorAddress",
          "type": "address"
        }
      ],
      "name": "changeAddress",
      "outputs": [],
      "stateMutability": "nonpayable",
      "type": "function"
    },
    {
      "inputs": [
        {
          "internalType": "uint256",
          "name": "_tokenId",
          "type": "uint256"
        },
        {
          "internalType": "string",
          "name": "_newDescription",
          "type": "string"
        }
      ],
      "name": "changeDescription",
      "outputs": [],
      "stateMutability": "nonpayable",
      "type": "function"
    },
    {
      "inputs": [
        {
          "internalType": "uint256",
          "name": "_tokenId",
          "type": "uint256"
        },
        {
          "internalType": "string",
          "name": "_newName",
          "type": "string"
        }
      ],
      "name": "changeName",
      "outputs": [],
      "stateMutability": "nonpayable",
      "type": "function"
    },
    {
      "inputs": [
        {
          "internalType": "uint256",
          "name": "_newPlatformFee",
          "type": "uint256"
        }
      ],
      "name": "changePlatformFee",
      "outputs": [],
      "stateMutability": "nonpayable",
      "type": "function"
    },
    {
      "inputs": [
        {
          "internalType": "uint256",
          "name": "_newProfitMargin",
          "type": "uint256"
        }
      ],
      "name": "changeProfitMargin",
      "outputs": [],
      "stateMutability": "nonpayable",
      "type": "function"
    },
    {
      "inputs": [
        {
          "internalType": "uint256",
          "name": "_tokenId",
          "type": "uint256"
        },
        {
          "internalType": "string",
          "name": "_newSymbol",
          "type": "string"
        }
      ],
      "name": "changeSymbol",
      "outputs": [],
      "stateMutability": "nonpayable",
      "type": "function"
    },
    {
      "inputs": [
        {
          "internalType": "uint256",
          "name": "_tokenId",
          "type": "uint256"
        },
        {
          "internalType": "bool",
          "name": "_verified",
          "type": "bool"
        }
      ],
      "name": "changeVerification",
      "outputs": [],
      "stateMutability": "nonpayable",
      "type": "function"
    },
    {
      "inputs": [
        {
          "internalType": "address payable",
          "name": "_creatorAddress",
          "type": "address"
        },
        {
          "internalType": "string",
          "name": "_name",
          "type": "string"
        },
        {
          "internalType": "string",
          "name": "_symbol",
          "type": "string"
        },
        {
          "internalType": "string",
          "name": "_description",
          "type": "string"
        }
      ],
      "name": "createCreatorToken",
      "outputs": [],
      "stateMutability": "nonpayable",
      "type": "function"
    },
    {
      "inputs": [
        {
          "internalType": "uint256",
          "name": "",
          "type": "uint256"
        }
      ],
      "name": "creatorTokens",
      "outputs": [
        {
          "internalType": "address payable",
          "name": "creatorAddress",
          "type": "address"
        },
        {
          "internalType": "string",
          "name": "name",
          "type": "string"
        },
        {
          "internalType": "string",
          "name": "symbol",
          "type": "string"
        },
        {
          "internalType": "string",
          "name": "description",
          "type": "string"
        },
        {
          "internalType": "bool",
          "name": "verified",
          "type": "bool"
        },
        {
          "internalType": "uint256",
          "name": "outstanding",
          "type": "uint256"
        },
        {
          "internalType": "uint256",
          "name": "maxSupply",
          "type": "uint256"
        },
        {
          "internalType": "uint256",
          "name": "lastPrice",
          "type": "uint256"
        },
        {
          "internalType": "uint256",
          "name": "creatorTokenId",
          "type": "uint256"
        }
      ],
      "stateMutability": "view",
      "type": "function"
    },
    {
      "inputs": [],
      "name": "getCreatorTokenCount",
      "outputs": [
        {
          "internalType": "uint256",
          "name": "",
          "type": "uint256"
        }
      ],
      "stateMutability": "view",
      "type": "function"
    },
    {
      "inputs": [],
      "name": "numCreatorTokens",
      "outputs": [
        {
          "internalType": "uint256",
          "name": "",
          "type": "uint256"
        }
      ],
      "stateMutability": "view",
      "type": "function"
    },
    {
      "inputs": [],
      "name": "owner",
      "outputs": [
        {
          "internalType": "address",
          "name": "",
          "type": "address"
        }
      ],
      "stateMutability": "view",
      "type": "function"
    },
    {
      "inputs": [
        {
          "internalType": "address payable",
          "name": "_owner",
          "type": "address"
        }
      ],
      "name": "payoutPlatformFees",
      "outputs": [],
      "stateMutability": "nonpayable",
      "type": "function"
    },
    {
      "inputs": [],
      "name": "platformFeesOwed",
      "outputs": [
        {
          "internalType": "uint256",
          "name": "",
          "type": "uint256"
        }
      ],
      "stateMutability": "view",
      "type": "function"
    },
    {
      "inputs": [],
      "name": "renounceOwnership",
      "outputs": [],
      "stateMutability": "nonpayable",
      "type": "function"
    },
    {
      "inputs": [
        {
          "internalType": "bytes4",
          "name": "interfaceId",
          "type": "bytes4"
        }
      ],
      "name": "supportsInterface",
      "outputs": [
        {
          "internalType": "bool",
          "name": "",
          "type": "bool"
        }
      ],
      "stateMutability": "view",
      "type": "function"
    },
    {
      "inputs": [
        {
          "internalType": "uint256",
          "name": "",
          "type": "uint256"
        },
        {
          "internalType": "address",
          "name": "",
          "type": "address"
        }
      ],
      "name": "tokenHoldership",
      "outputs": [
        {
          "internalType": "uint256",
          "name": "",
          "type": "uint256"
        }
      ],
      "stateMutability": "view",
      "type": "function"
    },
    {
      "inputs": [
        {
          "internalType": "uint256",
          "name": "",
          "type": "uint256"
        }
      ],
      "name": "tokenToCreator",
      "outputs": [
        {
          "internalType": "address",
          "name": "",
          "type": "address"
        }
      ],
      "stateMutability": "view",
      "type": "function"
    },
    {
      "inputs": [
        {
          "internalType": "uint256",
          "name": "",
          "type": "uint256"
        }
      ],
      "name": "tokenValueTransferred",
      "outputs": [
        {
          "internalType": "uint256",
          "name": "",
          "type": "uint256"
        }
      ],
      "stateMutability": "view",
      "type": "function"
    },
    {
      "inputs": [],
      "name": "totalPlatformFees",
      "outputs": [
        {
          "internalType": "uint256",
          "name": "",
          "type": "uint256"
        }
      ],
      "stateMutability": "view",
      "type": "function"
    },
    {
      "inputs": [
        {
          "internalType": "uint256",
          "name": "",
          "type": "uint256"
        }
      ],
      "name": "totalValueLocked",
      "outputs": [
        {
          "internalType": "uint256",
          "name": "",
          "type": "uint256"
        }
      ],
      "stateMutability": "view",
      "type": "function"
    },
    {
      "inputs": [
        {
          "internalType": "address",
          "name": "newOwner",
          "type": "address"
        }
      ],
      "name": "transferOwnership",
      "outputs": [],
      "stateMutability": "nonpayable",
      "type": "function"
    },
    {
      "inputs": [
        {
          "internalType": "uint256",
          "name": "",
          "type": "uint256"
        }
      ],
      "name": "uri",
      "outputs": [
        {
          "internalType": "string",
          "name": "",
          "type": "string"
        }
      ],
      "stateMutability": "view",
      "type": "function"
    },
    {
      "inputs": [
        {
          "internalType": "address",
          "name": "",
          "type": "address"
        },
        {
          "internalType": "uint256",
          "name": "",
          "type": "uint256"
        }
      ],
      "name": "userToHoldings",
      "outputs": [
        {
          "internalType": "uint256",
          "name": "",
          "type": "uint256"
        }
      ],
      "stateMutability": "view",
      "type": "function"
    },
    {
      "inputs": [
        {
          "internalType": "address payable",
          "name": "_owner",
          "type": "address"
        }
      ],
      "name": "withdraw",
      "outputs": [],
      "stateMutability": "nonpayable",
      "type": "function"
    },
    {
      "inputs": [
        {
          "internalType": "address",
          "name": "_from",
          "type": "address"
        },
        {
          "internalType": "address",
          "name": "_to",
          "type": "address"
        },
        {
          "internalType": "uint256",
          "name": "_id",
          "type": "uint256"
        },
        {
          "internalType": "uint256",
          "name": "_amount",
          "type": "uint256"
        },
        {
          "internalType": "bytes",
          "name": "_data",
          "type": "bytes"
        }
      ],
      "name": "safeTransferFrom",
      "outputs": [],
      "stateMutability": "nonpayable",
      "type": "function"
    },
    {
      "inputs": [
        {
          "internalType": "address",
          "name": "_from",
          "type": "address"
        },
        {
          "internalType": "address",
          "name": "_to",
          "type": "address"
        },
        {
          "internalType": "uint256[]",
          "name": "_ids",
          "type": "uint256[]"
        },
        {
          "internalType": "uint256[]",
          "name": "_amounts",
          "type": "uint256[]"
        },
        {
          "internalType": "bytes",
          "name": "_data",
          "type": "bytes"
        }
      ],
      "name": "safeBatchTransferFrom",
      "outputs": [],
      "stateMutability": "nonpayable",
      "type": "function"
    },
    {
      "inputs": [
        {
          "internalType": "address",
          "name": "_operator",
          "type": "address"
        },
        {
          "internalType": "bool",
          "name": "_approved",
          "type": "bool"
        }
      ],
      "name": "setApprovalForAll",
      "outputs": [],
      "stateMutability": "nonpayable",
      "type": "function"
    },
    {
      "inputs": [
        {
          "internalType": "address",
          "name": "_account",
          "type": "address"
        },
        {
          "internalType": "address",
          "name": "_operator",
          "type": "address"
        }
      ],
      "name": "isApprovedForAll",
      "outputs": [
        {
          "internalType": "bool",
          "name": "",
          "type": "bool"
        }
      ],
      "stateMutability": "view",
      "type": "function"
    }
  ],
  "bytecode": "0x608060405260018055600060025560006003556000600455601460055565082f79cd900060065560b96007553480156200003857600080fd5b50604051620035f9380380620035f983398181016040528101906200005e91906200027a565b806000620000716200012860201b60201c565b9050806000806101000a81548173ffffffffffffffffffffffffffffffffffffffff021916908373ffffffffffffffffffffffffffffffffffffffff1602179055508073ffffffffffffffffffffffffffffffffffffffff16600073ffffffffffffffffffffffffffffffffffffffff167f8be0079c531659141344cd1fd0a4f28419497f9722a3daafe3b4186f6b6457e060405160405180910390a35062000120816200013060201b60201c565b50506200044f565b600033905090565b8060119080519060200190620001489291906200014c565b5050565b8280546200015a9062000360565b90600052602060002090601f0160209004810192826200017e5760008555620001ca565b82601f106200019957805160ff1916838001178555620001ca565b82800160010185558215620001ca579182015b82811115620001c9578251825591602001919060010190620001ac565b5b509050620001d99190620001dd565b5090565b5b80821115620001f8576000816000905550600101620001de565b5090565b6000620002136200020d84620002f4565b620002cb565b9050828152602081018484840111156200023257620002316200042f565b5b6200023f8482856200032a565b509392505050565b600082601f8301126200025f576200025e6200042a565b5b815162000271848260208601620001fc565b91505092915050565b60006020828403121562000293576200029262000439565b5b600082015167ffffffffffffffff811115620002b457620002b362000434565b5b620002c28482850162000247565b91505092915050565b6000620002d7620002ea565b9050620002e5828262000396565b919050565b6000604051905090565b600067ffffffffffffffff821115620003125762000311620003fb565b5b6200031d826200043e565b9050602081019050919050565b60005b838110156200034a5780820151818401526020810190506200032d565b838111156200035a576000848401525b50505050565b600060028204905060018216806200037957607f821691505b6020821081141562000390576200038f620003cc565b5b50919050565b620003a1826200043e565b810181811067ffffffffffffffff82111715620003c357620003c2620003fb565b5b80604052505050565b7f4e487b7100000000000000000000000000000000000000000000000000000000600052602260045260246000fd5b7f4e487b7100000000000000000000000000000000000000000000000000000000600052604160045260246000fd5b600080fd5b600080fd5b600080fd5b600080fd5b6000601f19601f8301169050919050565b61319a806200045f6000396000f3fe608060405234801561001057600080fd5b50600436106101ef5760003560e01c8063afb218321161010f578063d7a5791a116100a2578063eb84175911610071578063eb841759146105f4578063f242432a14610610578063f2fde38b1461062c578063f7374e2e14610648576101ef565b8063d7a5791a1461055c578063d9bd3a4014610578578063de6a06ed146105a8578063e985e9c5146105c4576101ef565b8063c539c317116100de578063c539c317146104ce578063ce901d8a146104ea578063d3631fa514610522578063d56b72c714610540576101ef565b8063afb2183214610446578063bfb48c9c14610464578063c1d3304914610494578063c39cbef1146104b2576101ef565b80632eb2c2d6116101875780638da5cb5b116101565780638da5cb5b146103ac57806392724afa146103ca578063a22cb465146103fa578063a32ce11e14610416576101ef565b80632eb2c2d61461033a5780634e1273f41461035657806351cff8d914610386578063715018a6146103a2576101ef565b806317bcaa08116101c357806317bcaa08146102a057806318892ae8146102d05780631d5ad18b146103005780632a2b237c1461031c576101ef565b8062fdd58e146101f457806301ffc9a71461022457806306e320f5146102545780630e89341c14610270575b600080fd5b61020e6004803603810190610209919061253b565b610664565b60405161021b9190612ad5565b60405180910390f35b61023e600480360381019061023991906125f3565b61072e565b60405161024b9190612a18565b60405180910390f35b61026e6004803603810190610269919061270d565b610810565b005b61028a60048036038101906102859190612620565b6108b7565b6040516102979190612a33565b60405180910390f35b6102ba60048036038101906102b59190612620565b61094b565b6040516102c79190612ad5565b60405180910390f35b6102ea60048036038101906102e59190612620565b610963565b6040516102f79190612902565b60405180910390f35b61031a6004803603810190610315919061268d565b610996565b005b610324610a6b565b6040516103319190612ad5565b60405180910390f35b610354600480360381019061034f9190612395565b610a78565b005b610370600480360381019061036b919061257b565b610be4565b60405161037d91906129bf565b60405180910390f35b6103a0600480360381019061039b919061226d565b610cfd565b005b6103aa610dc3565b005b6103b4610efd565b6040516103c19190612902565b60405180910390f35b6103e460048036038101906103df919061253b565b610f26565b6040516103f19190612ad5565b60405180910390f35b610414600480360381019061040f91906124fb565b610f4b565b005b610430600480360381019061042b9190612355565b611048565b60405161043d9190612a18565b60405180910390f35b61044e611077565b60405161045b9190612ad5565b60405180910390f35b61047e6004803603810190610479919061264d565b61107d565b60405161048b9190612ad5565b60405180910390f35b61049c6110a2565b6040516104a99190612ad5565b60405180910390f35b6104cc60048036038101906104c7919061270d565b6110a8565b005b6104e860048036038101906104e39190612620565b61114f565b005b61050460048036038101906104ff9190612620565b6111d5565b6040516105199998979695949392919061291d565b60405180910390f35b61052a6113f8565b6040516105379190612ad5565b60405180910390f35b61055a6004803603810190610555919061229a565b6113fe565b005b61057660048036038101906105719190612620565b611631565b005b610592600480360381019061058d9190612620565b6116b7565b60405161059f9190612ad5565b60405180910390f35b6105c260048036038101906105bd919061270d565b6116cf565b005b6105de60048036038101906105d99190612355565b611776565b6040516105eb9190612a18565b60405180910390f35b61060e6004803603810190610609919061226d565b61180a565b005b61062a60048036038101906106259190612464565b6118da565b005b61064660048036038101906106419190612240565b6119be565b005b610662600480360381019061065d91906126cd565b611b67565b005b60008073ffffffffffffffffffffffffffffffffffffffff168373ffffffffffffffffffffffffffffffffffffffff1614156106d5576040517f08c379a00000000000000000000000000000000000000000000000000000000081526004016106cc90612a55565b60405180910390fd5b600f600083815260200190815260200160002060008473ffffffffffffffffffffffffffffffffffffffff1673ffffffffffffffffffffffffffffffffffffffff16815260200190815260200160002054905092915050565b60007fd9b67a26000000000000000000000000000000000000000000000000000000007bffffffffffffffffffffffffffffffffffffffffffffffffffffffff1916827bffffffffffffffffffffffffffffffffffffffffffffffffffffffff191614806107f957507f0e89341c000000000000000000000000000000000000000000000000000000007bffffffffffffffffffffffffffffffffffffffffffffffffffffffff1916827bffffffffffffffffffffffffffffffffffffffffffffffffffffffff1916145b80610809575061080882611c24565b5b9050919050565b826009600082815260200190815260200160002060009054906101000a900473ffffffffffffffffffffffffffffffffffffffff1673ffffffffffffffffffffffffffffffffffffffff163373ffffffffffffffffffffffffffffffffffffffff161461087c57600080fd5b82826008868154811061089257610891612f4e565b5b906000526020600020906009020160020191906108b0929190611e3c565b5050505050565b6060601180546108c690612e44565b80601f01602080910402602001604051908101604052809291908181526020018280546108f290612e44565b801561093f5780601f106109145761010080835404028352916020019161093f565b820191906000526020600020905b81548152906001019060200180831161092257829003601f168201915b50505050509050919050565b600a6020528060005260406000206000915090505481565b60096020528060005260406000206000915054906101000a900473ffffffffffffffffffffffffffffffffffffffff1681565b816009600082815260200190815260200160002060009054906101000a900473ffffffffffffffffffffffffffffffffffffffff1673ffffffffffffffffffffffffffffffffffffffff163373ffffffffffffffffffffffffffffffffffffffff1614610a0257600080fd5b8160088481548110610a1757610a16612f4e565b5b906000526020600020906009020160000160006101000a81548173ffffffffffffffffffffffffffffffffffffffff021916908373ffffffffffffffffffffffffffffffffffffffff160217905550505050565b6000600880549050905090565b60005b8351811015610b5e578573ffffffffffffffffffffffffffffffffffffffff163373ffffffffffffffffffffffffffffffffffffffff161480610ac45750610ac38686611776565b5b610acd57600080fd5b610b0c86858381518110610ae457610ae3612f4e565b5b6020026020010151858481518110610aff57610afe612f4e565b5b6020026020010151611c8e565b610b4b85858381518110610b2357610b22612f4e565b5b6020026020010151858481518110610b3e57610b3d612f4e565b5b6020026020010151611d61565b8080610b5690612ea7565b915050610a7b565b508373ffffffffffffffffffffffffffffffffffffffff168573ffffffffffffffffffffffffffffffffffffffff163373ffffffffffffffffffffffffffffffffffffffff167f4a39dc06d4c0dbc64b70af90fd698a233a518aa5d07e595d983b8c0526c8f7fb8686604051610bd59291906129e1565b60405180910390a45050505050565b60608151835114610c2a576040517f08c379a0000000000000000000000000000000000000000000000000000000008152600401610c2190612ab5565b60405180910390fd5b6000835167ffffffffffffffff811115610c4757610c46612f7d565b5b604051908082528060200260200182016040528015610c755781602001602082028036833780820191505090505b50905060005b8451811015610cf257610cc2858281518110610c9a57610c99612f4e565b5b6020026020010151858381518110610cb557610cb4612f4e565b5b6020026020010151610664565b828281518110610cd557610cd4612f4e565b5b60200260200101818152505080610ceb90612ea7565b9050610c7b565b508091505092915050565b610d05611e34565b73ffffffffffffffffffffffffffffffffffffffff16610d23610efd565b73ffffffffffffffffffffffffffffffffffffffff1614610d79576040517f08c379a0000000000000000000000000000000000000000000000000000000008152600401610d7090612a95565b60405180910390fd5b8073ffffffffffffffffffffffffffffffffffffffff166108fc479081150290604051600060405180830381858888f19350505050158015610dbf573d6000803e3d6000fd5b5050565b610dcb611e34565b73ffffffffffffffffffffffffffffffffffffffff16610de9610efd565b73ffffffffffffffffffffffffffffffffffffffff1614610e3f576040517f08c379a0000000000000000000000000000000000000000000000000000000008152600401610e3690612a95565b60405180910390fd5b600073ffffffffffffffffffffffffffffffffffffffff1660008054906101000a900473ffffffffffffffffffffffffffffffffffffffff1673ffffffffffffffffffffffffffffffffffffffff167f8be0079c531659141344cd1fd0a4f28419497f9722a3daafe3b4186f6b6457e060405160405180910390a360008060006101000a81548173ffffffffffffffffffffffffffffffffffffffff021916908373ffffffffffffffffffffffffffffffffffffffff160217905550565b60008060009054906101000a900473ffffffffffffffffffffffffffffffffffffffff16905090565b600c602052816000526040600020602052806000526040600020600091509150505481565b80600d60003373ffffffffffffffffffffffffffffffffffffffff1673ffffffffffffffffffffffffffffffffffffffff16815260200190815260200160002060008473ffffffffffffffffffffffffffffffffffffffff1673ffffffffffffffffffffffffffffffffffffffff16815260200190815260200160002060006101000a81548160ff0219169083151502179055508173ffffffffffffffffffffffffffffffffffffffff163373ffffffffffffffffffffffffffffffffffffffff167f17307eab39ab6107e8899845ad3d59bd9653f200f220920489ca2b5937696c318360405161103c9190612a18565b60405180910390a35050565b600d6020528160005260406000206020528060005260406000206000915091509054906101000a900460ff1681565b60045481565b600b602052816000526040600020602052806000526040600020600091509150505481565b60035481565b826009600082815260200190815260200160002060009054906101000a900473ffffffffffffffffffffffffffffffffffffffff1673ffffffffffffffffffffffffffffffffffffffff163373ffffffffffffffffffffffffffffffffffffffff161461111457600080fd5b82826008868154811061112a57611129612f4e565b5b90600052602060002090600902016001019190611148929190611e3c565b5050505050565b611157611e34565b73ffffffffffffffffffffffffffffffffffffffff16611175610efd565b73ffffffffffffffffffffffffffffffffffffffff16146111cb576040517f08c379a00000000000000000000000000000000000000000000000000000000081526004016111c290612a95565b60405180910390fd5b8060058190555050565b600881815481106111e557600080fd5b90600052602060002090600902016000915090508060000160009054906101000a900473ffffffffffffffffffffffffffffffffffffffff169080600101805461122e90612e44565b80601f016020809104026020016040519081016040528092919081815260200182805461125a90612e44565b80156112a75780601f1061127c576101008083540402835291602001916112a7565b820191906000526020600020905b81548152906001019060200180831161128a57829003601f168201915b5050505050908060020180546112bc90612e44565b80601f01602080910402602001604051908101604052809291908181526020018280546112e890612e44565b80156113355780601f1061130a57610100808354040283529160200191611335565b820191906000526020600020905b81548152906001019060200180831161131857829003601f168201915b50505050509080600301805461134a90612e44565b80601f016020809104026020016040519081016040528092919081815260200182805461137690612e44565b80156113c35780601f10611398576101008083540402835291602001916113c3565b820191906000526020600020905b8154815290600101906020018083116113a657829003601f168201915b5050505050908060040160009054906101000a900460ff16908060050154908060060154908060070154908060080154905089565b60025481565b6000600880549050905060086040518061012001604052808773ffffffffffffffffffffffffffffffffffffffff16815260200186815260200185815260200184815260200160001515815260200160008152602001600081526020016000815260200183815250908060018154018082558091505060019003906000526020600020906009020160009091909190915060008201518160000160006101000a81548173ffffffffffffffffffffffffffffffffffffffff021916908373ffffffffffffffffffffffffffffffffffffffff16021790555060208201518160010190805190602001906114f2929190611ec2565b50604082015181600201908051906020019061150f929190611ec2565b50606082015181600301908051906020019061152c929190611ec2565b5060808201518160040160006101000a81548160ff02191690831515021790555060a0820151816005015560c0820151816006015560e0820151816007015561010082015181600801555050846009600083815260200190815260200160002060006101000a81548173ffffffffffffffffffffffffffffffffffffffff021916908373ffffffffffffffffffffffffffffffffffffffff1602179055506000600a6000838152602001908152602001600020819055507f3ef624c0f3fb7ad40b94c02078ea3e3a797dbfc21e921ee4bd2b8ad0ca6aa11381868686866000806000604051611622989796959493929190612af0565b60405180910390a15050505050565b611639611e34565b73ffffffffffffffffffffffffffffffffffffffff16611657610efd565b73ffffffffffffffffffffffffffffffffffffffff16146116ad576040517f08c379a00000000000000000000000000000000000000000000000000000000081526004016116a490612a95565b60405180910390fd5b8060018190555050565b600e6020528060005260406000206000915090505481565b826009600082815260200190815260200160002060009054906101000a900473ffffffffffffffffffffffffffffffffffffffff1673ffffffffffffffffffffffffffffffffffffffff163373ffffffffffffffffffffffffffffffffffffffff161461173b57600080fd5b82826008868154811061175157611750612f4e565b5b9060005260206000209060090201600301919061176f929190611e3c565b5050505050565b6000600d60008473ffffffffffffffffffffffffffffffffffffffff1673ffffffffffffffffffffffffffffffffffffffff16815260200190815260200160002060008373ffffffffffffffffffffffffffffffffffffffff1673ffffffffffffffffffffffffffffffffffffffff16815260200190815260200160002060009054906101000a900460ff16905092915050565b611812611e34565b73ffffffffffffffffffffffffffffffffffffffff16611830610efd565b73ffffffffffffffffffffffffffffffffffffffff1614611886576040517f08c379a000000000000000000000000000000000000000000000000000000000815260040161187d90612a95565b60405180910390fd5b8073ffffffffffffffffffffffffffffffffffffffff166108fc6003549081150290604051600060405180830381858888f193505050501580156118ce573d6000803e3d6000fd5b50600060038190555050565b8473ffffffffffffffffffffffffffffffffffffffff163373ffffffffffffffffffffffffffffffffffffffff16148061191a57506119198585611776565b5b61192357600080fd5b61192e858484611c8e565b611939848484611d61565b8373ffffffffffffffffffffffffffffffffffffffff168573ffffffffffffffffffffffffffffffffffffffff163373ffffffffffffffffffffffffffffffffffffffff167fc3d58168c5ae7397731d063d5bbf3d657854427343f4c083240f7aacaa2d0f6286866040516119af929190612b83565b60405180910390a45050505050565b6119c6611e34565b73ffffffffffffffffffffffffffffffffffffffff166119e4610efd565b73ffffffffffffffffffffffffffffffffffffffff1614611a3a576040517f08c379a0000000000000000000000000000000000000000000000000000000008152600401611a3190612a95565b60405180910390fd5b600073ffffffffffffffffffffffffffffffffffffffff168173ffffffffffffffffffffffffffffffffffffffff161415611aaa576040517f08c379a0000000000000000000000000000000000000000000000000000000008152600401611aa190612a75565b60405180910390fd5b8073ffffffffffffffffffffffffffffffffffffffff1660008054906101000a900473ffffffffffffffffffffffffffffffffffffffff1673ffffffffffffffffffffffffffffffffffffffff167f8be0079c531659141344cd1fd0a4f28419497f9722a3daafe3b4186f6b6457e060405160405180910390a3806000806101000a81548173ffffffffffffffffffffffffffffffffffffffff021916908373ffffffffffffffffffffffffffffffffffffffff16021790555050565b611b6f611e34565b73ffffffffffffffffffffffffffffffffffffffff16611b8d610efd565b73ffffffffffffffffffffffffffffffffffffffff1614611be3576040517f08c379a0000000000000000000000000000000000000000000000000000000008152600401611bda90612a95565b60405180910390fd5b8060088381548110611bf857611bf7612f4e565b5b906000526020600020906009020160040160006101000a81548160ff0219169083151502179055505050565b60007f01ffc9a7000000000000000000000000000000000000000000000000000000007bffffffffffffffffffffffffffffffffffffffffffffffffffffffff1916827bffffffffffffffffffffffffffffffffffffffffffffffffffffffff1916149050919050565b80600b600084815260200190815260200160002060008573ffffffffffffffffffffffffffffffffffffffff1673ffffffffffffffffffffffffffffffffffffffff1681526020019081526020016000206000828254611cee9190612d36565b9250508190555080600c60008573ffffffffffffffffffffffffffffffffffffffff1673ffffffffffffffffffffffffffffffffffffffff16815260200190815260200160002060008481526020019081526020016000206000828254611d559190612d36565b92505081905550505050565b80600b600084815260200190815260200160002060008573ffffffffffffffffffffffffffffffffffffffff1673ffffffffffffffffffffffffffffffffffffffff1681526020019081526020016000206000828254611dc19190612ce0565b9250508190555080600c60008573ffffffffffffffffffffffffffffffffffffffff1673ffffffffffffffffffffffffffffffffffffffff16815260200190815260200160002060008481526020019081526020016000206000828254611e289190612ce0565b92505081905550505050565b600033905090565b828054611e4890612e44565b90600052602060002090601f016020900481019282611e6a5760008555611eb1565b82601f10611e8357803560ff1916838001178555611eb1565b82800160010185558215611eb1579182015b82811115611eb0578235825591602001919060010190611e95565b5b509050611ebe9190611f48565b5090565b828054611ece90612e44565b90600052602060002090601f016020900481019282611ef05760008555611f37565b82601f10611f0957805160ff1916838001178555611f37565b82800160010185558215611f37579182015b82811115611f36578251825591602001919060010190611f1b565b5b509050611f449190611f48565b5090565b5b80821115611f61576000816000905550600101611f49565b5090565b6000611f78611f7384612bd1565b612bac565b90508083825260208201905082856020860282011115611f9b57611f9a612fb6565b5b60005b85811015611fcb5781611fb188826120c9565b845260208401935060208301925050600181019050611f9e565b5050509392505050565b6000611fe8611fe384612bfd565b612bac565b9050808382526020820190508285602086028201111561200b5761200a612fb6565b5b60005b8581101561203b5781612021888261222b565b84526020840193506020830192505060018101905061200e565b5050509392505050565b600061205861205384612c29565b612bac565b90508281526020810184848401111561207457612073612fbb565b5b61207f848285612e02565b509392505050565b600061209a61209584612c5a565b612bac565b9050828152602081018484840111156120b6576120b5612fbb565b5b6120c1848285612e02565b509392505050565b6000813590506120d8816130f1565b92915050565b6000813590506120ed81613108565b92915050565b600082601f83011261210857612107612fb1565b5b8135612118848260208601611f65565b91505092915050565b600082601f83011261213657612135612fb1565b5b8135612146848260208601611fd5565b91505092915050565b60008135905061215e8161311f565b92915050565b60008135905061217381613136565b92915050565b600082601f83011261218e5761218d612fb1565b5b813561219e848260208601612045565b91505092915050565b60008083601f8401126121bd576121bc612fb1565b5b8235905067ffffffffffffffff8111156121da576121d9612fac565b5b6020830191508360018202830111156121f6576121f5612fb6565b5b9250929050565b600082601f83011261221257612211612fb1565b5b8135612222848260208601612087565b91505092915050565b60008135905061223a8161314d565b92915050565b60006020828403121561225657612255612fc5565b5b6000612264848285016120c9565b91505092915050565b60006020828403121561228357612282612fc5565b5b6000612291848285016120de565b91505092915050565b600080600080608085870312156122b4576122b3612fc5565b5b60006122c2878288016120de565b945050602085013567ffffffffffffffff8111156122e3576122e2612fc0565b5b6122ef878288016121fd565b935050604085013567ffffffffffffffff8111156123105761230f612fc0565b5b61231c878288016121fd565b925050606085013567ffffffffffffffff81111561233d5761233c612fc0565b5b612349878288016121fd565b91505092959194509250565b6000806040838503121561236c5761236b612fc5565b5b600061237a858286016120c9565b925050602061238b858286016120c9565b9150509250929050565b600080600080600060a086880312156123b1576123b0612fc5565b5b60006123bf888289016120c9565b95505060206123d0888289016120c9565b945050604086013567ffffffffffffffff8111156123f1576123f0612fc0565b5b6123fd88828901612121565b935050606086013567ffffffffffffffff81111561241e5761241d612fc0565b5b61242a88828901612121565b925050608086013567ffffffffffffffff81111561244b5761244a612fc0565b5b61245788828901612179565b9150509295509295909350565b600080600080600060a086880312156124805761247f612fc5565b5b600061248e888289016120c9565b955050602061249f888289016120c9565b94505060406124b08882890161222b565b93505060606124c18882890161222b565b925050608086013567ffffffffffffffff8111156124e2576124e1612fc0565b5b6124ee88828901612179565b9150509295509295909350565b6000806040838503121561251257612511612fc5565b5b6000612520858286016120c9565b92505060206125318582860161214f565b9150509250929050565b6000806040838503121561255257612551612fc5565b5b6000612560858286016120c9565b92505060206125718582860161222b565b9150509250929050565b6000806040838503121561259257612591612fc5565b5b600083013567ffffffffffffffff8111156125b0576125af612fc0565b5b6125bc858286016120f3565b925050602083013567ffffffffffffffff8111156125dd576125dc612fc0565b5b6125e985828601612121565b9150509250929050565b60006020828403121561260957612608612fc5565b5b600061261784828501612164565b91505092915050565b60006020828403121561263657612635612fc5565b5b60006126448482850161222b565b91505092915050565b6000806040838503121561266457612663612fc5565b5b60006126728582860161222b565b9250506020612683858286016120c9565b9150509250929050565b600080604083850312156126a4576126a3612fc5565b5b60006126b28582860161222b565b92505060206126c3858286016120de565b9150509250929050565b600080604083850312156126e4576126e3612fc5565b5b60006126f28582860161222b565b92505060206127038582860161214f565b9150509250929050565b60008060006040848603121561272657612725612fc5565b5b60006127348682870161222b565b935050602084013567ffffffffffffffff81111561275557612754612fc0565b5b612761868287016121a7565b92509250509250925092565b600061277983836128e4565b60208301905092915050565b61278e81612d7c565b82525050565b61279d81612d6a565b82525050565b60006127ae82612c9b565b6127b88185612cbe565b93506127c383612c8b565b8060005b838110156127f45781516127db888261276d565b97506127e683612cb1565b9250506001810190506127c7565b5085935050505092915050565b61280a81612d8e565b82525050565b61281981612df0565b82525050565b600061282a82612ca6565b6128348185612ccf565b9350612844818560208601612e11565b61284d81612fca565b840191505092915050565b6000612865602b83612ccf565b915061287082612fdb565b604082019050919050565b6000612888602683612ccf565b91506128938261302a565b604082019050919050565b60006128ab602083612ccf565b91506128b682613079565b602082019050919050565b60006128ce602983612ccf565b91506128d9826130a2565b604082019050919050565b6128ed81612de6565b82525050565b6128fc81612de6565b82525050565b60006020820190506129176000830184612794565b92915050565b600061012082019050612933600083018c612785565b8181036020830152612945818b61281f565b90508181036040830152612959818a61281f565b9050818103606083015261296d818961281f565b905061297c6080830188612801565b61298960a08301876128f3565b61299660c08301866128f3565b6129a360e08301856128f3565b6129b16101008301846128f3565b9a9950505050505050505050565b600060208201905081810360008301526129d981846127a3565b905092915050565b600060408201905081810360008301526129fb81856127a3565b90508181036020830152612a0f81846127a3565b90509392505050565b6000602082019050612a2d6000830184612801565b92915050565b60006020820190508181036000830152612a4d818461281f565b905092915050565b60006020820190508181036000830152612a6e81612858565b9050919050565b60006020820190508181036000830152612a8e8161287b565b9050919050565b60006020820190508181036000830152612aae8161289e565b9050919050565b60006020820190508181036000830152612ace816128c1565b9050919050565b6000602082019050612aea60008301846128f3565b92915050565b600061010082019050612b06600083018b6128f3565b612b13602083018a612785565b8181036040830152612b25818961281f565b90508181036060830152612b39818861281f565b90508181036080830152612b4d818761281f565b9050612b5c60a0830186612801565b612b6960c0830185612810565b612b7660e0830184612810565b9998505050505050505050565b6000604082019050612b9860008301856128f3565b612ba560208301846128f3565b9392505050565b6000612bb6612bc7565b9050612bc28282612e76565b919050565b6000604051905090565b600067ffffffffffffffff821115612bec57612beb612f7d565b5b602082029050602081019050919050565b600067ffffffffffffffff821115612c1857612c17612f7d565b5b602082029050602081019050919050565b600067ffffffffffffffff821115612c4457612c43612f7d565b5b612c4d82612fca565b9050602081019050919050565b600067ffffffffffffffff821115612c7557612c74612f7d565b5b612c7e82612fca565b9050602081019050919050565b6000819050602082019050919050565b600081519050919050565b600081519050919050565b6000602082019050919050565b600082825260208201905092915050565b600082825260208201905092915050565b6000612ceb82612de6565b9150612cf683612de6565b9250827fffffffffffffffffffffffffffffffffffffffffffffffffffffffffffffffff03821115612d2b57612d2a612ef0565b5b828201905092915050565b6000612d4182612de6565b9150612d4c83612de6565b925082821015612d5f57612d5e612ef0565b5b828203905092915050565b6000612d7582612dc6565b9050919050565b6000612d8782612dc6565b9050919050565b60008115159050919050565b60007fffffffff0000000000000000000000000000000000000000000000000000000082169050919050565b600073ffffffffffffffffffffffffffffffffffffffff82169050919050565b6000819050919050565b6000612dfb82612de6565b9050919050565b82818337600083830152505050565b60005b83811015612e2f578082015181840152602081019050612e14565b83811115612e3e576000848401525b50505050565b60006002820490506001821680612e5c57607f821691505b60208210811415612e7057612e6f612f1f565b5b50919050565b612e7f82612fca565b810181811067ffffffffffffffff82111715612e9e57612e9d612f7d565b5b80604052505050565b6000612eb282612de6565b91507fffffffffffffffffffffffffffffffffffffffffffffffffffffffffffffffff821415612ee557612ee4612ef0565b5b600182019050919050565b7f4e487b7100000000000000000000000000000000000000000000000000000000600052601160045260246000fd5b7f4e487b7100000000000000000000000000000000000000000000000000000000600052602260045260246000fd5b7f4e487b7100000000000000000000000000000000000000000000000000000000600052603260045260246000fd5b7f4e487b7100000000000000000000000000000000000000000000000000000000600052604160045260246000fd5b600080fd5b600080fd5b600080fd5b600080fd5b600080fd5b600080fd5b6000601f19601f8301169050919050565b7f455243313135353a2062616c616e636520717565727920666f7220746865207a60008201527f65726f2061646472657373000000000000000000000000000000000000000000602082015250565b7f4f776e61626c653a206e6577206f776e657220697320746865207a65726f206160008201527f6464726573730000000000000000000000000000000000000000000000000000602082015250565b7f4f776e61626c653a2063616c6c6572206973206e6f7420746865206f776e6572600082015250565b7f455243313135353a206163636f756e747320616e6420696473206c656e67746860008201527f206d69736d617463680000000000000000000000000000000000000000000000602082015250565b6130fa81612d6a565b811461310557600080fd5b50565b61311181612d7c565b811461311c57600080fd5b50565b61312881612d8e565b811461313357600080fd5b50565b61313f81612d9a565b811461314a57600080fd5b50565b61315681612de6565b811461316157600080fd5b5056fea2646970667358221220509b9d27288cd729fa48d0a5536f1eb1e8306a683ac6868b9843c1c6d9c9145e64736f6c63430008070033",
  "immutableReferences": {},
  "source": "// SPDX-License-Identifier: MIT\npragma solidity ^0.8.0;\n\nimport \"./creatortokenhelper.sol\";\nimport \"@openzeppelin/contracts/token/ERC1155/ERC1155.sol\";\n\n/// @title Contract inheriting from the ERC1155 standard\n/// @author Kamil Alizai Sadik\ncontract CreatorTokenOwnership is CreatorTokenHelper, ERC1155 {\n\n\tconstructor(string memory uri) ERC1155(uri) { }\n\n\t/// @dev Increases holdership stats of a given token\n\t/// @param _account Wallet address whose holdership is being updated\n\t/// @param _id ID of the token whose holdership is being updated\n\t/// @param _amount Amount of the change in token holdership\n\tfunction mappingIncrease(address _account, uint256 _id, uint256 _amount) internal {\n\t\ttokenHoldership[_id][_account] += _amount;\n\t\tuserToHoldings[_account][_id] += _amount;\n\t}\n\n\t/// @dev Decreases holdership stats of a given token\n\t/// @param _account Wallet address whose holdership is being updated\n\t/// @param _id ID of the token whose holdership is being updated\n\t/// @param _amount Amount of the change in token holdership\n\tfunction mappingDecrease(address _account, uint256 _id, uint256 _amount) internal {\n\t\ttokenHoldership[_id][_account] -= _amount;\n\t\tuserToHoldings[_account][_id] -= _amount;\n\t}\n\n\t/// @dev Mints a token\n\t/// @param _to Wallet address the newly minted token is assigned to\n\t/// @param _id ID of the newly minted token\n\t/// @param _amount Quantity of token to be minted\n\t/// @param _data Data\n\tfunction _mint(address _to, uint256 _id, uint256 _amount, bytes memory _data) internal override {\n\t\t//require(hasRole(MINTER_ROLE, msg.sender));\n\t\t// Update tokenHoldership mapping\n\t\tmappingIncrease(_to, _id, _amount);\n\t\t// Increase token amount outstanding\n\t\tcreatorTokens[_id].outstanding += _amount;\n\t\t// Emit single transfer event\n\t\temit TransferSingle(msg.sender, address(0), _to, _id, _amount);\n\t}\n\n\t/// @dev Mints a batch of tokens\n\t/// @param _to Wallet address the newly minted token is assigned to\n\t/// @param _ids Array of IDs of tokens to be minted\n\t/// @param _amounts Array of quantities of tokens to be minted\n\t/// @param _data Data\n\tfunction _mintBatch(address _to, uint256[] memory _ids, uint256[] memory _amounts, bytes memory _data) internal override {\n\t\t//require(hasRole(MINTER_ROLE, msg.sender));\n\t\t// Iterate through _ids\n\t\tfor (uint256 i=0; i<_ids.length; i++) {\n\t\t\t// Update tokenHoldership mapping\n\t\t\tmappingIncrease(_to, _ids[i], _amounts[i]);\n\t\t\t// Increase token amount outstanding\n\t\t\tcreatorTokens[_ids[i]].outstanding += _amounts[i];\n\t\t}\n\t\t// Emit batch transfer event\n\t\temit TransferBatch(msg.sender, address(0), _to, _ids, _amounts);\n\t}\n\n\t/// @dev Burns a token\n\t/// @param _account Account whose tokens are being burned\n\t/// @param _id ID of the token being burned\n\t/// @param _amount Quantity of the token to be burned\n\tfunction _burn(address _account, uint256 _id, uint256 _amount) internal override {\n\t\trequire(msg.sender == _account);\n\t\t// Update tokenHoldership mapping\n\t\tmappingDecrease(_account, _id, _amount);\n\t\t// Decrease token amount outstanding\n\t\tcreatorTokens[_id].outstanding -= _amount;\n\t\t// Emit single transfer event\n\t\temit TransferSingle(msg.sender, _account, address(0), _id, _amount);\n\t}\n\n\t/// @dev Burns a batch of tokens\n\t/// @param _account Account whose tokens are being burned\n\t/// @param _ids Array of IDs of the tokens being burned\n\t/// @param _amounts Array of quantities of the tokens to be burned\n\tfunction _burnBatch(address _account, uint256[] memory _ids, uint256[] memory _amounts) internal override {\n\t\trequire(msg.sender == _account);\n\t\t// Iterate through _ids\n\t\tfor (uint256 i=0; i<_ids.length; i++) {\n\t\t\t// Update tokenHoldership mapping\n\t\t\tmappingDecrease(_account, _ids[i], _amounts[i]);\n\t\t\t// Decrease token amount outstanding\n\t\t\tcreatorTokens[_ids[i]].outstanding -= _amounts[i];\n\t\t}\n\t\t// Emit batch transfer event\n\t\temit TransferBatch(msg.sender, _account, address(0), _ids, _amounts);\n\t}\n\n\t/// @dev Transfers a token\n\t/// @param _from Address token is being transferred from\n\t/// @param _to Address token is being transferred to\n\t/// @param _id ID of token being transferred\n\t/// @param _amount Quantity of token to be transferred\n\t/// @param _data Data\n\tfunction safeTransferFrom(address _from, address _to, uint256 _id, uint256 _amount, bytes memory _data) public override {\n\t\t// Require that msg.sender == _from, or that approvals[_from][_to] == true\n\t\trequire(msg.sender == _from || isApprovedForAll(_from, _to));\n\t\t// Reduce tokenHoldership holdings of _from\n\t\tmappingDecrease(_from, _id, _amount);\n\t\t// Increase tokenHoldership holdings of _to\n\t\tmappingIncrease(_to, _id, _amount);\n\t\t// Emit single transfer event\n\t\temit TransferSingle(msg.sender, _from, _to, _id, _amount);\n\t}\n\n\t/// @dev Transfers a batch of tokens\n\t/// @param _from Address token is being transferred from\n\t/// @param _to Address token is being transferred to\n\t/// @param _ids Array of IDs of tokens being transferred\n\t/// @param _amounts Array of quantities of token to be transferred\n\t/// @param _data Data\n\tfunction safeBatchTransferFrom(address _from, address _to, uint256[] memory _ids, uint256[] memory _amounts, bytes memory _data) public override {\n\t\t// Iterate through _ids\n\t\tfor (uint256 i=0; i<_ids.length; i++) {\n\t\t\t// Require that msg.sender == _from, or that approvals[_from][_to] == true\n\t\t\trequire(msg.sender == _from || isApprovedForAll(_from, _to));\n\t\t\t// Reduce tokenHoldership holdings of _from\n\t\t\tmappingDecrease(_from, _ids[i], _amounts[i]);\n\t\t\t// Increase tokenHoldership holdings of _to\n\t\t\tmappingIncrease(_to, _ids[i], _amounts[i]);\n\t\t}\n\t\t// Emit batch transfer event\n\t\temit TransferBatch(msg.sender, _from, _to, _ids, _amounts);\n\t}\n\n\t/// @dev Gives operator permission to transfer caller's tokens\n\t/// @param _operator Wallet address being granted permission\n\t/// @param _approved Boolean value indicating whether operator is approved\n\tfunction setApprovalForAll(address _operator, bool _approved) public override {\n\t\t// Update approvals mapping\n\t\tapprovals[msg.sender][_operator] = _approved;\n\t\t// Emit Approval event\n\t\temit ApprovalForAll(msg.sender, _operator, _approved);\n\t}\n\n\t/// @dev Denotes whether operator is approved to transfer account's tokens\n\t/// @param _account Wallet address holding tokens\n\t/// @param _operator Wallet address which is/isn't approved to transfer _account's tokens\n\t/// @return Boolean value indicating approval status\n\tfunction isApprovedForAll(address _account, address _operator) public view override returns (bool) {\n\t\t// Look up approvals mapping\n\t\treturn approvals[_account][_operator];\n\t}\n\n\t/// @dev Returns balance of a given token at a given address. Commented this out since this info is visible in tokenHoldership and userToHoldings mappings.\n\t/// @param _account Account in question\n\t/// @param _id ID of token whose balance we wish to find\n\t/// @return Quantity of token _id in _account\n\t//function balanceOf(address _account, uint256 _id) public view override returns (uint256) {\n\t\t// Look up _account's holdings of _id in tokenHoldership\n\t//\treturn tokenHoldership[_id][_account];\n\t//}\n\n\t/// @dev Returns balance of a batch of tokens. Commented this out since this info is visible in tokenHoldership and userToHoldings mappings.\n\t/// @param _accounts Array of accounts in question\n\t/// @param _ids Array of IDs of token whose balances we wish to find\n\t/// @return Array of quantities of tokens _ids in _accounts\n\t//function balanceOfBatch(address[] calldata _accounts, uint256[] calldata _ids) public view override returns (uint256[] memory) {\n\t//\t// Initialize output array\n\t//\tuint256[] memory batchBalances = new uint256[](_accounts.length);\n\t//\t// Iterate through _accounts\n\t//\tfor (uint256 i = 0; i < _accounts.length; i++) {\n\t//\t\t// Look up _account's holdings of _id in tokenHoldership\n\t//\t\tbatchBalances[i] = tokenHoldership[_ids[i]][_accounts[i]];\n\t//\t}\n\t//\t// Return output array\n\t//\treturn batchBalances;\n\t//}\n}",
  "sourcePath": "/Users/kamilalizaisadik/DeFi/Dynamic Automated Market Maker/CreatorTokenExchange/contracts/creatortokenownership.sol",
  "compiler": {
    "name": "solc",
    "version": "0.8.7+commit.e28d00a7.Emscripten.clang"
  },
  "schemaVersion": "3.4.1",
  "updatedAt": "2021-08-14T13:08:18.435Z",
  "devdoc": {
    "author": "Kamil Alizai Sadik",
    "kind": "dev",
    "methods": {
      "balanceOf(address,uint256)": {
        "details": "See {IERC1155-balanceOf}. Requirements: - `account` cannot be the zero address."
      },
      "balanceOfBatch(address[],uint256[])": {
        "details": "See {IERC1155-balanceOfBatch}. Requirements: - `accounts` and `ids` must have the same length."
      },
      "changeAddress(uint256,address)": {
        "details": "Allows token creator to change their address",
        "params": {
          "_newCreatorAddress": "New creator address associated with the token",
          "_tokenId": "ID of the token in question"
        }
      },
      "changeDescription(uint256,string)": {
        "details": "Allows token creator to change the description of their token",
        "params": {
          "_newDescription": "New description associated with the token",
          "_tokenId": "ID of the token in question"
        }
      },
      "changeName(uint256,string)": {
        "details": "Allows token creator to change the name of their token",
        "params": {
          "_newName": "New name associated with the token",
          "_tokenId": "ID of the token in question"
        }
      },
      "changePlatformFee(uint256)": {
        "details": "Allows owner to change platformFee",
        "params": {
          "_newPlatformFee": "New platform fee"
        }
      },
      "changeProfitMargin(uint256)": {
        "details": "Allows owner to change profit_margin",
        "params": {
          "_newProfitMargin": "New profit margin"
        }
      },
      "changeSymbol(uint256,string)": {
        "details": "Allows token creator to change the symbol of their token",
        "params": {
          "_newSymbol": "New symbol associated with the token",
          "_tokenId": "ID of the token in question"
        }
      },
      "changeVerification(uint256,bool)": {
        "details": "Allows owner to verify (or undo verification) of a CreatorToken",
        "params": {
          "_tokenId": "ID of the token in question",
          "_verified": "Verification status of the token in question"
        }
      },
      "createCreatorToken(address,string,string,string)": {
        "details": "Creates a new creator token",
        "params": {
          "_creatorAddress": "Address of the creator of the token",
          "_description": "chosen by the creator of the tokens",
          "_name": "Name chosen by the creator of the token",
          "_symbol": "Ticker symbol chosen by the creator of the token"
        }
      },
      "getCreatorTokenCount()": {
        "details": "Returns the current length of the creatorTokens array",
        "returns": {
          "_0": "uint representing number of unique Creator Tokens"
        }
      },
      "isApprovedForAll(address,address)": {
        "details": "Denotes whether operator is approved to transfer account's tokens",
        "params": {
          "_account": "Wallet address holding tokens",
          "_operator": "Wallet address which is/isn't approved to transfer _account's tokens"
        },
        "returns": {
          "_0": "Boolean value indicating approval status"
        }
      },
      "owner()": {
        "details": "Returns the address of the current owner."
      },
      "payoutPlatformFees(address)": {
        "details": "Pays out platform fees owed to owner (might opt to call this daily)",
        "params": {
          "_owner": "Owner of the smart contract"
        }
      },
      "renounceOwnership()": {
        "details": "Leaves the contract without owner. It will not be possible to call `onlyOwner` functions anymore. Can only be called by the current owner. NOTE: Renouncing ownership will leave the contract without an owner, thereby removing any functionality that is only available to the owner."
      },
      "safeBatchTransferFrom(address,address,uint256[],uint256[],bytes)": {
        "details": "Transfers a batch of tokens",
        "params": {
          "_amounts": "Array of quantities of token to be transferred",
          "_data": "Data",
          "_from": "Address token is being transferred from",
          "_ids": "Array of IDs of tokens being transferred",
          "_to": "Address token is being transferred to"
        }
      },
      "safeTransferFrom(address,address,uint256,uint256,bytes)": {
        "details": "Transfers a token",
        "params": {
          "_amount": "Quantity of token to be transferred",
          "_data": "Data",
          "_from": "Address token is being transferred from",
          "_id": "ID of token being transferred",
          "_to": "Address token is being transferred to"
        }
      },
      "setApprovalForAll(address,bool)": {
        "details": "Gives operator permission to transfer caller's tokens",
        "params": {
          "_approved": "Boolean value indicating whether operator is approved",
          "_operator": "Wallet address being granted permission"
        }
      },
      "supportsInterface(bytes4)": {
        "details": "See {IERC165-supportsInterface}."
      },
      "transferOwnership(address)": {
        "details": "Transfers ownership of the contract to a new account (`newOwner`). Can only be called by the current owner."
      },
      "uri(uint256)": {
        "details": "See {IERC1155MetadataURI-uri}. This implementation returns the same URI for *all* token types. It relies on the token type ID substitution mechanism https://eips.ethereum.org/EIPS/eip-1155#metadata[defined in the EIP]. Clients calling this function must replace the `\\{id\\}` substring with the actual token type ID."
      },
      "withdraw(address)": {
        "details": "Ownable function allowing for withdrawal",
        "params": {
          "_owner": "Owner of the smart contract"
        }
      }
    },
    "title": "Contract inheriting from the ERC1155 standard",
    "version": 1
  },
  "userdoc": {
    "kind": "user",
    "methods": {},
    "version": 1
  }
}