{
  "contractName": "CreatorTokenFormulas",
  "abi": [
    {
      "inputs": [
        {
          "internalType": "string",
          "name": "uri",
          "type": "string"
        }
      ],
      "stateMutability": "nonpayable",
      "type": "constructor"
    },
    {
      "anonymous": false,
      "inputs": [
        {
          "indexed": true,
          "internalType": "address",
          "name": "account",
          "type": "address"
        },
        {
          "indexed": true,
          "internalType": "address",
          "name": "operator",
          "type": "address"
        },
        {
          "indexed": false,
          "internalType": "bool",
          "name": "approved",
          "type": "bool"
        }
      ],
      "name": "ApprovalForAll",
      "type": "event"
    },
    {
      "anonymous": false,
      "inputs": [
        {
          "indexed": false,
          "internalType": "uint256",
          "name": "tokenId",
          "type": "uint256"
        },
        {
          "indexed": false,
          "internalType": "address payable",
          "name": "creatorAddress",
          "type": "address"
        },
        {
          "indexed": false,
          "internalType": "string",
          "name": "name",
          "type": "string"
        },
        {
          "indexed": false,
          "internalType": "string",
          "name": "symbol",
          "type": "string"
        },
        {
          "indexed": false,
          "internalType": "string",
          "name": "description",
          "type": "string"
        },
        {
          "indexed": false,
          "internalType": "bool",
          "name": "verified",
          "type": "bool"
        },
        {
          "indexed": false,
          "internalType": "uint256",
          "name": "outstanding",
          "type": "uint256"
        },
        {
          "indexed": false,
          "internalType": "uint256",
          "name": "maxSupply",
          "type": "uint256"
        }
      ],
      "name": "NewCreatorToken",
      "type": "event"
    },
    {
      "anonymous": false,
      "inputs": [
        {
          "indexed": true,
          "internalType": "address",
          "name": "previousOwner",
          "type": "address"
        },
        {
          "indexed": true,
          "internalType": "address",
          "name": "newOwner",
          "type": "address"
        }
      ],
      "name": "OwnershipTransferred",
      "type": "event"
    },
    {
      "anonymous": false,
      "inputs": [
        {
          "indexed": true,
          "internalType": "address",
          "name": "operator",
          "type": "address"
        },
        {
          "indexed": true,
          "internalType": "address",
          "name": "from",
          "type": "address"
        },
        {
          "indexed": true,
          "internalType": "address",
          "name": "to",
          "type": "address"
        },
        {
          "indexed": false,
          "internalType": "uint256[]",
          "name": "ids",
          "type": "uint256[]"
        },
        {
          "indexed": false,
          "internalType": "uint256[]",
          "name": "values",
          "type": "uint256[]"
        }
      ],
      "name": "TransferBatch",
      "type": "event"
    },
    {
      "anonymous": false,
      "inputs": [
        {
          "indexed": true,
          "internalType": "address",
          "name": "operator",
          "type": "address"
        },
        {
          "indexed": true,
          "internalType": "address",
          "name": "from",
          "type": "address"
        },
        {
          "indexed": true,
          "internalType": "address",
          "name": "to",
          "type": "address"
        },
        {
          "indexed": false,
          "internalType": "uint256",
          "name": "id",
          "type": "uint256"
        },
        {
          "indexed": false,
          "internalType": "uint256",
          "name": "value",
          "type": "uint256"
        }
      ],
      "name": "TransferSingle",
      "type": "event"
    },
    {
      "anonymous": false,
      "inputs": [
        {
          "indexed": false,
          "internalType": "string",
          "name": "value",
          "type": "string"
        },
        {
          "indexed": true,
          "internalType": "uint256",
          "name": "id",
          "type": "uint256"
        }
      ],
      "name": "URI",
      "type": "event"
    },
    {
      "inputs": [
        {
          "internalType": "address",
          "name": "",
          "type": "address"
        },
        {
          "internalType": "address",
          "name": "",
          "type": "address"
        }
      ],
      "name": "approvals",
      "outputs": [
        {
          "internalType": "bool",
          "name": "",
          "type": "bool"
        }
      ],
      "stateMutability": "view",
      "type": "function"
    },
    {
      "inputs": [
        {
          "internalType": "address",
          "name": "account",
          "type": "address"
        },
        {
          "internalType": "uint256",
          "name": "id",
          "type": "uint256"
        }
      ],
      "name": "balanceOf",
      "outputs": [
        {
          "internalType": "uint256",
          "name": "",
          "type": "uint256"
        }
      ],
      "stateMutability": "view",
      "type": "function"
    },
    {
      "inputs": [
        {
          "internalType": "address[]",
          "name": "accounts",
          "type": "address[]"
        },
        {
          "internalType": "uint256[]",
          "name": "ids",
          "type": "uint256[]"
        }
      ],
      "name": "balanceOfBatch",
      "outputs": [
        {
          "internalType": "uint256[]",
          "name": "",
          "type": "uint256[]"
        }
      ],
      "stateMutability": "view",
      "type": "function"
    },
    {
      "inputs": [
        {
          "internalType": "uint256",
          "name": "_tokenId",
          "type": "uint256"
        },
        {
          "internalType": "address payable",
          "name": "_newCreatorAddress",
          "type": "address"
        }
      ],
      "name": "changeAddress",
      "outputs": [],
      "stateMutability": "nonpayable",
      "type": "function"
    },
    {
      "inputs": [
        {
          "internalType": "uint256",
          "name": "_tokenId",
          "type": "uint256"
        },
        {
          "internalType": "string",
          "name": "_newDescription",
          "type": "string"
        }
      ],
      "name": "changeDescription",
      "outputs": [],
      "stateMutability": "nonpayable",
      "type": "function"
    },
    {
      "inputs": [
        {
          "internalType": "uint256",
          "name": "_tokenId",
          "type": "uint256"
        },
        {
          "internalType": "string",
          "name": "_newName",
          "type": "string"
        }
      ],
      "name": "changeName",
      "outputs": [],
      "stateMutability": "nonpayable",
      "type": "function"
    },
    {
      "inputs": [
        {
          "internalType": "uint256",
          "name": "_newPlatformFee",
          "type": "uint256"
        }
      ],
      "name": "changePlatformFee",
      "outputs": [],
      "stateMutability": "nonpayable",
      "type": "function"
    },
    {
      "inputs": [
        {
          "internalType": "uint256",
          "name": "_newProfitMargin",
          "type": "uint256"
        }
      ],
      "name": "changeProfitMargin",
      "outputs": [],
      "stateMutability": "nonpayable",
      "type": "function"
    },
    {
      "inputs": [
        {
          "internalType": "uint256",
          "name": "_tokenId",
          "type": "uint256"
        },
        {
          "internalType": "string",
          "name": "_newSymbol",
          "type": "string"
        }
      ],
      "name": "changeSymbol",
      "outputs": [],
      "stateMutability": "nonpayable",
      "type": "function"
    },
    {
      "inputs": [
        {
          "internalType": "uint256",
          "name": "_tokenId",
          "type": "uint256"
        },
        {
          "internalType": "bool",
          "name": "_verified",
          "type": "bool"
        }
      ],
      "name": "changeVerification",
      "outputs": [],
      "stateMutability": "nonpayable",
      "type": "function"
    },
    {
      "inputs": [
        {
          "internalType": "address payable",
          "name": "_creatorAddress",
          "type": "address"
        },
        {
          "internalType": "string",
          "name": "_name",
          "type": "string"
        },
        {
          "internalType": "string",
          "name": "_symbol",
          "type": "string"
        },
        {
          "internalType": "string",
          "name": "_description",
          "type": "string"
        }
      ],
      "name": "createCreatorToken",
      "outputs": [],
      "stateMutability": "nonpayable",
      "type": "function"
    },
    {
      "inputs": [
        {
          "internalType": "uint256",
          "name": "",
          "type": "uint256"
        }
      ],
      "name": "creatorTokens",
      "outputs": [
        {
          "internalType": "address payable",
          "name": "creatorAddress",
          "type": "address"
        },
        {
          "internalType": "string",
          "name": "name",
          "type": "string"
        },
        {
          "internalType": "string",
          "name": "symbol",
          "type": "string"
        },
        {
          "internalType": "string",
          "name": "description",
          "type": "string"
        },
        {
          "internalType": "bool",
          "name": "verified",
          "type": "bool"
        },
        {
          "internalType": "uint256",
          "name": "outstanding",
          "type": "uint256"
        },
        {
          "internalType": "uint256",
          "name": "maxSupply",
          "type": "uint256"
        },
        {
          "internalType": "uint256",
          "name": "lastPrice",
          "type": "uint256"
        },
        {
          "internalType": "uint256",
          "name": "creatorTokenId",
          "type": "uint256"
        }
      ],
      "stateMutability": "view",
      "type": "function"
    },
    {
      "inputs": [],
      "name": "getCreatorTokenCount",
      "outputs": [
        {
          "internalType": "uint256",
          "name": "",
          "type": "uint256"
        }
      ],
      "stateMutability": "view",
      "type": "function"
    },
    {
      "inputs": [
        {
          "internalType": "address",
          "name": "_account",
          "type": "address"
        },
        {
          "internalType": "address",
          "name": "_operator",
          "type": "address"
        }
      ],
      "name": "isApprovedForAll",
      "outputs": [
        {
          "internalType": "bool",
          "name": "",
          "type": "bool"
        }
      ],
      "stateMutability": "view",
      "type": "function"
    },
    {
      "inputs": [],
      "name": "numCreatorTokens",
      "outputs": [
        {
          "internalType": "uint256",
          "name": "",
          "type": "uint256"
        }
      ],
      "stateMutability": "view",
      "type": "function"
    },
    {
      "inputs": [],
      "name": "owner",
      "outputs": [
        {
          "internalType": "address",
          "name": "",
          "type": "address"
        }
      ],
      "stateMutability": "view",
      "type": "function"
    },
    {
      "inputs": [
        {
          "internalType": "address payable",
          "name": "_owner",
          "type": "address"
        }
      ],
      "name": "payoutPlatformFees",
      "outputs": [],
      "stateMutability": "nonpayable",
      "type": "function"
    },
    {
      "inputs": [],
      "name": "platformFeesOwed",
      "outputs": [
        {
          "internalType": "uint256",
          "name": "",
          "type": "uint256"
        }
      ],
      "stateMutability": "view",
      "type": "function"
    },
    {
      "inputs": [],
      "name": "renounceOwnership",
      "outputs": [],
      "stateMutability": "nonpayable",
      "type": "function"
    },
    {
      "inputs": [
        {
          "internalType": "address",
          "name": "_from",
          "type": "address"
        },
        {
          "internalType": "address",
          "name": "_to",
          "type": "address"
        },
        {
          "internalType": "uint256[]",
          "name": "_ids",
          "type": "uint256[]"
        },
        {
          "internalType": "uint256[]",
          "name": "_amounts",
          "type": "uint256[]"
        },
        {
          "internalType": "bytes",
          "name": "_data",
          "type": "bytes"
        }
      ],
      "name": "safeBatchTransferFrom",
      "outputs": [],
      "stateMutability": "nonpayable",
      "type": "function"
    },
    {
      "inputs": [
        {
          "internalType": "address",
          "name": "_from",
          "type": "address"
        },
        {
          "internalType": "address",
          "name": "_to",
          "type": "address"
        },
        {
          "internalType": "uint256",
          "name": "_id",
          "type": "uint256"
        },
        {
          "internalType": "uint256",
          "name": "_amount",
          "type": "uint256"
        },
        {
          "internalType": "bytes",
          "name": "_data",
          "type": "bytes"
        }
      ],
      "name": "safeTransferFrom",
      "outputs": [],
      "stateMutability": "nonpayable",
      "type": "function"
    },
    {
      "inputs": [
        {
          "internalType": "address",
          "name": "_operator",
          "type": "address"
        },
        {
          "internalType": "bool",
          "name": "_approved",
          "type": "bool"
        }
      ],
      "name": "setApprovalForAll",
      "outputs": [],
      "stateMutability": "nonpayable",
      "type": "function"
    },
    {
      "inputs": [
        {
          "internalType": "bytes4",
          "name": "interfaceId",
          "type": "bytes4"
        }
      ],
      "name": "supportsInterface",
      "outputs": [
        {
          "internalType": "bool",
          "name": "",
          "type": "bool"
        }
      ],
      "stateMutability": "view",
      "type": "function"
    },
    {
      "inputs": [
        {
          "internalType": "uint256",
          "name": "",
          "type": "uint256"
        },
        {
          "internalType": "address",
          "name": "",
          "type": "address"
        }
      ],
      "name": "tokenHoldership",
      "outputs": [
        {
          "internalType": "uint256",
          "name": "",
          "type": "uint256"
        }
      ],
      "stateMutability": "view",
      "type": "function"
    },
    {
      "inputs": [
        {
          "internalType": "uint256",
          "name": "",
          "type": "uint256"
        }
      ],
      "name": "tokenToCreator",
      "outputs": [
        {
          "internalType": "address",
          "name": "",
          "type": "address"
        }
      ],
      "stateMutability": "view",
      "type": "function"
    },
    {
      "inputs": [
        {
          "internalType": "uint256",
          "name": "",
          "type": "uint256"
        }
      ],
      "name": "tokenValueTransferred",
      "outputs": [
        {
          "internalType": "uint256",
          "name": "",
          "type": "uint256"
        }
      ],
      "stateMutability": "view",
      "type": "function"
    },
    {
      "inputs": [],
      "name": "totalPlatformFees",
      "outputs": [
        {
          "internalType": "uint256",
          "name": "",
          "type": "uint256"
        }
      ],
      "stateMutability": "view",
      "type": "function"
    },
    {
      "inputs": [
        {
          "internalType": "uint256",
          "name": "",
          "type": "uint256"
        }
      ],
      "name": "totalValueLocked",
      "outputs": [
        {
          "internalType": "uint256",
          "name": "",
          "type": "uint256"
        }
      ],
      "stateMutability": "view",
      "type": "function"
    },
    {
      "inputs": [
        {
          "internalType": "address",
          "name": "newOwner",
          "type": "address"
        }
      ],
      "name": "transferOwnership",
      "outputs": [],
      "stateMutability": "nonpayable",
      "type": "function"
    },
    {
      "inputs": [
        {
          "internalType": "uint256",
          "name": "",
          "type": "uint256"
        }
      ],
      "name": "uri",
      "outputs": [
        {
          "internalType": "string",
          "name": "",
          "type": "string"
        }
      ],
      "stateMutability": "view",
      "type": "function"
    },
    {
      "inputs": [
        {
          "internalType": "address",
          "name": "",
          "type": "address"
        },
        {
          "internalType": "uint256",
          "name": "",
          "type": "uint256"
        }
      ],
      "name": "userToHoldings",
      "outputs": [
        {
          "internalType": "uint256",
          "name": "",
          "type": "uint256"
        }
      ],
      "stateMutability": "view",
      "type": "function"
    },
    {
      "inputs": [
        {
          "internalType": "address payable",
          "name": "_owner",
          "type": "address"
        }
      ],
      "name": "withdraw",
      "outputs": [],
      "stateMutability": "nonpayable",
      "type": "function"
    },
    {
      "inputs": [
        {
          "internalType": "uint256",
          "name": "_startingSupply",
          "type": "uint256"
        },
        {
          "internalType": "uint256",
          "name": "_amount",
          "type": "uint256"
        },
        {
          "internalType": "uint256",
          "name": "_mNumerator",
          "type": "uint256"
        },
        {
          "internalType": "uint256",
          "name": "_mDenominator",
          "type": "uint256"
        },
        {
          "internalType": "uint256",
          "name": "_maxSupply",
          "type": "uint256"
        },
        {
          "internalType": "uint256",
          "name": "_profitMargin",
          "type": "uint256"
        }
      ],
      "name": "_saleFunction",
      "outputs": [
        {
          "internalType": "uint256",
          "name": "",
          "type": "uint256"
        }
      ],
      "stateMutability": "pure",
      "type": "function"
    }
  ],
  "bytecode": "0x608060405260018055600060025560006003556000600455601460055565082f79cd900060065560b96007553480156200003857600080fd5b5060405162003b3438038062003b3483398181016040528101906200005e91906200027c565b80806000620000726200012a60201b60201c565b9050806000806101000a81548173ffffffffffffffffffffffffffffffffffffffff021916908373ffffffffffffffffffffffffffffffffffffffff1602179055508073ffffffffffffffffffffffffffffffffffffffff16600073ffffffffffffffffffffffffffffffffffffffff167f8be0079c531659141344cd1fd0a4f28419497f9722a3daafe3b4186f6b6457e060405160405180910390a35062000121816200013260201b60201c565b50505062000451565b600033905090565b80601190805190602001906200014a9291906200014e565b5050565b8280546200015c9062000362565b90600052602060002090601f016020900481019282620001805760008555620001cc565b82601f106200019b57805160ff1916838001178555620001cc565b82800160010185558215620001cc579182015b82811115620001cb578251825591602001919060010190620001ae565b5b509050620001db9190620001df565b5090565b5b80821115620001fa576000816000905550600101620001e0565b5090565b6000620002156200020f84620002f6565b620002cd565b90508281526020810184848401111562000234576200023362000431565b5b620002418482856200032c565b509392505050565b600082601f8301126200026157620002606200042c565b5b815162000273848260208601620001fe565b91505092915050565b6000602082840312156200029557620002946200043b565b5b600082015167ffffffffffffffff811115620002b657620002b562000436565b5b620002c48482850162000249565b91505092915050565b6000620002d9620002ec565b9050620002e7828262000398565b919050565b6000604051905090565b600067ffffffffffffffff821115620003145762000313620003fd565b5b6200031f8262000440565b9050602081019050919050565b60005b838110156200034c5780820151818401526020810190506200032f565b838111156200035c576000848401525b50505050565b600060028204905060018216806200037b57607f821691505b60208210811415620003925762000391620003ce565b5b50919050565b620003a38262000440565b810181811067ffffffffffffffff82111715620003c557620003c4620003fd565b5b80604052505050565b7f4e487b7100000000000000000000000000000000000000000000000000000000600052602260045260246000fd5b7f4e487b7100000000000000000000000000000000000000000000000000000000600052604160045260246000fd5b600080fd5b600080fd5b600080fd5b600080fd5b6000601f19601f8301169050919050565b6136d380620004616000396000f3fe608060405234801561001057600080fd5b50600436106101fa5760003560e01c8063afb218321161011a578063d7a5791a116100ad578063e985e9c51161007c578063e985e9c5146105ff578063eb8417591461062f578063f242432a1461064b578063f2fde38b14610667578063f7374e2e14610683576101fa565b8063d7a5791a14610567578063d9bd3a4014610583578063de6a06ed146105b3578063df3c00b1146105cf576101fa565b8063c539c317116100e9578063c539c317146104d9578063ce901d8a146104f5578063d3631fa51461052d578063d56b72c71461054b576101fa565b8063afb2183214610451578063bfb48c9c1461046f578063c1d330491461049f578063c39cbef1146104bd576101fa565b80632eb2c2d6116101925780638da5cb5b116101615780638da5cb5b146103b757806392724afa146103d5578063a22cb46514610405578063a32ce11e14610421576101fa565b80632eb2c2d6146103455780634e1273f41461036157806351cff8d914610391578063715018a6146103ad576101fa565b806317bcaa08116101ce57806317bcaa08146102ab57806318892ae8146102db5780631d5ad18b1461030b5780632a2b237c14610327576101fa565b8062fdd58e146101ff57806301ffc9a71461022f57806306e320f51461025f5780630e89341c1461027b575b600080fd5b6102196004803603810190610214919061292d565b61069f565b6040516102269190612f54565b60405180910390f35b610249600480360381019061024491906129e5565b610769565b6040516102569190612e97565b60405180910390f35b61027960048036038101906102749190612aff565b61084b565b005b61029560048036038101906102909190612a12565b6108f2565b6040516102a29190612eb2565b60405180910390f35b6102c560048036038101906102c09190612a12565b610986565b6040516102d29190612f54565b60405180910390f35b6102f560048036038101906102f09190612a12565b61099e565b6040516103029190612d81565b60405180910390f35b61032560048036038101906103209190612a7f565b6109d1565b005b61032f610aa6565b60405161033c9190612f54565b60405180910390f35b61035f600480360381019061035a9190612787565b610ab3565b005b61037b6004803603810190610376919061296d565b610c1f565b6040516103889190612e3e565b60405180910390f35b6103ab60048036038101906103a6919061265f565b610d38565b005b6103b5610dfe565b005b6103bf610f38565b6040516103cc9190612d81565b60405180910390f35b6103ef60048036038101906103ea919061292d565b610f61565b6040516103fc9190612f54565b60405180910390f35b61041f600480360381019061041a91906128ed565b610f86565b005b61043b60048036038101906104369190612747565b611083565b6040516104489190612e97565b60405180910390f35b6104596110b2565b6040516104669190612f54565b60405180910390f35b61048960048036038101906104849190612a3f565b6110b8565b6040516104969190612f54565b60405180910390f35b6104a76110dd565b6040516104b49190612f54565b60405180910390f35b6104d760048036038101906104d29190612aff565b6110e3565b005b6104f360048036038101906104ee9190612a12565b61118a565b005b61050f600480360381019061050a9190612a12565b611210565b60405161052499989796959493929190612d9c565b60405180910390f35b610535611433565b6040516105429190612f54565b60405180910390f35b6105656004803603810190610560919061268c565b611439565b005b610581600480360381019061057c9190612a12565b61166c565b005b61059d60048036038101906105989190612a12565b6116f2565b6040516105aa9190612f54565b60405180910390f35b6105cd60048036038101906105c89190612aff565b61170a565b005b6105e960048036038101906105e49190612b5f565b6117b1565b6040516105f69190612f54565b60405180910390f35b61061960048036038101906106149190612747565b61182a565b6040516106269190612e97565b60405180910390f35b6106496004803603810190610644919061265f565b6118be565b005b61066560048036038101906106609190612856565b61198e565b005b610681600480360381019061067c9190612632565b611a72565b005b61069d60048036038101906106989190612abf565b611c1b565b005b60008073ffffffffffffffffffffffffffffffffffffffff168373ffffffffffffffffffffffffffffffffffffffff161415610710576040517f08c379a000000000000000000000000000000000000000000000000000000000815260040161070790612ed4565b60405180910390fd5b600f600083815260200190815260200160002060008473ffffffffffffffffffffffffffffffffffffffff1673ffffffffffffffffffffffffffffffffffffffff16815260200190815260200160002054905092915050565b60007fd9b67a26000000000000000000000000000000000000000000000000000000007bffffffffffffffffffffffffffffffffffffffffffffffffffffffff1916827bffffffffffffffffffffffffffffffffffffffffffffffffffffffff1916148061083457507f0e89341c000000000000000000000000000000000000000000000000000000007bffffffffffffffffffffffffffffffffffffffffffffffffffffffff1916827bffffffffffffffffffffffffffffffffffffffffffffffffffffffff1916145b80610844575061084382611cd8565b5b9050919050565b826009600082815260200190815260200160002060009054906101000a900473ffffffffffffffffffffffffffffffffffffffff1673ffffffffffffffffffffffffffffffffffffffff163373ffffffffffffffffffffffffffffffffffffffff16146108b757600080fd5b8282600886815481106108cd576108cc613487565b5b906000526020600020906009020160020191906108eb92919061222e565b5050505050565b6060601180546109019061334e565b80601f016020809104026020016040519081016040528092919081815260200182805461092d9061334e565b801561097a5780601f1061094f5761010080835404028352916020019161097a565b820191906000526020600020905b81548152906001019060200180831161095d57829003601f168201915b50505050509050919050565b600a6020528060005260406000206000915090505481565b60096020528060005260406000206000915054906101000a900473ffffffffffffffffffffffffffffffffffffffff1681565b816009600082815260200190815260200160002060009054906101000a900473ffffffffffffffffffffffffffffffffffffffff1673ffffffffffffffffffffffffffffffffffffffff163373ffffffffffffffffffffffffffffffffffffffff1614610a3d57600080fd5b8160088481548110610a5257610a51613487565b5b906000526020600020906009020160000160006101000a81548173ffffffffffffffffffffffffffffffffffffffff021916908373ffffffffffffffffffffffffffffffffffffffff160217905550505050565b6000600880549050905090565b60005b8351811015610b99578573ffffffffffffffffffffffffffffffffffffffff163373ffffffffffffffffffffffffffffffffffffffff161480610aff5750610afe868661182a565b5b610b0857600080fd5b610b4786858381518110610b1f57610b1e613487565b5b6020026020010151858481518110610b3a57610b39613487565b5b6020026020010151611d42565b610b8685858381518110610b5e57610b5d613487565b5b6020026020010151858481518110610b7957610b78613487565b5b6020026020010151611e15565b8080610b91906133b1565b915050610ab6565b508373ffffffffffffffffffffffffffffffffffffffff168573ffffffffffffffffffffffffffffffffffffffff163373ffffffffffffffffffffffffffffffffffffffff167f4a39dc06d4c0dbc64b70af90fd698a233a518aa5d07e595d983b8c0526c8f7fb8686604051610c10929190612e60565b60405180910390a45050505050565b60608151835114610c65576040517f08c379a0000000000000000000000000000000000000000000000000000000008152600401610c5c90612f34565b60405180910390fd5b6000835167ffffffffffffffff811115610c8257610c816134b6565b5b604051908082528060200260200182016040528015610cb05781602001602082028036833780820191505090505b50905060005b8451811015610d2d57610cfd858281518110610cd557610cd4613487565b5b6020026020010151858381518110610cf057610cef613487565b5b602002602001015161069f565b828281518110610d1057610d0f613487565b5b60200260200101818152505080610d26906133b1565b9050610cb6565b508091505092915050565b610d40611ee8565b73ffffffffffffffffffffffffffffffffffffffff16610d5e610f38565b73ffffffffffffffffffffffffffffffffffffffff1614610db4576040517f08c379a0000000000000000000000000000000000000000000000000000000008152600401610dab90612f14565b60405180910390fd5b8073ffffffffffffffffffffffffffffffffffffffff166108fc479081150290604051600060405180830381858888f19350505050158015610dfa573d6000803e3d6000fd5b5050565b610e06611ee8565b73ffffffffffffffffffffffffffffffffffffffff16610e24610f38565b73ffffffffffffffffffffffffffffffffffffffff1614610e7a576040517f08c379a0000000000000000000000000000000000000000000000000000000008152600401610e7190612f14565b60405180910390fd5b600073ffffffffffffffffffffffffffffffffffffffff1660008054906101000a900473ffffffffffffffffffffffffffffffffffffffff1673ffffffffffffffffffffffffffffffffffffffff167f8be0079c531659141344cd1fd0a4f28419497f9722a3daafe3b4186f6b6457e060405160405180910390a360008060006101000a81548173ffffffffffffffffffffffffffffffffffffffff021916908373ffffffffffffffffffffffffffffffffffffffff160217905550565b60008060009054906101000a900473ffffffffffffffffffffffffffffffffffffffff16905090565b600c602052816000526040600020602052806000526040600020600091509150505481565b80600d60003373ffffffffffffffffffffffffffffffffffffffff1673ffffffffffffffffffffffffffffffffffffffff16815260200190815260200160002060008473ffffffffffffffffffffffffffffffffffffffff1673ffffffffffffffffffffffffffffffffffffffff16815260200190815260200160002060006101000a81548160ff0219169083151502179055508173ffffffffffffffffffffffffffffffffffffffff163373ffffffffffffffffffffffffffffffffffffffff167f17307eab39ab6107e8899845ad3d59bd9653f200f220920489ca2b5937696c31836040516110779190612e97565b60405180910390a35050565b600d6020528160005260406000206020528060005260406000206000915091509054906101000a900460ff1681565b60045481565b600b602052816000526040600020602052806000526040600020600091509150505481565b60035481565b826009600082815260200190815260200160002060009054906101000a900473ffffffffffffffffffffffffffffffffffffffff1673ffffffffffffffffffffffffffffffffffffffff163373ffffffffffffffffffffffffffffffffffffffff161461114f57600080fd5b82826008868154811061116557611164613487565b5b9060005260206000209060090201600101919061118392919061222e565b5050505050565b611192611ee8565b73ffffffffffffffffffffffffffffffffffffffff166111b0610f38565b73ffffffffffffffffffffffffffffffffffffffff1614611206576040517f08c379a00000000000000000000000000000000000000000000000000000000081526004016111fd90612f14565b60405180910390fd5b8060058190555050565b6008818154811061122057600080fd5b90600052602060002090600902016000915090508060000160009054906101000a900473ffffffffffffffffffffffffffffffffffffffff16908060010180546112699061334e565b80601f01602080910402602001604051908101604052809291908181526020018280546112959061334e565b80156112e25780601f106112b7576101008083540402835291602001916112e2565b820191906000526020600020905b8154815290600101906020018083116112c557829003601f168201915b5050505050908060020180546112f79061334e565b80601f01602080910402602001604051908101604052809291908181526020018280546113239061334e565b80156113705780601f1061134557610100808354040283529160200191611370565b820191906000526020600020905b81548152906001019060200180831161135357829003601f168201915b5050505050908060030180546113859061334e565b80601f01602080910402602001604051908101604052809291908181526020018280546113b19061334e565b80156113fe5780601f106113d3576101008083540402835291602001916113fe565b820191906000526020600020905b8154815290600101906020018083116113e157829003601f168201915b5050505050908060040160009054906101000a900460ff16908060050154908060060154908060070154908060080154905089565b60025481565b6000600880549050905060086040518061012001604052808773ffffffffffffffffffffffffffffffffffffffff16815260200186815260200185815260200184815260200160001515815260200160008152602001600081526020016000815260200183815250908060018154018082558091505060019003906000526020600020906009020160009091909190915060008201518160000160006101000a81548173ffffffffffffffffffffffffffffffffffffffff021916908373ffffffffffffffffffffffffffffffffffffffff160217905550602082015181600101908051906020019061152d9291906122b4565b50604082015181600201908051906020019061154a9291906122b4565b5060608201518160030190805190602001906115679291906122b4565b5060808201518160040160006101000a81548160ff02191690831515021790555060a0820151816005015560c0820151816006015560e0820151816007015561010082015181600801555050846009600083815260200190815260200160002060006101000a81548173ffffffffffffffffffffffffffffffffffffffff021916908373ffffffffffffffffffffffffffffffffffffffff1602179055506000600a6000838152602001908152602001600020819055507f3ef624c0f3fb7ad40b94c02078ea3e3a797dbfc21e921ee4bd2b8ad0ca6aa1138186868686600080600060405161165d989796959493929190612f6f565b60405180910390a15050505050565b611674611ee8565b73ffffffffffffffffffffffffffffffffffffffff16611692610f38565b73ffffffffffffffffffffffffffffffffffffffff16146116e8576040517f08c379a00000000000000000000000000000000000000000000000000000000081526004016116df90612f14565b60405180910390fd5b8060018190555050565b600e6020528060005260406000206000915090505481565b826009600082815260200190815260200160002060009054906101000a900473ffffffffffffffffffffffffffffffffffffffff1673ffffffffffffffffffffffffffffffffffffffff163373ffffffffffffffffffffffffffffffffffffffff161461177657600080fd5b82826008868154811061178c5761178b613487565b5b906000526020600020906009020160030191906117aa92919061222e565b5050505050565b6000806000806117c58a8a8a8a8a8a611ef0565b9250925092506000838b10156117e8576117e184848d85611f6b565b9050611819565b83821015611806576117ff84848d858d8d8d61200e565b9050611818565b61181584848d858d8d8d612130565b90505b5b809450505050509695505050505050565b6000600d60008473ffffffffffffffffffffffffffffffffffffffff1673ffffffffffffffffffffffffffffffffffffffff16815260200190815260200160002060008373ffffffffffffffffffffffffffffffffffffffff1673ffffffffffffffffffffffffffffffffffffffff16815260200190815260200160002060009054906101000a900460ff16905092915050565b6118c6611ee8565b73ffffffffffffffffffffffffffffffffffffffff166118e4610f38565b73ffffffffffffffffffffffffffffffffffffffff161461193a576040517f08c379a000000000000000000000000000000000000000000000000000000000815260040161193190612f14565b60405180910390fd5b8073ffffffffffffffffffffffffffffffffffffffff166108fc6003549081150290604051600060405180830381858888f19350505050158015611982573d6000803e3d6000fd5b50600060038190555050565b8473ffffffffffffffffffffffffffffffffffffffff163373ffffffffffffffffffffffffffffffffffffffff1614806119ce57506119cd858561182a565b5b6119d757600080fd5b6119e2858484611d42565b6119ed848484611e15565b8373ffffffffffffffffffffffffffffffffffffffff168573ffffffffffffffffffffffffffffffffffffffff163373ffffffffffffffffffffffffffffffffffffffff167fc3d58168c5ae7397731d063d5bbf3d657854427343f4c083240f7aacaa2d0f628686604051611a63929190613002565b60405180910390a45050505050565b611a7a611ee8565b73ffffffffffffffffffffffffffffffffffffffff16611a98610f38565b73ffffffffffffffffffffffffffffffffffffffff1614611aee576040517f08c379a0000000000000000000000000000000000000000000000000000000008152600401611ae590612f14565b60405180910390fd5b600073ffffffffffffffffffffffffffffffffffffffff168173ffffffffffffffffffffffffffffffffffffffff161415611b5e576040517f08c379a0000000000000000000000000000000000000000000000000000000008152600401611b5590612ef4565b60405180910390fd5b8073ffffffffffffffffffffffffffffffffffffffff1660008054906101000a900473ffffffffffffffffffffffffffffffffffffffff1673ffffffffffffffffffffffffffffffffffffffff167f8be0079c531659141344cd1fd0a4f28419497f9722a3daafe3b4186f6b6457e060405160405180910390a3806000806101000a81548173ffffffffffffffffffffffffffffffffffffffff021916908373ffffffffffffffffffffffffffffffffffffffff16021790555050565b611c23611ee8565b73ffffffffffffffffffffffffffffffffffffffff16611c41610f38565b73ffffffffffffffffffffffffffffffffffffffff1614611c97576040517f08c379a0000000000000000000000000000000000000000000000000000000008152600401611c8e90612f14565b60405180910390fd5b8060088381548110611cac57611cab613487565b5b906000526020600020906009020160040160006101000a81548160ff0219169083151502179055505050565b60007f01ffc9a7000000000000000000000000000000000000000000000000000000007bffffffffffffffffffffffffffffffffffffffffffffffffffffffff1916827bffffffffffffffffffffffffffffffffffffffffffffffffffffffff1916149050919050565b80600b600084815260200190815260200160002060008573ffffffffffffffffffffffffffffffffffffffff1673ffffffffffffffffffffffffffffffffffffffff1681526020019081526020016000206000828254611da29190613240565b9250508190555080600c60008573ffffffffffffffffffffffffffffffffffffffff1673ffffffffffffffffffffffffffffffffffffffff16815260200190815260200160002060008481526020019081526020016000206000828254611e099190613240565b92505081905550505050565b80600b600084815260200190815260200160002060008573ffffffffffffffffffffffffffffffffffffffff1673ffffffffffffffffffffffffffffffffffffffff1681526020019081526020016000206000828254611e75919061315f565b9250508190555080600c60008573ffffffffffffffffffffffffffffffffffffffff1673ffffffffffffffffffffffffffffffffffffffff16815260200190815260200160002060008481526020019081526020016000206000828254611edc919061315f565b92505081905550505050565b600033905090565b600080600080600286611f0391906131b5565b9050600087896064886032611f189190613240565b8a611f2391906131e6565b611f2d91906131b5565b611f3791906131e6565b611f4191906131b5565b905060008a8c611f519190613240565b905082828295509550955050505096509650969350505050565b6000808286611f7a9190613240565b8686611f8691906131b5565b611f9091906131e6565b85611f9b9190613240565b905060008487611fab9190613240565b8787611fb791906131b5565b611fc191906131e6565b86611fcc9190613240565b905060008486611fdc9190613240565b90506002818385611fed919061315f565b611ff791906131e6565b61200191906131b5565b9350505050949350505050565b600080858961201d9190613240565b898961202991906131b5565b61203391906131e6565b8861203e9190613240565b905060008890506000878b6120539190613240565b905060006002828486612066919061315f565b61207091906131e6565b61207a91906131b5565b905060008b8d8c61208b9190613240565b8e896120979190613240565b8e8b8b8e6120a591906131e6565b6120af91906131b5565b6120b99190613240565b6120c391906131b5565b6120cd91906131e6565b6120d7919061315f565b905060008d8c6120e79190613240565b9050600060028284886120fa919061315f565b61210491906131e6565b61210e91906131b5565b9050808461211c919061315f565b975050505050505050979650505050505050565b6000808789876121409190613240565b8a8561214c9190613240565b8a87878a61215a91906131e6565b61216491906131b5565b61216e9190613240565b61217891906131b5565b61218291906131e6565b61218c919061315f565b90506000888a8961219d9190613240565b8b866121a99190613240565b8b88888b6121b791906131e6565b6121c191906131b5565b6121cb9190613240565b6121d591906131b5565b6121df91906131e6565b6121e9919061315f565b9050600087896121f99190613240565b9050600281838561220a919061315f565b61221491906131e6565b61221e91906131b5565b9350505050979650505050505050565b82805461223a9061334e565b90600052602060002090601f01602090048101928261225c57600085556122a3565b82601f1061227557803560ff19168380011785556122a3565b828001600101855582156122a3579182015b828111156122a2578235825591602001919060010190612287565b5b5090506122b0919061233a565b5090565b8280546122c09061334e565b90600052602060002090601f0160209004810192826122e25760008555612329565b82601f106122fb57805160ff1916838001178555612329565b82800160010185558215612329579182015b8281111561232857825182559160200191906001019061230d565b5b509050612336919061233a565b5090565b5b8082111561235357600081600090555060010161233b565b5090565b600061236a61236584613050565b61302b565b9050808382526020820190508285602086028201111561238d5761238c6134ef565b5b60005b858110156123bd57816123a388826124bb565b845260208401935060208301925050600181019050612390565b5050509392505050565b60006123da6123d58461307c565b61302b565b905080838252602082019050828560208602820111156123fd576123fc6134ef565b5b60005b8581101561242d5781612413888261261d565b845260208401935060208301925050600181019050612400565b5050509392505050565b600061244a612445846130a8565b61302b565b905082815260208101848484011115612466576124656134f4565b5b61247184828561330c565b509392505050565b600061248c612487846130d9565b61302b565b9050828152602081018484840111156124a8576124a76134f4565b5b6124b384828561330c565b509392505050565b6000813590506124ca8161362a565b92915050565b6000813590506124df81613641565b92915050565b600082601f8301126124fa576124f96134ea565b5b813561250a848260208601612357565b91505092915050565b600082601f830112612528576125276134ea565b5b81356125388482602086016123c7565b91505092915050565b60008135905061255081613658565b92915050565b6000813590506125658161366f565b92915050565b600082601f8301126125805761257f6134ea565b5b8135612590848260208601612437565b91505092915050565b60008083601f8401126125af576125ae6134ea565b5b8235905067ffffffffffffffff8111156125cc576125cb6134e5565b5b6020830191508360018202830111156125e8576125e76134ef565b5b9250929050565b600082601f830112612604576126036134ea565b5b8135612614848260208601612479565b91505092915050565b60008135905061262c81613686565b92915050565b600060208284031215612648576126476134fe565b5b6000612656848285016124bb565b91505092915050565b600060208284031215612675576126746134fe565b5b6000612683848285016124d0565b91505092915050565b600080600080608085870312156126a6576126a56134fe565b5b60006126b4878288016124d0565b945050602085013567ffffffffffffffff8111156126d5576126d46134f9565b5b6126e1878288016125ef565b935050604085013567ffffffffffffffff811115612702576127016134f9565b5b61270e878288016125ef565b925050606085013567ffffffffffffffff81111561272f5761272e6134f9565b5b61273b878288016125ef565b91505092959194509250565b6000806040838503121561275e5761275d6134fe565b5b600061276c858286016124bb565b925050602061277d858286016124bb565b9150509250929050565b600080600080600060a086880312156127a3576127a26134fe565b5b60006127b1888289016124bb565b95505060206127c2888289016124bb565b945050604086013567ffffffffffffffff8111156127e3576127e26134f9565b5b6127ef88828901612513565b935050606086013567ffffffffffffffff8111156128105761280f6134f9565b5b61281c88828901612513565b925050608086013567ffffffffffffffff81111561283d5761283c6134f9565b5b6128498882890161256b565b9150509295509295909350565b600080600080600060a08688031215612872576128716134fe565b5b6000612880888289016124bb565b9550506020612891888289016124bb565b94505060406128a28882890161261d565b93505060606128b38882890161261d565b925050608086013567ffffffffffffffff8111156128d4576128d36134f9565b5b6128e08882890161256b565b9150509295509295909350565b60008060408385031215612904576129036134fe565b5b6000612912858286016124bb565b925050602061292385828601612541565b9150509250929050565b60008060408385031215612944576129436134fe565b5b6000612952858286016124bb565b92505060206129638582860161261d565b9150509250929050565b60008060408385031215612984576129836134fe565b5b600083013567ffffffffffffffff8111156129a2576129a16134f9565b5b6129ae858286016124e5565b925050602083013567ffffffffffffffff8111156129cf576129ce6134f9565b5b6129db85828601612513565b9150509250929050565b6000602082840312156129fb576129fa6134fe565b5b6000612a0984828501612556565b91505092915050565b600060208284031215612a2857612a276134fe565b5b6000612a368482850161261d565b91505092915050565b60008060408385031215612a5657612a556134fe565b5b6000612a648582860161261d565b9250506020612a75858286016124bb565b9150509250929050565b60008060408385031215612a9657612a956134fe565b5b6000612aa48582860161261d565b9250506020612ab5858286016124d0565b9150509250929050565b60008060408385031215612ad657612ad56134fe565b5b6000612ae48582860161261d565b9250506020612af585828601612541565b9150509250929050565b600080600060408486031215612b1857612b176134fe565b5b6000612b268682870161261d565b935050602084013567ffffffffffffffff811115612b4757612b466134f9565b5b612b5386828701612599565b92509250509250925092565b60008060008060008060c08789031215612b7c57612b7b6134fe565b5b6000612b8a89828a0161261d565b9650506020612b9b89828a0161261d565b9550506040612bac89828a0161261d565b9450506060612bbd89828a0161261d565b9350506080612bce89828a0161261d565b92505060a0612bdf89828a0161261d565b9150509295509295509295565b6000612bf88383612d63565b60208301905092915050565b612c0d81613286565b82525050565b612c1c81613274565b82525050565b6000612c2d8261311a565b612c37818561313d565b9350612c428361310a565b8060005b83811015612c73578151612c5a8882612bec565b9750612c6583613130565b925050600181019050612c46565b5085935050505092915050565b612c8981613298565b82525050565b612c98816132fa565b82525050565b6000612ca982613125565b612cb3818561314e565b9350612cc381856020860161331b565b612ccc81613503565b840191505092915050565b6000612ce4602b8361314e565b9150612cef82613514565b604082019050919050565b6000612d0760268361314e565b9150612d1282613563565b604082019050919050565b6000612d2a60208361314e565b9150612d35826135b2565b602082019050919050565b6000612d4d60298361314e565b9150612d58826135db565b604082019050919050565b612d6c816132f0565b82525050565b612d7b816132f0565b82525050565b6000602082019050612d966000830184612c13565b92915050565b600061012082019050612db2600083018c612c04565b8181036020830152612dc4818b612c9e565b90508181036040830152612dd8818a612c9e565b90508181036060830152612dec8189612c9e565b9050612dfb6080830188612c80565b612e0860a0830187612d72565b612e1560c0830186612d72565b612e2260e0830185612d72565b612e30610100830184612d72565b9a9950505050505050505050565b60006020820190508181036000830152612e588184612c22565b905092915050565b60006040820190508181036000830152612e7a8185612c22565b90508181036020830152612e8e8184612c22565b90509392505050565b6000602082019050612eac6000830184612c80565b92915050565b60006020820190508181036000830152612ecc8184612c9e565b905092915050565b60006020820190508181036000830152612eed81612cd7565b9050919050565b60006020820190508181036000830152612f0d81612cfa565b9050919050565b60006020820190508181036000830152612f2d81612d1d565b9050919050565b60006020820190508181036000830152612f4d81612d40565b9050919050565b6000602082019050612f696000830184612d72565b92915050565b600061010082019050612f85600083018b612d72565b612f92602083018a612c04565b8181036040830152612fa48189612c9e565b90508181036060830152612fb88188612c9e565b90508181036080830152612fcc8187612c9e565b9050612fdb60a0830186612c80565b612fe860c0830185612c8f565b612ff560e0830184612c8f565b9998505050505050505050565b60006040820190506130176000830185612d72565b6130246020830184612d72565b9392505050565b6000613035613046565b90506130418282613380565b919050565b6000604051905090565b600067ffffffffffffffff82111561306b5761306a6134b6565b5b602082029050602081019050919050565b600067ffffffffffffffff821115613097576130966134b6565b5b602082029050602081019050919050565b600067ffffffffffffffff8211156130c3576130c26134b6565b5b6130cc82613503565b9050602081019050919050565b600067ffffffffffffffff8211156130f4576130f36134b6565b5b6130fd82613503565b9050602081019050919050565b6000819050602082019050919050565b600081519050919050565b600081519050919050565b6000602082019050919050565b600082825260208201905092915050565b600082825260208201905092915050565b600061316a826132f0565b9150613175836132f0565b9250827fffffffffffffffffffffffffffffffffffffffffffffffffffffffffffffffff038211156131aa576131a96133fa565b5b828201905092915050565b60006131c0826132f0565b91506131cb836132f0565b9250826131db576131da613429565b5b828204905092915050565b60006131f1826132f0565b91506131fc836132f0565b9250817fffffffffffffffffffffffffffffffffffffffffffffffffffffffffffffffff0483118215151615613235576132346133fa565b5b828202905092915050565b600061324b826132f0565b9150613256836132f0565b925082821015613269576132686133fa565b5b828203905092915050565b600061327f826132d0565b9050919050565b6000613291826132d0565b9050919050565b60008115159050919050565b60007fffffffff0000000000000000000000000000000000000000000000000000000082169050919050565b600073ffffffffffffffffffffffffffffffffffffffff82169050919050565b6000819050919050565b6000613305826132f0565b9050919050565b82818337600083830152505050565b60005b8381101561333957808201518184015260208101905061331e565b83811115613348576000848401525b50505050565b6000600282049050600182168061336657607f821691505b6020821081141561337a57613379613458565b5b50919050565b61338982613503565b810181811067ffffffffffffffff821117156133a8576133a76134b6565b5b80604052505050565b60006133bc826132f0565b91507fffffffffffffffffffffffffffffffffffffffffffffffffffffffffffffffff8214156133ef576133ee6133fa565b5b600182019050919050565b7f4e487b7100000000000000000000000000000000000000000000000000000000600052601160045260246000fd5b7f4e487b7100000000000000000000000000000000000000000000000000000000600052601260045260246000fd5b7f4e487b7100000000000000000000000000000000000000000000000000000000600052602260045260246000fd5b7f4e487b7100000000000000000000000000000000000000000000000000000000600052603260045260246000fd5b7f4e487b7100000000000000000000000000000000000000000000000000000000600052604160045260246000fd5b600080fd5b600080fd5b600080fd5b600080fd5b600080fd5b600080fd5b6000601f19601f8301169050919050565b7f455243313135353a2062616c616e636520717565727920666f7220746865207a60008201527f65726f2061646472657373000000000000000000000000000000000000000000602082015250565b7f4f776e61626c653a206e6577206f776e657220697320746865207a65726f206160008201527f6464726573730000000000000000000000000000000000000000000000000000602082015250565b7f4f776e61626c653a2063616c6c6572206973206e6f7420746865206f776e6572600082015250565b7f455243313135353a206163636f756e747320616e6420696473206c656e67746860008201527f206d69736d617463680000000000000000000000000000000000000000000000602082015250565b61363381613274565b811461363e57600080fd5b50565b61364a81613286565b811461365557600080fd5b50565b61366181613298565b811461366c57600080fd5b50565b613678816132a4565b811461368357600080fd5b50565b61368f816132f0565b811461369a57600080fd5b5056fea2646970667358221220e7e91feff4aafd5a57b6f9c047cf70ba43cba449681c564e15b8c9dc13329bd664736f6c63430008070033",
  "immutableReferences": {},
  "source": "// SPDX-License-Identifier: MIT\npragma solidity ^0.8.0;\n\nimport \"./creatortokenownership.sol\";\n\n/// @title Formulas representing the buy and sale price functions, as well as helper functions to efficiently calculate area under the curve\n/// @author Kamil Alizai Sadik\ncontract CreatorTokenFormulas is CreatorTokenOwnership {\n\n\tconstructor(string memory uri) CreatorTokenOwnership(uri) { }\n\n\t/// @dev Calculates area under buy price function\n\t/// @param _startingSupply Supply of token in circulation before the transaction\n\t/// @param _amount Amount of token being purchased\n\t/// @param _mNumerator Numerator of the slope of the buy price function\n\t/// @param _mDenominator Denominator of the slope of the buy price function\n\t/// @return Area under buy price function denoting total proceeds required to buy _amount tokens (before fees)\n\tfunction _buyFunction(uint _startingSupply, uint _amount, uint _mNumerator, uint _mDenominator) internal pure returns (uint256) {\n\t\t// b(x) = m*x\n\t\tuint endSupply = _startingSupply + _amount;\n\t\tuint base1 = _mNumerator*_startingSupply/_mDenominator;\n\t\tuint base2 = _mNumerator*endSupply/_mDenominator;\n\t\tuint height = endSupply-_startingSupply;\n\t\tuint area = (base1 + base2) * height / 2;\n\t\treturn area;\n\t}\n\n\t/// @dev Calculates area under sale price function\n\t/// @param _startingSupply Supply of token in circulation before the transaction\n\t/// @param _amount Amount of token being transacted\n\t/// @param _mNumerator Numerator of the slope of the buy price function\n\t/// @param _mDenominator Denominator of the slope of the buy price function\n\t/// @param _maxSupply Peak level of supply of the token to date\n\t/// @param _profitMargin percentage of total revenue generated routed to creator\n\t/// @return Area under sale price function denoting total proceeds received when selling _amount tokens (before fees)\n\tfunction _saleFunction(uint _startingSupply, uint _amount, uint _mNumerator, uint _mDenominator, uint _maxSupply, uint _profitMargin) public pure returns (uint256) {\n\t\t// Calculate breakpoint and endSupply\n\t\t(uint a, uint b, uint endSupply) = _breakpoint(_startingSupply, _amount, _mNumerator, _mDenominator, _maxSupply, _profitMargin);\n\t\t// Initialize area under curve\n\t\tuint area = 0;\n\t\t// Check where _startingSupply is relative to the breakpoint\n\t\tif (_startingSupply < a) {\n\t\t\t// Just need trapezoidal area of partial entirely left of the breakpoint\n\t\t\tarea = _leftArea(a, b, _startingSupply, endSupply);\n\t\t} else if (endSupply < a) {\n\t\t\t// Scenario in which _startingSupply >= a, and endSupply < a\n\t\t\t// There, need trapezoidal area of components both to right and left of breakpoint\n\t\t\tarea = _bothArea(a, b, _startingSupply, endSupply, _mNumerator, _mDenominator, _maxSupply);\n\t\t} else {\n\t\t\t// Scenario in which entire sale occurs to right of breakpoint\n\t\t\t// Just need trapezoidal area of partial entirely right of the breakpoint\n\t\t\tarea = _rightArea(a, b, _startingSupply, endSupply, _mNumerator, _mDenominator, _maxSupply);\n\t\t}\n\t\treturn area;\n\t}\n\n\t/// @dev Calculates breakpoint and other key inputs into _saleFunction\n\t/// @param _startingSupply Supply of token in circulation before the transaction\n\t/// @param _amount Amount of token being transacted\n\t/// @param _mNumerator Numerator of the slope of the buy price function\n\t/// @param _mDenominator Denominator of the slope of the buy price function\n\t/// @param _maxSupply Peak level of supply of the token to date\n\t/// @param _profitMargin percentage of total revenue generated routed to creator\n\t/// @return x-coordinate of breakpoint, y-coordinate of breakpoint, supply of token after the transaction\n\tfunction _breakpoint(uint _startingSupply, uint _amount, uint _mNumerator, uint _mDenominator, uint _maxSupply, uint _profitMargin) internal pure returns (uint, uint, uint) {\n\t\t// Define breakpoint (a,b) chosen s.t. area under sale price function is (1-profitMargin) times area under buy price function\n\t\tuint a = _maxSupply/2;\n\t\tuint b = _maxSupply*(50-_profitMargin)/100*_mNumerator/_mDenominator;\n\t\tuint endSupply = _startingSupply - _amount;\n\t\treturn (a, b, endSupply);\n\t}\n\n\t/// @dev Computes _saleFunction scenario in which entire transaction occurs left of breakpoint\n\t/// @param _a x-coordinate of breakpoint\n\t/// @param _b y-coordinate of breakpoint\n\t/// @param _startingSupply Supply of token in circulation before the transaction\n\t/// @param _endSupply Supply of token in circulation after the transaction\n\t/// @return Area under the sale price function in this scenario\n\tfunction _leftArea(uint _a, uint _b, uint _startingSupply, uint _endSupply) internal pure returns (uint256) {\n\t\t\t//uint base1 = ((_b/_a)*(_a-_endSupply)+_b);\n\t\t\t//uint base1 = ((_b/_a)*(_endSupply-_a)+_b);\n\t\t\tuint base1 = (_b-(_b/_a)*(_a-_endSupply));\n\t\t\t//uint base2 = ((_b/_a)*(_a-_startingSupply)+_b);\n\t\t\t//uint base2 = ((_b/_a)*(_startingSupply-_a)+_b);\n\t\t\tuint base2 = (_b-(_b/_a)*(_a-_startingSupply));\n\t\t\tuint height = _startingSupply-_endSupply;\n\t\t\treturn (base1 + base2) * height / 2;\n\t}\n\n\t/// @dev Computes _saleFunction scenario in which transaction crosses breakpoint\n\t/// @param _a x-coordinate of breakpoint\n\t/// @param _b y-coordinate of breakpoint\n\t/// @param _startingSupply Supply of token in circulation before the transaction\n\t/// @param _endSupply Supply of token in circulation after the transaction\n\t/// @param _mNumerator Numerator of the slope of the buy price function\n\t/// @param _mDenominator Denominator of the slope of the buy price function\n\t/// @param _maxSupply Peak level of supply of the token to date\n\t/// @return Area under the sale price function in this scenario\n\tfunction _bothArea(uint _a, uint _b, uint _startingSupply, uint _endSupply, uint _mNumerator, uint _mDenominator, uint _maxSupply) internal pure returns (uint256) {\n\t\t//uint leftBase1 = ((_b/_a)*(_a-_endSupply)+_b);\n\t\t//uint leftBase1 = ((_b/_a)*(_endSupply-_a)+_b);\n\t\tuint leftBase1 = (_b-(_b/_a)*(_a-_endSupply));\n\t\tuint sharedBase = _b;\n\t\tuint leftHeight = _a-_endSupply;\n\t\tuint leftArea = (leftBase1 + sharedBase) * leftHeight / 2;\n\t\tuint rightBase2 = (_mNumerator*_maxSupply/_mDenominator-_b)/(_maxSupply-_a)*(_startingSupply-_a)+_b;\n\t\tuint rightHeight = _startingSupply-_a;\n\t\tuint rightArea = (sharedBase + rightBase2) * rightHeight / 2;\n\t\treturn leftArea + rightArea;\n\t}\n\n\t/// @dev Computes _saleFunction scneario in which entire transaction occurs right of breakpoint\n\t/// @param _a x-coordinate of breakpoint\n\t/// @param _b y-coordinate of breakpoint\n\t/// @param _startingSupply Supply of token in circulation before the transaction\n\t/// @param _endSupply Supply of token in circulation after the transaction\n\t/// @param _mNumerator Numerator of the slope of the buy price function\n\t/// @param _mDenominator Denominator of the slope of the buy price function\n\t/// @param _maxSupply Peak level of supply of the token to date\n\t/// @return Area under the sale price function in this scenario\n\tfunction _rightArea(uint _a, uint _b, uint _startingSupply, uint _endSupply, uint _mNumerator, uint _mDenominator, uint _maxSupply) internal pure returns (uint256) {\n\t\tuint base1 = (((_mNumerator*_maxSupply/_mDenominator-_b)/(_maxSupply-_a))*(_endSupply-_a)+_b);\n\t\tuint base2 = (((_mNumerator*_maxSupply/_mDenominator-_b)/(_maxSupply-_a))*(_startingSupply-_a)+_b);\n\t\tuint height = _startingSupply-_endSupply;\n\t\treturn (base1 + base2) * height / 2;\n\t}\n}",
  "sourcePath": "/Users/kamilalizaisadik/DeFi/Dynamic Automated Market Maker/CreatorTokenExchange/contracts/creatortokenformulas.sol",
  "compiler": {
    "name": "solc",
    "version": "0.8.7+commit.e28d00a7.Emscripten.clang"
  },
  "schemaVersion": "3.4.1",
  "updatedAt": "2021-08-14T13:08:18.406Z",
  "devdoc": {
    "author": "Kamil Alizai Sadik",
    "kind": "dev",
    "methods": {
      "_saleFunction(uint256,uint256,uint256,uint256,uint256,uint256)": {
        "details": "Calculates area under sale price function",
        "params": {
          "_amount": "Amount of token being transacted",
          "_mDenominator": "Denominator of the slope of the buy price function",
          "_mNumerator": "Numerator of the slope of the buy price function",
          "_maxSupply": "Peak level of supply of the token to date",
          "_profitMargin": "percentage of total revenue generated routed to creator",
          "_startingSupply": "Supply of token in circulation before the transaction"
        },
        "returns": {
          "_0": "Area under sale price function denoting total proceeds received when selling _amount tokens (before fees)"
        }
      },
      "balanceOf(address,uint256)": {
        "details": "See {IERC1155-balanceOf}. Requirements: - `account` cannot be the zero address."
      },
      "balanceOfBatch(address[],uint256[])": {
        "details": "See {IERC1155-balanceOfBatch}. Requirements: - `accounts` and `ids` must have the same length."
      },
      "changeAddress(uint256,address)": {
        "details": "Allows token creator to change their address",
        "params": {
          "_newCreatorAddress": "New creator address associated with the token",
          "_tokenId": "ID of the token in question"
        }
      },
      "changeDescription(uint256,string)": {
        "details": "Allows token creator to change the description of their token",
        "params": {
          "_newDescription": "New description associated with the token",
          "_tokenId": "ID of the token in question"
        }
      },
      "changeName(uint256,string)": {
        "details": "Allows token creator to change the name of their token",
        "params": {
          "_newName": "New name associated with the token",
          "_tokenId": "ID of the token in question"
        }
      },
      "changePlatformFee(uint256)": {
        "details": "Allows owner to change platformFee",
        "params": {
          "_newPlatformFee": "New platform fee"
        }
      },
      "changeProfitMargin(uint256)": {
        "details": "Allows owner to change profit_margin",
        "params": {
          "_newProfitMargin": "New profit margin"
        }
      },
      "changeSymbol(uint256,string)": {
        "details": "Allows token creator to change the symbol of their token",
        "params": {
          "_newSymbol": "New symbol associated with the token",
          "_tokenId": "ID of the token in question"
        }
      },
      "changeVerification(uint256,bool)": {
        "details": "Allows owner to verify (or undo verification) of a CreatorToken",
        "params": {
          "_tokenId": "ID of the token in question",
          "_verified": "Verification status of the token in question"
        }
      },
      "createCreatorToken(address,string,string,string)": {
        "details": "Creates a new creator token",
        "params": {
          "_creatorAddress": "Address of the creator of the token",
          "_description": "chosen by the creator of the tokens",
          "_name": "Name chosen by the creator of the token",
          "_symbol": "Ticker symbol chosen by the creator of the token"
        }
      },
      "getCreatorTokenCount()": {
        "details": "Returns the current length of the creatorTokens array",
        "returns": {
          "_0": "uint representing number of unique Creator Tokens"
        }
      },
      "isApprovedForAll(address,address)": {
        "details": "Denotes whether operator is approved to transfer account's tokens",
        "params": {
          "_account": "Wallet address holding tokens",
          "_operator": "Wallet address which is/isn't approved to transfer _account's tokens"
        },
        "returns": {
          "_0": "Boolean value indicating approval status"
        }
      },
      "owner()": {
        "details": "Returns the address of the current owner."
      },
      "payoutPlatformFees(address)": {
        "details": "Pays out platform fees owed to owner (might opt to call this daily)",
        "params": {
          "_owner": "Owner of the smart contract"
        }
      },
      "renounceOwnership()": {
        "details": "Leaves the contract without owner. It will not be possible to call `onlyOwner` functions anymore. Can only be called by the current owner. NOTE: Renouncing ownership will leave the contract without an owner, thereby removing any functionality that is only available to the owner."
      },
      "safeBatchTransferFrom(address,address,uint256[],uint256[],bytes)": {
        "details": "Transfers a batch of tokens",
        "params": {
          "_amounts": "Array of quantities of token to be transferred",
          "_data": "Data",
          "_from": "Address token is being transferred from",
          "_ids": "Array of IDs of tokens being transferred",
          "_to": "Address token is being transferred to"
        }
      },
      "safeTransferFrom(address,address,uint256,uint256,bytes)": {
        "details": "Transfers a token",
        "params": {
          "_amount": "Quantity of token to be transferred",
          "_data": "Data",
          "_from": "Address token is being transferred from",
          "_id": "ID of token being transferred",
          "_to": "Address token is being transferred to"
        }
      },
      "setApprovalForAll(address,bool)": {
        "details": "Gives operator permission to transfer caller's tokens",
        "params": {
          "_approved": "Boolean value indicating whether operator is approved",
          "_operator": "Wallet address being granted permission"
        }
      },
      "supportsInterface(bytes4)": {
        "details": "See {IERC165-supportsInterface}."
      },
      "transferOwnership(address)": {
        "details": "Transfers ownership of the contract to a new account (`newOwner`). Can only be called by the current owner."
      },
      "uri(uint256)": {
        "details": "See {IERC1155MetadataURI-uri}. This implementation returns the same URI for *all* token types. It relies on the token type ID substitution mechanism https://eips.ethereum.org/EIPS/eip-1155#metadata[defined in the EIP]. Clients calling this function must replace the `\\{id\\}` substring with the actual token type ID."
      },
      "withdraw(address)": {
        "details": "Ownable function allowing for withdrawal",
        "params": {
          "_owner": "Owner of the smart contract"
        }
      }
    },
    "title": "Formulas representing the buy and sale price functions, as well as helper functions to efficiently calculate area under the curve",
    "version": 1
  },
  "userdoc": {
    "kind": "user",
    "methods": {},
    "version": 1
  }
}