{
  "contractName": "CreatorTokenExchange",
  "abi": [
    {
      "inputs": [
        {
          "internalType": "string",
          "name": "uri",
          "type": "string"
        }
      ],
      "stateMutability": "nonpayable",
      "type": "constructor"
    },
    {
      "anonymous": false,
      "inputs": [
        {
          "indexed": true,
          "internalType": "address",
          "name": "account",
          "type": "address"
        },
        {
          "indexed": true,
          "internalType": "address",
          "name": "operator",
          "type": "address"
        },
        {
          "indexed": false,
          "internalType": "bool",
          "name": "approved",
          "type": "bool"
        }
      ],
      "name": "ApprovalForAll",
      "type": "event"
    },
    {
      "anonymous": false,
      "inputs": [
        {
          "indexed": false,
          "internalType": "uint256",
          "name": "tokenId",
          "type": "uint256"
        },
        {
          "indexed": false,
          "internalType": "address payable",
          "name": "creatorAddress",
          "type": "address"
        },
        {
          "indexed": false,
          "internalType": "string",
          "name": "name",
          "type": "string"
        },
        {
          "indexed": false,
          "internalType": "string",
          "name": "symbol",
          "type": "string"
        },
        {
          "indexed": false,
          "internalType": "string",
          "name": "description",
          "type": "string"
        },
        {
          "indexed": false,
          "internalType": "bool",
          "name": "verified",
          "type": "bool"
        },
        {
          "indexed": false,
          "internalType": "uint256",
          "name": "outstanding",
          "type": "uint256"
        },
        {
          "indexed": false,
          "internalType": "uint256",
          "name": "maxSupply",
          "type": "uint256"
        }
      ],
      "name": "NewCreatorToken",
      "type": "event"
    },
    {
      "anonymous": false,
      "inputs": [
        {
          "indexed": true,
          "internalType": "address",
          "name": "account",
          "type": "address"
        },
        {
          "indexed": false,
          "internalType": "uint256",
          "name": "amount",
          "type": "uint256"
        },
        {
          "indexed": false,
          "internalType": "uint256",
          "name": "price",
          "type": "uint256"
        },
        {
          "indexed": false,
          "internalType": "string",
          "name": "transactionType",
          "type": "string"
        },
        {
          "indexed": false,
          "internalType": "uint256",
          "name": "tokenId",
          "type": "uint256"
        },
        {
          "indexed": false,
          "internalType": "string",
          "name": "name",
          "type": "string"
        },
        {
          "indexed": false,
          "internalType": "string",
          "name": "symbol",
          "type": "string"
        }
      ],
      "name": "NewTransaction",
      "type": "event"
    },
    {
      "anonymous": false,
      "inputs": [
        {
          "indexed": true,
          "internalType": "address",
          "name": "previousOwner",
          "type": "address"
        },
        {
          "indexed": true,
          "internalType": "address",
          "name": "newOwner",
          "type": "address"
        }
      ],
      "name": "OwnershipTransferred",
      "type": "event"
    },
    {
      "anonymous": false,
      "inputs": [
        {
          "indexed": true,
          "internalType": "address",
          "name": "operator",
          "type": "address"
        },
        {
          "indexed": true,
          "internalType": "address",
          "name": "from",
          "type": "address"
        },
        {
          "indexed": true,
          "internalType": "address",
          "name": "to",
          "type": "address"
        },
        {
          "indexed": false,
          "internalType": "uint256[]",
          "name": "ids",
          "type": "uint256[]"
        },
        {
          "indexed": false,
          "internalType": "uint256[]",
          "name": "values",
          "type": "uint256[]"
        }
      ],
      "name": "TransferBatch",
      "type": "event"
    },
    {
      "anonymous": false,
      "inputs": [
        {
          "indexed": true,
          "internalType": "address",
          "name": "operator",
          "type": "address"
        },
        {
          "indexed": true,
          "internalType": "address",
          "name": "from",
          "type": "address"
        },
        {
          "indexed": true,
          "internalType": "address",
          "name": "to",
          "type": "address"
        },
        {
          "indexed": false,
          "internalType": "uint256",
          "name": "id",
          "type": "uint256"
        },
        {
          "indexed": false,
          "internalType": "uint256",
          "name": "value",
          "type": "uint256"
        }
      ],
      "name": "TransferSingle",
      "type": "event"
    },
    {
      "anonymous": false,
      "inputs": [
        {
          "indexed": false,
          "internalType": "string",
          "name": "value",
          "type": "string"
        },
        {
          "indexed": true,
          "internalType": "uint256",
          "name": "id",
          "type": "uint256"
        }
      ],
      "name": "URI",
      "type": "event"
    },
    {
      "inputs": [
        {
          "internalType": "uint256",
          "name": "_tokenId",
          "type": "uint256"
        },
        {
          "internalType": "uint256",
          "name": "_amount",
          "type": "uint256"
        }
      ],
      "name": "_buyProceeds",
      "outputs": [
        {
          "internalType": "uint256",
          "name": "",
          "type": "uint256"
        }
      ],
      "stateMutability": "view",
      "type": "function",
      "constant": true
    },
    {
      "inputs": [
        {
          "internalType": "uint256",
          "name": "_proceedsRequired",
          "type": "uint256"
        }
      ],
      "name": "_feeProceeds",
      "outputs": [
        {
          "internalType": "uint256",
          "name": "",
          "type": "uint256"
        }
      ],
      "stateMutability": "view",
      "type": "function",
      "constant": true
    },
    {
      "inputs": [
        {
          "internalType": "uint256",
          "name": "_startingSupply",
          "type": "uint256"
        },
        {
          "internalType": "uint256",
          "name": "_amount",
          "type": "uint256"
        },
        {
          "internalType": "uint256",
          "name": "_mNumerator",
          "type": "uint256"
        },
        {
          "internalType": "uint256",
          "name": "_mDenominator",
          "type": "uint256"
        },
        {
          "internalType": "uint256",
          "name": "_maxSupply",
          "type": "uint256"
        },
        {
          "internalType": "uint256",
          "name": "_profitMargin",
          "type": "uint256"
        }
      ],
      "name": "_saleFunction",
      "outputs": [
        {
          "internalType": "uint256",
          "name": "",
          "type": "uint256"
        }
      ],
      "stateMutability": "pure",
      "type": "function",
      "constant": true
    },
    {
      "inputs": [
        {
          "internalType": "uint256",
          "name": "_tokenId",
          "type": "uint256"
        },
        {
          "internalType": "uint256",
          "name": "_amount",
          "type": "uint256"
        }
      ],
      "name": "_totalProceeds",
      "outputs": [
        {
          "internalType": "uint256",
          "name": "",
          "type": "uint256"
        }
      ],
      "stateMutability": "view",
      "type": "function",
      "constant": true
    },
    {
      "inputs": [
        {
          "internalType": "address",
          "name": "",
          "type": "address"
        },
        {
          "internalType": "address",
          "name": "",
          "type": "address"
        }
      ],
      "name": "approvals",
      "outputs": [
        {
          "internalType": "bool",
          "name": "",
          "type": "bool"
        }
      ],
      "stateMutability": "view",
      "type": "function",
      "constant": true
    },
    {
      "inputs": [
        {
          "internalType": "address",
          "name": "account",
          "type": "address"
        },
        {
          "internalType": "uint256",
          "name": "id",
          "type": "uint256"
        }
      ],
      "name": "balanceOf",
      "outputs": [
        {
          "internalType": "uint256",
          "name": "",
          "type": "uint256"
        }
      ],
      "stateMutability": "view",
      "type": "function",
      "constant": true
    },
    {
      "inputs": [
        {
          "internalType": "address[]",
          "name": "accounts",
          "type": "address[]"
        },
        {
          "internalType": "uint256[]",
          "name": "ids",
          "type": "uint256[]"
        }
      ],
      "name": "balanceOfBatch",
      "outputs": [
        {
          "internalType": "uint256[]",
          "name": "",
          "type": "uint256[]"
        }
      ],
      "stateMutability": "view",
      "type": "function",
      "constant": true
    },
    {
      "inputs": [
        {
          "internalType": "uint256",
          "name": "_tokenId",
          "type": "uint256"
        },
        {
          "internalType": "address payable",
          "name": "_newCreatorAddress",
          "type": "address"
        }
      ],
      "name": "changeAddress",
      "outputs": [],
      "stateMutability": "nonpayable",
      "type": "function"
    },
    {
      "inputs": [
        {
          "internalType": "uint256",
          "name": "_tokenId",
          "type": "uint256"
        },
        {
          "internalType": "string",
          "name": "_newDescription",
          "type": "string"
        }
      ],
      "name": "changeDescription",
      "outputs": [],
      "stateMutability": "nonpayable",
      "type": "function"
    },
    {
      "inputs": [
        {
          "internalType": "uint256",
          "name": "_tokenId",
          "type": "uint256"
        },
        {
          "internalType": "string",
          "name": "_newName",
          "type": "string"
        }
      ],
      "name": "changeName",
      "outputs": [],
      "stateMutability": "nonpayable",
      "type": "function"
    },
    {
      "inputs": [
        {
          "internalType": "uint256",
          "name": "_newPlatformFee",
          "type": "uint256"
        }
      ],
      "name": "changePlatformFee",
      "outputs": [],
      "stateMutability": "nonpayable",
      "type": "function"
    },
    {
      "inputs": [
        {
          "internalType": "uint256",
          "name": "_newProfitMargin",
          "type": "uint256"
        }
      ],
      "name": "changeProfitMargin",
      "outputs": [],
      "stateMutability": "nonpayable",
      "type": "function"
    },
    {
      "inputs": [
        {
          "internalType": "uint256",
          "name": "_tokenId",
          "type": "uint256"
        },
        {
          "internalType": "string",
          "name": "_newSymbol",
          "type": "string"
        }
      ],
      "name": "changeSymbol",
      "outputs": [],
      "stateMutability": "nonpayable",
      "type": "function"
    },
    {
      "inputs": [
        {
          "internalType": "uint256",
          "name": "_tokenId",
          "type": "uint256"
        },
        {
          "internalType": "bool",
          "name": "_verified",
          "type": "bool"
        }
      ],
      "name": "changeVerification",
      "outputs": [],
      "stateMutability": "nonpayable",
      "type": "function"
    },
    {
      "inputs": [
        {
          "internalType": "address payable",
          "name": "_creatorAddress",
          "type": "address"
        },
        {
          "internalType": "string",
          "name": "_name",
          "type": "string"
        },
        {
          "internalType": "string",
          "name": "_symbol",
          "type": "string"
        },
        {
          "internalType": "string",
          "name": "_description",
          "type": "string"
        }
      ],
      "name": "createCreatorToken",
      "outputs": [],
      "stateMutability": "nonpayable",
      "type": "function"
    },
    {
      "inputs": [
        {
          "internalType": "uint256",
          "name": "",
          "type": "uint256"
        }
      ],
      "name": "creatorTokens",
      "outputs": [
        {
          "internalType": "address payable",
          "name": "creatorAddress",
          "type": "address"
        },
        {
          "internalType": "string",
          "name": "name",
          "type": "string"
        },
        {
          "internalType": "string",
          "name": "symbol",
          "type": "string"
        },
        {
          "internalType": "string",
          "name": "description",
          "type": "string"
        },
        {
          "internalType": "bool",
          "name": "verified",
          "type": "bool"
        },
        {
          "internalType": "uint256",
          "name": "outstanding",
          "type": "uint256"
        },
        {
          "internalType": "uint256",
          "name": "maxSupply",
          "type": "uint256"
        },
        {
          "internalType": "uint256",
          "name": "lastPrice",
          "type": "uint256"
        },
        {
          "internalType": "uint256",
          "name": "creatorTokenId",
          "type": "uint256"
        }
      ],
      "stateMutability": "view",
      "type": "function",
      "constant": true
    },
    {
      "inputs": [],
      "name": "getCreatorTokenCount",
      "outputs": [
        {
          "internalType": "uint256",
          "name": "",
          "type": "uint256"
        }
      ],
      "stateMutability": "view",
      "type": "function",
      "constant": true
    },
    {
      "inputs": [
        {
          "internalType": "address",
          "name": "_account",
          "type": "address"
        },
        {
          "internalType": "address",
          "name": "_operator",
          "type": "address"
        }
      ],
      "name": "isApprovedForAll",
      "outputs": [
        {
          "internalType": "bool",
          "name": "",
          "type": "bool"
        }
      ],
      "stateMutability": "view",
      "type": "function",
      "constant": true
    },
    {
      "inputs": [],
      "name": "numCreatorTokens",
      "outputs": [
        {
          "internalType": "uint256",
          "name": "",
          "type": "uint256"
        }
      ],
      "stateMutability": "view",
      "type": "function",
      "constant": true
    },
    {
      "inputs": [],
      "name": "owner",
      "outputs": [
        {
          "internalType": "address",
          "name": "",
          "type": "address"
        }
      ],
      "stateMutability": "view",
      "type": "function",
      "constant": true
    },
    {
      "inputs": [
        {
          "internalType": "address payable",
          "name": "_owner",
          "type": "address"
        }
      ],
      "name": "payoutPlatformFees",
      "outputs": [],
      "stateMutability": "nonpayable",
      "type": "function"
    },
    {
      "inputs": [],
      "name": "platformFeesOwed",
      "outputs": [
        {
          "internalType": "uint256",
          "name": "",
          "type": "uint256"
        }
      ],
      "stateMutability": "view",
      "type": "function",
      "constant": true
    },
    {
      "inputs": [],
      "name": "renounceOwnership",
      "outputs": [],
      "stateMutability": "nonpayable",
      "type": "function"
    },
    {
      "inputs": [
        {
          "internalType": "address",
          "name": "_from",
          "type": "address"
        },
        {
          "internalType": "address",
          "name": "_to",
          "type": "address"
        },
        {
          "internalType": "uint256[]",
          "name": "_ids",
          "type": "uint256[]"
        },
        {
          "internalType": "uint256[]",
          "name": "_amounts",
          "type": "uint256[]"
        },
        {
          "internalType": "bytes",
          "name": "_data",
          "type": "bytes"
        }
      ],
      "name": "safeBatchTransferFrom",
      "outputs": [],
      "stateMutability": "nonpayable",
      "type": "function"
    },
    {
      "inputs": [
        {
          "internalType": "address",
          "name": "_from",
          "type": "address"
        },
        {
          "internalType": "address",
          "name": "_to",
          "type": "address"
        },
        {
          "internalType": "uint256",
          "name": "_id",
          "type": "uint256"
        },
        {
          "internalType": "uint256",
          "name": "_amount",
          "type": "uint256"
        },
        {
          "internalType": "bytes",
          "name": "_data",
          "type": "bytes"
        }
      ],
      "name": "safeTransferFrom",
      "outputs": [],
      "stateMutability": "nonpayable",
      "type": "function"
    },
    {
      "inputs": [
        {
          "internalType": "address",
          "name": "_operator",
          "type": "address"
        },
        {
          "internalType": "bool",
          "name": "_approved",
          "type": "bool"
        }
      ],
      "name": "setApprovalForAll",
      "outputs": [],
      "stateMutability": "nonpayable",
      "type": "function"
    },
    {
      "inputs": [
        {
          "internalType": "bytes4",
          "name": "interfaceId",
          "type": "bytes4"
        }
      ],
      "name": "supportsInterface",
      "outputs": [
        {
          "internalType": "bool",
          "name": "",
          "type": "bool"
        }
      ],
      "stateMutability": "view",
      "type": "function",
      "constant": true
    },
    {
      "inputs": [
        {
          "internalType": "uint256",
          "name": "",
          "type": "uint256"
        },
        {
          "internalType": "address",
          "name": "",
          "type": "address"
        }
      ],
      "name": "tokenHoldership",
      "outputs": [
        {
          "internalType": "uint256",
          "name": "",
          "type": "uint256"
        }
      ],
      "stateMutability": "view",
      "type": "function",
      "constant": true
    },
    {
      "inputs": [
        {
          "internalType": "uint256",
          "name": "",
          "type": "uint256"
        }
      ],
      "name": "tokenToCreator",
      "outputs": [
        {
          "internalType": "address",
          "name": "",
          "type": "address"
        }
      ],
      "stateMutability": "view",
      "type": "function",
      "constant": true
    },
    {
      "inputs": [
        {
          "internalType": "uint256",
          "name": "",
          "type": "uint256"
        }
      ],
      "name": "tokenValueTransferred",
      "outputs": [
        {
          "internalType": "uint256",
          "name": "",
          "type": "uint256"
        }
      ],
      "stateMutability": "view",
      "type": "function",
      "constant": true
    },
    {
      "inputs": [],
      "name": "totalPlatformFees",
      "outputs": [
        {
          "internalType": "uint256",
          "name": "",
          "type": "uint256"
        }
      ],
      "stateMutability": "view",
      "type": "function",
      "constant": true
    },
    {
      "inputs": [
        {
          "internalType": "uint256",
          "name": "",
          "type": "uint256"
        }
      ],
      "name": "totalValueLocked",
      "outputs": [
        {
          "internalType": "uint256",
          "name": "",
          "type": "uint256"
        }
      ],
      "stateMutability": "view",
      "type": "function",
      "constant": true
    },
    {
      "inputs": [
        {
          "internalType": "address",
          "name": "newOwner",
          "type": "address"
        }
      ],
      "name": "transferOwnership",
      "outputs": [],
      "stateMutability": "nonpayable",
      "type": "function"
    },
    {
      "inputs": [
        {
          "internalType": "uint256",
          "name": "",
          "type": "uint256"
        }
      ],
      "name": "uri",
      "outputs": [
        {
          "internalType": "string",
          "name": "",
          "type": "string"
        }
      ],
      "stateMutability": "view",
      "type": "function",
      "constant": true
    },
    {
      "inputs": [
        {
          "internalType": "address",
          "name": "",
          "type": "address"
        },
        {
          "internalType": "uint256",
          "name": "",
          "type": "uint256"
        }
      ],
      "name": "userToHoldings",
      "outputs": [
        {
          "internalType": "uint256",
          "name": "",
          "type": "uint256"
        }
      ],
      "stateMutability": "view",
      "type": "function",
      "constant": true
    },
    {
      "inputs": [
        {
          "internalType": "address payable",
          "name": "_owner",
          "type": "address"
        }
      ],
      "name": "withdraw",
      "outputs": [],
      "stateMutability": "nonpayable",
      "type": "function"
    },
    {
      "inputs": [
        {
          "internalType": "uint256",
          "name": "_tokenId",
          "type": "uint256"
        },
        {
          "internalType": "uint256",
          "name": "_amount",
          "type": "uint256"
        }
      ],
      "name": "buyCreatorToken",
      "outputs": [],
      "stateMutability": "payable",
      "type": "function",
      "payable": true
    },
    {
      "inputs": [
        {
          "internalType": "uint256",
          "name": "_tokenId",
          "type": "uint256"
        },
        {
          "internalType": "uint256",
          "name": "_amount",
          "type": "uint256"
        },
        {
          "internalType": "address payable",
          "name": "_seller",
          "type": "address"
        }
      ],
      "name": "sellCreatorToken",
      "outputs": [],
      "stateMutability": "payable",
      "type": "function",
      "payable": true
    }
  ],
  "bytecode": "0x608060405260018055600060025560006003556000600455601460055565082f79cd900060065560b96007553480156200003857600080fd5b5060405162004bae38038062004bae83398181016040528101906200005e919062000282565b80808080806000620000756200013060201b60201c565b9050806000806101000a81548173ffffffffffffffffffffffffffffffffffffffff021916908373ffffffffffffffffffffffffffffffffffffffff1602179055508073ffffffffffffffffffffffffffffffffffffffff16600073ffffffffffffffffffffffffffffffffffffffff167f8be0079c531659141344cd1fd0a4f28419497f9722a3daafe3b4186f6b6457e060405160405180910390a35062000124816200013860201b60201c565b50505050505062000457565b600033905090565b80601190805190602001906200015092919062000154565b5050565b828054620001629062000368565b90600052602060002090601f016020900481019282620001865760008555620001d2565b82601f10620001a157805160ff1916838001178555620001d2565b82800160010185558215620001d2579182015b82811115620001d1578251825591602001919060010190620001b4565b5b509050620001e19190620001e5565b5090565b5b8082111562000200576000816000905550600101620001e6565b5090565b60006200021b6200021584620002fc565b620002d3565b9050828152602081018484840111156200023a576200023962000437565b5b6200024784828562000332565b509392505050565b600082601f83011262000267576200026662000432565b5b81516200027984826020860162000204565b91505092915050565b6000602082840312156200029b576200029a62000441565b5b600082015167ffffffffffffffff811115620002bc57620002bb6200043c565b5b620002ca848285016200024f565b91505092915050565b6000620002df620002f2565b9050620002ed82826200039e565b919050565b6000604051905090565b600067ffffffffffffffff8211156200031a576200031962000403565b5b620003258262000446565b9050602081019050919050565b60005b838110156200035257808201518184015260208101905062000335565b8381111562000362576000848401525b50505050565b600060028204905060018216806200038157607f821691505b60208210811415620003985762000397620003d4565b5b50919050565b620003a98262000446565b810181811067ffffffffffffffff82111715620003cb57620003ca62000403565b5b80604052505050565b7f4e487b7100000000000000000000000000000000000000000000000000000000600052602260045260246000fd5b7f4e487b7100000000000000000000000000000000000000000000000000000000600052604160045260246000fd5b600080fd5b600080fd5b600080fd5b600080fd5b6000601f19601f8301169050919050565b61474780620004676000396000f3fe6080604052600436106102245760003560e01c8063afb2183211610123578063d7a5791a116100ab578063eb8417591161006f578063eb841759146108a5578063f242432a146108ce578063f2fde38b146108f7578063f7374e2e14610920578063fffae9411461094957610224565b8063d7a5791a1461079c578063d9bd3a40146107c5578063de6a06ed14610802578063df3c00b11461082b578063e985e9c51461086857610224565b8063c39cbef1116100f2578063c39cbef1146106b1578063c539c317146106da578063ce901d8a14610703578063d3631fa514610748578063d56b72c71461077357610224565b8063afb21832146105e1578063ba111a051461060c578063bfb48c9c14610649578063c1d330491461068657610224565b80632eb2c2d6116101b1578063715018a611610175578063715018a6146104fc5780638da5cb5b1461051357806392724afa1461053e578063a22cb4651461057b578063a32ce11e146105a457610224565b80632eb2c2d6146103f357806335a8ae211461041c5780634e1273f4146104595780634fe477d81461049657806351cff8d9146104d357610224565b806317bcaa08116101f857806317bcaa081461030957806318892ae8146103465780631d5ad18b146103835780632a2b237c146103ac5780632dcfdaf7146103d757610224565b8062fdd58e1461022957806301ffc9a71461026657806306e320f5146102a35780630e89341c146102cc575b600080fd5b34801561023557600080fd5b50610250600480360381019061024b91906136f9565b610965565b60405161025d9190613e79565b60405180910390f35b34801561027257600080fd5b5061028d600480360381019061028891906137b1565b610a2f565b60405161029a9190613dbc565b60405180910390f35b3480156102af57600080fd5b506102ca60048036038101906102c591906138cb565b610b11565b005b3480156102d857600080fd5b506102f360048036038101906102ee91906137de565b610bb8565b6040516103009190613dd7565b60405180910390f35b34801561031557600080fd5b50610330600480360381019061032b91906137de565b610c4c565b60405161033d9190613e79565b60405180910390f35b34801561035257600080fd5b5061036d600480360381019061036891906137de565b610c64565b60405161037a9190613ca6565b60405180910390f35b34801561038f57600080fd5b506103aa60048036038101906103a5919061384b565b610c97565b005b3480156103b857600080fd5b506103c1610d6c565b6040516103ce9190613e79565b60405180910390f35b6103f160048036038101906103ec919061396b565b610d79565b005b3480156103ff57600080fd5b5061041a60048036038101906104159190613553565b610fc3565b005b34801561042857600080fd5b50610443600480360381019061043e919061392b565b61112f565b6040516104509190613e79565b60405180910390f35b34801561046557600080fd5b50610480600480360381019061047b9190613739565b611167565b60405161048d9190613d63565b60405180910390f35b3480156104a257600080fd5b506104bd60048036038101906104b8919061392b565b611280565b6040516104ca9190613e79565b60405180910390f35b3480156104df57600080fd5b506104fa60048036038101906104f5919061342b565b61148d565b005b34801561050857600080fd5b50610511611553565b005b34801561051f57600080fd5b5061052861168d565b6040516105359190613ca6565b60405180910390f35b34801561054a57600080fd5b50610565600480360381019061056091906136f9565b6116b6565b6040516105729190613e79565b60405180910390f35b34801561058757600080fd5b506105a2600480360381019061059d91906136b9565b6116db565b005b3480156105b057600080fd5b506105cb60048036038101906105c69190613513565b6117d8565b6040516105d89190613dbc565b60405180910390f35b3480156105ed57600080fd5b506105f6611807565b6040516106039190613e79565b60405180910390f35b34801561061857600080fd5b50610633600480360381019061062e91906137de565b61180d565b6040516106409190613e79565b60405180910390f35b34801561065557600080fd5b50610670600480360381019061066b919061380b565b611830565b60405161067d9190613e79565b60405180910390f35b34801561069257600080fd5b5061069b611855565b6040516106a89190613e79565b60405180910390f35b3480156106bd57600080fd5b506106d860048036038101906106d391906138cb565b61185b565b005b3480156106e657600080fd5b5061070160048036038101906106fc91906137de565b611902565b005b34801561070f57600080fd5b5061072a600480360381019061072591906137de565b611988565b60405161073f99989796959493929190613cc1565b60405180910390f35b34801561075457600080fd5b5061075d611bab565b60405161076a9190613e79565b60405180910390f35b34801561077f57600080fd5b5061079a60048036038101906107959190613458565b611bb1565b005b3480156107a857600080fd5b506107c360048036038101906107be91906137de565b611de4565b005b3480156107d157600080fd5b506107ec60048036038101906107e791906137de565b611e6a565b6040516107f99190613e79565b60405180910390f35b34801561080e57600080fd5b50610829600480360381019061082491906138cb565b611e82565b005b34801561083757600080fd5b50610852600480360381019061084d91906139be565b611f29565b60405161085f9190613e79565b60405180910390f35b34801561087457600080fd5b5061088f600480360381019061088a9190613513565b611fa2565b60405161089c9190613dbc565b60405180910390f35b3480156108b157600080fd5b506108cc60048036038101906108c7919061342b565b612036565b005b3480156108da57600080fd5b506108f560048036038101906108f09190613622565b612106565b005b34801561090357600080fd5b5061091e600480360381019061091991906133fe565b6121ea565b005b34801561092c57600080fd5b506109476004803603810190610942919061388b565b612393565b005b610963600480360381019061095e919061392b565b612450565b005b60008073ffffffffffffffffffffffffffffffffffffffff168373ffffffffffffffffffffffffffffffffffffffff1614156109d6576040517f08c379a00000000000000000000000000000000000000000000000000000000081526004016109cd90613df9565b60405180910390fd5b600f600083815260200190815260200160002060008473ffffffffffffffffffffffffffffffffffffffff1673ffffffffffffffffffffffffffffffffffffffff16815260200190815260200160002054905092915050565b60007fd9b67a26000000000000000000000000000000000000000000000000000000007bffffffffffffffffffffffffffffffffffffffffffffffffffffffff1916827bffffffffffffffffffffffffffffffffffffffffffffffffffffffff19161480610afa57507f0e89341c000000000000000000000000000000000000000000000000000000007bffffffffffffffffffffffffffffffffffffffffffffffffffffffff1916827bffffffffffffffffffffffffffffffffffffffffffffffffffffffff1916145b80610b0a5750610b09826126bd565b5b9050919050565b826009600082815260200190815260200160002060009054906101000a900473ffffffffffffffffffffffffffffffffffffffff1673ffffffffffffffffffffffffffffffffffffffff163373ffffffffffffffffffffffffffffffffffffffff1614610b7d57600080fd5b828260088681548110610b9357610b926144a9565b5b90600052602060002090600902016002019190610bb1929190612ffa565b5050505050565b606060118054610bc790614370565b80601f0160208091040260200160405190810160405280929190818152602001828054610bf390614370565b8015610c405780601f10610c1557610100808354040283529160200191610c40565b820191906000526020600020905b815481529060010190602001808311610c2357829003601f168201915b50505050509050919050565b600a6020528060005260406000206000915090505481565b60096020528060005260406000206000915054906101000a900473ffffffffffffffffffffffffffffffffffffffff1681565b816009600082815260200190815260200160002060009054906101000a900473ffffffffffffffffffffffffffffffffffffffff1673ffffffffffffffffffffffffffffffffffffffff163373ffffffffffffffffffffffffffffffffffffffff1614610d0357600080fd5b8160088481548110610d1857610d176144a9565b5b906000526020600020906009020160000160006101000a81548173ffffffffffffffffffffffffffffffffffffffff021916908373ffffffffffffffffffffffffffffffffffffffff160217905550505050565b6000600880549050905090565b3373ffffffffffffffffffffffffffffffffffffffff168173ffffffffffffffffffffffffffffffffffffffff1614610db157600080fd5b6000610e1160088581548110610dca57610dc96144a9565b5b9060005260206000209060090201600501548460065460075460088981548110610df757610df66144a9565b5b906000526020600020906009020160060154600554611f29565b905080600e60008681526020019081526020016000206000828254610e369190614262565b925050819055508281610e4991906141d7565b60088581548110610e5d57610e5c6144a9565b5b9060005260206000209060090201600701819055506000606460015483610e849190614208565b610e8e91906141d7565b90508082610e9c9190614262565b9150610ea9838686612727565b8273ffffffffffffffffffffffffffffffffffffffff166108fc839081150290604051600060405180830381858888f19350505050158015610eef573d6000803e3d6000fd5b50610ef98161282a565b3373ffffffffffffffffffffffffffffffffffffffff167f54cfe3d51379e57c0d0a758083479e1c5f24f51b4e43c168a5ef964b262e52b68560088881548110610f4657610f456144a9565b5b9060005260206000209060090201600701548860088a81548110610f6d57610f6c6144a9565b5b906000526020600020906009020160010160088b81548110610f9257610f916144a9565b5b9060005260206000209060090201600201604051610fb4959493929190613fc4565b60405180910390a25050505050565b60005b83518110156110a9578573ffffffffffffffffffffffffffffffffffffffff163373ffffffffffffffffffffffffffffffffffffffff16148061100f575061100e8686611fa2565b5b61101857600080fd5b6110578685838151811061102f5761102e6144a9565b5b602002602001015185848151811061104a576110496144a9565b5b602002602001015161285f565b6110968585838151811061106e5761106d6144a9565b5b6020026020010151858481518110611089576110886144a9565b5b6020026020010151612932565b80806110a1906143d3565b915050610fc6565b508373ffffffffffffffffffffffffffffffffffffffff168573ffffffffffffffffffffffffffffffffffffffff163373ffffffffffffffffffffffffffffffffffffffff167f4a39dc06d4c0dbc64b70af90fd698a233a518aa5d07e595d983b8c0526c8f7fb8686604051611120929190613d85565b60405180910390a45050505050565b60008061113c8484611280565b905060006111498261180d565b9050600081836111599190614181565b905080935050505092915050565b606081518351146111ad576040517f08c379a00000000000000000000000000000000000000000000000000000000081526004016111a490613e59565b60405180910390fd5b6000835167ffffffffffffffff8111156111ca576111c96144d8565b5b6040519080825280602002602001820160405280156111f85781602001602082028036833780820191505090505b50905060005b84518110156112755761124585828151811061121d5761121c6144a9565b5b6020026020010151858381518110611238576112376144a9565b5b6020026020010151610965565b828281518110611258576112576144a9565b5b6020026020010181815250508061126e906143d3565b90506111fe565b508091505092915050565b6000806000905060006008858154811061129d5761129c6144a9565b5b9060005260206000209060090201600501549050600084826112bf9190614181565b9050600886815481106112d5576112d46144a9565b5b90600052602060002090600902016006015481101561132e57611327818660065460075460088b8154811061130d5761130c6144a9565b5b906000526020600020906009020160060154600554611f29565b9250611481565b60088681548110611342576113416144a9565b5b90600052602060002090600902016006015482101561146d576113e960088781548110611372576113716144a9565b5b9060005260206000209060090201600601548360088981548110611399576113986144a9565b5b9060005260206000209060090201600601546113b59190614262565b60065460075460088b815481106113cf576113ce6144a9565b5b906000526020600020906009020160060154600554611f29565b925061145b60088781548110611402576114016144a9565b5b9060005260206000209060090201600601548360088981548110611429576114286144a9565b5b9060005260206000209060090201600601546114459190614262565b876114509190614262565b600654600754612a05565b836114669190614181565b9250611480565b61147d8286600654600754612a05565b92505b5b82935050505092915050565b611495612a93565b73ffffffffffffffffffffffffffffffffffffffff166114b361168d565b73ffffffffffffffffffffffffffffffffffffffff1614611509576040517f08c379a000000000000000000000000000000000000000000000000000000000815260040161150090613e39565b60405180910390fd5b8073ffffffffffffffffffffffffffffffffffffffff166108fc479081150290604051600060405180830381858888f1935050505015801561154f573d6000803e3d6000fd5b5050565b61155b612a93565b73ffffffffffffffffffffffffffffffffffffffff1661157961168d565b73ffffffffffffffffffffffffffffffffffffffff16146115cf576040517f08c379a00000000000000000000000000000000000000000000000000000000081526004016115c690613e39565b60405180910390fd5b600073ffffffffffffffffffffffffffffffffffffffff1660008054906101000a900473ffffffffffffffffffffffffffffffffffffffff1673ffffffffffffffffffffffffffffffffffffffff167f8be0079c531659141344cd1fd0a4f28419497f9722a3daafe3b4186f6b6457e060405160405180910390a360008060006101000a81548173ffffffffffffffffffffffffffffffffffffffff021916908373ffffffffffffffffffffffffffffffffffffffff160217905550565b60008060009054906101000a900473ffffffffffffffffffffffffffffffffffffffff16905090565b600c602052816000526040600020602052806000526040600020600091509150505481565b80600d60003373ffffffffffffffffffffffffffffffffffffffff1673ffffffffffffffffffffffffffffffffffffffff16815260200190815260200160002060008473ffffffffffffffffffffffffffffffffffffffff1673ffffffffffffffffffffffffffffffffffffffff16815260200190815260200160002060006101000a81548160ff0219169083151502179055508173ffffffffffffffffffffffffffffffffffffffff163373ffffffffffffffffffffffffffffffffffffffff167f17307eab39ab6107e8899845ad3d59bd9653f200f220920489ca2b5937696c31836040516117cc9190613dbc565b60405180910390a35050565b600d6020528160005260406000206020528060005260406000206000915091509054906101000a900460ff1681565b60045481565b600060646001548361181f9190614208565b61182991906141d7565b9050919050565b600b602052816000526040600020602052806000526040600020600091509150505481565b60035481565b826009600082815260200190815260200160002060009054906101000a900473ffffffffffffffffffffffffffffffffffffffff1673ffffffffffffffffffffffffffffffffffffffff163373ffffffffffffffffffffffffffffffffffffffff16146118c757600080fd5b8282600886815481106118dd576118dc6144a9565b5b906000526020600020906009020160010191906118fb929190612ffa565b5050505050565b61190a612a93565b73ffffffffffffffffffffffffffffffffffffffff1661192861168d565b73ffffffffffffffffffffffffffffffffffffffff161461197e576040517f08c379a000000000000000000000000000000000000000000000000000000000815260040161197590613e39565b60405180910390fd5b8060058190555050565b6008818154811061199857600080fd5b90600052602060002090600902016000915090508060000160009054906101000a900473ffffffffffffffffffffffffffffffffffffffff16908060010180546119e190614370565b80601f0160208091040260200160405190810160405280929190818152602001828054611a0d90614370565b8015611a5a5780601f10611a2f57610100808354040283529160200191611a5a565b820191906000526020600020905b815481529060010190602001808311611a3d57829003601f168201915b505050505090806002018054611a6f90614370565b80601f0160208091040260200160405190810160405280929190818152602001828054611a9b90614370565b8015611ae85780601f10611abd57610100808354040283529160200191611ae8565b820191906000526020600020905b815481529060010190602001808311611acb57829003601f168201915b505050505090806003018054611afd90614370565b80601f0160208091040260200160405190810160405280929190818152602001828054611b2990614370565b8015611b765780601f10611b4b57610100808354040283529160200191611b76565b820191906000526020600020905b815481529060010190602001808311611b5957829003601f168201915b5050505050908060040160009054906101000a900460ff16908060050154908060060154908060070154908060080154905089565b60025481565b6000600880549050905060086040518061012001604052808773ffffffffffffffffffffffffffffffffffffffff16815260200186815260200185815260200184815260200160001515815260200160008152602001600081526020016000815260200183815250908060018154018082558091505060019003906000526020600020906009020160009091909190915060008201518160000160006101000a81548173ffffffffffffffffffffffffffffffffffffffff021916908373ffffffffffffffffffffffffffffffffffffffff1602179055506020820151816001019080519060200190611ca5929190613080565b506040820151816002019080519060200190611cc2929190613080565b506060820151816003019080519060200190611cdf929190613080565b5060808201518160040160006101000a81548160ff02191690831515021790555060a0820151816005015560c0820151816006015560e0820151816007015561010082015181600801555050846009600083815260200190815260200160002060006101000a81548173ffffffffffffffffffffffffffffffffffffffff021916908373ffffffffffffffffffffffffffffffffffffffff1602179055506000600a6000838152602001908152602001600020819055507f3ef624c0f3fb7ad40b94c02078ea3e3a797dbfc21e921ee4bd2b8ad0ca6aa11381868686866000806000604051611dd5989796959493929190613e94565b60405180910390a15050505050565b611dec612a93565b73ffffffffffffffffffffffffffffffffffffffff16611e0a61168d565b73ffffffffffffffffffffffffffffffffffffffff1614611e60576040517f08c379a0000000000000000000000000000000000000000000000000000000008152600401611e5790613e39565b60405180910390fd5b8060018190555050565b600e6020528060005260406000206000915090505481565b826009600082815260200190815260200160002060009054906101000a900473ffffffffffffffffffffffffffffffffffffffff1673ffffffffffffffffffffffffffffffffffffffff163373ffffffffffffffffffffffffffffffffffffffff1614611eee57600080fd5b828260088681548110611f0457611f036144a9565b5b90600052602060002090600902016003019190611f22929190612ffa565b5050505050565b600080600080611f3d8a8a8a8a8a8a612a9b565b9250925092506000838b1015611f6057611f5984848d85612b16565b9050611f91565b83821015611f7e57611f7784848d858d8d8d612bb9565b9050611f90565b611f8d84848d858d8d8d612cdb565b90505b5b809450505050509695505050505050565b6000600d60008473ffffffffffffffffffffffffffffffffffffffff1673ffffffffffffffffffffffffffffffffffffffff16815260200190815260200160002060008373ffffffffffffffffffffffffffffffffffffffff1673ffffffffffffffffffffffffffffffffffffffff16815260200190815260200160002060009054906101000a900460ff16905092915050565b61203e612a93565b73ffffffffffffffffffffffffffffffffffffffff1661205c61168d565b73ffffffffffffffffffffffffffffffffffffffff16146120b2576040517f08c379a00000000000000000000000000000000000000000000000000000000081526004016120a990613e39565b60405180910390fd5b8073ffffffffffffffffffffffffffffffffffffffff166108fc6003549081150290604051600060405180830381858888f193505050501580156120fa573d6000803e3d6000fd5b50600060038190555050565b8473ffffffffffffffffffffffffffffffffffffffff163373ffffffffffffffffffffffffffffffffffffffff16148061214657506121458585611fa2565b5b61214f57600080fd5b61215a85848461285f565b612165848484612932565b8373ffffffffffffffffffffffffffffffffffffffff168573ffffffffffffffffffffffffffffffffffffffff163373ffffffffffffffffffffffffffffffffffffffff167fc3d58168c5ae7397731d063d5bbf3d657854427343f4c083240f7aacaa2d0f6286866040516121db929190613f27565b60405180910390a45050505050565b6121f2612a93565b73ffffffffffffffffffffffffffffffffffffffff1661221061168d565b73ffffffffffffffffffffffffffffffffffffffff1614612266576040517f08c379a000000000000000000000000000000000000000000000000000000000815260040161225d90613e39565b60405180910390fd5b600073ffffffffffffffffffffffffffffffffffffffff168173ffffffffffffffffffffffffffffffffffffffff1614156122d6576040517f08c379a00000000000000000000000000000000000000000000000000000000081526004016122cd90613e19565b60405180910390fd5b8073ffffffffffffffffffffffffffffffffffffffff1660008054906101000a900473ffffffffffffffffffffffffffffffffffffffff1673ffffffffffffffffffffffffffffffffffffffff167f8be0079c531659141344cd1fd0a4f28419497f9722a3daafe3b4186f6b6457e060405160405180910390a3806000806101000a81548173ffffffffffffffffffffffffffffffffffffffff021916908373ffffffffffffffffffffffffffffffffffffffff16021790555050565b61239b612a93565b73ffffffffffffffffffffffffffffffffffffffff166123b961168d565b73ffffffffffffffffffffffffffffffffffffffff161461240f576040517f08c379a000000000000000000000000000000000000000000000000000000000815260040161240690613e39565b60405180910390fd5b8060088381548110612424576124236144a9565b5b906000526020600020906009020160040160006101000a81548160ff0219169083151502179055505050565b600061245c838361112f565b905080341461246a57600080fd5b60006124768484611280565b905080600e6000868152602001908152602001600020600082825461249b9190614181565b925050819055506124b36124ae8261180d565b61282a565b6124ce33858560405180602001604052806000815250612dd9565b82816124da91906141d7565b600885815481106124ee576124ed6144a9565b5b9060005260206000209060090201600701819055503373ffffffffffffffffffffffffffffffffffffffff167f54cfe3d51379e57c0d0a758083479e1c5f24f51b4e43c168a5ef964b262e52b684600887815481106125505761254f6144a9565b5b9060005260206000209060090201600701548760088981548110612577576125766144a9565b5b906000526020600020906009020160010160088a8154811061259c5761259b6144a9565b5b90600052602060002090600902016002016040516125be959493929190613f50565b60405180910390a2600884815481106125da576125d96144a9565b5b90600052602060002090600902016006015460088581548110612600576125ff6144a9565b5b90600052602060002090600902016005015411156126b7576008848154811061262c5761262b6144a9565b5b90600052602060002090600902016005015460088581548110612652576126516144a9565b5b9060005260206000209060090201600601819055506126b6846008868154811061267f5761267e6144a9565b5b906000526020600020906009020160000160009054906101000a900473ffffffffffffffffffffffffffffffffffffffff16612ea5565b5b50505050565b60007f01ffc9a7000000000000000000000000000000000000000000000000000000007bffffffffffffffffffffffffffffffffffffffffffffffffffffffff1916827bffffffffffffffffffffffffffffffffffffffffffffffffffffffff1916149050919050565b8273ffffffffffffffffffffffffffffffffffffffff163373ffffffffffffffffffffffffffffffffffffffff161461275f57600080fd5b61276a83838361285f565b806008838154811061277f5761277e6144a9565b5b9060005260206000209060090201600501600082825461279f9190614262565b92505081905550600073ffffffffffffffffffffffffffffffffffffffff168373ffffffffffffffffffffffffffffffffffffffff163373ffffffffffffffffffffffffffffffffffffffff167fc3d58168c5ae7397731d063d5bbf3d657854427343f4c083240f7aacaa2d0f62858560405161281d929190613f27565b60405180910390a4505050565b806002600082825461283c9190614181565b9250508190555080600360008282546128559190614181565b9250508190555050565b80600b600084815260200190815260200160002060008573ffffffffffffffffffffffffffffffffffffffff1673ffffffffffffffffffffffffffffffffffffffff16815260200190815260200160002060008282546128bf9190614262565b9250508190555080600c60008573ffffffffffffffffffffffffffffffffffffffff1673ffffffffffffffffffffffffffffffffffffffff168152602001908152602001600020600084815260200190815260200160002060008282546129269190614262565b92505081905550505050565b80600b600084815260200190815260200160002060008573ffffffffffffffffffffffffffffffffffffffff1673ffffffffffffffffffffffffffffffffffffffff16815260200190815260200160002060008282546129929190614181565b9250508190555080600c60008573ffffffffffffffffffffffffffffffffffffffff1673ffffffffffffffffffffffffffffffffffffffff168152602001908152602001600020600084815260200190815260200160002060008282546129f99190614181565b92505081905550505050565b6000808486612a149190614181565b90506000838786612a259190614208565b612a2f91906141d7565b90506000848387612a409190614208565b612a4a91906141d7565b905060008884612a5a9190614262565b905060006002828486612a6d9190614181565b612a779190614208565b612a8191906141d7565b90508095505050505050949350505050565b600033905090565b600080600080600286612aae91906141d7565b9050600087896064886032612ac39190614262565b8a612ace9190614208565b612ad891906141d7565b612ae29190614208565b612aec91906141d7565b905060008a8c612afc9190614262565b905082828295509550955050505096509650969350505050565b6000808286612b259190614262565b8686612b3191906141d7565b612b3b9190614208565b85612b469190614262565b905060008487612b569190614262565b8787612b6291906141d7565b612b6c9190614208565b86612b779190614262565b905060008486612b879190614262565b90506002818385612b989190614181565b612ba29190614208565b612bac91906141d7565b9350505050949350505050565b6000808589612bc89190614262565b8989612bd491906141d7565b612bde9190614208565b88612be99190614262565b905060008890506000878b612bfe9190614262565b905060006002828486612c119190614181565b612c1b9190614208565b612c2591906141d7565b905060008b8d8c612c369190614262565b8e89612c429190614262565b8e8b8b8e612c509190614208565b612c5a91906141d7565b612c649190614262565b612c6e91906141d7565b612c789190614208565b612c829190614181565b905060008d8c612c929190614262565b905060006002828488612ca59190614181565b612caf9190614208565b612cb991906141d7565b90508084612cc79190614181565b975050505050505050979650505050505050565b600080878987612ceb9190614262565b8a85612cf79190614262565b8a87878a612d059190614208565b612d0f91906141d7565b612d199190614262565b612d2391906141d7565b612d2d9190614208565b612d379190614181565b90506000888a89612d489190614262565b8b86612d549190614262565b8b88888b612d629190614208565b612d6c91906141d7565b612d769190614262565b612d8091906141d7565b612d8a9190614208565b612d949190614181565b905060008789612da49190614262565b90506002818385612db59190614181565b612dbf9190614208565b612dc991906141d7565b9350505050979650505050505050565b612de4848484612932565b8160088481548110612df957612df86144a9565b5b90600052602060002090600902016005016000828254612e199190614181565b925050819055508373ffffffffffffffffffffffffffffffffffffffff16600073ffffffffffffffffffffffffffffffffffffffff163373ffffffffffffffffffffffffffffffffffffffff167fc3d58168c5ae7397731d063d5bbf3d657854427343f4c083240f7aacaa2d0f628686604051612e97929190613f27565b60405180910390a450505050565b6000600a60008481526020019081526020016000205490506000612f4260088581548110612ed657612ed56144a9565b5b90600052602060002090600902016006015460088681548110612efc57612efb6144a9565b5b90600052602060002090600902016006015460065460075460088981548110612f2857612f276144a9565b5b906000526020600020906009020160060154600554611f29565b612f78600060088781548110612f5b57612f5a6144a9565b5b906000526020600020906009020160060154600654600754612a05565b612f829190614262565b905060008282612f929190614262565b90508373ffffffffffffffffffffffffffffffffffffffff166108fc829081150290604051600060405180830381858888f19350505050158015612fda573d6000803e3d6000fd5b5081600a6000878152602001908152602001600020819055505050505050565b82805461300690614370565b90600052602060002090601f016020900481019282613028576000855561306f565b82601f1061304157803560ff191683800117855561306f565b8280016001018555821561306f579182015b8281111561306e578235825591602001919060010190613053565b5b50905061307c9190613106565b5090565b82805461308c90614370565b90600052602060002090601f0160209004810192826130ae57600085556130f5565b82601f106130c757805160ff19168380011785556130f5565b828001600101855582156130f5579182015b828111156130f45782518255916020019190600101906130d9565b5b5090506131029190613106565b5090565b5b8082111561311f576000816000905550600101613107565b5090565b60006131366131318461405d565b614038565b9050808382526020820190508285602086028201111561315957613158614511565b5b60005b85811015613189578161316f8882613287565b84526020840193506020830192505060018101905061315c565b5050509392505050565b60006131a66131a184614089565b614038565b905080838252602082019050828560208602820111156131c9576131c8614511565b5b60005b858110156131f957816131df88826133e9565b8452602084019350602083019250506001810190506131cc565b5050509392505050565b6000613216613211846140b5565b614038565b90508281526020810184848401111561323257613231614516565b5b61323d84828561432e565b509392505050565b6000613258613253846140e6565b614038565b90508281526020810184848401111561327457613273614516565b5b61327f84828561432e565b509392505050565b6000813590506132968161469e565b92915050565b6000813590506132ab816146b5565b92915050565b600082601f8301126132c6576132c561450c565b5b81356132d6848260208601613123565b91505092915050565b600082601f8301126132f4576132f361450c565b5b8135613304848260208601613193565b91505092915050565b60008135905061331c816146cc565b92915050565b600081359050613331816146e3565b92915050565b600082601f83011261334c5761334b61450c565b5b813561335c848260208601613203565b91505092915050565b60008083601f84011261337b5761337a61450c565b5b8235905067ffffffffffffffff81111561339857613397614507565b5b6020830191508360018202830111156133b4576133b3614511565b5b9250929050565b600082601f8301126133d0576133cf61450c565b5b81356133e0848260208601613245565b91505092915050565b6000813590506133f8816146fa565b92915050565b60006020828403121561341457613413614520565b5b600061342284828501613287565b91505092915050565b60006020828403121561344157613440614520565b5b600061344f8482850161329c565b91505092915050565b6000806000806080858703121561347257613471614520565b5b60006134808782880161329c565b945050602085013567ffffffffffffffff8111156134a1576134a061451b565b5b6134ad878288016133bb565b935050604085013567ffffffffffffffff8111156134ce576134cd61451b565b5b6134da878288016133bb565b925050606085013567ffffffffffffffff8111156134fb576134fa61451b565b5b613507878288016133bb565b91505092959194509250565b6000806040838503121561352a57613529614520565b5b600061353885828601613287565b925050602061354985828601613287565b9150509250929050565b600080600080600060a0868803121561356f5761356e614520565b5b600061357d88828901613287565b955050602061358e88828901613287565b945050604086013567ffffffffffffffff8111156135af576135ae61451b565b5b6135bb888289016132df565b935050606086013567ffffffffffffffff8111156135dc576135db61451b565b5b6135e8888289016132df565b925050608086013567ffffffffffffffff8111156136095761360861451b565b5b61361588828901613337565b9150509295509295909350565b600080600080600060a0868803121561363e5761363d614520565b5b600061364c88828901613287565b955050602061365d88828901613287565b945050604061366e888289016133e9565b935050606061367f888289016133e9565b925050608086013567ffffffffffffffff8111156136a05761369f61451b565b5b6136ac88828901613337565b9150509295509295909350565b600080604083850312156136d0576136cf614520565b5b60006136de85828601613287565b92505060206136ef8582860161330d565b9150509250929050565b600080604083850312156137105761370f614520565b5b600061371e85828601613287565b925050602061372f858286016133e9565b9150509250929050565b600080604083850312156137505761374f614520565b5b600083013567ffffffffffffffff81111561376e5761376d61451b565b5b61377a858286016132b1565b925050602083013567ffffffffffffffff81111561379b5761379a61451b565b5b6137a7858286016132df565b9150509250929050565b6000602082840312156137c7576137c6614520565b5b60006137d584828501613322565b91505092915050565b6000602082840312156137f4576137f3614520565b5b6000613802848285016133e9565b91505092915050565b6000806040838503121561382257613821614520565b5b6000613830858286016133e9565b925050602061384185828601613287565b9150509250929050565b6000806040838503121561386257613861614520565b5b6000613870858286016133e9565b92505060206138818582860161329c565b9150509250929050565b600080604083850312156138a2576138a1614520565b5b60006138b0858286016133e9565b92505060206138c18582860161330d565b9150509250929050565b6000806000604084860312156138e4576138e3614520565b5b60006138f2868287016133e9565b935050602084013567ffffffffffffffff8111156139135761391261451b565b5b61391f86828701613365565b92509250509250925092565b6000806040838503121561394257613941614520565b5b6000613950858286016133e9565b9250506020613961858286016133e9565b9150509250929050565b60008060006060848603121561398457613983614520565b5b6000613992868287016133e9565b93505060206139a3868287016133e9565b92505060406139b48682870161329c565b9150509250925092565b60008060008060008060c087890312156139db576139da614520565b5b60006139e989828a016133e9565b96505060206139fa89828a016133e9565b9550506040613a0b89828a016133e9565b9450506060613a1c89828a016133e9565b9350506080613a2d89828a016133e9565b92505060a0613a3e89828a016133e9565b9150509295509295509295565b6000613a578383613c88565b60208301905092915050565b613a6c816142a8565b82525050565b613a7b81614296565b82525050565b6000613a8c8261413c565b613a96818561415f565b9350613aa183614117565b8060005b83811015613ad2578151613ab98882613a4b565b9750613ac483614152565b925050600181019050613aa5565b5085935050505092915050565b613ae8816142ba565b82525050565b613af78161431c565b82525050565b6000613b0882614147565b613b128185614170565b9350613b2281856020860161433d565b613b2b81614525565b840191505092915050565b60008154613b4381614370565b613b4d8186614170565b94506001821660008114613b685760018114613b7a57613bad565b60ff1983168652602086019350613bad565b613b8385614127565b60005b83811015613ba557815481890152600182019150602081019050613b86565b808801955050505b50505092915050565b6000613bc3602b83614170565b9150613bce82614536565b604082019050919050565b6000613be6602683614170565b9150613bf182614585565b604082019050919050565b6000613c09600383614170565b9150613c14826145d4565b602082019050919050565b6000613c2c602083614170565b9150613c37826145fd565b602082019050919050565b6000613c4f602983614170565b9150613c5a82614626565b604082019050919050565b6000613c72600483614170565b9150613c7d82614675565b602082019050919050565b613c9181614312565b82525050565b613ca081614312565b82525050565b6000602082019050613cbb6000830184613a72565b92915050565b600061012082019050613cd7600083018c613a63565b8181036020830152613ce9818b613afd565b90508181036040830152613cfd818a613afd565b90508181036060830152613d118189613afd565b9050613d206080830188613adf565b613d2d60a0830187613c97565b613d3a60c0830186613c97565b613d4760e0830185613c97565b613d55610100830184613c97565b9a9950505050505050505050565b60006020820190508181036000830152613d7d8184613a81565b905092915050565b60006040820190508181036000830152613d9f8185613a81565b90508181036020830152613db38184613a81565b90509392505050565b6000602082019050613dd16000830184613adf565b92915050565b60006020820190508181036000830152613df18184613afd565b905092915050565b60006020820190508181036000830152613e1281613bb6565b9050919050565b60006020820190508181036000830152613e3281613bd9565b9050919050565b60006020820190508181036000830152613e5281613c1f565b9050919050565b60006020820190508181036000830152613e7281613c42565b9050919050565b6000602082019050613e8e6000830184613c97565b92915050565b600061010082019050613eaa600083018b613c97565b613eb7602083018a613a63565b8181036040830152613ec98189613afd565b90508181036060830152613edd8188613afd565b90508181036080830152613ef18187613afd565b9050613f0060a0830186613adf565b613f0d60c0830185613aee565b613f1a60e0830184613aee565b9998505050505050505050565b6000604082019050613f3c6000830185613c97565b613f496020830184613c97565b9392505050565b600060c082019050613f656000830188613c97565b613f726020830187613c97565b8181036040830152613f8381613bfc565b9050613f926060830186613c97565b8181036080830152613fa48185613b36565b905081810360a0830152613fb88184613b36565b90509695505050505050565b600060c082019050613fd96000830188613c97565b613fe66020830187613c97565b8181036040830152613ff781613c65565b90506140066060830186613c97565b81810360808301526140188185613b36565b905081810360a083015261402c8184613b36565b90509695505050505050565b6000614042614053565b905061404e82826143a2565b919050565b6000604051905090565b600067ffffffffffffffff821115614078576140776144d8565b5b602082029050602081019050919050565b600067ffffffffffffffff8211156140a4576140a36144d8565b5b602082029050602081019050919050565b600067ffffffffffffffff8211156140d0576140cf6144d8565b5b6140d982614525565b9050602081019050919050565b600067ffffffffffffffff821115614101576141006144d8565b5b61410a82614525565b9050602081019050919050565b6000819050602082019050919050565b60008190508160005260206000209050919050565b600081519050919050565b600081519050919050565b6000602082019050919050565b600082825260208201905092915050565b600082825260208201905092915050565b600061418c82614312565b915061419783614312565b9250827fffffffffffffffffffffffffffffffffffffffffffffffffffffffffffffffff038211156141cc576141cb61441c565b5b828201905092915050565b60006141e282614312565b91506141ed83614312565b9250826141fd576141fc61444b565b5b828204905092915050565b600061421382614312565b915061421e83614312565b9250817fffffffffffffffffffffffffffffffffffffffffffffffffffffffffffffffff04831182151516156142575761425661441c565b5b828202905092915050565b600061426d82614312565b915061427883614312565b92508282101561428b5761428a61441c565b5b828203905092915050565b60006142a1826142f2565b9050919050565b60006142b3826142f2565b9050919050565b60008115159050919050565b60007fffffffff0000000000000000000000000000000000000000000000000000000082169050919050565b600073ffffffffffffffffffffffffffffffffffffffff82169050919050565b6000819050919050565b600061432782614312565b9050919050565b82818337600083830152505050565b60005b8381101561435b578082015181840152602081019050614340565b8381111561436a576000848401525b50505050565b6000600282049050600182168061438857607f821691505b6020821081141561439c5761439b61447a565b5b50919050565b6143ab82614525565b810181811067ffffffffffffffff821117156143ca576143c96144d8565b5b80604052505050565b60006143de82614312565b91507fffffffffffffffffffffffffffffffffffffffffffffffffffffffffffffffff8214156144115761441061441c565b5b600182019050919050565b7f4e487b7100000000000000000000000000000000000000000000000000000000600052601160045260246000fd5b7f4e487b7100000000000000000000000000000000000000000000000000000000600052601260045260246000fd5b7f4e487b7100000000000000000000000000000000000000000000000000000000600052602260045260246000fd5b7f4e487b7100000000000000000000000000000000000000000000000000000000600052603260045260246000fd5b7f4e487b7100000000000000000000000000000000000000000000000000000000600052604160045260246000fd5b600080fd5b600080fd5b600080fd5b600080fd5b600080fd5b600080fd5b6000601f19601f8301169050919050565b7f455243313135353a2062616c616e636520717565727920666f7220746865207a60008201527f65726f2061646472657373000000000000000000000000000000000000000000602082015250565b7f4f776e61626c653a206e6577206f776e657220697320746865207a65726f206160008201527f6464726573730000000000000000000000000000000000000000000000000000602082015250565b7f6275790000000000000000000000000000000000000000000000000000000000600082015250565b7f4f776e61626c653a2063616c6c6572206973206e6f7420746865206f776e6572600082015250565b7f455243313135353a206163636f756e747320616e6420696473206c656e67746860008201527f206d69736d617463680000000000000000000000000000000000000000000000602082015250565b7f73656c6c00000000000000000000000000000000000000000000000000000000600082015250565b6146a781614296565b81146146b257600080fd5b50565b6146be816142a8565b81146146c957600080fd5b50565b6146d5816142ba565b81146146e057600080fd5b50565b6146ec816142c6565b81146146f757600080fd5b50565b61470381614312565b811461470e57600080fd5b5056fea26469706673582212201cdda2ad3ec41c5f1a96541b0db0b4a185e78dc5b627a7e1557b3fbbd6ad0f3064736f6c63430008070033",
  "immutableReferences": {},
  "source": "// SPDX-License-Identifier: MIT\npragma solidity ^0.8.0;\n\nimport \"./creatortokencomputation.sol\";\n\n/// @title Implements high-level buy and sell functions (which users invoke when transacting)\n/// @author Kamil Alizai Sadik\ncontract CreatorTokenExchange is CreatorTokenComputation {\n\n\tconstructor(string memory uri) CreatorTokenComputation(uri) { }\n\n\t// Event that fires when a new transaction occurs\n\tevent NewTransaction(address indexed account, uint amount, uint price, string transactionType, uint tokenId, string name, string symbol);\n\n\t/// @dev Allows user to buy a given CreatorToken from the platform\n\t/// @param _tokenId ID of the token being transacted\n\t/// @param _amount Quantity of the token being transacted\n\tfunction buyCreatorToken(uint _tokenId, uint _amount) external payable {\n\t\t// Compute total transaction proceeds required (inclusive of fee)\n\t\tuint totalProceeds = _totalProceeds(_tokenId, _amount);\n\t\t// Require that user sends totalProceeds in order to transact\n\t\trequire(msg.value == totalProceeds);\n\t\t// Compute buy proceeds\n\t\tuint netProceeds = _buyProceeds(_tokenId, _amount);\n\t\t// Update totalValueLocked mapping\n\t\ttotalValueLocked[_tokenId] += netProceeds;\n\t\t// Update platform fee total\n\t\t_platformFeeUpdater(_feeProceeds(netProceeds));\n\t\t// Mint _amount tokens at the user's address (note this increases token amount outstanding)\n\t\t_mint(msg.sender, _tokenId, _amount, \"\");\n\t\t// Update lastPrice at which token has traded\n\t\tcreatorTokens[_tokenId].lastPrice = netProceeds/_amount;\n\t\t// Emit new transaction event\n\t\temit NewTransaction(msg.sender, _amount, creatorTokens[_tokenId].lastPrice, \"buy\", _tokenId, creatorTokens[_tokenId].name, creatorTokens[_tokenId].symbol);\n\t\t// Check if new outstanding amount of token is greater than maxSupply\n\t\tif (creatorTokens[_tokenId].outstanding > creatorTokens[_tokenId].maxSupply) {\n\t\t\t// Update maxSupply\n\t\t\tcreatorTokens[_tokenId].maxSupply = creatorTokens[_tokenId].outstanding;\n\t\t\t// Call _payout to transfer excess liquidity\n\t\t\t_payCreator(_tokenId, creatorTokens[_tokenId].creatorAddress);\n\t\t}\n\t}\n\n\t/// @dev Allows user to sell a given CreatorToken back to the platform\n\t/// @param _tokenId ID of the token being transacted\n\t/// @param _amount Quantity of the token being transacted\n\t/// @param _seller Wallet address of user selling the token\n\tfunction sellCreatorToken(uint _tokenId, uint _amount, address payable _seller) external payable {\n\t\t// Require that user calling function is selling own tokens\n\t\trequire(_seller == msg.sender);\n\t\t// Compute sale proceeds required\n\t\tuint proceedsRequired = _saleFunction(creatorTokens[_tokenId].outstanding, _amount, mNumerator, mDenominator, creatorTokens[_tokenId].maxSupply, profitMargin);\n\t\t// Update totalValueLocked mapping\n\t\ttotalValueLocked[_tokenId] -= proceedsRequired;\n\t\t// Update lastPrice at which token has traded\n\t\tcreatorTokens[_tokenId].lastPrice = proceedsRequired/_amount;\n\t\t// Compute fee\n\t\tuint fee = proceedsRequired*platformFee/100;\n\t\t// Add platform fee to obtain real proceedsRequired value\n\t\tproceedsRequired -= fee;\n\t\t// Burn _amount tokens from user's address (note this decreases token amount outstanding)\n\t\t_burn(_seller, _tokenId, _amount);\n\t\t// Send user proceedsRequired wei (less the platform fee) in exchange for the burned tokens\n\t\t_seller.transfer(proceedsRequired); //1500000000000000000); //\n\t\t// Update platform fee total\n\t\t_platformFeeUpdater(fee);\n\t\t// Emit new transaction event\n\t\temit NewTransaction(msg.sender, _amount, creatorTokens[_tokenId].lastPrice, \"sell\", _tokenId, creatorTokens[_tokenId].name, creatorTokens[_tokenId].symbol);\n\t}\n}\n",
  "sourcePath": "/Users/kamilalizaisadik/DeFi/Dynamic Automated Market Maker/CreatorTokenExchange/contracts/CreatorTokenExchange.sol",
  "compiler": {
    "name": "solc",
    "version": "0.8.7+commit.e28d00a7.Emscripten.clang"
  },
  "schemaVersion": "3.4.1",
  "updatedAt": "2021-08-17T01:17:03.307Z",
  "networkType": "ethereum",
  "devdoc": {
    "author": "Kamil Alizai Sadik",
    "kind": "dev",
    "methods": {
      "_buyProceeds(uint256,uint256)": {
        "details": "Calculates proceeds required for a given buy transaction (not including fees)",
        "params": {
          "_amount": "Quantity of the token being transacted",
          "_tokenId": "ID of the token being transacted"
        },
        "returns": {
          "_0": "Proceeds required in the transaction (before fees)"
        }
      },
      "_feeProceeds(uint256)": {
        "details": "Calculates the fee associated with a buy transaction",
        "params": {
          "_proceedsRequired": "The proceeds required for the buy transaction (before addition of fees)"
        },
        "returns": {
          "_0": "Fee associated with transaction"
        }
      },
      "_saleFunction(uint256,uint256,uint256,uint256,uint256,uint256)": {
        "details": "Calculates area under sale price function",
        "params": {
          "_amount": "Amount of token being transacted",
          "_mDenominator": "Denominator of the slope of the buy price function",
          "_mNumerator": "Numerator of the slope of the buy price function",
          "_maxSupply": "Peak level of supply of the token to date",
          "_profitMargin": "percentage of total revenue generated routed to creator",
          "_startingSupply": "Supply of token in circulation before the transaction"
        },
        "returns": {
          "_0": "Area under sale price function denoting total proceeds received when selling _amount tokens (before fees)"
        }
      },
      "_totalProceeds(uint256,uint256)": {
        "details": "Calculates total transaction proceeds",
        "params": {
          "_amount": "Quantity of the token being transacted",
          "_tokenId": "ID of the token being transacted"
        },
        "returns": {
          "_0": "Total proceeds required in transaction"
        }
      },
      "balanceOf(address,uint256)": {
        "details": "See {IERC1155-balanceOf}. Requirements: - `account` cannot be the zero address."
      },
      "balanceOfBatch(address[],uint256[])": {
        "details": "See {IERC1155-balanceOfBatch}. Requirements: - `accounts` and `ids` must have the same length."
      },
      "buyCreatorToken(uint256,uint256)": {
        "details": "Allows user to buy a given CreatorToken from the platform",
        "params": {
          "_amount": "Quantity of the token being transacted",
          "_tokenId": "ID of the token being transacted"
        }
      },
      "changeAddress(uint256,address)": {
        "details": "Allows token creator to change their address",
        "params": {
          "_newCreatorAddress": "New creator address associated with the token",
          "_tokenId": "ID of the token in question"
        }
      },
      "changeDescription(uint256,string)": {
        "details": "Allows token creator to change the description of their token",
        "params": {
          "_newDescription": "New description associated with the token",
          "_tokenId": "ID of the token in question"
        }
      },
      "changeName(uint256,string)": {
        "details": "Allows token creator to change the name of their token",
        "params": {
          "_newName": "New name associated with the token",
          "_tokenId": "ID of the token in question"
        }
      },
      "changePlatformFee(uint256)": {
        "details": "Allows owner to change platformFee",
        "params": {
          "_newPlatformFee": "New platform fee"
        }
      },
      "changeProfitMargin(uint256)": {
        "details": "Allows owner to change profit_margin",
        "params": {
          "_newProfitMargin": "New profit margin"
        }
      },
      "changeSymbol(uint256,string)": {
        "details": "Allows token creator to change the symbol of their token",
        "params": {
          "_newSymbol": "New symbol associated with the token",
          "_tokenId": "ID of the token in question"
        }
      },
      "changeVerification(uint256,bool)": {
        "details": "Allows owner to verify (or undo verification) of a CreatorToken",
        "params": {
          "_tokenId": "ID of the token in question",
          "_verified": "Verification status of the token in question"
        }
      },
      "createCreatorToken(address,string,string,string)": {
        "details": "Creates a new creator token",
        "params": {
          "_creatorAddress": "Address of the creator of the token",
          "_description": "chosen by the creator of the tokens",
          "_name": "Name chosen by the creator of the token",
          "_symbol": "Ticker symbol chosen by the creator of the token"
        }
      },
      "getCreatorTokenCount()": {
        "details": "Returns the current length of the creatorTokens array",
        "returns": {
          "_0": "uint representing number of unique Creator Tokens"
        }
      },
      "isApprovedForAll(address,address)": {
        "details": "Denotes whether operator is approved to transfer account's tokens",
        "params": {
          "_account": "Wallet address holding tokens",
          "_operator": "Wallet address which is/isn't approved to transfer _account's tokens"
        },
        "returns": {
          "_0": "Boolean value indicating approval status"
        }
      },
      "owner()": {
        "details": "Returns the address of the current owner."
      },
      "payoutPlatformFees(address)": {
        "details": "Pays out platform fees owed to owner (might opt to call this daily)",
        "params": {
          "_owner": "Owner of the smart contract"
        }
      },
      "renounceOwnership()": {
        "details": "Leaves the contract without owner. It will not be possible to call `onlyOwner` functions anymore. Can only be called by the current owner. NOTE: Renouncing ownership will leave the contract without an owner, thereby removing any functionality that is only available to the owner."
      },
      "safeBatchTransferFrom(address,address,uint256[],uint256[],bytes)": {
        "details": "Transfers a batch of tokens",
        "params": {
          "_amounts": "Array of quantities of token to be transferred",
          "_data": "Data",
          "_from": "Address token is being transferred from",
          "_ids": "Array of IDs of tokens being transferred",
          "_to": "Address token is being transferred to"
        }
      },
      "safeTransferFrom(address,address,uint256,uint256,bytes)": {
        "details": "Transfers a token",
        "params": {
          "_amount": "Quantity of token to be transferred",
          "_data": "Data",
          "_from": "Address token is being transferred from",
          "_id": "ID of token being transferred",
          "_to": "Address token is being transferred to"
        }
      },
      "sellCreatorToken(uint256,uint256,address)": {
        "details": "Allows user to sell a given CreatorToken back to the platform",
        "params": {
          "_amount": "Quantity of the token being transacted",
          "_seller": "Wallet address of user selling the token",
          "_tokenId": "ID of the token being transacted"
        }
      },
      "setApprovalForAll(address,bool)": {
        "details": "Gives operator permission to transfer caller's tokens",
        "params": {
          "_approved": "Boolean value indicating whether operator is approved",
          "_operator": "Wallet address being granted permission"
        }
      },
      "supportsInterface(bytes4)": {
        "details": "See {IERC165-supportsInterface}."
      },
      "transferOwnership(address)": {
        "details": "Transfers ownership of the contract to a new account (`newOwner`). Can only be called by the current owner."
      },
      "uri(uint256)": {
        "details": "See {IERC1155MetadataURI-uri}. This implementation returns the same URI for *all* token types. It relies on the token type ID substitution mechanism https://eips.ethereum.org/EIPS/eip-1155#metadata[defined in the EIP]. Clients calling this function must replace the `\\{id\\}` substring with the actual token type ID."
      },
      "withdraw(address)": {
        "details": "Ownable function allowing for withdrawal",
        "params": {
          "_owner": "Owner of the smart contract"
        }
      }
    },
    "title": "Implements high-level buy and sell functions (which users invoke when transacting)",
    "version": 1
  },
  "userdoc": {
    "kind": "user",
    "methods": {},
    "version": 1
  }
}