{
  "contractName": "CreatorTokenComputation",
  "abi": [
    {
      "inputs": [
        {
          "internalType": "string",
          "name": "uri",
          "type": "string"
        }
      ],
      "stateMutability": "nonpayable",
      "type": "constructor"
    },
    {
      "anonymous": false,
      "inputs": [
        {
          "indexed": true,
          "internalType": "address",
          "name": "account",
          "type": "address"
        },
        {
          "indexed": true,
          "internalType": "address",
          "name": "operator",
          "type": "address"
        },
        {
          "indexed": false,
          "internalType": "bool",
          "name": "approved",
          "type": "bool"
        }
      ],
      "name": "ApprovalForAll",
      "type": "event"
    },
    {
      "anonymous": false,
      "inputs": [
        {
          "indexed": false,
          "internalType": "uint256",
          "name": "tokenId",
          "type": "uint256"
        },
        {
          "indexed": false,
          "internalType": "address payable",
          "name": "creatorAddress",
          "type": "address"
        },
        {
          "indexed": false,
          "internalType": "string",
          "name": "name",
          "type": "string"
        },
        {
          "indexed": false,
          "internalType": "string",
          "name": "symbol",
          "type": "string"
        },
        {
          "indexed": false,
          "internalType": "string",
          "name": "description",
          "type": "string"
        },
        {
          "indexed": false,
          "internalType": "bool",
          "name": "verified",
          "type": "bool"
        },
        {
          "indexed": false,
          "internalType": "uint256",
          "name": "outstanding",
          "type": "uint256"
        },
        {
          "indexed": false,
          "internalType": "uint256",
          "name": "maxSupply",
          "type": "uint256"
        }
      ],
      "name": "NewCreatorToken",
      "type": "event"
    },
    {
      "anonymous": false,
      "inputs": [
        {
          "indexed": true,
          "internalType": "address",
          "name": "previousOwner",
          "type": "address"
        },
        {
          "indexed": true,
          "internalType": "address",
          "name": "newOwner",
          "type": "address"
        }
      ],
      "name": "OwnershipTransferred",
      "type": "event"
    },
    {
      "anonymous": false,
      "inputs": [
        {
          "indexed": true,
          "internalType": "address",
          "name": "operator",
          "type": "address"
        },
        {
          "indexed": true,
          "internalType": "address",
          "name": "from",
          "type": "address"
        },
        {
          "indexed": true,
          "internalType": "address",
          "name": "to",
          "type": "address"
        },
        {
          "indexed": false,
          "internalType": "uint256[]",
          "name": "ids",
          "type": "uint256[]"
        },
        {
          "indexed": false,
          "internalType": "uint256[]",
          "name": "values",
          "type": "uint256[]"
        }
      ],
      "name": "TransferBatch",
      "type": "event"
    },
    {
      "anonymous": false,
      "inputs": [
        {
          "indexed": true,
          "internalType": "address",
          "name": "operator",
          "type": "address"
        },
        {
          "indexed": true,
          "internalType": "address",
          "name": "from",
          "type": "address"
        },
        {
          "indexed": true,
          "internalType": "address",
          "name": "to",
          "type": "address"
        },
        {
          "indexed": false,
          "internalType": "uint256",
          "name": "id",
          "type": "uint256"
        },
        {
          "indexed": false,
          "internalType": "uint256",
          "name": "value",
          "type": "uint256"
        }
      ],
      "name": "TransferSingle",
      "type": "event"
    },
    {
      "anonymous": false,
      "inputs": [
        {
          "indexed": false,
          "internalType": "string",
          "name": "value",
          "type": "string"
        },
        {
          "indexed": true,
          "internalType": "uint256",
          "name": "id",
          "type": "uint256"
        }
      ],
      "name": "URI",
      "type": "event"
    },
    {
      "inputs": [
        {
          "internalType": "uint256",
          "name": "_proceedsRequired",
          "type": "uint256"
        }
      ],
      "name": "_feeProceeds",
      "outputs": [
        {
          "internalType": "uint256",
          "name": "",
          "type": "uint256"
        }
      ],
      "stateMutability": "view",
      "type": "function"
    },
    {
      "inputs": [
        {
          "internalType": "uint256",
          "name": "_startingSupply",
          "type": "uint256"
        },
        {
          "internalType": "uint256",
          "name": "_amount",
          "type": "uint256"
        },
        {
          "internalType": "uint256",
          "name": "_mNumerator",
          "type": "uint256"
        },
        {
          "internalType": "uint256",
          "name": "_mDenominator",
          "type": "uint256"
        },
        {
          "internalType": "uint256",
          "name": "_maxSupply",
          "type": "uint256"
        },
        {
          "internalType": "uint256",
          "name": "_profitMargin",
          "type": "uint256"
        }
      ],
      "name": "_saleFunction",
      "outputs": [
        {
          "internalType": "uint256",
          "name": "",
          "type": "uint256"
        }
      ],
      "stateMutability": "pure",
      "type": "function"
    },
    {
      "inputs": [
        {
          "internalType": "address",
          "name": "",
          "type": "address"
        },
        {
          "internalType": "address",
          "name": "",
          "type": "address"
        }
      ],
      "name": "approvals",
      "outputs": [
        {
          "internalType": "bool",
          "name": "",
          "type": "bool"
        }
      ],
      "stateMutability": "view",
      "type": "function"
    },
    {
      "inputs": [
        {
          "internalType": "address",
          "name": "account",
          "type": "address"
        },
        {
          "internalType": "uint256",
          "name": "id",
          "type": "uint256"
        }
      ],
      "name": "balanceOf",
      "outputs": [
        {
          "internalType": "uint256",
          "name": "",
          "type": "uint256"
        }
      ],
      "stateMutability": "view",
      "type": "function"
    },
    {
      "inputs": [
        {
          "internalType": "address[]",
          "name": "accounts",
          "type": "address[]"
        },
        {
          "internalType": "uint256[]",
          "name": "ids",
          "type": "uint256[]"
        }
      ],
      "name": "balanceOfBatch",
      "outputs": [
        {
          "internalType": "uint256[]",
          "name": "",
          "type": "uint256[]"
        }
      ],
      "stateMutability": "view",
      "type": "function"
    },
    {
      "inputs": [
        {
          "internalType": "uint256",
          "name": "_tokenId",
          "type": "uint256"
        },
        {
          "internalType": "address payable",
          "name": "_newCreatorAddress",
          "type": "address"
        }
      ],
      "name": "changeAddress",
      "outputs": [],
      "stateMutability": "nonpayable",
      "type": "function"
    },
    {
      "inputs": [
        {
          "internalType": "uint256",
          "name": "_tokenId",
          "type": "uint256"
        },
        {
          "internalType": "string",
          "name": "_newDescription",
          "type": "string"
        }
      ],
      "name": "changeDescription",
      "outputs": [],
      "stateMutability": "nonpayable",
      "type": "function"
    },
    {
      "inputs": [
        {
          "internalType": "uint256",
          "name": "_tokenId",
          "type": "uint256"
        },
        {
          "internalType": "string",
          "name": "_newName",
          "type": "string"
        }
      ],
      "name": "changeName",
      "outputs": [],
      "stateMutability": "nonpayable",
      "type": "function"
    },
    {
      "inputs": [
        {
          "internalType": "uint256",
          "name": "_newPlatformFee",
          "type": "uint256"
        }
      ],
      "name": "changePlatformFee",
      "outputs": [],
      "stateMutability": "nonpayable",
      "type": "function"
    },
    {
      "inputs": [
        {
          "internalType": "uint256",
          "name": "_newProfitMargin",
          "type": "uint256"
        }
      ],
      "name": "changeProfitMargin",
      "outputs": [],
      "stateMutability": "nonpayable",
      "type": "function"
    },
    {
      "inputs": [
        {
          "internalType": "uint256",
          "name": "_tokenId",
          "type": "uint256"
        },
        {
          "internalType": "string",
          "name": "_newSymbol",
          "type": "string"
        }
      ],
      "name": "changeSymbol",
      "outputs": [],
      "stateMutability": "nonpayable",
      "type": "function"
    },
    {
      "inputs": [
        {
          "internalType": "uint256",
          "name": "_tokenId",
          "type": "uint256"
        },
        {
          "internalType": "bool",
          "name": "_verified",
          "type": "bool"
        }
      ],
      "name": "changeVerification",
      "outputs": [],
      "stateMutability": "nonpayable",
      "type": "function"
    },
    {
      "inputs": [
        {
          "internalType": "address payable",
          "name": "_creatorAddress",
          "type": "address"
        },
        {
          "internalType": "string",
          "name": "_name",
          "type": "string"
        },
        {
          "internalType": "string",
          "name": "_symbol",
          "type": "string"
        },
        {
          "internalType": "string",
          "name": "_description",
          "type": "string"
        }
      ],
      "name": "createCreatorToken",
      "outputs": [],
      "stateMutability": "nonpayable",
      "type": "function"
    },
    {
      "inputs": [
        {
          "internalType": "uint256",
          "name": "",
          "type": "uint256"
        }
      ],
      "name": "creatorTokens",
      "outputs": [
        {
          "internalType": "address payable",
          "name": "creatorAddress",
          "type": "address"
        },
        {
          "internalType": "string",
          "name": "name",
          "type": "string"
        },
        {
          "internalType": "string",
          "name": "symbol",
          "type": "string"
        },
        {
          "internalType": "string",
          "name": "description",
          "type": "string"
        },
        {
          "internalType": "bool",
          "name": "verified",
          "type": "bool"
        },
        {
          "internalType": "uint256",
          "name": "outstanding",
          "type": "uint256"
        },
        {
          "internalType": "uint256",
          "name": "maxSupply",
          "type": "uint256"
        },
        {
          "internalType": "uint256",
          "name": "lastPrice",
          "type": "uint256"
        },
        {
          "internalType": "uint256",
          "name": "creatorTokenId",
          "type": "uint256"
        }
      ],
      "stateMutability": "view",
      "type": "function"
    },
    {
      "inputs": [],
      "name": "getCreatorTokenCount",
      "outputs": [
        {
          "internalType": "uint256",
          "name": "",
          "type": "uint256"
        }
      ],
      "stateMutability": "view",
      "type": "function"
    },
    {
      "inputs": [
        {
          "internalType": "address",
          "name": "_account",
          "type": "address"
        },
        {
          "internalType": "address",
          "name": "_operator",
          "type": "address"
        }
      ],
      "name": "isApprovedForAll",
      "outputs": [
        {
          "internalType": "bool",
          "name": "",
          "type": "bool"
        }
      ],
      "stateMutability": "view",
      "type": "function"
    },
    {
      "inputs": [],
      "name": "numCreatorTokens",
      "outputs": [
        {
          "internalType": "uint256",
          "name": "",
          "type": "uint256"
        }
      ],
      "stateMutability": "view",
      "type": "function"
    },
    {
      "inputs": [],
      "name": "owner",
      "outputs": [
        {
          "internalType": "address",
          "name": "",
          "type": "address"
        }
      ],
      "stateMutability": "view",
      "type": "function"
    },
    {
      "inputs": [
        {
          "internalType": "address payable",
          "name": "_owner",
          "type": "address"
        }
      ],
      "name": "payoutPlatformFees",
      "outputs": [],
      "stateMutability": "nonpayable",
      "type": "function"
    },
    {
      "inputs": [],
      "name": "platformFeesOwed",
      "outputs": [
        {
          "internalType": "uint256",
          "name": "",
          "type": "uint256"
        }
      ],
      "stateMutability": "view",
      "type": "function"
    },
    {
      "inputs": [],
      "name": "renounceOwnership",
      "outputs": [],
      "stateMutability": "nonpayable",
      "type": "function"
    },
    {
      "inputs": [
        {
          "internalType": "address",
          "name": "_from",
          "type": "address"
        },
        {
          "internalType": "address",
          "name": "_to",
          "type": "address"
        },
        {
          "internalType": "uint256[]",
          "name": "_ids",
          "type": "uint256[]"
        },
        {
          "internalType": "uint256[]",
          "name": "_amounts",
          "type": "uint256[]"
        },
        {
          "internalType": "bytes",
          "name": "_data",
          "type": "bytes"
        }
      ],
      "name": "safeBatchTransferFrom",
      "outputs": [],
      "stateMutability": "nonpayable",
      "type": "function"
    },
    {
      "inputs": [
        {
          "internalType": "address",
          "name": "_from",
          "type": "address"
        },
        {
          "internalType": "address",
          "name": "_to",
          "type": "address"
        },
        {
          "internalType": "uint256",
          "name": "_id",
          "type": "uint256"
        },
        {
          "internalType": "uint256",
          "name": "_amount",
          "type": "uint256"
        },
        {
          "internalType": "bytes",
          "name": "_data",
          "type": "bytes"
        }
      ],
      "name": "safeTransferFrom",
      "outputs": [],
      "stateMutability": "nonpayable",
      "type": "function"
    },
    {
      "inputs": [
        {
          "internalType": "address",
          "name": "_operator",
          "type": "address"
        },
        {
          "internalType": "bool",
          "name": "_approved",
          "type": "bool"
        }
      ],
      "name": "setApprovalForAll",
      "outputs": [],
      "stateMutability": "nonpayable",
      "type": "function"
    },
    {
      "inputs": [
        {
          "internalType": "bytes4",
          "name": "interfaceId",
          "type": "bytes4"
        }
      ],
      "name": "supportsInterface",
      "outputs": [
        {
          "internalType": "bool",
          "name": "",
          "type": "bool"
        }
      ],
      "stateMutability": "view",
      "type": "function"
    },
    {
      "inputs": [
        {
          "internalType": "uint256",
          "name": "",
          "type": "uint256"
        },
        {
          "internalType": "address",
          "name": "",
          "type": "address"
        }
      ],
      "name": "tokenHoldership",
      "outputs": [
        {
          "internalType": "uint256",
          "name": "",
          "type": "uint256"
        }
      ],
      "stateMutability": "view",
      "type": "function"
    },
    {
      "inputs": [
        {
          "internalType": "uint256",
          "name": "",
          "type": "uint256"
        }
      ],
      "name": "tokenToCreator",
      "outputs": [
        {
          "internalType": "address",
          "name": "",
          "type": "address"
        }
      ],
      "stateMutability": "view",
      "type": "function"
    },
    {
      "inputs": [
        {
          "internalType": "uint256",
          "name": "",
          "type": "uint256"
        }
      ],
      "name": "tokenValueTransferred",
      "outputs": [
        {
          "internalType": "uint256",
          "name": "",
          "type": "uint256"
        }
      ],
      "stateMutability": "view",
      "type": "function"
    },
    {
      "inputs": [],
      "name": "totalPlatformFees",
      "outputs": [
        {
          "internalType": "uint256",
          "name": "",
          "type": "uint256"
        }
      ],
      "stateMutability": "view",
      "type": "function"
    },
    {
      "inputs": [
        {
          "internalType": "uint256",
          "name": "",
          "type": "uint256"
        }
      ],
      "name": "totalValueLocked",
      "outputs": [
        {
          "internalType": "uint256",
          "name": "",
          "type": "uint256"
        }
      ],
      "stateMutability": "view",
      "type": "function"
    },
    {
      "inputs": [
        {
          "internalType": "address",
          "name": "newOwner",
          "type": "address"
        }
      ],
      "name": "transferOwnership",
      "outputs": [],
      "stateMutability": "nonpayable",
      "type": "function"
    },
    {
      "inputs": [
        {
          "internalType": "uint256",
          "name": "",
          "type": "uint256"
        }
      ],
      "name": "uri",
      "outputs": [
        {
          "internalType": "string",
          "name": "",
          "type": "string"
        }
      ],
      "stateMutability": "view",
      "type": "function"
    },
    {
      "inputs": [
        {
          "internalType": "address",
          "name": "",
          "type": "address"
        },
        {
          "internalType": "uint256",
          "name": "",
          "type": "uint256"
        }
      ],
      "name": "userToHoldings",
      "outputs": [
        {
          "internalType": "uint256",
          "name": "",
          "type": "uint256"
        }
      ],
      "stateMutability": "view",
      "type": "function"
    },
    {
      "inputs": [
        {
          "internalType": "address payable",
          "name": "_owner",
          "type": "address"
        }
      ],
      "name": "withdraw",
      "outputs": [],
      "stateMutability": "nonpayable",
      "type": "function"
    },
    {
      "inputs": [
        {
          "internalType": "uint256",
          "name": "_tokenId",
          "type": "uint256"
        },
        {
          "internalType": "uint256",
          "name": "_amount",
          "type": "uint256"
        }
      ],
      "name": "_totalProceeds",
      "outputs": [
        {
          "internalType": "uint256",
          "name": "",
          "type": "uint256"
        }
      ],
      "stateMutability": "view",
      "type": "function"
    },
    {
      "inputs": [
        {
          "internalType": "uint256",
          "name": "_tokenId",
          "type": "uint256"
        },
        {
          "internalType": "uint256",
          "name": "_amount",
          "type": "uint256"
        }
      ],
      "name": "_buyProceeds",
      "outputs": [
        {
          "internalType": "uint256",
          "name": "",
          "type": "uint256"
        }
      ],
      "stateMutability": "view",
      "type": "function"
    }
  ],
  "bytecode": "0x608060405260018055600060025560006003556000600455601460055565082f79cd900060065560b96007553480156200003857600080fd5b5060405162003f1f38038062003f1f83398181016040528101906200005e919062000280565b808080806000620000746200012e60201b60201c565b9050806000806101000a81548173ffffffffffffffffffffffffffffffffffffffff021916908373ffffffffffffffffffffffffffffffffffffffff1602179055508073ffffffffffffffffffffffffffffffffffffffff16600073ffffffffffffffffffffffffffffffffffffffff167f8be0079c531659141344cd1fd0a4f28419497f9722a3daafe3b4186f6b6457e060405160405180910390a35062000123816200013660201b60201c565b505050505062000455565b600033905090565b80601190805190602001906200014e92919062000152565b5050565b828054620001609062000366565b90600052602060002090601f016020900481019282620001845760008555620001d0565b82601f106200019f57805160ff1916838001178555620001d0565b82800160010185558215620001d0579182015b82811115620001cf578251825591602001919060010190620001b2565b5b509050620001df9190620001e3565b5090565b5b80821115620001fe576000816000905550600101620001e4565b5090565b6000620002196200021384620002fa565b620002d1565b90508281526020810184848401111562000238576200023762000435565b5b6200024584828562000330565b509392505050565b600082601f83011262000265576200026462000430565b5b81516200027784826020860162000202565b91505092915050565b6000602082840312156200029957620002986200043f565b5b600082015167ffffffffffffffff811115620002ba57620002b96200043a565b5b620002c8848285016200024d565b91505092915050565b6000620002dd620002f0565b9050620002eb82826200039c565b919050565b6000604051905090565b600067ffffffffffffffff82111562000318576200031762000401565b5b620003238262000444565b9050602081019050919050565b60005b838110156200035057808201518184015260208101905062000333565b8381111562000360576000848401525b50505050565b600060028204905060018216806200037f57607f821691505b60208210811415620003965762000395620003d2565b5b50919050565b620003a78262000444565b810181811067ffffffffffffffff82111715620003c957620003c862000401565b5b80604052505050565b7f4e487b7100000000000000000000000000000000000000000000000000000000600052602260045260246000fd5b7f4e487b7100000000000000000000000000000000000000000000000000000000600052604160045260246000fd5b600080fd5b600080fd5b600080fd5b600080fd5b6000601f19601f8301169050919050565b613aba80620004656000396000f3fe608060405234801561001057600080fd5b506004361061021b5760003560e01c8063afb2183211610125578063d7a5791a116100ad578063e985e9c51161007c578063e985e9c5146106b0578063eb841759146106e0578063f242432a146106fc578063f2fde38b14610718578063f7374e2e146107345761021b565b8063d7a5791a14610618578063d9bd3a4014610634578063de6a06ed14610664578063df3c00b1146106805761021b565b8063c39cbef1116100f4578063c39cbef11461056e578063c539c3171461058a578063ce901d8a146105a6578063d3631fa5146105de578063d56b72c7146105fc5761021b565b8063afb21832146104d2578063ba111a05146104f0578063bfb48c9c14610520578063c1d33049146105505761021b565b806335a8ae21116101a8578063715018a611610177578063715018a61461042e5780638da5cb5b1461043857806392724afa14610456578063a22cb46514610486578063a32ce11e146104a25761021b565b806335a8ae21146103825780634e1273f4146103b25780634fe477d8146103e257806351cff8d9146104125761021b565b806317bcaa08116101ef57806317bcaa08146102cc57806318892ae8146102fc5780631d5ad18b1461032c5780632a2b237c146103485780632eb2c2d6146103665761021b565b8062fdd58e1461022057806301ffc9a71461025057806306e320f5146102805780630e89341c1461029c575b600080fd5b61023a60048036038101906102359190612cd4565b610750565b604051610247919061333b565b60405180910390f35b61026a60048036038101906102659190612d8c565b61081a565b604051610277919061327e565b60405180910390f35b61029a60048036038101906102959190612ea6565b6108fc565b005b6102b660048036038101906102b19190612db9565b6109a3565b6040516102c39190613299565b60405180910390f35b6102e660048036038101906102e19190612db9565b610a37565b6040516102f3919061333b565b60405180910390f35b61031660048036038101906103119190612db9565b610a4f565b6040516103239190613168565b60405180910390f35b61034660048036038101906103419190612e26565b610a82565b005b610350610b57565b60405161035d919061333b565b60405180910390f35b610380600480360381019061037b9190612b2e565b610b64565b005b61039c60048036038101906103979190612f06565b610cd0565b6040516103a9919061333b565b60405180910390f35b6103cc60048036038101906103c79190612d14565b610d08565b6040516103d99190613225565b60405180910390f35b6103fc60048036038101906103f79190612f06565b610e21565b604051610409919061333b565b60405180910390f35b61042c60048036038101906104279190612a06565b61102e565b005b6104366110f4565b005b61044061122e565b60405161044d9190613168565b60405180910390f35b610470600480360381019061046b9190612cd4565b611257565b60405161047d919061333b565b60405180910390f35b6104a0600480360381019061049b9190612c94565b61127c565b005b6104bc60048036038101906104b79190612aee565b611379565b6040516104c9919061327e565b60405180910390f35b6104da6113a8565b6040516104e7919061333b565b60405180910390f35b61050a60048036038101906105059190612db9565b6113ae565b604051610517919061333b565b60405180910390f35b61053a60048036038101906105359190612de6565b6113d1565b604051610547919061333b565b60405180910390f35b6105586113f6565b604051610565919061333b565b60405180910390f35b61058860048036038101906105839190612ea6565b6113fc565b005b6105a4600480360381019061059f9190612db9565b6114a3565b005b6105c060048036038101906105bb9190612db9565b611529565b6040516105d599989796959493929190613183565b60405180910390f35b6105e661174c565b6040516105f3919061333b565b60405180910390f35b61061660048036038101906106119190612a33565b611752565b005b610632600480360381019061062d9190612db9565b611985565b005b61064e60048036038101906106499190612db9565b611a0b565b60405161065b919061333b565b60405180910390f35b61067e60048036038101906106799190612ea6565b611a23565b005b61069a60048036038101906106959190612f46565b611aca565b6040516106a7919061333b565b60405180910390f35b6106ca60048036038101906106c59190612aee565b611b43565b6040516106d7919061327e565b60405180910390f35b6106fa60048036038101906106f59190612a06565b611bd7565b005b61071660048036038101906107119190612bfd565b611ca7565b005b610732600480360381019061072d91906129d9565b611d8b565b005b61074e60048036038101906107499190612e66565b611f34565b005b60008073ffffffffffffffffffffffffffffffffffffffff168373ffffffffffffffffffffffffffffffffffffffff1614156107c1576040517f08c379a00000000000000000000000000000000000000000000000000000000081526004016107b8906132bb565b60405180910390fd5b600f600083815260200190815260200160002060008473ffffffffffffffffffffffffffffffffffffffff1673ffffffffffffffffffffffffffffffffffffffff16815260200190815260200160002054905092915050565b60007fd9b67a26000000000000000000000000000000000000000000000000000000007bffffffffffffffffffffffffffffffffffffffffffffffffffffffff1916827bffffffffffffffffffffffffffffffffffffffffffffffffffffffff191614806108e557507f0e89341c000000000000000000000000000000000000000000000000000000007bffffffffffffffffffffffffffffffffffffffffffffffffffffffff1916827bffffffffffffffffffffffffffffffffffffffffffffffffffffffff1916145b806108f557506108f482611ff1565b5b9050919050565b826009600082815260200190815260200160002060009054906101000a900473ffffffffffffffffffffffffffffffffffffffff1673ffffffffffffffffffffffffffffffffffffffff163373ffffffffffffffffffffffffffffffffffffffff161461096857600080fd5b82826008868154811061097e5761097d61386e565b5b9060005260206000209060090201600201919061099c9291906125d5565b5050505050565b6060601180546109b290613735565b80601f01602080910402602001604051908101604052809291908181526020018280546109de90613735565b8015610a2b5780601f10610a0057610100808354040283529160200191610a2b565b820191906000526020600020905b815481529060010190602001808311610a0e57829003601f168201915b50505050509050919050565b600a6020528060005260406000206000915090505481565b60096020528060005260406000206000915054906101000a900473ffffffffffffffffffffffffffffffffffffffff1681565b816009600082815260200190815260200160002060009054906101000a900473ffffffffffffffffffffffffffffffffffffffff1673ffffffffffffffffffffffffffffffffffffffff163373ffffffffffffffffffffffffffffffffffffffff1614610aee57600080fd5b8160088481548110610b0357610b0261386e565b5b906000526020600020906009020160000160006101000a81548173ffffffffffffffffffffffffffffffffffffffff021916908373ffffffffffffffffffffffffffffffffffffffff160217905550505050565b6000600880549050905090565b60005b8351811015610c4a578573ffffffffffffffffffffffffffffffffffffffff163373ffffffffffffffffffffffffffffffffffffffff161480610bb05750610baf8686611b43565b5b610bb957600080fd5b610bf886858381518110610bd057610bcf61386e565b5b6020026020010151858481518110610beb57610bea61386e565b5b602002602001015161205b565b610c3785858381518110610c0f57610c0e61386e565b5b6020026020010151858481518110610c2a57610c2961386e565b5b602002602001015161212e565b8080610c4290613798565b915050610b67565b508373ffffffffffffffffffffffffffffffffffffffff168573ffffffffffffffffffffffffffffffffffffffff163373ffffffffffffffffffffffffffffffffffffffff167f4a39dc06d4c0dbc64b70af90fd698a233a518aa5d07e595d983b8c0526c8f7fb8686604051610cc1929190613247565b60405180910390a45050505050565b600080610cdd8484610e21565b90506000610cea826113ae565b905060008183610cfa9190613546565b905080935050505092915050565b60608151835114610d4e576040517f08c379a0000000000000000000000000000000000000000000000000000000008152600401610d459061331b565b60405180910390fd5b6000835167ffffffffffffffff811115610d6b57610d6a61389d565b5b604051908082528060200260200182016040528015610d995781602001602082028036833780820191505090505b50905060005b8451811015610e1657610de6858281518110610dbe57610dbd61386e565b5b6020026020010151858381518110610dd957610dd861386e565b5b6020026020010151610750565b828281518110610df957610df861386e565b5b60200260200101818152505080610e0f90613798565b9050610d9f565b508091505092915050565b60008060009050600060088581548110610e3e57610e3d61386e565b5b906000526020600020906009020160050154905060008482610e609190613546565b905060088681548110610e7657610e7561386e565b5b906000526020600020906009020160060154811015610ecf57610ec8818660065460075460088b81548110610eae57610ead61386e565b5b906000526020600020906009020160060154600554611aca565b9250611022565b60088681548110610ee357610ee261386e565b5b90600052602060002090600902016006015482101561100e57610f8a60088781548110610f1357610f1261386e565b5b9060005260206000209060090201600601548360088981548110610f3a57610f3961386e565b5b906000526020600020906009020160060154610f569190613627565b60065460075460088b81548110610f7057610f6f61386e565b5b906000526020600020906009020160060154600554611aca565b9250610ffc60088781548110610fa357610fa261386e565b5b9060005260206000209060090201600601548360088981548110610fca57610fc961386e565b5b906000526020600020906009020160060154610fe69190613627565b87610ff19190613627565b600654600754612201565b836110079190613546565b9250611021565b61101e8286600654600754612201565b92505b5b82935050505092915050565b61103661228f565b73ffffffffffffffffffffffffffffffffffffffff1661105461122e565b73ffffffffffffffffffffffffffffffffffffffff16146110aa576040517f08c379a00000000000000000000000000000000000000000000000000000000081526004016110a1906132fb565b60405180910390fd5b8073ffffffffffffffffffffffffffffffffffffffff166108fc479081150290604051600060405180830381858888f193505050501580156110f0573d6000803e3d6000fd5b5050565b6110fc61228f565b73ffffffffffffffffffffffffffffffffffffffff1661111a61122e565b73ffffffffffffffffffffffffffffffffffffffff1614611170576040517f08c379a0000000000000000000000000000000000000000000000000000000008152600401611167906132fb565b60405180910390fd5b600073ffffffffffffffffffffffffffffffffffffffff1660008054906101000a900473ffffffffffffffffffffffffffffffffffffffff1673ffffffffffffffffffffffffffffffffffffffff167f8be0079c531659141344cd1fd0a4f28419497f9722a3daafe3b4186f6b6457e060405160405180910390a360008060006101000a81548173ffffffffffffffffffffffffffffffffffffffff021916908373ffffffffffffffffffffffffffffffffffffffff160217905550565b60008060009054906101000a900473ffffffffffffffffffffffffffffffffffffffff16905090565b600c602052816000526040600020602052806000526040600020600091509150505481565b80600d60003373ffffffffffffffffffffffffffffffffffffffff1673ffffffffffffffffffffffffffffffffffffffff16815260200190815260200160002060008473ffffffffffffffffffffffffffffffffffffffff1673ffffffffffffffffffffffffffffffffffffffff16815260200190815260200160002060006101000a81548160ff0219169083151502179055508173ffffffffffffffffffffffffffffffffffffffff163373ffffffffffffffffffffffffffffffffffffffff167f17307eab39ab6107e8899845ad3d59bd9653f200f220920489ca2b5937696c318360405161136d919061327e565b60405180910390a35050565b600d6020528160005260406000206020528060005260406000206000915091509054906101000a900460ff1681565b60045481565b60006064600154836113c091906135cd565b6113ca919061359c565b9050919050565b600b602052816000526040600020602052806000526040600020600091509150505481565b60035481565b826009600082815260200190815260200160002060009054906101000a900473ffffffffffffffffffffffffffffffffffffffff1673ffffffffffffffffffffffffffffffffffffffff163373ffffffffffffffffffffffffffffffffffffffff161461146857600080fd5b82826008868154811061147e5761147d61386e565b5b9060005260206000209060090201600101919061149c9291906125d5565b5050505050565b6114ab61228f565b73ffffffffffffffffffffffffffffffffffffffff166114c961122e565b73ffffffffffffffffffffffffffffffffffffffff161461151f576040517f08c379a0000000000000000000000000000000000000000000000000000000008152600401611516906132fb565b60405180910390fd5b8060058190555050565b6008818154811061153957600080fd5b90600052602060002090600902016000915090508060000160009054906101000a900473ffffffffffffffffffffffffffffffffffffffff169080600101805461158290613735565b80601f01602080910402602001604051908101604052809291908181526020018280546115ae90613735565b80156115fb5780601f106115d0576101008083540402835291602001916115fb565b820191906000526020600020905b8154815290600101906020018083116115de57829003601f168201915b50505050509080600201805461161090613735565b80601f016020809104026020016040519081016040528092919081815260200182805461163c90613735565b80156116895780601f1061165e57610100808354040283529160200191611689565b820191906000526020600020905b81548152906001019060200180831161166c57829003601f168201915b50505050509080600301805461169e90613735565b80601f01602080910402602001604051908101604052809291908181526020018280546116ca90613735565b80156117175780601f106116ec57610100808354040283529160200191611717565b820191906000526020600020905b8154815290600101906020018083116116fa57829003601f168201915b5050505050908060040160009054906101000a900460ff16908060050154908060060154908060070154908060080154905089565b60025481565b6000600880549050905060086040518061012001604052808773ffffffffffffffffffffffffffffffffffffffff16815260200186815260200185815260200184815260200160001515815260200160008152602001600081526020016000815260200183815250908060018154018082558091505060019003906000526020600020906009020160009091909190915060008201518160000160006101000a81548173ffffffffffffffffffffffffffffffffffffffff021916908373ffffffffffffffffffffffffffffffffffffffff160217905550602082015181600101908051906020019061184692919061265b565b50604082015181600201908051906020019061186392919061265b565b50606082015181600301908051906020019061188092919061265b565b5060808201518160040160006101000a81548160ff02191690831515021790555060a0820151816005015560c0820151816006015560e0820151816007015561010082015181600801555050846009600083815260200190815260200160002060006101000a81548173ffffffffffffffffffffffffffffffffffffffff021916908373ffffffffffffffffffffffffffffffffffffffff1602179055506000600a6000838152602001908152602001600020819055507f3ef624c0f3fb7ad40b94c02078ea3e3a797dbfc21e921ee4bd2b8ad0ca6aa11381868686866000806000604051611976989796959493929190613356565b60405180910390a15050505050565b61198d61228f565b73ffffffffffffffffffffffffffffffffffffffff166119ab61122e565b73ffffffffffffffffffffffffffffffffffffffff1614611a01576040517f08c379a00000000000000000000000000000000000000000000000000000000081526004016119f8906132fb565b60405180910390fd5b8060018190555050565b600e6020528060005260406000206000915090505481565b826009600082815260200190815260200160002060009054906101000a900473ffffffffffffffffffffffffffffffffffffffff1673ffffffffffffffffffffffffffffffffffffffff163373ffffffffffffffffffffffffffffffffffffffff1614611a8f57600080fd5b828260088681548110611aa557611aa461386e565b5b90600052602060002090600902016003019190611ac39291906125d5565b5050505050565b600080600080611ade8a8a8a8a8a8a612297565b9250925092506000838b1015611b0157611afa84848d85612312565b9050611b32565b83821015611b1f57611b1884848d858d8d8d6123b5565b9050611b31565b611b2e84848d858d8d8d6124d7565b90505b5b809450505050509695505050505050565b6000600d60008473ffffffffffffffffffffffffffffffffffffffff1673ffffffffffffffffffffffffffffffffffffffff16815260200190815260200160002060008373ffffffffffffffffffffffffffffffffffffffff1673ffffffffffffffffffffffffffffffffffffffff16815260200190815260200160002060009054906101000a900460ff16905092915050565b611bdf61228f565b73ffffffffffffffffffffffffffffffffffffffff16611bfd61122e565b73ffffffffffffffffffffffffffffffffffffffff1614611c53576040517f08c379a0000000000000000000000000000000000000000000000000000000008152600401611c4a906132fb565b60405180910390fd5b8073ffffffffffffffffffffffffffffffffffffffff166108fc6003549081150290604051600060405180830381858888f19350505050158015611c9b573d6000803e3d6000fd5b50600060038190555050565b8473ffffffffffffffffffffffffffffffffffffffff163373ffffffffffffffffffffffffffffffffffffffff161480611ce75750611ce68585611b43565b5b611cf057600080fd5b611cfb85848461205b565b611d0684848461212e565b8373ffffffffffffffffffffffffffffffffffffffff168573ffffffffffffffffffffffffffffffffffffffff163373ffffffffffffffffffffffffffffffffffffffff167fc3d58168c5ae7397731d063d5bbf3d657854427343f4c083240f7aacaa2d0f628686604051611d7c9291906133e9565b60405180910390a45050505050565b611d9361228f565b73ffffffffffffffffffffffffffffffffffffffff16611db161122e565b73ffffffffffffffffffffffffffffffffffffffff1614611e07576040517f08c379a0000000000000000000000000000000000000000000000000000000008152600401611dfe906132fb565b60405180910390fd5b600073ffffffffffffffffffffffffffffffffffffffff168173ffffffffffffffffffffffffffffffffffffffff161415611e77576040517f08c379a0000000000000000000000000000000000000000000000000000000008152600401611e6e906132db565b60405180910390fd5b8073ffffffffffffffffffffffffffffffffffffffff1660008054906101000a900473ffffffffffffffffffffffffffffffffffffffff1673ffffffffffffffffffffffffffffffffffffffff167f8be0079c531659141344cd1fd0a4f28419497f9722a3daafe3b4186f6b6457e060405160405180910390a3806000806101000a81548173ffffffffffffffffffffffffffffffffffffffff021916908373ffffffffffffffffffffffffffffffffffffffff16021790555050565b611f3c61228f565b73ffffffffffffffffffffffffffffffffffffffff16611f5a61122e565b73ffffffffffffffffffffffffffffffffffffffff1614611fb0576040517f08c379a0000000000000000000000000000000000000000000000000000000008152600401611fa7906132fb565b60405180910390fd5b8060088381548110611fc557611fc461386e565b5b906000526020600020906009020160040160006101000a81548160ff0219169083151502179055505050565b60007f01ffc9a7000000000000000000000000000000000000000000000000000000007bffffffffffffffffffffffffffffffffffffffffffffffffffffffff1916827bffffffffffffffffffffffffffffffffffffffffffffffffffffffff1916149050919050565b80600b600084815260200190815260200160002060008573ffffffffffffffffffffffffffffffffffffffff1673ffffffffffffffffffffffffffffffffffffffff16815260200190815260200160002060008282546120bb9190613627565b9250508190555080600c60008573ffffffffffffffffffffffffffffffffffffffff1673ffffffffffffffffffffffffffffffffffffffff168152602001908152602001600020600084815260200190815260200160002060008282546121229190613627565b92505081905550505050565b80600b600084815260200190815260200160002060008573ffffffffffffffffffffffffffffffffffffffff1673ffffffffffffffffffffffffffffffffffffffff168152602001908152602001600020600082825461218e9190613546565b9250508190555080600c60008573ffffffffffffffffffffffffffffffffffffffff1673ffffffffffffffffffffffffffffffffffffffff168152602001908152602001600020600084815260200190815260200160002060008282546121f59190613546565b92505081905550505050565b60008084866122109190613546565b9050600083878661222191906135cd565b61222b919061359c565b9050600084838761223c91906135cd565b612246919061359c565b9050600088846122569190613627565b9050600060028284866122699190613546565b61227391906135cd565b61227d919061359c565b90508095505050505050949350505050565b600033905090565b6000806000806002866122aa919061359c565b90506000878960648860326122bf9190613627565b8a6122ca91906135cd565b6122d4919061359c565b6122de91906135cd565b6122e8919061359c565b905060008a8c6122f89190613627565b905082828295509550955050505096509650969350505050565b60008082866123219190613627565b868661232d919061359c565b61233791906135cd565b856123429190613627565b9050600084876123529190613627565b878761235e919061359c565b61236891906135cd565b866123739190613627565b9050600084866123839190613627565b905060028183856123949190613546565b61239e91906135cd565b6123a8919061359c565b9350505050949350505050565b60008085896123c49190613627565b89896123d0919061359c565b6123da91906135cd565b886123e59190613627565b905060008890506000878b6123fa9190613627565b90506000600282848661240d9190613546565b61241791906135cd565b612421919061359c565b905060008b8d8c6124329190613627565b8e8961243e9190613627565b8e8b8b8e61244c91906135cd565b612456919061359c565b6124609190613627565b61246a919061359c565b61247491906135cd565b61247e9190613546565b905060008d8c61248e9190613627565b9050600060028284886124a19190613546565b6124ab91906135cd565b6124b5919061359c565b905080846124c39190613546565b975050505050505050979650505050505050565b6000808789876124e79190613627565b8a856124f39190613627565b8a87878a61250191906135cd565b61250b919061359c565b6125159190613627565b61251f919061359c565b61252991906135cd565b6125339190613546565b90506000888a896125449190613627565b8b866125509190613627565b8b88888b61255e91906135cd565b612568919061359c565b6125729190613627565b61257c919061359c565b61258691906135cd565b6125909190613546565b9050600087896125a09190613627565b905060028183856125b19190613546565b6125bb91906135cd565b6125c5919061359c565b9350505050979650505050505050565b8280546125e190613735565b90600052602060002090601f016020900481019282612603576000855561264a565b82601f1061261c57803560ff191683800117855561264a565b8280016001018555821561264a579182015b8281111561264957823582559160200191906001019061262e565b5b50905061265791906126e1565b5090565b82805461266790613735565b90600052602060002090601f01602090048101928261268957600085556126d0565b82601f106126a257805160ff19168380011785556126d0565b828001600101855582156126d0579182015b828111156126cf5782518255916020019190600101906126b4565b5b5090506126dd91906126e1565b5090565b5b808211156126fa5760008160009055506001016126e2565b5090565b600061271161270c84613437565b613412565b90508083825260208201905082856020860282011115612734576127336138d6565b5b60005b85811015612764578161274a8882612862565b845260208401935060208301925050600181019050612737565b5050509392505050565b600061278161277c84613463565b613412565b905080838252602082019050828560208602820111156127a4576127a36138d6565b5b60005b858110156127d457816127ba88826129c4565b8452602084019350602083019250506001810190506127a7565b5050509392505050565b60006127f16127ec8461348f565b613412565b90508281526020810184848401111561280d5761280c6138db565b5b6128188482856136f3565b509392505050565b600061283361282e846134c0565b613412565b90508281526020810184848401111561284f5761284e6138db565b5b61285a8482856136f3565b509392505050565b60008135905061287181613a11565b92915050565b60008135905061288681613a28565b92915050565b600082601f8301126128a1576128a06138d1565b5b81356128b18482602086016126fe565b91505092915050565b600082601f8301126128cf576128ce6138d1565b5b81356128df84826020860161276e565b91505092915050565b6000813590506128f781613a3f565b92915050565b60008135905061290c81613a56565b92915050565b600082601f830112612927576129266138d1565b5b81356129378482602086016127de565b91505092915050565b60008083601f840112612956576129556138d1565b5b8235905067ffffffffffffffff811115612973576129726138cc565b5b60208301915083600182028301111561298f5761298e6138d6565b5b9250929050565b600082601f8301126129ab576129aa6138d1565b5b81356129bb848260208601612820565b91505092915050565b6000813590506129d381613a6d565b92915050565b6000602082840312156129ef576129ee6138e5565b5b60006129fd84828501612862565b91505092915050565b600060208284031215612a1c57612a1b6138e5565b5b6000612a2a84828501612877565b91505092915050565b60008060008060808587031215612a4d57612a4c6138e5565b5b6000612a5b87828801612877565b945050602085013567ffffffffffffffff811115612a7c57612a7b6138e0565b5b612a8887828801612996565b935050604085013567ffffffffffffffff811115612aa957612aa86138e0565b5b612ab587828801612996565b925050606085013567ffffffffffffffff811115612ad657612ad56138e0565b5b612ae287828801612996565b91505092959194509250565b60008060408385031215612b0557612b046138e5565b5b6000612b1385828601612862565b9250506020612b2485828601612862565b9150509250929050565b600080600080600060a08688031215612b4a57612b496138e5565b5b6000612b5888828901612862565b9550506020612b6988828901612862565b945050604086013567ffffffffffffffff811115612b8a57612b896138e0565b5b612b96888289016128ba565b935050606086013567ffffffffffffffff811115612bb757612bb66138e0565b5b612bc3888289016128ba565b925050608086013567ffffffffffffffff811115612be457612be36138e0565b5b612bf088828901612912565b9150509295509295909350565b600080600080600060a08688031215612c1957612c186138e5565b5b6000612c2788828901612862565b9550506020612c3888828901612862565b9450506040612c49888289016129c4565b9350506060612c5a888289016129c4565b925050608086013567ffffffffffffffff811115612c7b57612c7a6138e0565b5b612c8788828901612912565b9150509295509295909350565b60008060408385031215612cab57612caa6138e5565b5b6000612cb985828601612862565b9250506020612cca858286016128e8565b9150509250929050565b60008060408385031215612ceb57612cea6138e5565b5b6000612cf985828601612862565b9250506020612d0a858286016129c4565b9150509250929050565b60008060408385031215612d2b57612d2a6138e5565b5b600083013567ffffffffffffffff811115612d4957612d486138e0565b5b612d558582860161288c565b925050602083013567ffffffffffffffff811115612d7657612d756138e0565b5b612d82858286016128ba565b9150509250929050565b600060208284031215612da257612da16138e5565b5b6000612db0848285016128fd565b91505092915050565b600060208284031215612dcf57612dce6138e5565b5b6000612ddd848285016129c4565b91505092915050565b60008060408385031215612dfd57612dfc6138e5565b5b6000612e0b858286016129c4565b9250506020612e1c85828601612862565b9150509250929050565b60008060408385031215612e3d57612e3c6138e5565b5b6000612e4b858286016129c4565b9250506020612e5c85828601612877565b9150509250929050565b60008060408385031215612e7d57612e7c6138e5565b5b6000612e8b858286016129c4565b9250506020612e9c858286016128e8565b9150509250929050565b600080600060408486031215612ebf57612ebe6138e5565b5b6000612ecd868287016129c4565b935050602084013567ffffffffffffffff811115612eee57612eed6138e0565b5b612efa86828701612940565b92509250509250925092565b60008060408385031215612f1d57612f1c6138e5565b5b6000612f2b858286016129c4565b9250506020612f3c858286016129c4565b9150509250929050565b60008060008060008060c08789031215612f6357612f626138e5565b5b6000612f7189828a016129c4565b9650506020612f8289828a016129c4565b9550506040612f9389828a016129c4565b9450506060612fa489828a016129c4565b9350506080612fb589828a016129c4565b92505060a0612fc689828a016129c4565b9150509295509295509295565b6000612fdf838361314a565b60208301905092915050565b612ff48161366d565b82525050565b6130038161365b565b82525050565b600061301482613501565b61301e8185613524565b9350613029836134f1565b8060005b8381101561305a5781516130418882612fd3565b975061304c83613517565b92505060018101905061302d565b5085935050505092915050565b6130708161367f565b82525050565b61307f816136e1565b82525050565b60006130908261350c565b61309a8185613535565b93506130aa818560208601613702565b6130b3816138ea565b840191505092915050565b60006130cb602b83613535565b91506130d6826138fb565b604082019050919050565b60006130ee602683613535565b91506130f98261394a565b604082019050919050565b6000613111602083613535565b915061311c82613999565b602082019050919050565b6000613134602983613535565b915061313f826139c2565b604082019050919050565b613153816136d7565b82525050565b613162816136d7565b82525050565b600060208201905061317d6000830184612ffa565b92915050565b600061012082019050613199600083018c612feb565b81810360208301526131ab818b613085565b905081810360408301526131bf818a613085565b905081810360608301526131d38189613085565b90506131e26080830188613067565b6131ef60a0830187613159565b6131fc60c0830186613159565b61320960e0830185613159565b613217610100830184613159565b9a9950505050505050505050565b6000602082019050818103600083015261323f8184613009565b905092915050565b600060408201905081810360008301526132618185613009565b905081810360208301526132758184613009565b90509392505050565b60006020820190506132936000830184613067565b92915050565b600060208201905081810360008301526132b38184613085565b905092915050565b600060208201905081810360008301526132d4816130be565b9050919050565b600060208201905081810360008301526132f4816130e1565b9050919050565b6000602082019050818103600083015261331481613104565b9050919050565b6000602082019050818103600083015261333481613127565b9050919050565b60006020820190506133506000830184613159565b92915050565b60006101008201905061336c600083018b613159565b613379602083018a612feb565b818103604083015261338b8189613085565b9050818103606083015261339f8188613085565b905081810360808301526133b38187613085565b90506133c260a0830186613067565b6133cf60c0830185613076565b6133dc60e0830184613076565b9998505050505050505050565b60006040820190506133fe6000830185613159565b61340b6020830184613159565b9392505050565b600061341c61342d565b90506134288282613767565b919050565b6000604051905090565b600067ffffffffffffffff8211156134525761345161389d565b5b602082029050602081019050919050565b600067ffffffffffffffff82111561347e5761347d61389d565b5b602082029050602081019050919050565b600067ffffffffffffffff8211156134aa576134a961389d565b5b6134b3826138ea565b9050602081019050919050565b600067ffffffffffffffff8211156134db576134da61389d565b5b6134e4826138ea565b9050602081019050919050565b6000819050602082019050919050565b600081519050919050565b600081519050919050565b6000602082019050919050565b600082825260208201905092915050565b600082825260208201905092915050565b6000613551826136d7565b915061355c836136d7565b9250827fffffffffffffffffffffffffffffffffffffffffffffffffffffffffffffffff03821115613591576135906137e1565b5b828201905092915050565b60006135a7826136d7565b91506135b2836136d7565b9250826135c2576135c1613810565b5b828204905092915050565b60006135d8826136d7565b91506135e3836136d7565b9250817fffffffffffffffffffffffffffffffffffffffffffffffffffffffffffffffff048311821515161561361c5761361b6137e1565b5b828202905092915050565b6000613632826136d7565b915061363d836136d7565b9250828210156136505761364f6137e1565b5b828203905092915050565b6000613666826136b7565b9050919050565b6000613678826136b7565b9050919050565b60008115159050919050565b60007fffffffff0000000000000000000000000000000000000000000000000000000082169050919050565b600073ffffffffffffffffffffffffffffffffffffffff82169050919050565b6000819050919050565b60006136ec826136d7565b9050919050565b82818337600083830152505050565b60005b83811015613720578082015181840152602081019050613705565b8381111561372f576000848401525b50505050565b6000600282049050600182168061374d57607f821691505b602082108114156137615761376061383f565b5b50919050565b613770826138ea565b810181811067ffffffffffffffff8211171561378f5761378e61389d565b5b80604052505050565b60006137a3826136d7565b91507fffffffffffffffffffffffffffffffffffffffffffffffffffffffffffffffff8214156137d6576137d56137e1565b5b600182019050919050565b7f4e487b7100000000000000000000000000000000000000000000000000000000600052601160045260246000fd5b7f4e487b7100000000000000000000000000000000000000000000000000000000600052601260045260246000fd5b7f4e487b7100000000000000000000000000000000000000000000000000000000600052602260045260246000fd5b7f4e487b7100000000000000000000000000000000000000000000000000000000600052603260045260246000fd5b7f4e487b7100000000000000000000000000000000000000000000000000000000600052604160045260246000fd5b600080fd5b600080fd5b600080fd5b600080fd5b600080fd5b600080fd5b6000601f19601f8301169050919050565b7f455243313135353a2062616c616e636520717565727920666f7220746865207a60008201527f65726f2061646472657373000000000000000000000000000000000000000000602082015250565b7f4f776e61626c653a206e6577206f776e657220697320746865207a65726f206160008201527f6464726573730000000000000000000000000000000000000000000000000000602082015250565b7f4f776e61626c653a2063616c6c6572206973206e6f7420746865206f776e6572600082015250565b7f455243313135353a206163636f756e747320616e6420696473206c656e67746860008201527f206d69736d617463680000000000000000000000000000000000000000000000602082015250565b613a1a8161365b565b8114613a2557600080fd5b50565b613a318161366d565b8114613a3c57600080fd5b50565b613a488161367f565b8114613a5357600080fd5b50565b613a5f8161368b565b8114613a6a57600080fd5b50565b613a76816136d7565b8114613a8157600080fd5b5056fea2646970667358221220091da4ebd70202eb2bbca4f3aea4795ef59667f0b7c07cec01ce111c304595e764736f6c63430008070033",
  "immutableReferences": {},
  "source": "// SPDX-License-Identifier: MIT\npragma solidity ^0.8.0;\n\nimport \"./creatortokenfees.sol\";\n\n/// @title Computes buy proceeds and total proceeds associated with a buy transaction\n/// @author Kamil Alizai Sadik\ncontract CreatorTokenComputation is CreatorTokenFees {\n\n\tconstructor(string memory uri) CreatorTokenFees(uri) { }\n\n\t/// @dev Calculates total transaction proceeds\n\t/// @param _tokenId ID of the token being transacted\n\t/// @param _amount Quantity of the token being transacted\n\t/// @return Total proceeds required in transaction\n\tfunction _totalProceeds(uint _tokenId, uint _amount) public view returns (uint256) {//, uint256, uint256) {//[3] memory) {\n\t\t// Compute proceedsRequired (ex-fees)\n\t\tuint proceedsRequired = _buyProceeds(_tokenId, _amount);\n\t\t// Compute feeRequired\n\t\tuint feeRequired = _feeProceeds(proceedsRequired);\n\t\t// Compute total proceeds required\n\t\tuint totalProceeds = proceedsRequired + feeRequired;\n\t\treturn totalProceeds;\n\t}\n\n\t/// @dev Calculates proceeds required for a given buy transaction (not including fees)\n\t/// @param _tokenId ID of the token being transacted\n\t/// @param _amount Quantity of the token being transacted\n\t/// @return Proceeds required in the transaction (before fees)\n\tfunction _buyProceeds(uint _tokenId, uint _amount) public view returns (uint256) {\n\t\t// Initialize proceeds required;\n\t\tuint proceedsRequired = 0;\n\t\t// Initialize pre-transaction supply\n\t\tuint startingSupply = creatorTokens[_tokenId].outstanding;\n\t\t// Compute post-transaction supply\n\t\tuint endSupply = startingSupply + _amount;\n\t\t// Compute buy proceeds\n\t\t// Check if endSupply <= maxSupply\n\t\tif (endSupply < creatorTokens[_tokenId].maxSupply) {\n\t\t\t// Scenario in which entire transaction takes place below maxSupply\n\t\t\t// Just call s(x)\n\t\t\t//proceedsRequired = _saleFunction(startingSupply, _amount, mNumerator, mDenominator, creatorTokens[_tokenId].maxSupply, profitMargin);\n\t\t\tproceedsRequired = _saleFunction(endSupply, _amount, mNumerator, mDenominator, creatorTokens[_tokenId].maxSupply, profitMargin);\n\t\t} else if (startingSupply < creatorTokens[_tokenId].maxSupply){\n\t\t\t// Scenario in which supply begins below maxSupply and ends above pre-transaction maxSupply\n\t\t\t// Use s(x) from startingSupply to maxSupply\n\t\t\tproceedsRequired = _saleFunction(creatorTokens[_tokenId].maxSupply, creatorTokens[_tokenId].maxSupply - startingSupply, mNumerator, mDenominator, creatorTokens[_tokenId].maxSupply, profitMargin);\n\t\t\t// Use b(x) from maxSupply to endSupply\n\t\t\tproceedsRequired += _buyFunction(creatorTokens[_tokenId].maxSupply, _amount - (creatorTokens[_tokenId].maxSupply - startingSupply), mNumerator, mDenominator);\n\t\t} else {\n\t\t\t// Scenario in which transaction begins at maxSupply\n\t\t\t// Just call b(x)\n\t\t\tproceedsRequired = _buyFunction(startingSupply, _amount, mNumerator, mDenominator);\n\t\t}\n\t\t// Return proceeds required\n\t\treturn proceedsRequired;\n\t}\n}",
  "sourcePath": "/Users/kamilalizaisadik/DeFi/Dynamic Automated Market Maker/CreatorTokenExchange/contracts/creatortokencomputation.sol",
  "compiler": {
    "name": "solc",
    "version": "0.8.7+commit.e28d00a7.Emscripten.clang"
  },
  "schemaVersion": "3.4.1",
  "updatedAt": "2021-08-14T13:08:18.356Z",
  "devdoc": {
    "author": "Kamil Alizai Sadik",
    "kind": "dev",
    "methods": {
      "_buyProceeds(uint256,uint256)": {
        "details": "Calculates proceeds required for a given buy transaction (not including fees)",
        "params": {
          "_amount": "Quantity of the token being transacted",
          "_tokenId": "ID of the token being transacted"
        },
        "returns": {
          "_0": "Proceeds required in the transaction (before fees)"
        }
      },
      "_feeProceeds(uint256)": {
        "details": "Calculates the fee associated with a buy transaction",
        "params": {
          "_proceedsRequired": "The proceeds required for the buy transaction (before addition of fees)"
        },
        "returns": {
          "_0": "Fee associated with transaction"
        }
      },
      "_saleFunction(uint256,uint256,uint256,uint256,uint256,uint256)": {
        "details": "Calculates area under sale price function",
        "params": {
          "_amount": "Amount of token being transacted",
          "_mDenominator": "Denominator of the slope of the buy price function",
          "_mNumerator": "Numerator of the slope of the buy price function",
          "_maxSupply": "Peak level of supply of the token to date",
          "_profitMargin": "percentage of total revenue generated routed to creator",
          "_startingSupply": "Supply of token in circulation before the transaction"
        },
        "returns": {
          "_0": "Area under sale price function denoting total proceeds received when selling _amount tokens (before fees)"
        }
      },
      "_totalProceeds(uint256,uint256)": {
        "details": "Calculates total transaction proceeds",
        "params": {
          "_amount": "Quantity of the token being transacted",
          "_tokenId": "ID of the token being transacted"
        },
        "returns": {
          "_0": "Total proceeds required in transaction"
        }
      },
      "balanceOf(address,uint256)": {
        "details": "See {IERC1155-balanceOf}. Requirements: - `account` cannot be the zero address."
      },
      "balanceOfBatch(address[],uint256[])": {
        "details": "See {IERC1155-balanceOfBatch}. Requirements: - `accounts` and `ids` must have the same length."
      },
      "changeAddress(uint256,address)": {
        "details": "Allows token creator to change their address",
        "params": {
          "_newCreatorAddress": "New creator address associated with the token",
          "_tokenId": "ID of the token in question"
        }
      },
      "changeDescription(uint256,string)": {
        "details": "Allows token creator to change the description of their token",
        "params": {
          "_newDescription": "New description associated with the token",
          "_tokenId": "ID of the token in question"
        }
      },
      "changeName(uint256,string)": {
        "details": "Allows token creator to change the name of their token",
        "params": {
          "_newName": "New name associated with the token",
          "_tokenId": "ID of the token in question"
        }
      },
      "changePlatformFee(uint256)": {
        "details": "Allows owner to change platformFee",
        "params": {
          "_newPlatformFee": "New platform fee"
        }
      },
      "changeProfitMargin(uint256)": {
        "details": "Allows owner to change profit_margin",
        "params": {
          "_newProfitMargin": "New profit margin"
        }
      },
      "changeSymbol(uint256,string)": {
        "details": "Allows token creator to change the symbol of their token",
        "params": {
          "_newSymbol": "New symbol associated with the token",
          "_tokenId": "ID of the token in question"
        }
      },
      "changeVerification(uint256,bool)": {
        "details": "Allows owner to verify (or undo verification) of a CreatorToken",
        "params": {
          "_tokenId": "ID of the token in question",
          "_verified": "Verification status of the token in question"
        }
      },
      "createCreatorToken(address,string,string,string)": {
        "details": "Creates a new creator token",
        "params": {
          "_creatorAddress": "Address of the creator of the token",
          "_description": "chosen by the creator of the tokens",
          "_name": "Name chosen by the creator of the token",
          "_symbol": "Ticker symbol chosen by the creator of the token"
        }
      },
      "getCreatorTokenCount()": {
        "details": "Returns the current length of the creatorTokens array",
        "returns": {
          "_0": "uint representing number of unique Creator Tokens"
        }
      },
      "isApprovedForAll(address,address)": {
        "details": "Denotes whether operator is approved to transfer account's tokens",
        "params": {
          "_account": "Wallet address holding tokens",
          "_operator": "Wallet address which is/isn't approved to transfer _account's tokens"
        },
        "returns": {
          "_0": "Boolean value indicating approval status"
        }
      },
      "owner()": {
        "details": "Returns the address of the current owner."
      },
      "payoutPlatformFees(address)": {
        "details": "Pays out platform fees owed to owner (might opt to call this daily)",
        "params": {
          "_owner": "Owner of the smart contract"
        }
      },
      "renounceOwnership()": {
        "details": "Leaves the contract without owner. It will not be possible to call `onlyOwner` functions anymore. Can only be called by the current owner. NOTE: Renouncing ownership will leave the contract without an owner, thereby removing any functionality that is only available to the owner."
      },
      "safeBatchTransferFrom(address,address,uint256[],uint256[],bytes)": {
        "details": "Transfers a batch of tokens",
        "params": {
          "_amounts": "Array of quantities of token to be transferred",
          "_data": "Data",
          "_from": "Address token is being transferred from",
          "_ids": "Array of IDs of tokens being transferred",
          "_to": "Address token is being transferred to"
        }
      },
      "safeTransferFrom(address,address,uint256,uint256,bytes)": {
        "details": "Transfers a token",
        "params": {
          "_amount": "Quantity of token to be transferred",
          "_data": "Data",
          "_from": "Address token is being transferred from",
          "_id": "ID of token being transferred",
          "_to": "Address token is being transferred to"
        }
      },
      "setApprovalForAll(address,bool)": {
        "details": "Gives operator permission to transfer caller's tokens",
        "params": {
          "_approved": "Boolean value indicating whether operator is approved",
          "_operator": "Wallet address being granted permission"
        }
      },
      "supportsInterface(bytes4)": {
        "details": "See {IERC165-supportsInterface}."
      },
      "transferOwnership(address)": {
        "details": "Transfers ownership of the contract to a new account (`newOwner`). Can only be called by the current owner."
      },
      "uri(uint256)": {
        "details": "See {IERC1155MetadataURI-uri}. This implementation returns the same URI for *all* token types. It relies on the token type ID substitution mechanism https://eips.ethereum.org/EIPS/eip-1155#metadata[defined in the EIP]. Clients calling this function must replace the `\\{id\\}` substring with the actual token type ID."
      },
      "withdraw(address)": {
        "details": "Ownable function allowing for withdrawal",
        "params": {
          "_owner": "Owner of the smart contract"
        }
      }
    },
    "title": "Computes buy proceeds and total proceeds associated with a buy transaction",
    "version": 1
  },
  "userdoc": {
    "kind": "user",
    "methods": {},
    "version": 1
  }
}