{
  "contractName": "CreatorTokenFactory",
  "abi": [
    {
      "anonymous": false,
      "inputs": [
        {
          "indexed": false,
          "internalType": "uint256",
          "name": "tokenId",
          "type": "uint256"
        },
        {
          "indexed": false,
          "internalType": "address payable",
          "name": "creatorAddress",
          "type": "address"
        },
        {
          "indexed": false,
          "internalType": "string",
          "name": "name",
          "type": "string"
        },
        {
          "indexed": false,
          "internalType": "string",
          "name": "symbol",
          "type": "string"
        },
        {
          "indexed": false,
          "internalType": "string",
          "name": "description",
          "type": "string"
        },
        {
          "indexed": false,
          "internalType": "bool",
          "name": "verified",
          "type": "bool"
        },
        {
          "indexed": false,
          "internalType": "uint256",
          "name": "outstanding",
          "type": "uint256"
        },
        {
          "indexed": false,
          "internalType": "uint256",
          "name": "maxSupply",
          "type": "uint256"
        }
      ],
      "name": "NewCreatorToken",
      "type": "event"
    },
    {
      "anonymous": false,
      "inputs": [
        {
          "indexed": true,
          "internalType": "address",
          "name": "previousOwner",
          "type": "address"
        },
        {
          "indexed": true,
          "internalType": "address",
          "name": "newOwner",
          "type": "address"
        }
      ],
      "name": "OwnershipTransferred",
      "type": "event"
    },
    {
      "inputs": [
        {
          "internalType": "address",
          "name": "",
          "type": "address"
        },
        {
          "internalType": "address",
          "name": "",
          "type": "address"
        }
      ],
      "name": "approvals",
      "outputs": [
        {
          "internalType": "bool",
          "name": "",
          "type": "bool"
        }
      ],
      "stateMutability": "view",
      "type": "function"
    },
    {
      "inputs": [
        {
          "internalType": "uint256",
          "name": "",
          "type": "uint256"
        }
      ],
      "name": "creatorTokens",
      "outputs": [
        {
          "internalType": "address payable",
          "name": "creatorAddress",
          "type": "address"
        },
        {
          "internalType": "string",
          "name": "name",
          "type": "string"
        },
        {
          "internalType": "string",
          "name": "symbol",
          "type": "string"
        },
        {
          "internalType": "string",
          "name": "description",
          "type": "string"
        },
        {
          "internalType": "bool",
          "name": "verified",
          "type": "bool"
        },
        {
          "internalType": "uint256",
          "name": "outstanding",
          "type": "uint256"
        },
        {
          "internalType": "uint256",
          "name": "maxSupply",
          "type": "uint256"
        },
        {
          "internalType": "uint256",
          "name": "lastPrice",
          "type": "uint256"
        },
        {
          "internalType": "uint256",
          "name": "creatorTokenId",
          "type": "uint256"
        }
      ],
      "stateMutability": "view",
      "type": "function"
    },
    {
      "inputs": [],
      "name": "numCreatorTokens",
      "outputs": [
        {
          "internalType": "uint256",
          "name": "",
          "type": "uint256"
        }
      ],
      "stateMutability": "view",
      "type": "function"
    },
    {
      "inputs": [],
      "name": "owner",
      "outputs": [
        {
          "internalType": "address",
          "name": "",
          "type": "address"
        }
      ],
      "stateMutability": "view",
      "type": "function"
    },
    {
      "inputs": [],
      "name": "platformFeesOwed",
      "outputs": [
        {
          "internalType": "uint256",
          "name": "",
          "type": "uint256"
        }
      ],
      "stateMutability": "view",
      "type": "function"
    },
    {
      "inputs": [],
      "name": "renounceOwnership",
      "outputs": [],
      "stateMutability": "nonpayable",
      "type": "function"
    },
    {
      "inputs": [
        {
          "internalType": "uint256",
          "name": "",
          "type": "uint256"
        },
        {
          "internalType": "address",
          "name": "",
          "type": "address"
        }
      ],
      "name": "tokenHoldership",
      "outputs": [
        {
          "internalType": "uint256",
          "name": "",
          "type": "uint256"
        }
      ],
      "stateMutability": "view",
      "type": "function"
    },
    {
      "inputs": [
        {
          "internalType": "uint256",
          "name": "",
          "type": "uint256"
        }
      ],
      "name": "tokenToCreator",
      "outputs": [
        {
          "internalType": "address",
          "name": "",
          "type": "address"
        }
      ],
      "stateMutability": "view",
      "type": "function"
    },
    {
      "inputs": [
        {
          "internalType": "uint256",
          "name": "",
          "type": "uint256"
        }
      ],
      "name": "tokenValueTransferred",
      "outputs": [
        {
          "internalType": "uint256",
          "name": "",
          "type": "uint256"
        }
      ],
      "stateMutability": "view",
      "type": "function"
    },
    {
      "inputs": [],
      "name": "totalPlatformFees",
      "outputs": [
        {
          "internalType": "uint256",
          "name": "",
          "type": "uint256"
        }
      ],
      "stateMutability": "view",
      "type": "function"
    },
    {
      "inputs": [
        {
          "internalType": "uint256",
          "name": "",
          "type": "uint256"
        }
      ],
      "name": "totalValueLocked",
      "outputs": [
        {
          "internalType": "uint256",
          "name": "",
          "type": "uint256"
        }
      ],
      "stateMutability": "view",
      "type": "function"
    },
    {
      "inputs": [
        {
          "internalType": "address",
          "name": "newOwner",
          "type": "address"
        }
      ],
      "name": "transferOwnership",
      "outputs": [],
      "stateMutability": "nonpayable",
      "type": "function"
    },
    {
      "inputs": [
        {
          "internalType": "address",
          "name": "",
          "type": "address"
        },
        {
          "internalType": "uint256",
          "name": "",
          "type": "uint256"
        }
      ],
      "name": "userToHoldings",
      "outputs": [
        {
          "internalType": "uint256",
          "name": "",
          "type": "uint256"
        }
      ],
      "stateMutability": "view",
      "type": "function"
    },
    {
      "inputs": [
        {
          "internalType": "address payable",
          "name": "_creatorAddress",
          "type": "address"
        },
        {
          "internalType": "string",
          "name": "_name",
          "type": "string"
        },
        {
          "internalType": "string",
          "name": "_symbol",
          "type": "string"
        },
        {
          "internalType": "string",
          "name": "_description",
          "type": "string"
        }
      ],
      "name": "createCreatorToken",
      "outputs": [],
      "stateMutability": "nonpayable",
      "type": "function"
    },
    {
      "inputs": [],
      "name": "getCreatorTokenCount",
      "outputs": [
        {
          "internalType": "uint256",
          "name": "",
          "type": "uint256"
        }
      ],
      "stateMutability": "view",
      "type": "function"
    }
  ],
  "bytecode": "0x608060405260018055600060025560006003556000600455601460055565082f79cd900060065560b960075534801561003757600080fd5b5060006100486100eb60201b60201c565b9050806000806101000a81548173ffffffffffffffffffffffffffffffffffffffff021916908373ffffffffffffffffffffffffffffffffffffffff1602179055508073ffffffffffffffffffffffffffffffffffffffff16600073ffffffffffffffffffffffffffffffffffffffff167f8be0079c531659141344cd1fd0a4f28419497f9722a3daafe3b4186f6b6457e060405160405180910390a3506100f3565b600033905090565b61143f806101026000396000f3fe608060405234801561001057600080fd5b50600436106100f55760003560e01c8063afb2183211610097578063d3631fa511610066578063d3631fa5146102a4578063d56b72c7146102c2578063d9bd3a40146102de578063f2fde38b1461030e576100f5565b8063afb2183214610200578063bfb48c9c1461021e578063c1d330491461024e578063ce901d8a1461026c576100f5565b8063715018a6116100d3578063715018a6146101785780638da5cb5b1461018257806392724afa146101a0578063a32ce11e146101d0576100f5565b806317bcaa08146100fa57806318892ae81461012a5780632a2b237c1461015a575b600080fd5b610114600480360381019061010f9190610e49565b61032a565b6040516101219190611098565b60405180910390f35b610144600480360381019061013f9190610e49565b610342565b6040516101519190610f80565b60405180910390f35b610162610375565b60405161016f9190611098565b60405180910390f35b610180610382565b005b61018a6104bc565b6040516101979190610f80565b60405180910390f35b6101ba60048036038101906101b59190610e09565b6104e5565b6040516101c79190611098565b60405180910390f35b6101ea60048036038101906101e59190610dc9565b61050a565b6040516101f7919061103d565b60405180910390f35b610208610539565b6040516102159190611098565b60405180910390f35b61023860048036038101906102339190610e76565b61053f565b6040516102459190611098565b60405180910390f35b610256610564565b6040516102639190611098565b60405180910390f35b61028660048036038101906102819190610e49565b61056a565b60405161029b99989796959493929190610f9b565b60405180910390f35b6102ac61078d565b6040516102b99190611098565b60405180910390f35b6102dc60048036038101906102d79190610d0e565b610793565b005b6102f860048036038101906102f39190610e49565b6109c6565b6040516103059190611098565b60405180910390f35b61032860048036038101906103239190610ce1565b6109de565b005b600a6020528060005260406000206000915090505481565b60096020528060005260406000206000915054906101000a900473ffffffffffffffffffffffffffffffffffffffff1681565b6000600880549050905090565b61038a610b87565b73ffffffffffffffffffffffffffffffffffffffff166103a86104bc565b73ffffffffffffffffffffffffffffffffffffffff16146103fe576040517f08c379a00000000000000000000000000000000000000000000000000000000081526004016103f590611078565b60405180910390fd5b600073ffffffffffffffffffffffffffffffffffffffff1660008054906101000a900473ffffffffffffffffffffffffffffffffffffffff1673ffffffffffffffffffffffffffffffffffffffff167f8be0079c531659141344cd1fd0a4f28419497f9722a3daafe3b4186f6b6457e060405160405180910390a360008060006101000a81548173ffffffffffffffffffffffffffffffffffffffff021916908373ffffffffffffffffffffffffffffffffffffffff160217905550565b60008060009054906101000a900473ffffffffffffffffffffffffffffffffffffffff16905090565b600c602052816000526040600020602052806000526040600020600091509150505481565b600d6020528160005260406000206020528060005260406000206000915091509054906101000a900460ff1681565b60045481565b600b602052816000526040600020602052806000526040600020600091509150505481565b60035481565b6008818154811061057a57600080fd5b90600052602060002090600902016000915090508060000160009054906101000a900473ffffffffffffffffffffffffffffffffffffffff16908060010180546105c390611266565b80601f01602080910402602001604051908101604052809291908181526020018280546105ef90611266565b801561063c5780601f106106115761010080835404028352916020019161063c565b820191906000526020600020905b81548152906001019060200180831161061f57829003601f168201915b50505050509080600201805461065190611266565b80601f016020809104026020016040519081016040528092919081815260200182805461067d90611266565b80156106ca5780601f1061069f576101008083540402835291602001916106ca565b820191906000526020600020905b8154815290600101906020018083116106ad57829003601f168201915b5050505050908060030180546106df90611266565b80601f016020809104026020016040519081016040528092919081815260200182805461070b90611266565b80156107585780601f1061072d57610100808354040283529160200191610758565b820191906000526020600020905b81548152906001019060200180831161073b57829003601f168201915b5050505050908060040160009054906101000a900460ff16908060050154908060060154908060070154908060080154905089565b60025481565b6000600880549050905060086040518061012001604052808773ffffffffffffffffffffffffffffffffffffffff16815260200186815260200185815260200184815260200160001515815260200160008152602001600081526020016000815260200183815250908060018154018082558091505060019003906000526020600020906009020160009091909190915060008201518160000160006101000a81548173ffffffffffffffffffffffffffffffffffffffff021916908373ffffffffffffffffffffffffffffffffffffffff1602179055506020820151816001019080519060200190610887929190610b8f565b5060408201518160020190805190602001906108a4929190610b8f565b5060608201518160030190805190602001906108c1929190610b8f565b5060808201518160040160006101000a81548160ff02191690831515021790555060a0820151816005015560c0820151816006015560e0820151816007015561010082015181600801555050846009600083815260200190815260200160002060006101000a81548173ffffffffffffffffffffffffffffffffffffffff021916908373ffffffffffffffffffffffffffffffffffffffff1602179055506000600a6000838152602001908152602001600020819055507f3ef624c0f3fb7ad40b94c02078ea3e3a797dbfc21e921ee4bd2b8ad0ca6aa113818686868660008060006040516109b79897969594939291906110b3565b60405180910390a15050505050565b600e6020528060005260406000206000915090505481565b6109e6610b87565b73ffffffffffffffffffffffffffffffffffffffff16610a046104bc565b73ffffffffffffffffffffffffffffffffffffffff1614610a5a576040517f08c379a0000000000000000000000000000000000000000000000000000000008152600401610a5190611078565b60405180910390fd5b600073ffffffffffffffffffffffffffffffffffffffff168173ffffffffffffffffffffffffffffffffffffffff161415610aca576040517f08c379a0000000000000000000000000000000000000000000000000000000008152600401610ac190611058565b60405180910390fd5b8073ffffffffffffffffffffffffffffffffffffffff1660008054906101000a900473ffffffffffffffffffffffffffffffffffffffff1673ffffffffffffffffffffffffffffffffffffffff167f8be0079c531659141344cd1fd0a4f28419497f9722a3daafe3b4186f6b6457e060405160405180910390a3806000806101000a81548173ffffffffffffffffffffffffffffffffffffffff021916908373ffffffffffffffffffffffffffffffffffffffff16021790555050565b600033905090565b828054610b9b90611266565b90600052602060002090601f016020900481019282610bbd5760008555610c04565b82601f10610bd657805160ff1916838001178555610c04565b82800160010185558215610c04579182015b82811115610c03578251825591602001919060010190610be8565b5b509050610c119190610c15565b5090565b5b80821115610c2e576000816000905550600101610c16565b5090565b6000610c45610c408461116b565b611146565b905082815260208101848484011115610c6157610c6061132c565b5b610c6c848285611224565b509392505050565b600081359050610c83816113c4565b92915050565b600081359050610c98816113db565b92915050565b600082601f830112610cb357610cb2611327565b5b8135610cc3848260208601610c32565b91505092915050565b600081359050610cdb816113f2565b92915050565b600060208284031215610cf757610cf6611336565b5b6000610d0584828501610c74565b91505092915050565b60008060008060808587031215610d2857610d27611336565b5b6000610d3687828801610c89565b945050602085013567ffffffffffffffff811115610d5757610d56611331565b5b610d6387828801610c9e565b935050604085013567ffffffffffffffff811115610d8457610d83611331565b5b610d9087828801610c9e565b925050606085013567ffffffffffffffff811115610db157610db0611331565b5b610dbd87828801610c9e565b91505092959194509250565b60008060408385031215610de057610ddf611336565b5b6000610dee85828601610c74565b9250506020610dff85828601610c74565b9150509250929050565b60008060408385031215610e2057610e1f611336565b5b6000610e2e85828601610c74565b9250506020610e3f85828601610ccc565b9150509250929050565b600060208284031215610e5f57610e5e611336565b5b6000610e6d84828501610ccc565b91505092915050565b60008060408385031215610e8d57610e8c611336565b5b6000610e9b85828601610ccc565b9250506020610eac85828601610c74565b9150509250929050565b610ebf816111ca565b82525050565b610ece816111b8565b82525050565b610edd816111dc565b82525050565b610eec81611212565b82525050565b6000610efd8261119c565b610f0781856111a7565b9350610f17818560208601611233565b610f208161133b565b840191505092915050565b6000610f386026836111a7565b9150610f438261134c565b604082019050919050565b6000610f5b6020836111a7565b9150610f668261139b565b602082019050919050565b610f7a81611208565b82525050565b6000602082019050610f956000830184610ec5565b92915050565b600061012082019050610fb1600083018c610eb6565b8181036020830152610fc3818b610ef2565b90508181036040830152610fd7818a610ef2565b90508181036060830152610feb8189610ef2565b9050610ffa6080830188610ed4565b61100760a0830187610f71565b61101460c0830186610f71565b61102160e0830185610f71565b61102f610100830184610f71565b9a9950505050505050505050565b60006020820190506110526000830184610ed4565b92915050565b6000602082019050818103600083015261107181610f2b565b9050919050565b6000602082019050818103600083015261109181610f4e565b9050919050565b60006020820190506110ad6000830184610f71565b92915050565b6000610100820190506110c9600083018b610f71565b6110d6602083018a610eb6565b81810360408301526110e88189610ef2565b905081810360608301526110fc8188610ef2565b905081810360808301526111108187610ef2565b905061111f60a0830186610ed4565b61112c60c0830185610ee3565b61113960e0830184610ee3565b9998505050505050505050565b6000611150611161565b905061115c8282611298565b919050565b6000604051905090565b600067ffffffffffffffff821115611186576111856112f8565b5b61118f8261133b565b9050602081019050919050565b600081519050919050565b600082825260208201905092915050565b60006111c3826111e8565b9050919050565b60006111d5826111e8565b9050919050565b60008115159050919050565b600073ffffffffffffffffffffffffffffffffffffffff82169050919050565b6000819050919050565b600061121d82611208565b9050919050565b82818337600083830152505050565b60005b83811015611251578082015181840152602081019050611236565b83811115611260576000848401525b50505050565b6000600282049050600182168061127e57607f821691505b60208210811415611292576112916112c9565b5b50919050565b6112a18261133b565b810181811067ffffffffffffffff821117156112c0576112bf6112f8565b5b80604052505050565b7f4e487b7100000000000000000000000000000000000000000000000000000000600052602260045260246000fd5b7f4e487b7100000000000000000000000000000000000000000000000000000000600052604160045260246000fd5b600080fd5b600080fd5b600080fd5b600080fd5b6000601f19601f8301169050919050565b7f4f776e61626c653a206e6577206f776e657220697320746865207a65726f206160008201527f6464726573730000000000000000000000000000000000000000000000000000602082015250565b7f4f776e61626c653a2063616c6c6572206973206e6f7420746865206f776e6572600082015250565b6113cd816111b8565b81146113d857600080fd5b50565b6113e4816111ca565b81146113ef57600080fd5b50565b6113fb81611208565b811461140657600080fd5b5056fea2646970667358221220b28e94b749a92afdc989143e682b27261886a34a24a0ad9af6ce93fa7b3c321364736f6c63430008070033",
  "immutableReferences": {},
  "source": "// SPDX-License-Identifier: MIT\npragma solidity ^0.8.0;\n\nimport \"@openzeppelin/contracts/access/Ownable.sol\";\n\n/// @title A contract generating Creator Tokens, as well as relevant attributes and mappings\n/// @author Kamil Alizai Sadik\ncontract CreatorTokenFactory is Ownable {\n\n\t// Event that fires whenever a new CreatorToken is created\n\tevent NewCreatorToken(uint tokenId, address payable creatorAddress, string name, string symbol, string description, bool verified, uint outstanding, uint maxSupply);\n\n\t// Pay-on-top style platform fee on each transaction\n\tuint platformFee = 1; // e.g., if platformFee == 1, the platform earns 1% of each transaction's value\n\t// Variable to track total platform fees generated\n\tuint public totalPlatformFees = 0;\n\t// Variable to track platform fees owed, but not yet paid to owner\n\tuint public platformFeesOwed = 0;\n\t// Variable to track number of unique creator tokens\n\tuint public numCreatorTokens = 0;\n\n\t// Profit margin (percentage of total revenue) directed toward creator\n\tuint profitMargin = 20;\n\n\t// Slope of buy price function\n\tuint mNumerator = 9000000000000;\n\tuint mDenominator = 185;\n\n\t// Struct containing CreatorToken attributes\n\tstruct CreatorToken {\n\t\taddress payable creatorAddress;\n\t\tstring name;\n\t\tstring symbol;\n\t\tstring description;\n\t\tbool verified;\n\t\tuint outstanding;\n\t\tuint maxSupply;\n\t\tuint lastPrice;\n\t\tuint creatorTokenId;\n\t}\n\n\t// Array of all CreatorTokens\n\tCreatorToken[] public creatorTokens;\n\n\t// Mapping from tokenId to creatorAddress\n\tmapping (uint => address) public tokenToCreator;\n\t// Mapping from tokenId to token value transferred to creator\n\tmapping (uint => uint) public tokenValueTransferred;\n\t// Mapping from tokenId to mapping from address to quantity of tokenId held\n\tmapping(uint256 => mapping(address => uint256)) public tokenHoldership;\n\t// Mapping from user to mapping from tokenId to quantity of that token the user owns (to show a user's portfolio without having to iterate through tokenHoldership)\n\tmapping(address => mapping(uint256 => uint256)) public userToHoldings;\n\t// Mapping from account to operator approvals\n\tmapping(address => mapping(address => bool)) public approvals;\n\t// Mapping from token to total value locked\n\tmapping (uint => uint) public totalValueLocked;\n\n\t/// @dev Creates a new creator token\n\t/// @param _creatorAddress Address of the creator of the token\n\t/// @param _name Name chosen by the creator of the token\n\t/// @param _symbol Ticker symbol chosen by the creator of the token\n\t/// @param _description chosen by the creator of the tokens\n\tfunction createCreatorToken(address payable _creatorAddress, string memory _name, string memory _symbol, string memory _description) public {\n\t\t// Create token id\n\t\tuint id = creatorTokens.length;\n\t\t// Add token to creatorTokens array\n\t\tcreatorTokens.push(CreatorToken(_creatorAddress, _name, _symbol, _description, false, 0, 0, 0, id));\n\t\t// Update number of creator tokens\n\t\t//numCreatorTokens = id+1;\n\t\t// Map from token id to creator's address\n\t\ttokenToCreator[id] = _creatorAddress;\n\t\t// Map from token id to amount of value transferred (0 at inception)\n\t\ttokenValueTransferred[id] = 0;\n\t\t// Emit token creation event\n\t\temit NewCreatorToken(id, _creatorAddress, _name, _symbol, _description, false, 0, 0);\n\t}\n\n\t/// @dev Returns the current length of the creatorTokens array\n\t/// @return uint representing number of unique Creator Tokens\n\tfunction getCreatorTokenCount() external view returns (uint) {\n\t\t// Return length of creatorTokens array\n\t\treturn creatorTokens.length;\n\t}\n}",
  "sourcePath": "/Users/kamilalizaisadik/DeFi/Dynamic Automated Market Maker/CreatorTokenExchange/contracts/creatortokenfactory.sol",
  "compiler": {
    "name": "solc",
    "version": "0.8.7+commit.e28d00a7.Emscripten.clang"
  },
  "schemaVersion": "3.4.1",
  "updatedAt": "2021-08-14T13:08:18.371Z",
  "devdoc": {
    "author": "Kamil Alizai Sadik",
    "kind": "dev",
    "methods": {
      "createCreatorToken(address,string,string,string)": {
        "details": "Creates a new creator token",
        "params": {
          "_creatorAddress": "Address of the creator of the token",
          "_description": "chosen by the creator of the tokens",
          "_name": "Name chosen by the creator of the token",
          "_symbol": "Ticker symbol chosen by the creator of the token"
        }
      },
      "getCreatorTokenCount()": {
        "details": "Returns the current length of the creatorTokens array",
        "returns": {
          "_0": "uint representing number of unique Creator Tokens"
        }
      },
      "owner()": {
        "details": "Returns the address of the current owner."
      },
      "renounceOwnership()": {
        "details": "Leaves the contract without owner. It will not be possible to call `onlyOwner` functions anymore. Can only be called by the current owner. NOTE: Renouncing ownership will leave the contract without an owner, thereby removing any functionality that is only available to the owner."
      },
      "transferOwnership(address)": {
        "details": "Transfers ownership of the contract to a new account (`newOwner`). Can only be called by the current owner."
      }
    },
    "title": "A contract generating Creator Tokens, as well as relevant attributes and mappings",
    "version": 1
  },
  "userdoc": {
    "kind": "user",
    "methods": {},
    "version": 1
  }
}