{
  "contractName": "LiquidityFactory",
  "abi": [
    {
      "anonymous": false,
      "inputs": [
        {
          "indexed": true,
          "internalType": "address",
          "name": "bidderAddress",
          "type": "address"
        },
        {
          "indexed": true,
          "internalType": "address",
          "name": "nftAddress",
          "type": "address"
        },
        {
          "indexed": false,
          "internalType": "uint256",
          "name": "weiPriceEach",
          "type": "uint256"
        },
        {
          "indexed": false,
          "internalType": "uint256",
          "name": "quantity",
          "type": "uint256"
        },
        {
          "indexed": false,
          "internalType": "uint256",
          "name": "tokenId",
          "type": "uint256"
        }
      ],
      "name": "BidCanceled",
      "type": "event"
    },
    {
      "anonymous": false,
      "inputs": [
        {
          "indexed": true,
          "internalType": "address",
          "name": "bidderAddress",
          "type": "address"
        },
        {
          "indexed": true,
          "internalType": "address",
          "name": "nftAddress",
          "type": "address"
        },
        {
          "indexed": false,
          "internalType": "uint256",
          "name": "weiPriceEach",
          "type": "uint256"
        },
        {
          "indexed": false,
          "internalType": "uint256",
          "name": "quantity",
          "type": "uint256"
        },
        {
          "indexed": false,
          "internalType": "uint256",
          "name": "tokenId",
          "type": "uint256"
        }
      ],
      "name": "NewBid",
      "type": "event"
    },
    {
      "anonymous": false,
      "inputs": [
        {
          "indexed": true,
          "internalType": "address",
          "name": "bidderAddress",
          "type": "address"
        },
        {
          "indexed": true,
          "internalType": "address",
          "name": "sellerAddress",
          "type": "address"
        },
        {
          "indexed": true,
          "internalType": "address",
          "name": "nftAddress",
          "type": "address"
        },
        {
          "indexed": false,
          "internalType": "uint256",
          "name": "weiPriceEach",
          "type": "uint256"
        },
        {
          "indexed": false,
          "internalType": "uint256",
          "name": "quantity",
          "type": "uint256"
        },
        {
          "indexed": false,
          "internalType": "uint256",
          "name": "tokenId",
          "type": "uint256"
        }
      ],
      "name": "NewTrade",
      "type": "event"
    },
    {
      "anonymous": false,
      "inputs": [
        {
          "indexed": true,
          "internalType": "address",
          "name": "previousOwner",
          "type": "address"
        },
        {
          "indexed": true,
          "internalType": "address",
          "name": "newOwner",
          "type": "address"
        }
      ],
      "name": "OwnershipTransferred",
      "type": "event"
    },
    {
      "inputs": [],
      "name": "maxPlatformFee",
      "outputs": [
        {
          "internalType": "uint256",
          "name": "",
          "type": "uint256"
        }
      ],
      "stateMutability": "view",
      "type": "function"
    },
    {
      "inputs": [],
      "name": "owner",
      "outputs": [
        {
          "internalType": "address",
          "name": "",
          "type": "address"
        }
      ],
      "stateMutability": "view",
      "type": "function"
    },
    {
      "inputs": [],
      "name": "platformFee",
      "outputs": [
        {
          "internalType": "uint256",
          "name": "",
          "type": "uint256"
        }
      ],
      "stateMutability": "view",
      "type": "function"
    },
    {
      "inputs": [],
      "name": "renounceOwnership",
      "outputs": [],
      "stateMutability": "nonpayable",
      "type": "function"
    },
    {
      "inputs": [
        {
          "internalType": "address",
          "name": "newOwner",
          "type": "address"
        }
      ],
      "name": "transferOwnership",
      "outputs": [],
      "stateMutability": "nonpayable",
      "type": "function"
    },
    {
      "inputs": [
        {
          "internalType": "address",
          "name": "_nftAddress",
          "type": "address"
        },
        {
          "internalType": "uint256",
          "name": "_quantity",
          "type": "uint256"
        }
      ],
      "name": "submitBid",
      "outputs": [],
      "stateMutability": "payable",
      "type": "function"
    },
    {
      "inputs": [
        {
          "internalType": "address",
          "name": "_nftAddress",
          "type": "address"
        }
      ],
      "name": "cancelBid",
      "outputs": [],
      "stateMutability": "nonpayable",
      "type": "function"
    },
    {
      "inputs": [
        {
          "internalType": "address",
          "name": "_bidderAddress",
          "type": "address"
        },
        {
          "internalType": "address",
          "name": "_nftAddress",
          "type": "address"
        },
        {
          "internalType": "uint256",
          "name": "_tokenId",
          "type": "uint256"
        },
        {
          "internalType": "uint256",
          "name": "_expectedWeiPriceEach",
          "type": "uint256"
        }
      ],
      "name": "hitBid",
      "outputs": [
        {
          "internalType": "uint256",
          "name": "",
          "type": "uint256"
        }
      ],
      "stateMutability": "nonpayable",
      "type": "function"
    },
    {
      "inputs": [
        {
          "internalType": "address[]",
          "name": "_bidderAddresses",
          "type": "address[]"
        },
        {
          "internalType": "address",
          "name": "_nftAddress",
          "type": "address"
        },
        {
          "internalType": "uint256[]",
          "name": "_tokenIds",
          "type": "uint256[]"
        },
        {
          "internalType": "uint256[]",
          "name": "_expectedWeiPriceEach",
          "type": "uint256[]"
        }
      ],
      "name": "hitMultipleBids",
      "outputs": [
        {
          "internalType": "uint256[]",
          "name": "",
          "type": "uint256[]"
        }
      ],
      "stateMutability": "nonpayable",
      "type": "function"
    },
    {
      "inputs": [
        {
          "internalType": "uint256",
          "name": "_newPlatformFee",
          "type": "uint256"
        }
      ],
      "name": "changePlatformFee",
      "outputs": [],
      "stateMutability": "nonpayable",
      "type": "function"
    },
    {
      "inputs": [],
      "name": "withdraw",
      "outputs": [],
      "stateMutability": "nonpayable",
      "type": "function"
    },
    {
      "inputs": [
        {
          "internalType": "address",
          "name": "_bidderAddress",
          "type": "address"
        },
        {
          "internalType": "address",
          "name": "_nftAddress",
          "type": "address"
        }
      ],
      "name": "getBid",
      "outputs": [
        {
          "components": [
            {
              "internalType": "uint256",
              "name": "weiPriceEach",
              "type": "uint256"
            },
            {
              "internalType": "uint256",
              "name": "quantity",
              "type": "uint256"
            }
          ],
          "internalType": "struct LiquidityFactory.Bid",
          "name": "",
          "type": "tuple"
        }
      ],
      "stateMutability": "view",
      "type": "function"
    },
    {
      "inputs": [
        {
          "internalType": "address[]",
          "name": "_bidderAddresses",
          "type": "address[]"
        },
        {
          "internalType": "address[]",
          "name": "_nftAddresses",
          "type": "address[]"
        }
      ],
      "name": "getBids",
      "outputs": [
        {
          "components": [
            {
              "internalType": "uint256",
              "name": "weiPriceEach",
              "type": "uint256"
            },
            {
              "internalType": "uint256",
              "name": "quantity",
              "type": "uint256"
            }
          ],
          "internalType": "struct LiquidityFactory.Bid[]",
          "name": "",
          "type": "tuple[]"
        }
      ],
      "stateMutability": "view",
      "type": "function"
    }
  ],
  "bytecode": "0x608060405260c86001556101f4600255600060035534801561002057600080fd5b5060006100316100d460201b60201c565b9050806000806101000a81548173ffffffffffffffffffffffffffffffffffffffff021916908373ffffffffffffffffffffffffffffffffffffffff1602179055508073ffffffffffffffffffffffffffffffffffffffff16600073ffffffffffffffffffffffffffffffffffffffff167f8be0079c531659141344cd1fd0a4f28419497f9722a3daafe3b4186f6b6457e060405160405180910390a3506100dc565b600033905090565b612465806100eb6000396000f3fe6080604052600436106100c25760003560e01c8063715018a61161007f578063d7a5791a11610059578063d7a5791a14610256578063f2a4f2d61461027f578063f2fde38b1461029b578063f7762b97146102c4576100c2565b8063715018a6146101d75780638da5cb5b146101ee578063a68c9bbb14610219576100c2565b806326232a2e146100c75780633ccfd60b146100f25780633f3a5027146101095780635646ad451461013257806362a6f6a61461016f5780636680a8731461019a575b600080fd5b3480156100d357600080fd5b506100dc610301565b6040516100e991906113ef565b60405180910390f35b3480156100fe57600080fd5b50610107610307565b005b34801561011557600080fd5b50610130600480360381019061012b919061147c565b6103a6565b005b34801561013e57600080fd5b5061015960048036038101906101549190611602565b6105b1565b6040516101669190611767565b60405180910390f35b34801561017b57600080fd5b50610184610723565b60405161019191906113ef565b60405180910390f35b3480156101a657600080fd5b506101c160048036038101906101bc91906117b5565b610729565b6040516101ce91906113ef565b60405180910390f35b3480156101e357600080fd5b506101ec610a47565b005b3480156101fa57600080fd5b50610203610b81565b604051610210919061182b565b60405180910390f35b34801561022557600080fd5b50610240600480360381019061023b9190611846565b610baa565b60405161024d91906118b5565b60405180910390f35b34801561026257600080fd5b5061027d600480360381019061027891906118d0565b610c55565b005b610299600480360381019061029491906118fd565b610d20565b005b3480156102a757600080fd5b506102c260048036038101906102bd919061147c565b610fd1565b005b3480156102d057600080fd5b506102eb60048036038101906102e69190611a00565b61117a565b6040516102f89190611b6a565b60405180910390f35b60015481565b61030f6112c0565b73ffffffffffffffffffffffffffffffffffffffff1661032d610b81565b73ffffffffffffffffffffffffffffffffffffffff1614610383576040517f08c379a000000000000000000000000000000000000000000000000000000000815260040161037a90611be9565b60405180910390fd5b6000600354905060006003819055506103a361039d610b81565b826112c8565b50565b6000600460003373ffffffffffffffffffffffffffffffffffffffff1673ffffffffffffffffffffffffffffffffffffffff16815260200190815260200160002060008373ffffffffffffffffffffffffffffffffffffffff1673ffffffffffffffffffffffffffffffffffffffff16815260200190815260200160002060405180604001604052908160008201548152602001600182015481525050905060008160200151826000015161045b9190611c38565b905060008114156104a1576040517f08c379a000000000000000000000000000000000000000000000000000000000815260040161049890611d04565b60405180910390fd5b600460003373ffffffffffffffffffffffffffffffffffffffff1673ffffffffffffffffffffffffffffffffffffffff16815260200190815260200160002060008473ffffffffffffffffffffffffffffffffffffffff1673ffffffffffffffffffffffffffffffffffffffff1681526020019081526020016000206000808201600090556001820160009055505061053a33826112c8565b8273ffffffffffffffffffffffffffffffffffffffff163373ffffffffffffffffffffffffffffffffffffffff167fac86862bd75c1a456d082679c83d18254b660d83b51a9351d80f1bbff667e9f08460000151856020015160006040516105a493929190611d69565b60405180910390a3505050565b60606000835167ffffffffffffffff8111156105d0576105cf6114bf565b5b60405190808252806020026020018201604052801561060957816020015b6105f66113bc565b8152602001906001900390816105ee5790505b50905060005b8451811015610718576004600086838151811061062f5761062e611da0565b5b602002602001015173ffffffffffffffffffffffffffffffffffffffff1673ffffffffffffffffffffffffffffffffffffffff168152602001908152602001600020600085838151811061068657610685611da0565b5b602002602001015173ffffffffffffffffffffffffffffffffffffffff1673ffffffffffffffffffffffffffffffffffffffff168152602001908152602001600020604051806040016040529081600082015481526020016001820154815250508282815181106106fa576106f9611da0565b5b6020026020010181905250808061071090611dcf565b91505061060f565b508091505092915050565b60025481565b600080600460008773ffffffffffffffffffffffffffffffffffffffff1673ffffffffffffffffffffffffffffffffffffffff16815260200190815260200160002060008673ffffffffffffffffffffffffffffffffffffffff1673ffffffffffffffffffffffffffffffffffffffff1681526020019081526020016000206040518060400160405290816000820154815260200160018201548152505090506000816020015111610810576040517f08c379a000000000000000000000000000000000000000000000000000000000815260040161080790611e64565b60405180910390fd5b8281600001511015610857576040517f08c379a000000000000000000000000000000000000000000000000000000000815260040161084e90611ed0565b60405180910390fd5b600181602001516108689190611ef0565b600460008873ffffffffffffffffffffffffffffffffffffffff1673ffffffffffffffffffffffffffffffffffffffff16815260200190815260200160002060008773ffffffffffffffffffffffffffffffffffffffff1673ffffffffffffffffffffffffffffffffffffffff16815260200190815260200160002060010181905550600061271060015483600001516109029190611c38565b61090c9190611f53565b905080600360008282546109209190611f84565b925050819055508573ffffffffffffffffffffffffffffffffffffffff166342842e0e3389886040518463ffffffff1660e01b815260040161096493929190611fda565b600060405180830381600087803b15801561097e57600080fd5b505af1158015610992573d6000803e3d6000fd5b5050505060008183600001516109a89190611ef0565b90506109b433826112c8565b8673ffffffffffffffffffffffffffffffffffffffff163373ffffffffffffffffffffffffffffffffffffffff168973ffffffffffffffffffffffffffffffffffffffff167f82e5eeacc4d7f1d267e5a406341bed50eebba642a88138ef034a9ccff864a99b866000015160018b604051610a319392919061204c565b60405180910390a4809350505050949350505050565b610a4f6112c0565b73ffffffffffffffffffffffffffffffffffffffff16610a6d610b81565b73ffffffffffffffffffffffffffffffffffffffff1614610ac3576040517f08c379a0000000000000000000000000000000000000000000000000000000008152600401610aba90611be9565b60405180910390fd5b600073ffffffffffffffffffffffffffffffffffffffff1660008054906101000a900473ffffffffffffffffffffffffffffffffffffffff1673ffffffffffffffffffffffffffffffffffffffff167f8be0079c531659141344cd1fd0a4f28419497f9722a3daafe3b4186f6b6457e060405160405180910390a360008060006101000a81548173ffffffffffffffffffffffffffffffffffffffff021916908373ffffffffffffffffffffffffffffffffffffffff160217905550565b60008060009054906101000a900473ffffffffffffffffffffffffffffffffffffffff16905090565b610bb26113bc565b600460008473ffffffffffffffffffffffffffffffffffffffff1673ffffffffffffffffffffffffffffffffffffffff16815260200190815260200160002060008373ffffffffffffffffffffffffffffffffffffffff1673ffffffffffffffffffffffffffffffffffffffff16815260200190815260200160002060405180604001604052908160008201548152602001600182015481525050905092915050565b610c5d6112c0565b73ffffffffffffffffffffffffffffffffffffffff16610c7b610b81565b73ffffffffffffffffffffffffffffffffffffffff1614610cd1576040517f08c379a0000000000000000000000000000000000000000000000000000000008152600401610cc890611be9565b60405180910390fd5b600254811115610d16576040517f08c379a0000000000000000000000000000000000000000000000000000000008152600401610d0d906120cf565b60405180910390fd5b8060018190555050565b6000600460003373ffffffffffffffffffffffffffffffffffffffff1673ffffffffffffffffffffffffffffffffffffffff16815260200190815260200160002060008473ffffffffffffffffffffffffffffffffffffffff1673ffffffffffffffffffffffffffffffffffffffff1681526020019081526020016000206040518060400160405290816000820154815260200160018201548152505090506000816020015114610e06576040517f08c379a0000000000000000000000000000000000000000000000000000000008152600401610dfd90612161565b60405180910390fd5b60003411610e49576040517f08c379a0000000000000000000000000000000000000000000000000000000008152600401610e40906121cd565b60405180910390fd5b60008234610e579190611f53565b905080600460003373ffffffffffffffffffffffffffffffffffffffff1673ffffffffffffffffffffffffffffffffffffffff16815260200190815260200160002060008673ffffffffffffffffffffffffffffffffffffffff1673ffffffffffffffffffffffffffffffffffffffff1681526020019081526020016000206000018190555082600460003373ffffffffffffffffffffffffffffffffffffffff1673ffffffffffffffffffffffffffffffffffffffff16815260200190815260200160002060008673ffffffffffffffffffffffffffffffffffffffff1673ffffffffffffffffffffffffffffffffffffffff168152602001908152602001600020600101819055508373ffffffffffffffffffffffffffffffffffffffff163373ffffffffffffffffffffffffffffffffffffffff167f911d834cc781bcb7a08922b9dd1f1d175c0a0467d9705194c2e200f8ce2786bb83866000604051610fc393929190611d69565b60405180910390a350505050565b610fd96112c0565b73ffffffffffffffffffffffffffffffffffffffff16610ff7610b81565b73ffffffffffffffffffffffffffffffffffffffff161461104d576040517f08c379a000000000000000000000000000000000000000000000000000000000815260040161104490611be9565b60405180910390fd5b600073ffffffffffffffffffffffffffffffffffffffff168173ffffffffffffffffffffffffffffffffffffffff1614156110bd576040517f08c379a00000000000000000000000000000000000000000000000000000000081526004016110b49061225f565b60405180910390fd5b8073ffffffffffffffffffffffffffffffffffffffff1660008054906101000a900473ffffffffffffffffffffffffffffffffffffffff1673ffffffffffffffffffffffffffffffffffffffff167f8be0079c531659141344cd1fd0a4f28419497f9722a3daafe3b4186f6b6457e060405160405180910390a3806000806101000a81548173ffffffffffffffffffffffffffffffffffffffff021916908373ffffffffffffffffffffffffffffffffffffffff16021790555050565b60608251855114801561118e575081518351145b6111cd576040517f08c379a00000000000000000000000000000000000000000000000000000000081526004016111c4906122cb565b60405180910390fd5b6000855167ffffffffffffffff8111156111ea576111e96114bf565b5b6040519080825280602002602001820160405280156112185781602001602082028036833780820191505090505b50905060005b86518110156112b35761128187828151811061123d5761123c611da0565b5b60200260200101518787848151811061125957611258611da0565b5b602002602001015187858151811061127457611273611da0565b5b6020026020010151610729565b82828151811061129457611293611da0565b5b60200260200101818152505080806112ab90611dcf565b91505061121e565b5080915050949350505050565b600033905090565b8047101561130b576040517f08c379a000000000000000000000000000000000000000000000000000000000815260040161130290612337565b60405180910390fd5b60008273ffffffffffffffffffffffffffffffffffffffff168260405161133190612388565b60006040518083038185875af1925050503d806000811461136e576040519150601f19603f3d011682016040523d82523d6000602084013e611373565b606091505b50509050806113b7576040517f08c379a00000000000000000000000000000000000000000000000000000000081526004016113ae9061240f565b60405180910390fd5b505050565b604051806040016040528060008152602001600081525090565b6000819050919050565b6113e9816113d6565b82525050565b600060208201905061140460008301846113e0565b92915050565b6000604051905090565b600080fd5b600080fd5b600073ffffffffffffffffffffffffffffffffffffffff82169050919050565b60006114498261141e565b9050919050565b6114598161143e565b811461146457600080fd5b50565b60008135905061147681611450565b92915050565b60006020828403121561149257611491611414565b5b60006114a084828501611467565b91505092915050565b600080fd5b6000601f19601f8301169050919050565b7f4e487b7100000000000000000000000000000000000000000000000000000000600052604160045260246000fd5b6114f7826114ae565b810181811067ffffffffffffffff82111715611516576115156114bf565b5b80604052505050565b600061152961140a565b905061153582826114ee565b919050565b600067ffffffffffffffff821115611555576115546114bf565b5b602082029050602081019050919050565b600080fd5b600061157e6115798461153a565b61151f565b905080838252602082019050602084028301858111156115a1576115a0611566565b5b835b818110156115ca57806115b68882611467565b8452602084019350506020810190506115a3565b5050509392505050565b600082601f8301126115e9576115e86114a9565b5b81356115f984826020860161156b565b91505092915050565b6000806040838503121561161957611618611414565b5b600083013567ffffffffffffffff81111561163757611636611419565b5b611643858286016115d4565b925050602083013567ffffffffffffffff81111561166457611663611419565b5b611670858286016115d4565b9150509250929050565b600081519050919050565b600082825260208201905092915050565b6000819050602082019050919050565b6116af816113d6565b82525050565b6040820160008201516116cb60008501826116a6565b5060208201516116de60208501826116a6565b50505050565b60006116f083836116b5565b60408301905092915050565b6000602082019050919050565b60006117148261167a565b61171e8185611685565b935061172983611696565b8060005b8381101561175a57815161174188826116e4565b975061174c836116fc565b92505060018101905061172d565b5085935050505092915050565b600060208201905081810360008301526117818184611709565b905092915050565b611792816113d6565b811461179d57600080fd5b50565b6000813590506117af81611789565b92915050565b600080600080608085870312156117cf576117ce611414565b5b60006117dd87828801611467565b94505060206117ee87828801611467565b93505060406117ff878288016117a0565b9250506060611810878288016117a0565b91505092959194509250565b6118258161143e565b82525050565b6000602082019050611840600083018461181c565b92915050565b6000806040838503121561185d5761185c611414565b5b600061186b85828601611467565b925050602061187c85828601611467565b9150509250929050565b60408201600082015161189c60008501826116a6565b5060208201516118af60208501826116a6565b50505050565b60006040820190506118ca6000830184611886565b92915050565b6000602082840312156118e6576118e5611414565b5b60006118f4848285016117a0565b91505092915050565b6000806040838503121561191457611913611414565b5b600061192285828601611467565b9250506020611933858286016117a0565b9150509250929050565b600067ffffffffffffffff821115611958576119576114bf565b5b602082029050602081019050919050565b600061197c6119778461193d565b61151f565b9050808382526020820190506020840283018581111561199f5761199e611566565b5b835b818110156119c857806119b488826117a0565b8452602084019350506020810190506119a1565b5050509392505050565b600082601f8301126119e7576119e66114a9565b5b81356119f7848260208601611969565b91505092915050565b60008060008060808587031215611a1a57611a19611414565b5b600085013567ffffffffffffffff811115611a3857611a37611419565b5b611a44878288016115d4565b9450506020611a5587828801611467565b935050604085013567ffffffffffffffff811115611a7657611a75611419565b5b611a82878288016119d2565b925050606085013567ffffffffffffffff811115611aa357611aa2611419565b5b611aaf878288016119d2565b91505092959194509250565b600081519050919050565b600082825260208201905092915050565b6000819050602082019050919050565b6000611af383836116a6565b60208301905092915050565b6000602082019050919050565b6000611b1782611abb565b611b218185611ac6565b9350611b2c83611ad7565b8060005b83811015611b5d578151611b448882611ae7565b9750611b4f83611aff565b925050600181019050611b30565b5085935050505092915050565b60006020820190508181036000830152611b848184611b0c565b905092915050565b600082825260208201905092915050565b7f4f776e61626c653a2063616c6c6572206973206e6f7420746865206f776e6572600082015250565b6000611bd3602083611b8c565b9150611bde82611b9d565b602082019050919050565b60006020820190508181036000830152611c0281611bc6565b9050919050565b7f4e487b7100000000000000000000000000000000000000000000000000000000600052601160045260246000fd5b6000611c43826113d6565b9150611c4e836113d6565b9250817fffffffffffffffffffffffffffffffffffffffffffffffffffffffffffffffff0483118215151615611c8757611c86611c09565b5b828202905092915050565b7f596f752068617665206e6f206c697665206269647320666f722074686973206360008201527f6f6c6c656374696f6e2e00000000000000000000000000000000000000000000602082015250565b6000611cee602a83611b8c565b9150611cf982611c92565b604082019050919050565b60006020820190508181036000830152611d1d81611ce1565b9050919050565b6000819050919050565b6000819050919050565b6000611d53611d4e611d4984611d24565b611d2e565b6113d6565b9050919050565b611d6381611d38565b82525050565b6000606082019050611d7e60008301866113e0565b611d8b60208301856113e0565b611d986040830184611d5a565b949350505050565b7f4e487b7100000000000000000000000000000000000000000000000000000000600052603260045260246000fd5b6000611dda826113d6565b91507fffffffffffffffffffffffffffffffffffffffffffffffffffffffffffffffff821415611e0d57611e0c611c09565b5b600182019050919050565b7f546869732062696420646f6573206e6f742065786973742e0000000000000000600082015250565b6000611e4e601883611b8c565b9150611e5982611e18565b602082019050919050565b60006020820190508181036000830152611e7d81611e41565b9050919050565b7f42696420697320696e73756666696369656e742e000000000000000000000000600082015250565b6000611eba601483611b8c565b9150611ec582611e84565b602082019050919050565b60006020820190508181036000830152611ee981611ead565b9050919050565b6000611efb826113d6565b9150611f06836113d6565b925082821015611f1957611f18611c09565b5b828203905092915050565b7f4e487b7100000000000000000000000000000000000000000000000000000000600052601260045260246000fd5b6000611f5e826113d6565b9150611f69836113d6565b925082611f7957611f78611f24565b5b828204905092915050565b6000611f8f826113d6565b9150611f9a836113d6565b9250827fffffffffffffffffffffffffffffffffffffffffffffffffffffffffffffffff03821115611fcf57611fce611c09565b5b828201905092915050565b6000606082019050611fef600083018661181c565b611ffc602083018561181c565b61200960408301846113e0565b949350505050565b6000819050919050565b600061203661203161202c84612011565b611d2e565b6113d6565b9050919050565b6120468161201b565b82525050565b600060608201905061206160008301866113e0565b61206e602083018561203d565b61207b60408301846113e0565b949350505050565b7f43616e6e6f7420657863656564206d6178506c6174666f726d46656500000000600082015250565b60006120b9601c83611b8c565b91506120c482612083565b602082019050919050565b600060208201905081810360008301526120e8816120ac565b9050919050565b7f43616e63656c206578697374696e6720626964206265666f726520706c61636960008201527f6e672061206e6577206f6e652e00000000000000000000000000000000000000602082015250565b600061214b602d83611b8c565b9150612156826120ef565b604082019050919050565b6000602082019050818103600083015261217a8161213e565b9050919050565b7f4269642076616c7565206d757374206578636565642030204554482e00000000600082015250565b60006121b7601c83611b8c565b91506121c282612181565b602082019050919050565b600060208201905081810360008301526121e6816121aa565b9050919050565b7f4f776e61626c653a206e6577206f776e657220697320746865207a65726f206160008201527f6464726573730000000000000000000000000000000000000000000000000000602082015250565b6000612249602683611b8c565b9150612254826121ed565b604082019050919050565b600060208201905081810360008301526122788161223c565b9050919050565b7f4d69736d61746368696e67206172726179206c656e6774687300000000000000600082015250565b60006122b5601983611b8c565b91506122c08261227f565b602082019050919050565b600060208201905081810360008301526122e4816122a8565b9050919050565b7f416464726573733a20696e73756666696369656e742062616c616e6365000000600082015250565b6000612321601d83611b8c565b915061232c826122eb565b602082019050919050565b6000602082019050818103600083015261235081612314565b9050919050565b600081905092915050565b50565b6000612372600083612357565b915061237d82612362565b600082019050919050565b600061239382612365565b9150819050919050565b7f416464726573733a20756e61626c6520746f2073656e642076616c75652c207260008201527f6563697069656e74206d61792068617665207265766572746564000000000000602082015250565b60006123f9603a83611b8c565b91506124048261239d565b604082019050919050565b60006020820190508181036000830152612428816123ec565b905091905056fea264697066735822122019b598878c98701b7e5e15cd7eb67b7392c0df7836f90cb4637124307dce5b4f64736f6c634300080b0033",
  "immutableReferences": {},
  "source": "// SPDX-License-Identifier: MIT\npragma solidity ^0.8.0;\n\nimport \"@openzeppelin/contracts/access/Ownable.sol\";\nimport \"hardhat/console.sol\";\n\ninterface IERC721 {\n\tfunction safeTransferFrom(address _from, address _to, uint256 _tokenId) external payable;\n}\n\n/// @title A contract enabling bidders to bid on any NFT in a given collection, and holders to sell any NFT from that collection into such a bid\n/// @author Kamil Alizai Sadik\ncontract LiquidityFactory is Ownable {\n\n\t// Percentage platform fee paid by the seller, in basis points\n\tuint256 public platformFee = 200;\n\t// Max allowable platformFee, in basis points\n\tuint256 public maxPlatformFee = 500;\n\t// Current owner balance stored in contract\n\tuint256 ownerBalance = 0;\n\n\t// Event that fires when a new bid is submitted\n\tevent NewBid(address indexed bidderAddress, address indexed nftAddress, uint weiPriceEach, uint quantity, uint tokenId);\n\t// Event that fires when a bid is canceled\n\tevent BidCanceled(address indexed bidderAddress, address indexed nftAddress, uint weiPriceEach, uint quantity, uint tokenId);\n\t// Event that fires when a bid is hit\n\tevent NewTrade(address indexed bidderAddress, address indexed sellerAddress, address indexed nftAddress, uint weiPriceEach, uint quantity, uint tokenId);\n\n\t// Struct containing Bid attributes\n\tstruct Bid {\n\t\tuint256 weiPriceEach;\n\t\tuint256 quantity;\n\t}\n\n\t// Array of all bids (bidder => NFT collection address => Bid {weiPriceEach, quantity})\n\tmapping(address => mapping(address => Bid)) bids;\n\n\t/// @dev Creates a new bid\n\t/// @param _nftAddress Address of desired NFT collection\n\t/// @param _quantity Quantity of desired NFT\n\tfunction submitBid(address _nftAddress, uint _quantity) external payable {\n\t\t// Initialize bid\n\t\tBid memory bid = bids[msg.sender][_nftAddress];\n\t\t// Require that bidder does not already have a bid on this collection\n\t\trequire(bid.quantity == 0, \"Cancel existing bid before placing a new one.\");\n\t\t// Require that message value is > 0\n\t\trequire (msg.value > 0, \"Bid value must exceed 0 ETH.\");\n\t\t// Compute value of each bid, in wei\n\t\tuint256 weiPriceEach = uint256(msg.value) / _quantity;\n\t\t// Update bids mapping\n\t\tbids[msg.sender][_nftAddress].weiPriceEach = weiPriceEach;\n\t\tbids[msg.sender][_nftAddress].quantity = _quantity;\n\t\t// Emit bid creation event\n\t\temit NewBid(msg.sender, _nftAddress, weiPriceEach, _quantity, 0);\n\t}\n\n\t/// @dev Cancels a bid\n\t/// @param _nftAddress Address of NFT collection for which bid is being canceled\n\tfunction cancelBid(address _nftAddress) external {\n\t\t// Initialize bid\n\t\tBid memory bid = bids[msg.sender][_nftAddress];\n\t\t// Compute refund\n\t\tuint256 refund = bid.weiPriceEach * bid.quantity;\n\t\t// Require that bidder is due a refund\n\t\trequire(refund != 0, \"You have no live bids for this collection.\");\n\t\t// Delete bid\n\t\tdelete bids[msg.sender][_nftAddress];\n\t\t// Refund bidder\n\t\tsendValue(payable(msg.sender), refund);\n\t\t// Emit bid cancelation event\n\t\temit BidCanceled(msg.sender, _nftAddress, bid.weiPriceEach, bid.quantity, 0);\n\t}\n\n\t/// @dev Sells NFT into a bid (i.e., \"hits\" the bid)\n\t/// @param _bidderAddress Address of the bidder\n\t/// @param _nftAddress Address of collection to which the bid applies\n\t/// @param _tokenId Token id of the NFT in question\n\t/// @param _expectedWeiPriceEach Price (in wei) that seller expects to receive for each NFT\n\t/// @return Proceeds remitted to seller\n\tfunction hitBid(address _bidderAddress, address _nftAddress, uint256 _tokenId, uint256 _expectedWeiPriceEach) public returns (uint256) {\n\t\t// Initialize bid\n\t\tBid memory bid = bids[_bidderAddress][_nftAddress];\n\t\t// Require that bid exists\n\t\trequire(bid.quantity > 0, \"This bid does not exist.\");\n\t\t// Require that bid amount is at least what the seller expects\n\t\trequire(bid.weiPriceEach >= _expectedWeiPriceEach, \"Bid is insufficient.\");\n\t\t// Decrement bidder's bid quantity for this collection\n\t\tbids[_bidderAddress][_nftAddress].quantity = bid.quantity - 1;\n\t\t// Compute platform fee proceeds\n\t\tuint256 platformFeeProceeds = bid.weiPriceEach * platformFee / 10000;\n\t\t// Remit platform fee proceeds to owner\n\t\townerBalance += platformFeeProceeds;\n\t\t// Transfer NFT to bidder\n\t\tIERC721(_nftAddress).safeTransferFrom(msg.sender, _bidderAddress, _tokenId);\n\t\t// Compute seller proceeds\n\t\tuint256 sellerProceeds = bid.weiPriceEach - platformFeeProceeds;\n\t\t// Remit seller proceeds to seller\n\t\tsendValue(payable(msg.sender), sellerProceeds);\n\t\t// Emit new trade event\n\t\temit NewTrade(_bidderAddress, msg.sender, _nftAddress, bid.weiPriceEach, 1, _tokenId);\n\t\t// Return seller proceeds\n\t\treturn sellerProceeds;\n\t}\n\n\t/// @dev Sells multiple NFTs into multiple bids (i.e., \"hits\" multiple bids)\n\t/// @param _bidderAddresses Array of addresses of bidders\n\t/// @param _nftAddress Address of collection to which the bids apply\n\t/// @param _tokenIds Array of token ids of the NFTs in question\n\t/// @param _expectedWeiPriceEach Array of prices (in wei) that seller expects to receive for each NFT\n\t/// @return Array of proceeds remitted to seller for each sold NFT\n\tfunction hitMultipleBids(address[] memory _bidderAddresses, address _nftAddress, uint256[] memory _tokenIds, uint256[] memory _expectedWeiPriceEach) external returns (uint256[] memory){\n\t\t// Check that number of bids matches number of expected sales\n\t\trequire(_bidderAddresses.length == _tokenIds.length && _tokenIds.length == _expectedWeiPriceEach.length, \"Mismatching array lengths\");\n\t\t// Initialize output array of sellerProceeds\n\t\tuint256[] memory output = new uint256[](_bidderAddresses.length);\n\t\t// Iteratively sell NFTs to bidder\n\t\tfor (uint256 i = 0; i < _bidderAddresses.length; i++) {\n\t\t\toutput[i] = hitBid(_bidderAddresses[i], _nftAddress, _tokenIds[i], _expectedWeiPriceEach[i]);\n\t\t}\n\t\t// Return array of seller proceeds\n\t\treturn output;\n\t}\n\n\t/// @dev Allows owner to change platformFee\n\t/// @param _newPlatformFee New platform fee\n\tfunction changePlatformFee(uint _newPlatformFee) external onlyOwner {\n\t\trequire(_newPlatformFee <= maxPlatformFee, \"Cannot exceed maxPlatformFee\");\n\t\tplatformFee = _newPlatformFee;\n\t}\n\n\t/// @dev OpenZeppelin sendValue function\n\t/// @param recipient Address receiving funds\n\t/// @param amount Amount of funds being sent\n\tfunction sendValue(address payable recipient, uint256 amount) internal {\n\t\trequire(address(this).balance >= amount, \"Address: insufficient balance\");\n\t\t(bool success, ) = recipient.call{ value: amount }(\"\");\n\t\trequire(success, \"Address: unable to send value, recipient may have reverted\");\n\t}\n\n\t/// @dev Allows owner to withdraw accumulated platform fees\n\tfunction withdraw() external onlyOwner {\n\t\tuint256 withdrawalAmount = ownerBalance;\n\t\townerBalance = 0;\n\t\tsendValue(payable(owner()), withdrawalAmount);\n\t}\n\n\t/// @dev Getter function to display a single bid on front-end\n\t/// @param _bidderAddress Address of bidder\n\t/// @param _nftAddress Address of collection to which the bid applies\n\t/// @return Desired bid\n\tfunction getBid(address _bidderAddress, address _nftAddress) external view returns (Bid memory) {\n\t\treturn bids[_bidderAddress][_nftAddress];\n\t}\n\n\t/// @dev Getter function to display multiple bids on front-end\n\t/// @param _bidderAddresses Array of bidders\n\t/// @param _nftAddresses Array of collections to which each bid (respectively) applies\n\t/// @return Array of desired bids\n\tfunction getBids(address[] memory _bidderAddresses, address[] memory _nftAddresses) external view returns (Bid[] memory) {\n\t\tBid[] memory output = new Bid[](_bidderAddresses.length);\n\t\tfor (uint i = 0; i < _bidderAddresses.length; i++) {\n\t\t\toutput[i] = bids[_bidderAddresses[i]][_nftAddresses[i]];\n\t\t}\n\t\treturn output;\n\t}\n\n}",
  "sourcePath": "/Users/kamilalizaisadik/DeFi/Floorquidity/contracts/LiquidityFactory.sol",
  "compiler": {
    "name": "solc",
    "version": "0.8.11+commit.d7f03943.Emscripten.clang"
  },
  "schemaVersion": "3.4.1",
  "updatedAt": "2022-02-02T13:26:58.357Z",
  "devdoc": {
    "author": "Kamil Alizai Sadik",
    "kind": "dev",
    "methods": {
      "cancelBid(address)": {
        "details": "Cancels a bid",
        "params": {
          "_nftAddress": "Address of NFT collection for which bid is being canceled"
        }
      },
      "changePlatformFee(uint256)": {
        "details": "Allows owner to change platformFee",
        "params": {
          "_newPlatformFee": "New platform fee"
        }
      },
      "getBid(address,address)": {
        "details": "Getter function to display a single bid on front-end",
        "params": {
          "_bidderAddress": "Address of bidder",
          "_nftAddress": "Address of collection to which the bid applies"
        },
        "returns": {
          "_0": "Desired bid"
        }
      },
      "getBids(address[],address[])": {
        "details": "Getter function to display multiple bids on front-end",
        "params": {
          "_bidderAddresses": "Array of bidders",
          "_nftAddresses": "Array of collections to which each bid (respectively) applies"
        },
        "returns": {
          "_0": "Array of desired bids"
        }
      },
      "hitBid(address,address,uint256,uint256)": {
        "details": "Sells NFT into a bid (i.e., \"hits\" the bid)",
        "params": {
          "_bidderAddress": "Address of the bidder",
          "_expectedWeiPriceEach": "Price (in wei) that seller expects to receive for each NFT",
          "_nftAddress": "Address of collection to which the bid applies",
          "_tokenId": "Token id of the NFT in question"
        },
        "returns": {
          "_0": "Proceeds remitted to seller"
        }
      },
      "hitMultipleBids(address[],address,uint256[],uint256[])": {
        "details": "Sells multiple NFTs into multiple bids (i.e., \"hits\" multiple bids)",
        "params": {
          "_bidderAddresses": "Array of addresses of bidders",
          "_expectedWeiPriceEach": "Array of prices (in wei) that seller expects to receive for each NFT",
          "_nftAddress": "Address of collection to which the bids apply",
          "_tokenIds": "Array of token ids of the NFTs in question"
        },
        "returns": {
          "_0": "Array of proceeds remitted to seller for each sold NFT"
        }
      },
      "owner()": {
        "details": "Returns the address of the current owner."
      },
      "renounceOwnership()": {
        "details": "Leaves the contract without owner. It will not be possible to call `onlyOwner` functions anymore. Can only be called by the current owner. NOTE: Renouncing ownership will leave the contract without an owner, thereby removing any functionality that is only available to the owner."
      },
      "submitBid(address,uint256)": {
        "details": "Creates a new bid",
        "params": {
          "_nftAddress": "Address of desired NFT collection",
          "_quantity": "Quantity of desired NFT"
        }
      },
      "transferOwnership(address)": {
        "details": "Transfers ownership of the contract to a new account (`newOwner`). Can only be called by the current owner."
      },
      "withdraw()": {
        "details": "Allows owner to withdraw accumulated platform fees"
      }
    },
    "title": "A contract enabling bidders to bid on any NFT in a given collection, and holders to sell any NFT from that collection into such a bid",
    "version": 1
  },
  "userdoc": {
    "kind": "user",
    "methods": {},
    "version": 1
  }
}