{
  "contractName": "LiquidityFactory",
  "abi": [
    {
      "anonymous": false,
      "inputs": [
        {
          "indexed": false,
          "internalType": "address payable",
          "name": "bidderAddress",
          "type": "address"
        },
        {
          "indexed": false,
          "internalType": "string",
          "name": "collectionBaseUri",
          "type": "string"
        },
        {
          "indexed": false,
          "internalType": "uint256",
          "name": "bidAmount",
          "type": "uint256"
        },
        {
          "indexed": false,
          "internalType": "uint256",
          "name": "bidId",
          "type": "uint256"
        },
        {
          "indexed": false,
          "internalType": "bool",
          "name": "bidStatus",
          "type": "bool"
        }
      ],
      "name": "BidCanceled",
      "type": "event"
    },
    {
      "anonymous": false,
      "inputs": [
        {
          "indexed": false,
          "internalType": "address payable",
          "name": "bidderAddress",
          "type": "address"
        },
        {
          "indexed": false,
          "internalType": "string",
          "name": "collectionBaseUri",
          "type": "string"
        },
        {
          "indexed": false,
          "internalType": "uint256",
          "name": "bidAmount",
          "type": "uint256"
        },
        {
          "indexed": false,
          "internalType": "uint256",
          "name": "bidId",
          "type": "uint256"
        },
        {
          "indexed": false,
          "internalType": "bool",
          "name": "bidStatus",
          "type": "bool"
        }
      ],
      "name": "NewBid",
      "type": "event"
    },
    {
      "anonymous": false,
      "inputs": [
        {
          "indexed": false,
          "internalType": "address payable",
          "name": "sellerAddress",
          "type": "address"
        },
        {
          "indexed": false,
          "internalType": "address payable",
          "name": "buyerAddress",
          "type": "address"
        },
        {
          "indexed": false,
          "internalType": "uint256",
          "name": "bidAmount",
          "type": "uint256"
        },
        {
          "indexed": false,
          "internalType": "uint256",
          "name": "tokenId",
          "type": "uint256"
        }
      ],
      "name": "NewTrade",
      "type": "event"
    },
    {
      "anonymous": false,
      "inputs": [
        {
          "indexed": true,
          "internalType": "address",
          "name": "previousOwner",
          "type": "address"
        },
        {
          "indexed": true,
          "internalType": "address",
          "name": "newOwner",
          "type": "address"
        }
      ],
      "name": "OwnershipTransferred",
      "type": "event"
    },
    {
      "inputs": [
        {
          "internalType": "uint256",
          "name": "",
          "type": "uint256"
        }
      ],
      "name": "bids",
      "outputs": [
        {
          "internalType": "address payable",
          "name": "bidderAddress",
          "type": "address"
        },
        {
          "internalType": "string",
          "name": "collectionBaseUri",
          "type": "string"
        },
        {
          "internalType": "uint256",
          "name": "bidAmount",
          "type": "uint256"
        },
        {
          "internalType": "uint256",
          "name": "bidId",
          "type": "uint256"
        },
        {
          "internalType": "bool",
          "name": "bidStatus",
          "type": "bool"
        }
      ],
      "stateMutability": "view",
      "type": "function"
    },
    {
      "inputs": [],
      "name": "owner",
      "outputs": [
        {
          "internalType": "address",
          "name": "",
          "type": "address"
        }
      ],
      "stateMutability": "view",
      "type": "function"
    },
    {
      "inputs": [],
      "name": "platformFee",
      "outputs": [
        {
          "internalType": "uint256",
          "name": "",
          "type": "uint256"
        }
      ],
      "stateMutability": "view",
      "type": "function"
    },
    {
      "inputs": [],
      "name": "renounceOwnership",
      "outputs": [],
      "stateMutability": "nonpayable",
      "type": "function"
    },
    {
      "inputs": [
        {
          "internalType": "address",
          "name": "newOwner",
          "type": "address"
        }
      ],
      "name": "transferOwnership",
      "outputs": [],
      "stateMutability": "nonpayable",
      "type": "function"
    },
    {
      "inputs": [
        {
          "internalType": "address",
          "name": "operator",
          "type": "address"
        },
        {
          "internalType": "address",
          "name": "from",
          "type": "address"
        },
        {
          "internalType": "uint256",
          "name": "tokenId",
          "type": "uint256"
        },
        {
          "internalType": "bytes",
          "name": "data",
          "type": "bytes"
        }
      ],
      "name": "onERC721Received",
      "outputs": [
        {
          "internalType": "bytes4",
          "name": "",
          "type": "bytes4"
        }
      ],
      "stateMutability": "nonpayable",
      "type": "function"
    },
    {
      "inputs": [
        {
          "internalType": "address payable",
          "name": "_bidderAddress",
          "type": "address"
        },
        {
          "internalType": "string",
          "name": "_collectionBaseUri",
          "type": "string"
        },
        {
          "internalType": "uint256",
          "name": "_bidAmount",
          "type": "uint256"
        }
      ],
      "name": "submitBid",
      "outputs": [],
      "stateMutability": "payable",
      "type": "function"
    },
    {
      "inputs": [
        {
          "internalType": "address payable",
          "name": "_bidderAddress",
          "type": "address"
        },
        {
          "internalType": "uint256",
          "name": "_bidId",
          "type": "uint256"
        }
      ],
      "name": "cancelBid",
      "outputs": [],
      "stateMutability": "nonpayable",
      "type": "function"
    },
    {
      "inputs": [
        {
          "internalType": "address payable",
          "name": "_sellerAddress",
          "type": "address"
        },
        {
          "internalType": "uint256",
          "name": "_bidId",
          "type": "uint256"
        },
        {
          "internalType": "uint256",
          "name": "_tokenId",
          "type": "uint256"
        }
      ],
      "name": "hitBid",
      "outputs": [],
      "stateMutability": "nonpayable",
      "type": "function"
    },
    {
      "inputs": [
        {
          "internalType": "uint256",
          "name": "_newPlatformFee",
          "type": "uint256"
        }
      ],
      "name": "changePlatformFee",
      "outputs": [],
      "stateMutability": "nonpayable",
      "type": "function"
    }
  ],
  "bytecode": "0x608060405261001261011660201b60201c565b600160006101000a81548173ffffffffffffffffffffffffffffffffffffffff021916908373ffffffffffffffffffffffffffffffffffffffff1602179055506002805534801561006257600080fd5b50600061007361013f60201b60201c565b9050806000806101000a81548173ffffffffffffffffffffffffffffffffffffffff021916908373ffffffffffffffffffffffffffffffffffffffff1602179055508073ffffffffffffffffffffffffffffffffffffffff16600073ffffffffffffffffffffffffffffffffffffffff167f8be0079c531659141344cd1fd0a4f28419497f9722a3daafe3b4186f6b6457e060405160405180910390a350610147565b60008060009054906101000a900473ffffffffffffffffffffffffffffffffffffffff16905090565b600033905090565b6117a2806101566000396000f3fe6080604052600436106100915760003560e01c80634423c5f1116100595780634423c5f11461016c578063715018a6146101ad5780638da5cb5b146101c4578063d7a5791a146101ef578063f2fde38b1461021857610091565b8063150b7a021461009657806326232a2e146100d357806331638dd5146100fe57806339b6b1e51461011a5780633c91655214610143575b600080fd5b3480156100a257600080fd5b506100bd60048036038101906100b89190610e74565b610241565b6040516100ca9190610f37565b60405180910390f35b3480156100df57600080fd5b506100e861026f565b6040516100f59190610f61565b60405180910390f35b610118600480360381019061011391906110fb565b610275565b005b34801561012657600080fd5b50610141600480360381019061013c919061116a565b61040e565b005b34801561014f57600080fd5b5061016a600480360381019061016591906111aa565b6105a2565b005b34801561017857600080fd5b50610193600480360381019061018e91906111fd565b61082f565b6040516101a49594939291906112dc565b60405180910390f35b3480156101b957600080fd5b506101c261092a565b005b3480156101d057600080fd5b506101d9610a64565b6040516101e69190611345565b60405180910390f35b3480156101fb57600080fd5b50610216600480360381019061021191906111fd565b610a8d565b005b34801561022457600080fd5b5061023f600480360381019061023a9190611360565b610b13565b005b60007f150b7a023d4804d13e8c85fb27262cb750cf6ba9f9dd3bb30d90f482ceeb4b1f905095945050505050565b60025481565b8273ffffffffffffffffffffffffffffffffffffffff163373ffffffffffffffffffffffffffffffffffffffff16146102ad57600080fd5b8034146102b957600080fd5b6000600380549050905060036040518060a001604052808673ffffffffffffffffffffffffffffffffffffffff16815260200185815260200184815260200183815260200160011515815250908060018154018082558091505060019003906000526020600020906005020160009091909190915060008201518160000160006101000a81548173ffffffffffffffffffffffffffffffffffffffff021916908373ffffffffffffffffffffffffffffffffffffffff1602179055506020820151816001019080519060200190610391929190610cc4565b50604082015181600201556060820151816003015560808201518160040160006101000a81548160ff02191690831515021790555050507fb474d893c34e5f44ef35e6c26e1b62304b5dc208e1af0da6ccaea26d1f8306718484848460016040516104009594939291906112dc565b60405180910390a150505050565b8173ffffffffffffffffffffffffffffffffffffffff163373ffffffffffffffffffffffffffffffffffffffff161461044657600080fd5b60006003828154811061045c5761045b61138d565b5b906000526020600020906005020160040160006101000a81548160ff0219169083151502179055508173ffffffffffffffffffffffffffffffffffffffff166108fc600383815481106104b2576104b161138d565b5b9060005260206000209060050201600201549081150290604051600060405180830381858888f193505050501580156104ef573d6000803e3d6000fd5b507fa2459f32003adb64c3e171c4de5d03408058e69fe686ab2304747e63c99b608082600383815481106105265761052561138d565b5b90600052602060002090600502016001016003848154811061054b5761054a61138d565b5b906000526020600020906005020160020154600385815481106105715761057061138d565b5b90600052602060002090600502016003015460006040516105969594939291906114b2565b60405180910390a15050565b8273ffffffffffffffffffffffffffffffffffffffff163373ffffffffffffffffffffffffffffffffffffffff16146105da57600080fd5b60011515600383815481106105f2576105f161138d565b5b906000526020600020906005020160040160009054906101000a900460ff1615151461061d57600080fd5b600060646002546001610630919061153b565b600385815481106106445761064361138d565b5b906000526020600020906005020160020154610660919061156f565b61066a91906115f8565b90508373ffffffffffffffffffffffffffffffffffffffff166108fc829081150290604051600060405180830381858888f193505050501580156106b2573d6000803e3d6000fd5b50600160009054906101000a900473ffffffffffffffffffffffffffffffffffffffff1673ffffffffffffffffffffffffffffffffffffffff166108fc82600386815481106107045761070361138d565b5b906000526020600020906005020160020154610720919061153b565b9081150290604051600060405180830381858888f1935050505015801561074b573d6000803e3d6000fd5b5060001515600384815481106107645761076361138d565b5b906000526020600020906005020160040160009054906101000a905050507f0e9aec950888c53f0a6f54e0cdc3efb9199efd02472d12044dd6262d0db291cd84600385815481106107b8576107b761138d565b5b906000526020600020906005020160000160009054906101000a900473ffffffffffffffffffffffffffffffffffffffff16600386815481106107fe576107fd61138d565b5b906000526020600020906005020160020154856040516108219493929190611629565b60405180910390a150505050565b6003818154811061083f57600080fd5b90600052602060002090600502016000915090508060000160009054906101000a900473ffffffffffffffffffffffffffffffffffffffff1690806001018054610888906113eb565b80601f01602080910402602001604051908101604052809291908181526020018280546108b4906113eb565b80156109015780601f106108d657610100808354040283529160200191610901565b820191906000526020600020905b8154815290600101906020018083116108e457829003601f168201915b5050505050908060020154908060030154908060040160009054906101000a900460ff16905085565b610932610cbc565b73ffffffffffffffffffffffffffffffffffffffff16610950610a64565b73ffffffffffffffffffffffffffffffffffffffff16146109a6576040517f08c379a000000000000000000000000000000000000000000000000000000000815260040161099d906116ba565b60405180910390fd5b600073ffffffffffffffffffffffffffffffffffffffff1660008054906101000a900473ffffffffffffffffffffffffffffffffffffffff1673ffffffffffffffffffffffffffffffffffffffff167f8be0079c531659141344cd1fd0a4f28419497f9722a3daafe3b4186f6b6457e060405160405180910390a360008060006101000a81548173ffffffffffffffffffffffffffffffffffffffff021916908373ffffffffffffffffffffffffffffffffffffffff160217905550565b60008060009054906101000a900473ffffffffffffffffffffffffffffffffffffffff16905090565b610a95610cbc565b73ffffffffffffffffffffffffffffffffffffffff16610ab3610a64565b73ffffffffffffffffffffffffffffffffffffffff1614610b09576040517f08c379a0000000000000000000000000000000000000000000000000000000008152600401610b00906116ba565b60405180910390fd5b8060028190555050565b610b1b610cbc565b73ffffffffffffffffffffffffffffffffffffffff16610b39610a64565b73ffffffffffffffffffffffffffffffffffffffff1614610b8f576040517f08c379a0000000000000000000000000000000000000000000000000000000008152600401610b86906116ba565b60405180910390fd5b600073ffffffffffffffffffffffffffffffffffffffff168173ffffffffffffffffffffffffffffffffffffffff161415610bff576040517f08c379a0000000000000000000000000000000000000000000000000000000008152600401610bf69061174c565b60405180910390fd5b8073ffffffffffffffffffffffffffffffffffffffff1660008054906101000a900473ffffffffffffffffffffffffffffffffffffffff1673ffffffffffffffffffffffffffffffffffffffff167f8be0079c531659141344cd1fd0a4f28419497f9722a3daafe3b4186f6b6457e060405160405180910390a3806000806101000a81548173ffffffffffffffffffffffffffffffffffffffff021916908373ffffffffffffffffffffffffffffffffffffffff16021790555050565b600033905090565b828054610cd0906113eb565b90600052602060002090601f016020900481019282610cf25760008555610d39565b82601f10610d0b57805160ff1916838001178555610d39565b82800160010185558215610d39579182015b82811115610d38578251825591602001919060010190610d1d565b5b509050610d469190610d4a565b5090565b5b80821115610d63576000816000905550600101610d4b565b5090565b6000604051905090565b600080fd5b600080fd5b600073ffffffffffffffffffffffffffffffffffffffff82169050919050565b6000610da682610d7b565b9050919050565b610db681610d9b565b8114610dc157600080fd5b50565b600081359050610dd381610dad565b92915050565b6000819050919050565b610dec81610dd9565b8114610df757600080fd5b50565b600081359050610e0981610de3565b92915050565b600080fd5b600080fd5b600080fd5b60008083601f840112610e3457610e33610e0f565b5b8235905067ffffffffffffffff811115610e5157610e50610e14565b5b602083019150836001820283011115610e6d57610e6c610e19565b5b9250929050565b600080600080600060808688031215610e9057610e8f610d71565b5b6000610e9e88828901610dc4565b9550506020610eaf88828901610dc4565b9450506040610ec088828901610dfa565b935050606086013567ffffffffffffffff811115610ee157610ee0610d76565b5b610eed88828901610e1e565b92509250509295509295909350565b60007fffffffff0000000000000000000000000000000000000000000000000000000082169050919050565b610f3181610efc565b82525050565b6000602082019050610f4c6000830184610f28565b92915050565b610f5b81610dd9565b82525050565b6000602082019050610f766000830184610f52565b92915050565b6000610f8782610d7b565b9050919050565b610f9781610f7c565b8114610fa257600080fd5b50565b600081359050610fb481610f8e565b92915050565b600080fd5b6000601f19601f8301169050919050565b7f4e487b7100000000000000000000000000000000000000000000000000000000600052604160045260246000fd5b61100882610fbf565b810181811067ffffffffffffffff8211171561102757611026610fd0565b5b80604052505050565b600061103a610d67565b90506110468282610fff565b919050565b600067ffffffffffffffff82111561106657611065610fd0565b5b61106f82610fbf565b9050602081019050919050565b82818337600083830152505050565b600061109e6110998461104b565b611030565b9050828152602081018484840111156110ba576110b9610fba565b5b6110c584828561107c565b509392505050565b600082601f8301126110e2576110e1610e0f565b5b81356110f284826020860161108b565b91505092915050565b60008060006060848603121561111457611113610d71565b5b600061112286828701610fa5565b935050602084013567ffffffffffffffff81111561114357611142610d76565b5b61114f868287016110cd565b925050604061116086828701610dfa565b9150509250925092565b6000806040838503121561118157611180610d71565b5b600061118f85828601610fa5565b92505060206111a085828601610dfa565b9150509250929050565b6000806000606084860312156111c3576111c2610d71565b5b60006111d186828701610fa5565b93505060206111e286828701610dfa565b92505060406111f386828701610dfa565b9150509250925092565b60006020828403121561121357611212610d71565b5b600061122184828501610dfa565b91505092915050565b61123381610f7c565b82525050565b600081519050919050565b600082825260208201905092915050565b60005b83811015611273578082015181840152602081019050611258565b83811115611282576000848401525b50505050565b600061129382611239565b61129d8185611244565b93506112ad818560208601611255565b6112b681610fbf565b840191505092915050565b60008115159050919050565b6112d6816112c1565b82525050565b600060a0820190506112f1600083018861122a565b81810360208301526113038187611288565b90506113126040830186610f52565b61131f6060830185610f52565b61132c60808301846112cd565b9695505050505050565b61133f81610d9b565b82525050565b600060208201905061135a6000830184611336565b92915050565b60006020828403121561137657611375610d71565b5b600061138484828501610dc4565b91505092915050565b7f4e487b7100000000000000000000000000000000000000000000000000000000600052603260045260246000fd5b7f4e487b7100000000000000000000000000000000000000000000000000000000600052602260045260246000fd5b6000600282049050600182168061140357607f821691505b60208210811415611417576114166113bc565b5b50919050565b60008190508160005260206000209050919050565b6000815461143f816113eb565b6114498186611244565b945060018216600081146114645760018114611476576114a9565b60ff19831686526020860193506114a9565b61147f8561141d565b60005b838110156114a157815481890152600182019150602081019050611482565b808801955050505b50505092915050565b600060a0820190506114c7600083018861122a565b81810360208301526114d98187611432565b90506114e86040830186610f52565b6114f56060830185610f52565b61150260808301846112cd565b9695505050505050565b7f4e487b7100000000000000000000000000000000000000000000000000000000600052601160045260246000fd5b600061154682610dd9565b915061155183610dd9565b9250828210156115645761156361150c565b5b828203905092915050565b600061157a82610dd9565b915061158583610dd9565b9250817fffffffffffffffffffffffffffffffffffffffffffffffffffffffffffffffff04831182151516156115be576115bd61150c565b5b828202905092915050565b7f4e487b7100000000000000000000000000000000000000000000000000000000600052601260045260246000fd5b600061160382610dd9565b915061160e83610dd9565b92508261161e5761161d6115c9565b5b828204905092915050565b600060808201905061163e600083018761122a565b61164b602083018661122a565b6116586040830185610f52565b6116656060830184610f52565b95945050505050565b7f4f776e61626c653a2063616c6c6572206973206e6f7420746865206f776e6572600082015250565b60006116a4602083611244565b91506116af8261166e565b602082019050919050565b600060208201905081810360008301526116d381611697565b9050919050565b7f4f776e61626c653a206e6577206f776e657220697320746865207a65726f206160008201527f6464726573730000000000000000000000000000000000000000000000000000602082015250565b6000611736602683611244565b9150611741826116da565b604082019050919050565b6000602082019050818103600083015261176581611729565b905091905056fea2646970667358221220cce46a790b79562e0eb7a65186573c6436067030176db5960284fba90f25efe164736f6c634300080a0033",
  "immutableReferences": {},
  "source": "// SPDX-License-Identifier: MIT\npragma solidity ^0.8.0;\n\nimport \"@openzeppelin/contracts/access/Ownable.sol\";\nimport \"@openzeppelin/contracts/token/ERC721/IERC721Receiver.sol\";\n\n/// @title A contract creating a mechanism by which to bid on any NFT in a given collection\n/// @author Kamil Alizai Sadik\ncontract LiquidityFactory is Ownable, IERC721Receiver {\n\n    //Interface IERC721/IERC1155\n    function onERC721Received(address operator, address from, uint256 tokenId, bytes calldata data) external override returns (bytes4) {\n        return bytes4(keccak256(\"onERC721Received(address,address,uint256,bytes)\"));\n    }\n    \n\t// Set owner wallet as payable\n\taddress payable OWNER = payable(owner());\n\n\t// Event that fires when a new bid is submitted\n\tevent NewBid(address payable bidderAddress, string collectionBaseUri, uint bidAmount, uint bidId, bool bidStatus);\n\t// Event that fires when a bid is canceled\n\tevent BidCanceled(address payable bidderAddress, string collectionBaseUri, uint bidAmount, uint bidId, bool bidStatus);\n\t// Event that fires when a bid is hit\n\tevent NewTrade(address payable sellerAddress, address payable buyerAddress, uint bidAmount, uint tokenId);\n\n\t// Percentage platform fee paid by the seller (i.e., seller receives proceeds equal to bid*(1 - platformFee/100)\n\tuint public platformFee = 2;\n\n\t// Struct containing Bid attributes\n\tstruct Bid {\n\t\taddress payable bidderAddress;\n\t\tstring collectionBaseUri;\n\t\tuint bidAmount;\n\t\tuint bidId;\n\t\tbool bidStatus;\n\t}\n\n\t// Array of all bids\n\tBid[] public bids;\n\n\t// Mapping from collections to bids on that collection\n\t//mapping (address => Bid[]) public collectionsToBids;\n\n\t/// @dev Creates a new bid\n\t/// @param _bidderAddress Address of the bidder\n\t/// @param _collectionBaseUri Base URI of the NFT collection to which the bid applies\n\t/// @param _bidAmount Amount of bid in ETH\n\tfunction submitBid(address payable _bidderAddress, string memory _collectionBaseUri, uint _bidAmount) external payable {\n\t\t// Require that bidding address is sender\n\t\trequire(msg.sender == _bidderAddress);\n\t\t// Reequire that message value is equal to _bidAmount\n\t\trequire (msg.value == _bidAmount);\n\t\t// Create bid id\n\t\tuint id = bids.length;\n\t\t// Add bid to bids array\n\t\tbids.push(Bid(_bidderAddress, _collectionBaseUri, _bidAmount, id, true));\n\t\t// Add bid to collectionsToBids mapping\n\t\t// Emit bid creation event\n\t\temit NewBid(_bidderAddress, _collectionBaseUri, _bidAmount, id, true);\n\t}\n\n\t/// @dev Cancels a bid\n\t/// @param _bidderAddress Address of the bidder\n\t/// @param _bidId Id of the bid being canceled\n\tfunction cancelBid(address payable _bidderAddress, uint _bidId) external {\n\t\t// Require that bidding address is sender\n\t\trequire(msg.sender == _bidderAddress);\n\t\t// Set bidStatus to false\n\t\tbids[_bidId].bidStatus = false;\n\t\t// Refund bidder\n\t\t_bidderAddress.transfer(bids[_bidId].bidAmount);\n\t\t// Emit bid cancelation event\n\t\temit BidCanceled(_bidderAddress, bids[_bidId].collectionBaseUri, bids[_bidId].bidAmount, bids[_bidId].bidId, false);\n\t}\n\n\t/// @dev Sells an NFT into a bid (i.e., \"hits\" the bid)\n\t/// @param _sellerAddress Address of the seller\n\t/// @param _bidId Bid id of the bid being sold into\n\t/// @param _tokenId Token id of the NFT in question\n\tfunction hitBid(address payable _sellerAddress, uint _bidId, uint _tokenId) external {\n\t\t// Require that _sellerAddress is sender\n\t\trequire(msg.sender == _sellerAddress);\n\t\t// Require that bidStatus of _bidId bid is true\n\t\trequire(bids[_bidId].bidStatus == true);\n\t\t// Require that NFT is in the eligible collection\n\t\t//require(bids[_bidId].collectionBaseUri == _baseURI());\n\t\t// Transfer NFT from seller to buyer\n\t\t//safeTransferFrom(_sellerAddress, bids[_bidId].bidderAddress, _tokenId);\n\t\t// Calculate net proceeds that seller is owed after accounting for the platform fee\n\t\tuint netProceeds = bids[_bidId].bidAmount*(1-platformFee)/100;\n\t\t// Transfer net proceeds to seller address\n\t\t_sellerAddress.transfer(netProceeds);\n\t\t// Transfer platform fee to owner\n\t\tOWNER.transfer(bids[_bidId].bidAmount - netProceeds);\n\t\t// Set bidStatus of buyer's bid to false\n\t\tbids[_bidId].bidStatus == false;\n\t\t// Emit new trade event\n\t\temit NewTrade(_sellerAddress, bids[_bidId].bidderAddress, bids[_bidId].bidAmount, _tokenId);\n\t}\n\n\t/// @dev Allows owner to change platformFee\n\t/// @param _newPlatformFee New platform fee\n\tfunction changePlatformFee(uint _newPlatformFee) external onlyOwner {\n\t\tplatformFee = _newPlatformFee;\n\t}\n}",
  "sourcePath": "/Users/kamilalizaisadik/DeFi/Floorquidity/contracts/LiquidityFactory.sol",
  "compiler": {
    "name": "solc",
    "version": "0.8.10+commit.fc410830.Emscripten.clang"
  },
  "schemaVersion": "3.4.1",
  "updatedAt": "2021-12-17T23:59:30.150Z",
  "devdoc": {
    "author": "Kamil Alizai Sadik",
    "kind": "dev",
    "methods": {
      "cancelBid(address,uint256)": {
        "details": "Cancels a bid",
        "params": {
          "_bidId": "Id of the bid being canceled",
          "_bidderAddress": "Address of the bidder"
        }
      },
      "changePlatformFee(uint256)": {
        "details": "Allows owner to change platformFee",
        "params": {
          "_newPlatformFee": "New platform fee"
        }
      },
      "hitBid(address,uint256,uint256)": {
        "details": "Sells an NFT into a bid (i.e., \"hits\" the bid)",
        "params": {
          "_bidId": "Bid id of the bid being sold into",
          "_sellerAddress": "Address of the seller",
          "_tokenId": "Token id of the NFT in question"
        }
      },
      "onERC721Received(address,address,uint256,bytes)": {
        "details": "Whenever an {IERC721} `tokenId` token is transferred to this contract via {IERC721-safeTransferFrom} by `operator` from `from`, this function is called. It must return its Solidity selector to confirm the token transfer. If any other value is returned or the interface is not implemented by the recipient, the transfer will be reverted. The selector can be obtained in Solidity with `IERC721.onERC721Received.selector`."
      },
      "owner()": {
        "details": "Returns the address of the current owner."
      },
      "renounceOwnership()": {
        "details": "Leaves the contract without owner. It will not be possible to call `onlyOwner` functions anymore. Can only be called by the current owner. NOTE: Renouncing ownership will leave the contract without an owner, thereby removing any functionality that is only available to the owner."
      },
      "submitBid(address,string,uint256)": {
        "details": "Creates a new bid",
        "params": {
          "_bidAmount": "Amount of bid in ETH",
          "_bidderAddress": "Address of the bidder",
          "_collectionBaseUri": "Base URI of the NFT collection to which the bid applies"
        }
      },
      "transferOwnership(address)": {
        "details": "Transfers ownership of the contract to a new account (`newOwner`). Can only be called by the current owner."
      }
    },
    "title": "A contract creating a mechanism by which to bid on any NFT in a given collection",
    "version": 1
  },
  "userdoc": {
    "kind": "user",
    "methods": {},
    "version": 1
  }
}