{
  "contractName": "LiquidityFactory",
  "abi": [
    {
      "inputs": [],
      "stateMutability": "nonpayable",
      "type": "constructor"
    },
    {
      "anonymous": false,
      "inputs": [
        {
          "indexed": true,
          "internalType": "address",
          "name": "owner",
          "type": "address"
        },
        {
          "indexed": true,
          "internalType": "address",
          "name": "approved",
          "type": "address"
        },
        {
          "indexed": true,
          "internalType": "uint256",
          "name": "tokenId",
          "type": "uint256"
        }
      ],
      "name": "Approval",
      "type": "event"
    },
    {
      "anonymous": false,
      "inputs": [
        {
          "indexed": true,
          "internalType": "address",
          "name": "owner",
          "type": "address"
        },
        {
          "indexed": true,
          "internalType": "address",
          "name": "operator",
          "type": "address"
        },
        {
          "indexed": false,
          "internalType": "bool",
          "name": "approved",
          "type": "bool"
        }
      ],
      "name": "ApprovalForAll",
      "type": "event"
    },
    {
      "anonymous": false,
      "inputs": [
        {
          "indexed": false,
          "internalType": "address payable",
          "name": "bidderAddress",
          "type": "address"
        },
        {
          "indexed": false,
          "internalType": "string",
          "name": "collectionBaseUri",
          "type": "string"
        },
        {
          "indexed": false,
          "internalType": "uint256",
          "name": "bidAmount",
          "type": "uint256"
        },
        {
          "indexed": false,
          "internalType": "uint256",
          "name": "bidId",
          "type": "uint256"
        },
        {
          "indexed": false,
          "internalType": "bool",
          "name": "bidStatus",
          "type": "bool"
        }
      ],
      "name": "BidCanceled",
      "type": "event"
    },
    {
      "anonymous": false,
      "inputs": [
        {
          "indexed": false,
          "internalType": "address payable",
          "name": "bidderAddress",
          "type": "address"
        },
        {
          "indexed": false,
          "internalType": "string",
          "name": "collectionBaseUri",
          "type": "string"
        },
        {
          "indexed": false,
          "internalType": "uint256",
          "name": "bidAmount",
          "type": "uint256"
        },
        {
          "indexed": false,
          "internalType": "uint256",
          "name": "bidId",
          "type": "uint256"
        },
        {
          "indexed": false,
          "internalType": "bool",
          "name": "bidStatus",
          "type": "bool"
        }
      ],
      "name": "NewBid",
      "type": "event"
    },
    {
      "anonymous": false,
      "inputs": [
        {
          "indexed": false,
          "internalType": "address payable",
          "name": "sellerAddress",
          "type": "address"
        },
        {
          "indexed": false,
          "internalType": "address payable",
          "name": "buyerAddress",
          "type": "address"
        },
        {
          "indexed": false,
          "internalType": "uint256",
          "name": "bidAmount",
          "type": "uint256"
        },
        {
          "indexed": false,
          "internalType": "uint256",
          "name": "tokenId",
          "type": "uint256"
        }
      ],
      "name": "NewTrade",
      "type": "event"
    },
    {
      "anonymous": false,
      "inputs": [
        {
          "indexed": true,
          "internalType": "address",
          "name": "previousOwner",
          "type": "address"
        },
        {
          "indexed": true,
          "internalType": "address",
          "name": "newOwner",
          "type": "address"
        }
      ],
      "name": "OwnershipTransferred",
      "type": "event"
    },
    {
      "anonymous": false,
      "inputs": [
        {
          "indexed": true,
          "internalType": "address",
          "name": "from",
          "type": "address"
        },
        {
          "indexed": true,
          "internalType": "address",
          "name": "to",
          "type": "address"
        },
        {
          "indexed": true,
          "internalType": "uint256",
          "name": "tokenId",
          "type": "uint256"
        }
      ],
      "name": "Transfer",
      "type": "event"
    },
    {
      "inputs": [
        {
          "internalType": "address",
          "name": "to",
          "type": "address"
        },
        {
          "internalType": "uint256",
          "name": "tokenId",
          "type": "uint256"
        }
      ],
      "name": "approve",
      "outputs": [],
      "stateMutability": "nonpayable",
      "type": "function"
    },
    {
      "inputs": [
        {
          "internalType": "address",
          "name": "owner",
          "type": "address"
        }
      ],
      "name": "balanceOf",
      "outputs": [
        {
          "internalType": "uint256",
          "name": "",
          "type": "uint256"
        }
      ],
      "stateMutability": "view",
      "type": "function"
    },
    {
      "inputs": [
        {
          "internalType": "uint256",
          "name": "",
          "type": "uint256"
        }
      ],
      "name": "bids",
      "outputs": [
        {
          "internalType": "address payable",
          "name": "bidderAddress",
          "type": "address"
        },
        {
          "internalType": "string",
          "name": "collectionBaseUri",
          "type": "string"
        },
        {
          "internalType": "uint256",
          "name": "bidAmount",
          "type": "uint256"
        },
        {
          "internalType": "uint256",
          "name": "bidId",
          "type": "uint256"
        },
        {
          "internalType": "bool",
          "name": "bidStatus",
          "type": "bool"
        }
      ],
      "stateMutability": "view",
      "type": "function"
    },
    {
      "inputs": [
        {
          "internalType": "uint256",
          "name": "tokenId",
          "type": "uint256"
        }
      ],
      "name": "getApproved",
      "outputs": [
        {
          "internalType": "address",
          "name": "",
          "type": "address"
        }
      ],
      "stateMutability": "view",
      "type": "function"
    },
    {
      "inputs": [
        {
          "internalType": "address",
          "name": "owner",
          "type": "address"
        },
        {
          "internalType": "address",
          "name": "operator",
          "type": "address"
        }
      ],
      "name": "isApprovedForAll",
      "outputs": [
        {
          "internalType": "bool",
          "name": "",
          "type": "bool"
        }
      ],
      "stateMutability": "view",
      "type": "function"
    },
    {
      "inputs": [],
      "name": "name",
      "outputs": [
        {
          "internalType": "string",
          "name": "",
          "type": "string"
        }
      ],
      "stateMutability": "view",
      "type": "function"
    },
    {
      "inputs": [],
      "name": "owner",
      "outputs": [
        {
          "internalType": "address",
          "name": "",
          "type": "address"
        }
      ],
      "stateMutability": "view",
      "type": "function"
    },
    {
      "inputs": [
        {
          "internalType": "uint256",
          "name": "tokenId",
          "type": "uint256"
        }
      ],
      "name": "ownerOf",
      "outputs": [
        {
          "internalType": "address",
          "name": "",
          "type": "address"
        }
      ],
      "stateMutability": "view",
      "type": "function"
    },
    {
      "inputs": [],
      "name": "platformFee",
      "outputs": [
        {
          "internalType": "uint256",
          "name": "",
          "type": "uint256"
        }
      ],
      "stateMutability": "view",
      "type": "function"
    },
    {
      "inputs": [],
      "name": "renounceOwnership",
      "outputs": [],
      "stateMutability": "nonpayable",
      "type": "function"
    },
    {
      "inputs": [
        {
          "internalType": "address",
          "name": "from",
          "type": "address"
        },
        {
          "internalType": "address",
          "name": "to",
          "type": "address"
        },
        {
          "internalType": "uint256",
          "name": "tokenId",
          "type": "uint256"
        }
      ],
      "name": "safeTransferFrom",
      "outputs": [],
      "stateMutability": "nonpayable",
      "type": "function"
    },
    {
      "inputs": [
        {
          "internalType": "address",
          "name": "from",
          "type": "address"
        },
        {
          "internalType": "address",
          "name": "to",
          "type": "address"
        },
        {
          "internalType": "uint256",
          "name": "tokenId",
          "type": "uint256"
        },
        {
          "internalType": "bytes",
          "name": "_data",
          "type": "bytes"
        }
      ],
      "name": "safeTransferFrom",
      "outputs": [],
      "stateMutability": "nonpayable",
      "type": "function"
    },
    {
      "inputs": [
        {
          "internalType": "address",
          "name": "operator",
          "type": "address"
        },
        {
          "internalType": "bool",
          "name": "approved",
          "type": "bool"
        }
      ],
      "name": "setApprovalForAll",
      "outputs": [],
      "stateMutability": "nonpayable",
      "type": "function"
    },
    {
      "inputs": [
        {
          "internalType": "bytes4",
          "name": "interfaceId",
          "type": "bytes4"
        }
      ],
      "name": "supportsInterface",
      "outputs": [
        {
          "internalType": "bool",
          "name": "",
          "type": "bool"
        }
      ],
      "stateMutability": "view",
      "type": "function"
    },
    {
      "inputs": [],
      "name": "symbol",
      "outputs": [
        {
          "internalType": "string",
          "name": "",
          "type": "string"
        }
      ],
      "stateMutability": "view",
      "type": "function"
    },
    {
      "inputs": [
        {
          "internalType": "uint256",
          "name": "tokenId",
          "type": "uint256"
        }
      ],
      "name": "tokenURI",
      "outputs": [
        {
          "internalType": "string",
          "name": "",
          "type": "string"
        }
      ],
      "stateMutability": "view",
      "type": "function"
    },
    {
      "inputs": [
        {
          "internalType": "address",
          "name": "from",
          "type": "address"
        },
        {
          "internalType": "address",
          "name": "to",
          "type": "address"
        },
        {
          "internalType": "uint256",
          "name": "tokenId",
          "type": "uint256"
        }
      ],
      "name": "transferFrom",
      "outputs": [],
      "stateMutability": "nonpayable",
      "type": "function"
    },
    {
      "inputs": [
        {
          "internalType": "address",
          "name": "newOwner",
          "type": "address"
        }
      ],
      "name": "transferOwnership",
      "outputs": [],
      "stateMutability": "nonpayable",
      "type": "function"
    },
    {
      "inputs": [
        {
          "internalType": "address payable",
          "name": "_bidderAddress",
          "type": "address"
        },
        {
          "internalType": "string",
          "name": "_collectionBaseUri",
          "type": "string"
        },
        {
          "internalType": "uint256",
          "name": "_bidAmount",
          "type": "uint256"
        }
      ],
      "name": "submitBid",
      "outputs": [],
      "stateMutability": "payable",
      "type": "function"
    },
    {
      "inputs": [
        {
          "internalType": "address payable",
          "name": "_bidderAddress",
          "type": "address"
        },
        {
          "internalType": "uint256",
          "name": "_bidId",
          "type": "uint256"
        }
      ],
      "name": "cancelBid",
      "outputs": [],
      "stateMutability": "nonpayable",
      "type": "function"
    },
    {
      "inputs": [
        {
          "internalType": "address payable",
          "name": "_sellerAddress",
          "type": "address"
        },
        {
          "internalType": "uint256",
          "name": "_bidId",
          "type": "uint256"
        },
        {
          "internalType": "uint256",
          "name": "_tokenId",
          "type": "uint256"
        }
      ],
      "name": "hitBid",
      "outputs": [],
      "stateMutability": "nonpayable",
      "type": "function"
    },
    {
      "inputs": [
        {
          "internalType": "uint256",
          "name": "_newPlatformFee",
          "type": "uint256"
        }
      ],
      "name": "changePlatformFee",
      "outputs": [],
      "stateMutability": "nonpayable",
      "type": "function"
    }
  ],
  "bytecode": "0x608060405260026007553480156200001657600080fd5b506040518060400160405280601081526020017f4e6f6e46756e6769626c65546f6b656e000000000000000000000000000000008152506040518060400160405280600381526020017f4e465400000000000000000000000000000000000000000000000000000000008152506000620000956200016d60201b60201c565b9050806000806101000a81548173ffffffffffffffffffffffffffffffffffffffff021916908373ffffffffffffffffffffffffffffffffffffffff1602179055508073ffffffffffffffffffffffffffffffffffffffff16600073ffffffffffffffffffffffffffffffffffffffff167f8be0079c531659141344cd1fd0a4f28419497f9722a3daafe3b4186f6b6457e060405160405180910390a35081600190805190602001906200014b92919062000175565b5080600290805190602001906200016492919062000175565b5050506200028a565b600033905090565b828054620001839062000254565b90600052602060002090601f016020900481019282620001a75760008555620001f3565b82601f10620001c257805160ff1916838001178555620001f3565b82800160010185558215620001f3579182015b82811115620001f2578251825591602001919060010190620001d5565b5b50905062000202919062000206565b5090565b5b808211156200022157600081600090555060010162000207565b5090565b7f4e487b7100000000000000000000000000000000000000000000000000000000600052602260045260246000fd5b600060028204905060018216806200026d57607f821691505b6020821081141562000284576200028362000225565b5b50919050565b6135eb806200029a6000396000f3fe6080604052600436106101355760003560e01c80636352211e116100ab578063a22cb4651161006f578063a22cb4651461041b578063b88d4fde14610444578063c87b56dd1461046d578063d7a5791a146104aa578063e985e9c5146104d3578063f2fde38b1461051057610135565b80636352211e1461033457806370a0823114610371578063715018a6146103ae5780638da5cb5b146103c557806395d89b41146103f057610135565b806326232a2e116100fd57806326232a2e1461023157806331638dd51461025c57806339b6b1e5146102785780633c916552146102a157806342842e0e146102ca5780634423c5f1146102f357610135565b806301ffc9a71461013a57806306fdde0314610177578063081812fc146101a2578063095ea7b3146101df57806323b872dd14610208575b600080fd5b34801561014657600080fd5b50610161600480360381019061015c9190612170565b610539565b60405161016e91906121b8565b60405180910390f35b34801561018357600080fd5b5061018c61061b565b604051610199919061226c565b60405180910390f35b3480156101ae57600080fd5b506101c960048036038101906101c491906122c4565b6106ad565b6040516101d69190612332565b60405180910390f35b3480156101eb57600080fd5b5061020660048036038101906102019190612379565b610732565b005b34801561021457600080fd5b5061022f600480360381019061022a91906123b9565b61084a565b005b34801561023d57600080fd5b506102466108aa565b604051610253919061241b565b60405180910390f35b610276600480360381019061027191906125a9565b6108b0565b005b34801561028457600080fd5b5061029f600480360381019061029a9190612618565b610a49565b005b3480156102ad57600080fd5b506102c860048036038101906102c39190612658565b610bdd565b005b3480156102d657600080fd5b506102f160048036038101906102ec91906123b9565b610e55565b005b3480156102ff57600080fd5b5061031a600480360381019061031591906122c4565b610e75565b60405161032b9594939291906126ba565b60405180910390f35b34801561034057600080fd5b5061035b600480360381019061035691906122c4565b610f70565b6040516103689190612332565b60405180910390f35b34801561037d57600080fd5b5061039860048036038101906103939190612714565b611022565b6040516103a5919061241b565b60405180910390f35b3480156103ba57600080fd5b506103c36110da565b005b3480156103d157600080fd5b506103da611214565b6040516103e79190612332565b60405180910390f35b3480156103fc57600080fd5b5061040561123d565b604051610412919061226c565b60405180910390f35b34801561042757600080fd5b50610442600480360381019061043d919061276d565b6112cf565b005b34801561045057600080fd5b5061046b6004803603810190610466919061284e565b611450565b005b34801561047957600080fd5b50610494600480360381019061048f91906122c4565b6114b2565b6040516104a1919061226c565b60405180910390f35b3480156104b657600080fd5b506104d160048036038101906104cc91906122c4565b611559565b005b3480156104df57600080fd5b506104fa60048036038101906104f591906128d1565b6115df565b60405161050791906121b8565b60405180910390f35b34801561051c57600080fd5b5061053760048036038101906105329190612714565b611673565b005b60007f80ac58cd000000000000000000000000000000000000000000000000000000007bffffffffffffffffffffffffffffffffffffffffffffffffffffffff1916827bffffffffffffffffffffffffffffffffffffffffffffffffffffffff1916148061060457507f5b5e139f000000000000000000000000000000000000000000000000000000007bffffffffffffffffffffffffffffffffffffffffffffffffffffffff1916827bffffffffffffffffffffffffffffffffffffffffffffffffffffffff1916145b8061061457506106138261181c565b5b9050919050565b60606001805461062a90612940565b80601f016020809104026020016040519081016040528092919081815260200182805461065690612940565b80156106a35780601f10610678576101008083540402835291602001916106a3565b820191906000526020600020905b81548152906001019060200180831161068657829003601f168201915b5050505050905090565b60006106b882611886565b6106f7576040517f08c379a00000000000000000000000000000000000000000000000000000000081526004016106ee906129e4565b60405180910390fd5b6005600083815260200190815260200160002060009054906101000a900473ffffffffffffffffffffffffffffffffffffffff169050919050565b600061073d82610f70565b90508073ffffffffffffffffffffffffffffffffffffffff168373ffffffffffffffffffffffffffffffffffffffff1614156107ae576040517f08c379a00000000000000000000000000000000000000000000000000000000081526004016107a590612a76565b60405180910390fd5b8073ffffffffffffffffffffffffffffffffffffffff166107cd6118f2565b73ffffffffffffffffffffffffffffffffffffffff1614806107fc57506107fb816107f66118f2565b6115df565b5b61083b576040517f08c379a000000000000000000000000000000000000000000000000000000000815260040161083290612b08565b60405180910390fd5b61084583836118fa565b505050565b61085b6108556118f2565b826119b3565b61089a576040517f08c379a000000000000000000000000000000000000000000000000000000000815260040161089190612b9a565b60405180910390fd5b6108a5838383611a91565b505050565b60075481565b8273ffffffffffffffffffffffffffffffffffffffff163373ffffffffffffffffffffffffffffffffffffffff16146108e857600080fd5b8034146108f457600080fd5b6000600880549050905060086040518060a001604052808673ffffffffffffffffffffffffffffffffffffffff16815260200185815260200184815260200183815260200160011515815250908060018154018082558091505060019003906000526020600020906005020160009091909190915060008201518160000160006101000a81548173ffffffffffffffffffffffffffffffffffffffff021916908373ffffffffffffffffffffffffffffffffffffffff16021790555060208201518160010190805190602001906109cc929190612061565b50604082015181600201556060820151816003015560808201518160040160006101000a81548160ff02191690831515021790555050507fb474d893c34e5f44ef35e6c26e1b62304b5dc208e1af0da6ccaea26d1f830671848484846001604051610a3b9594939291906126ba565b60405180910390a150505050565b8173ffffffffffffffffffffffffffffffffffffffff163373ffffffffffffffffffffffffffffffffffffffff1614610a8157600080fd5b600060088281548110610a9757610a96612bba565b5b906000526020600020906005020160040160006101000a81548160ff0219169083151502179055508173ffffffffffffffffffffffffffffffffffffffff166108fc60088381548110610aed57610aec612bba565b5b9060005260206000209060050201600201549081150290604051600060405180830381858888f19350505050158015610b2a573d6000803e3d6000fd5b507fa2459f32003adb64c3e171c4de5d03408058e69fe686ab2304747e63c99b60808260088381548110610b6157610b60612bba565b5b906000526020600020906005020160010160088481548110610b8657610b85612bba565b5b90600052602060002090600502016002015460088581548110610bac57610bab612bba565b5b9060005260206000209060050201600301546000604051610bd1959493929190612c7e565b60405180910390a15050565b8273ffffffffffffffffffffffffffffffffffffffff163373ffffffffffffffffffffffffffffffffffffffff1614610c1557600080fd5b6001151560088381548110610c2d57610c2c612bba565b5b906000526020600020906005020160040160009054906101000a900460ff16151514610c5857600080fd5b600060646007546001610c6b9190612d07565b60088581548110610c7f57610c7e612bba565b5b906000526020600020906005020160020154610c9b9190612d3b565b610ca59190612dc4565b90508373ffffffffffffffffffffffffffffffffffffffff166108fc829081150290604051600060405180830381858888f19350505050158015610ced573d6000803e3d6000fd5b506000610cf8611214565b90508073ffffffffffffffffffffffffffffffffffffffff166108fc8360088781548110610d2957610d28612bba565b5b906000526020600020906005020160020154610d459190612d07565b9081150290604051600060405180830381858888f19350505050158015610d70573d6000803e3d6000fd5b506000151560088581548110610d8957610d88612bba565b5b906000526020600020906005020160040160009054906101000a905050507f0e9aec950888c53f0a6f54e0cdc3efb9199efd02472d12044dd6262d0db291cd8560088681548110610ddd57610ddc612bba565b5b906000526020600020906005020160000160009054906101000a900473ffffffffffffffffffffffffffffffffffffffff1660088781548110610e2357610e22612bba565b5b90600052602060002090600502016002015486604051610e469493929190612df5565b60405180910390a15050505050565b610e7083838360405180602001604052806000815250611450565b505050565b60088181548110610e8557600080fd5b90600052602060002090600502016000915090508060000160009054906101000a900473ffffffffffffffffffffffffffffffffffffffff1690806001018054610ece90612940565b80601f0160208091040260200160405190810160405280929190818152602001828054610efa90612940565b8015610f475780601f10610f1c57610100808354040283529160200191610f47565b820191906000526020600020905b815481529060010190602001808311610f2a57829003601f168201915b5050505050908060020154908060030154908060040160009054906101000a900460ff16905085565b6000806003600084815260200190815260200160002060009054906101000a900473ffffffffffffffffffffffffffffffffffffffff169050600073ffffffffffffffffffffffffffffffffffffffff168173ffffffffffffffffffffffffffffffffffffffff161415611019576040517f08c379a000000000000000000000000000000000000000000000000000000000815260040161101090612eac565b60405180910390fd5b80915050919050565b60008073ffffffffffffffffffffffffffffffffffffffff168273ffffffffffffffffffffffffffffffffffffffff161415611093576040517f08c379a000000000000000000000000000000000000000000000000000000000815260040161108a90612f3e565b60405180910390fd5b600460008373ffffffffffffffffffffffffffffffffffffffff1673ffffffffffffffffffffffffffffffffffffffff168152602001908152602001600020549050919050565b6110e26118f2565b73ffffffffffffffffffffffffffffffffffffffff16611100611214565b73ffffffffffffffffffffffffffffffffffffffff1614611156576040517f08c379a000000000000000000000000000000000000000000000000000000000815260040161114d90612faa565b60405180910390fd5b600073ffffffffffffffffffffffffffffffffffffffff1660008054906101000a900473ffffffffffffffffffffffffffffffffffffffff1673ffffffffffffffffffffffffffffffffffffffff167f8be0079c531659141344cd1fd0a4f28419497f9722a3daafe3b4186f6b6457e060405160405180910390a360008060006101000a81548173ffffffffffffffffffffffffffffffffffffffff021916908373ffffffffffffffffffffffffffffffffffffffff160217905550565b60008060009054906101000a900473ffffffffffffffffffffffffffffffffffffffff16905090565b60606002805461124c90612940565b80601f016020809104026020016040519081016040528092919081815260200182805461127890612940565b80156112c55780601f1061129a576101008083540402835291602001916112c5565b820191906000526020600020905b8154815290600101906020018083116112a857829003601f168201915b5050505050905090565b6112d76118f2565b73ffffffffffffffffffffffffffffffffffffffff168273ffffffffffffffffffffffffffffffffffffffff161415611345576040517f08c379a000000000000000000000000000000000000000000000000000000000815260040161133c90613016565b60405180910390fd5b80600660006113526118f2565b73ffffffffffffffffffffffffffffffffffffffff1673ffffffffffffffffffffffffffffffffffffffff16815260200190815260200160002060008473ffffffffffffffffffffffffffffffffffffffff1673ffffffffffffffffffffffffffffffffffffffff16815260200190815260200160002060006101000a81548160ff0219169083151502179055508173ffffffffffffffffffffffffffffffffffffffff166113ff6118f2565b73ffffffffffffffffffffffffffffffffffffffff167f17307eab39ab6107e8899845ad3d59bd9653f200f220920489ca2b5937696c318360405161144491906121b8565b60405180910390a35050565b61146161145b6118f2565b836119b3565b6114a0576040517f08c379a000000000000000000000000000000000000000000000000000000000815260040161149790612b9a565b60405180910390fd5b6114ac84848484611ced565b50505050565b60606114bd82611886565b6114fc576040517f08c379a00000000000000000000000000000000000000000000000000000000081526004016114f3906130a8565b60405180910390fd5b6000611506611d49565b905060008151116115265760405180602001604052806000815250611551565b8061153084611d60565b604051602001611541929190613104565b6040516020818303038152906040525b915050919050565b6115616118f2565b73ffffffffffffffffffffffffffffffffffffffff1661157f611214565b73ffffffffffffffffffffffffffffffffffffffff16146115d5576040517f08c379a00000000000000000000000000000000000000000000000000000000081526004016115cc90612faa565b60405180910390fd5b8060078190555050565b6000600660008473ffffffffffffffffffffffffffffffffffffffff1673ffffffffffffffffffffffffffffffffffffffff16815260200190815260200160002060008373ffffffffffffffffffffffffffffffffffffffff1673ffffffffffffffffffffffffffffffffffffffff16815260200190815260200160002060009054906101000a900460ff16905092915050565b61167b6118f2565b73ffffffffffffffffffffffffffffffffffffffff16611699611214565b73ffffffffffffffffffffffffffffffffffffffff16146116ef576040517f08c379a00000000000000000000000000000000000000000000000000000000081526004016116e690612faa565b60405180910390fd5b600073ffffffffffffffffffffffffffffffffffffffff168173ffffffffffffffffffffffffffffffffffffffff16141561175f576040517f08c379a00000000000000000000000000000000000000000000000000000000081526004016117569061319a565b60405180910390fd5b8073ffffffffffffffffffffffffffffffffffffffff1660008054906101000a900473ffffffffffffffffffffffffffffffffffffffff1673ffffffffffffffffffffffffffffffffffffffff167f8be0079c531659141344cd1fd0a4f28419497f9722a3daafe3b4186f6b6457e060405160405180910390a3806000806101000a81548173ffffffffffffffffffffffffffffffffffffffff021916908373ffffffffffffffffffffffffffffffffffffffff16021790555050565b60007f01ffc9a7000000000000000000000000000000000000000000000000000000007bffffffffffffffffffffffffffffffffffffffffffffffffffffffff1916827bffffffffffffffffffffffffffffffffffffffffffffffffffffffff1916149050919050565b60008073ffffffffffffffffffffffffffffffffffffffff166003600084815260200190815260200160002060009054906101000a900473ffffffffffffffffffffffffffffffffffffffff1673ffffffffffffffffffffffffffffffffffffffff1614159050919050565b600033905090565b816005600083815260200190815260200160002060006101000a81548173ffffffffffffffffffffffffffffffffffffffff021916908373ffffffffffffffffffffffffffffffffffffffff160217905550808273ffffffffffffffffffffffffffffffffffffffff1661196d83610f70565b73ffffffffffffffffffffffffffffffffffffffff167f8c5be1e5ebec7d5bd14f71427d1e84f3dd0314c0f7b2291e5b200ac8c7c3b92560405160405180910390a45050565b60006119be82611886565b6119fd576040517f08c379a00000000000000000000000000000000000000000000000000000000081526004016119f49061322c565b60405180910390fd5b6000611a0883610f70565b90508073ffffffffffffffffffffffffffffffffffffffff168473ffffffffffffffffffffffffffffffffffffffff161480611a7757508373ffffffffffffffffffffffffffffffffffffffff16611a5f846106ad565b73ffffffffffffffffffffffffffffffffffffffff16145b80611a885750611a8781856115df565b5b91505092915050565b8273ffffffffffffffffffffffffffffffffffffffff16611ab182610f70565b73ffffffffffffffffffffffffffffffffffffffff1614611b07576040517f08c379a0000000000000000000000000000000000000000000000000000000008152600401611afe906132be565b60405180910390fd5b600073ffffffffffffffffffffffffffffffffffffffff168273ffffffffffffffffffffffffffffffffffffffff161415611b77576040517f08c379a0000000000000000000000000000000000000000000000000000000008152600401611b6e90613350565b60405180910390fd5b611b82838383611ec1565b611b8d6000826118fa565b6001600460008573ffffffffffffffffffffffffffffffffffffffff1673ffffffffffffffffffffffffffffffffffffffff1681526020019081526020016000206000828254611bdd9190612d07565b925050819055506001600460008473ffffffffffffffffffffffffffffffffffffffff1673ffffffffffffffffffffffffffffffffffffffff1681526020019081526020016000206000828254611c349190613370565b92505081905550816003600083815260200190815260200160002060006101000a81548173ffffffffffffffffffffffffffffffffffffffff021916908373ffffffffffffffffffffffffffffffffffffffff160217905550808273ffffffffffffffffffffffffffffffffffffffff168473ffffffffffffffffffffffffffffffffffffffff167fddf252ad1be2c89b69c2b068fc378daa952ba7f163c4a11628f55a4df523b3ef60405160405180910390a4505050565b611cf8848484611a91565b611d0484848484611ec6565b611d43576040517f08c379a0000000000000000000000000000000000000000000000000000000008152600401611d3a90613438565b60405180910390fd5b50505050565b606060405180602001604052806000815250905090565b60606000821415611da8576040518060400160405280600181526020017f30000000000000000000000000000000000000000000000000000000000000008152509050611ebc565b600082905060005b60008214611dda578080611dc390613458565b915050600a82611dd39190612dc4565b9150611db0565b60008167ffffffffffffffff811115611df657611df561247e565b5b6040519080825280601f01601f191660200182016040528015611e285781602001600182028036833780820191505090505b5090505b60008514611eb557600182611e419190612d07565b9150600a85611e5091906134a1565b6030611e5c9190613370565b60f81b818381518110611e7257611e71612bba565b5b60200101907effffffffffffffffffffffffffffffffffffffffffffffffffffffffffffff1916908160001a905350600a85611eae9190612dc4565b9450611e2c565b8093505050505b919050565b505050565b6000611ee78473ffffffffffffffffffffffffffffffffffffffff1661204e565b15612041578373ffffffffffffffffffffffffffffffffffffffff1663150b7a02611f106118f2565b8786866040518563ffffffff1660e01b8152600401611f329493929190613527565b6020604051808303816000875af1925050508015611f6e57506040513d601f19601f82011682018060405250810190611f6b9190613588565b60015b611ff1573d8060008114611f9e576040519150601f19603f3d011682016040523d82523d6000602084013e611fa3565b606091505b50600081511415611fe9576040517f08c379a0000000000000000000000000000000000000000000000000000000008152600401611fe090613438565b60405180910390fd5b805181602001fd5b63150b7a0260e01b7bffffffffffffffffffffffffffffffffffffffffffffffffffffffff1916817bffffffffffffffffffffffffffffffffffffffffffffffffffffffff191614915050612046565b600190505b949350505050565b600080823b905060008111915050919050565b82805461206d90612940565b90600052602060002090601f01602090048101928261208f57600085556120d6565b82601f106120a857805160ff19168380011785556120d6565b828001600101855582156120d6579182015b828111156120d55782518255916020019190600101906120ba565b5b5090506120e391906120e7565b5090565b5b808211156121005760008160009055506001016120e8565b5090565b6000604051905090565b600080fd5b600080fd5b60007fffffffff0000000000000000000000000000000000000000000000000000000082169050919050565b61214d81612118565b811461215857600080fd5b50565b60008135905061216a81612144565b92915050565b6000602082840312156121865761218561210e565b5b60006121948482850161215b565b91505092915050565b60008115159050919050565b6121b28161219d565b82525050565b60006020820190506121cd60008301846121a9565b92915050565b600081519050919050565b600082825260208201905092915050565b60005b8381101561220d5780820151818401526020810190506121f2565b8381111561221c576000848401525b50505050565b6000601f19601f8301169050919050565b600061223e826121d3565b61224881856121de565b93506122588185602086016121ef565b61226181612222565b840191505092915050565b600060208201905081810360008301526122868184612233565b905092915050565b6000819050919050565b6122a18161228e565b81146122ac57600080fd5b50565b6000813590506122be81612298565b92915050565b6000602082840312156122da576122d961210e565b5b60006122e8848285016122af565b91505092915050565b600073ffffffffffffffffffffffffffffffffffffffff82169050919050565b600061231c826122f1565b9050919050565b61232c81612311565b82525050565b60006020820190506123476000830184612323565b92915050565b61235681612311565b811461236157600080fd5b50565b6000813590506123738161234d565b92915050565b600080604083850312156123905761238f61210e565b5b600061239e85828601612364565b92505060206123af858286016122af565b9150509250929050565b6000806000606084860312156123d2576123d161210e565b5b60006123e086828701612364565b93505060206123f186828701612364565b9250506040612402868287016122af565b9150509250925092565b6124158161228e565b82525050565b6000602082019050612430600083018461240c565b92915050565b6000612441826122f1565b9050919050565b61245181612436565b811461245c57600080fd5b50565b60008135905061246e81612448565b92915050565b600080fd5b600080fd5b7f4e487b7100000000000000000000000000000000000000000000000000000000600052604160045260246000fd5b6124b682612222565b810181811067ffffffffffffffff821117156124d5576124d461247e565b5b80604052505050565b60006124e8612104565b90506124f482826124ad565b919050565b600067ffffffffffffffff8211156125145761251361247e565b5b61251d82612222565b9050602081019050919050565b82818337600083830152505050565b600061254c612547846124f9565b6124de565b90508281526020810184848401111561256857612567612479565b5b61257384828561252a565b509392505050565b600082601f8301126125905761258f612474565b5b81356125a0848260208601612539565b91505092915050565b6000806000606084860312156125c2576125c161210e565b5b60006125d08682870161245f565b935050602084013567ffffffffffffffff8111156125f1576125f0612113565b5b6125fd8682870161257b565b925050604061260e868287016122af565b9150509250925092565b6000806040838503121561262f5761262e61210e565b5b600061263d8582860161245f565b925050602061264e858286016122af565b9150509250929050565b6000806000606084860312156126715761267061210e565b5b600061267f8682870161245f565b9350506020612690868287016122af565b92505060406126a1868287016122af565b9150509250925092565b6126b481612436565b82525050565b600060a0820190506126cf60008301886126ab565b81810360208301526126e18187612233565b90506126f0604083018661240c565b6126fd606083018561240c565b61270a60808301846121a9565b9695505050505050565b60006020828403121561272a5761272961210e565b5b600061273884828501612364565b91505092915050565b61274a8161219d565b811461275557600080fd5b50565b60008135905061276781612741565b92915050565b600080604083850312156127845761278361210e565b5b600061279285828601612364565b92505060206127a385828601612758565b9150509250929050565b600067ffffffffffffffff8211156127c8576127c761247e565b5b6127d182612222565b9050602081019050919050565b60006127f16127ec846127ad565b6124de565b90508281526020810184848401111561280d5761280c612479565b5b61281884828561252a565b509392505050565b600082601f83011261283557612834612474565b5b81356128458482602086016127de565b91505092915050565b600080600080608085870312156128685761286761210e565b5b600061287687828801612364565b945050602061288787828801612364565b9350506040612898878288016122af565b925050606085013567ffffffffffffffff8111156128b9576128b8612113565b5b6128c587828801612820565b91505092959194509250565b600080604083850312156128e8576128e761210e565b5b60006128f685828601612364565b925050602061290785828601612364565b9150509250929050565b7f4e487b7100000000000000000000000000000000000000000000000000000000600052602260045260246000fd5b6000600282049050600182168061295857607f821691505b6020821081141561296c5761296b612911565b5b50919050565b7f4552433732313a20617070726f76656420717565727920666f72206e6f6e657860008201527f697374656e7420746f6b656e0000000000000000000000000000000000000000602082015250565b60006129ce602c836121de565b91506129d982612972565b604082019050919050565b600060208201905081810360008301526129fd816129c1565b9050919050565b7f4552433732313a20617070726f76616c20746f2063757272656e74206f776e6560008201527f7200000000000000000000000000000000000000000000000000000000000000602082015250565b6000612a606021836121de565b9150612a6b82612a04565b604082019050919050565b60006020820190508181036000830152612a8f81612a53565b9050919050565b7f4552433732313a20617070726f76652063616c6c6572206973206e6f74206f7760008201527f6e6572206e6f7220617070726f76656420666f7220616c6c0000000000000000602082015250565b6000612af26038836121de565b9150612afd82612a96565b604082019050919050565b60006020820190508181036000830152612b2181612ae5565b9050919050565b7f4552433732313a207472616e736665722063616c6c6572206973206e6f74206f60008201527f776e6572206e6f7220617070726f766564000000000000000000000000000000602082015250565b6000612b846031836121de565b9150612b8f82612b28565b604082019050919050565b60006020820190508181036000830152612bb381612b77565b9050919050565b7f4e487b7100000000000000000000000000000000000000000000000000000000600052603260045260246000fd5b60008190508160005260206000209050919050565b60008154612c0b81612940565b612c1581866121de565b94506001821660008114612c305760018114612c4257612c75565b60ff1983168652602086019350612c75565b612c4b85612be9565b60005b83811015612c6d57815481890152600182019150602081019050612c4e565b808801955050505b50505092915050565b600060a082019050612c9360008301886126ab565b8181036020830152612ca58187612bfe565b9050612cb4604083018661240c565b612cc1606083018561240c565b612cce60808301846121a9565b9695505050505050565b7f4e487b7100000000000000000000000000000000000000000000000000000000600052601160045260246000fd5b6000612d128261228e565b9150612d1d8361228e565b925082821015612d3057612d2f612cd8565b5b828203905092915050565b6000612d468261228e565b9150612d518361228e565b9250817fffffffffffffffffffffffffffffffffffffffffffffffffffffffffffffffff0483118215151615612d8a57612d89612cd8565b5b828202905092915050565b7f4e487b7100000000000000000000000000000000000000000000000000000000600052601260045260246000fd5b6000612dcf8261228e565b9150612dda8361228e565b925082612dea57612de9612d95565b5b828204905092915050565b6000608082019050612e0a60008301876126ab565b612e1760208301866126ab565b612e24604083018561240c565b612e31606083018461240c565b95945050505050565b7f4552433732313a206f776e657220717565727920666f72206e6f6e657869737460008201527f656e7420746f6b656e0000000000000000000000000000000000000000000000602082015250565b6000612e966029836121de565b9150612ea182612e3a565b604082019050919050565b60006020820190508181036000830152612ec581612e89565b9050919050565b7f4552433732313a2062616c616e636520717565727920666f7220746865207a6560008201527f726f206164647265737300000000000000000000000000000000000000000000602082015250565b6000612f28602a836121de565b9150612f3382612ecc565b604082019050919050565b60006020820190508181036000830152612f5781612f1b565b9050919050565b7f4f776e61626c653a2063616c6c6572206973206e6f7420746865206f776e6572600082015250565b6000612f946020836121de565b9150612f9f82612f5e565b602082019050919050565b60006020820190508181036000830152612fc381612f87565b9050919050565b7f4552433732313a20617070726f766520746f2063616c6c657200000000000000600082015250565b60006130006019836121de565b915061300b82612fca565b602082019050919050565b6000602082019050818103600083015261302f81612ff3565b9050919050565b7f4552433732314d657461646174613a2055524920717565727920666f72206e6f60008201527f6e6578697374656e7420746f6b656e0000000000000000000000000000000000602082015250565b6000613092602f836121de565b915061309d82613036565b604082019050919050565b600060208201905081810360008301526130c181613085565b9050919050565b600081905092915050565b60006130de826121d3565b6130e881856130c8565b93506130f88185602086016121ef565b80840191505092915050565b600061311082856130d3565b915061311c82846130d3565b91508190509392505050565b7f4f776e61626c653a206e6577206f776e657220697320746865207a65726f206160008201527f6464726573730000000000000000000000000000000000000000000000000000602082015250565b60006131846026836121de565b915061318f82613128565b604082019050919050565b600060208201905081810360008301526131b381613177565b9050919050565b7f4552433732313a206f70657261746f7220717565727920666f72206e6f6e657860008201527f697374656e7420746f6b656e0000000000000000000000000000000000000000602082015250565b6000613216602c836121de565b9150613221826131ba565b604082019050919050565b6000602082019050818103600083015261324581613209565b9050919050565b7f4552433732313a207472616e73666572206f6620746f6b656e2074686174206960008201527f73206e6f74206f776e0000000000000000000000000000000000000000000000602082015250565b60006132a86029836121de565b91506132b38261324c565b604082019050919050565b600060208201905081810360008301526132d78161329b565b9050919050565b7f4552433732313a207472616e7366657220746f20746865207a65726f2061646460008201527f7265737300000000000000000000000000000000000000000000000000000000602082015250565b600061333a6024836121de565b9150613345826132de565b604082019050919050565b600060208201905081810360008301526133698161332d565b9050919050565b600061337b8261228e565b91506133868361228e565b9250827fffffffffffffffffffffffffffffffffffffffffffffffffffffffffffffffff038211156133bb576133ba612cd8565b5b828201905092915050565b7f4552433732313a207472616e7366657220746f206e6f6e20455243373231526560008201527f63656976657220696d706c656d656e7465720000000000000000000000000000602082015250565b60006134226032836121de565b915061342d826133c6565b604082019050919050565b6000602082019050818103600083015261345181613415565b9050919050565b60006134638261228e565b91507fffffffffffffffffffffffffffffffffffffffffffffffffffffffffffffffff82141561349657613495612cd8565b5b600182019050919050565b60006134ac8261228e565b91506134b78361228e565b9250826134c7576134c6612d95565b5b828206905092915050565b600081519050919050565b600082825260208201905092915050565b60006134f9826134d2565b61350381856134dd565b93506135138185602086016121ef565b61351c81612222565b840191505092915050565b600060808201905061353c6000830187612323565b6135496020830186612323565b613556604083018561240c565b818103606083015261356881846134ee565b905095945050505050565b60008151905061358281612144565b92915050565b60006020828403121561359e5761359d61210e565b5b60006135ac84828501613573565b9150509291505056fea26469706673582212206edccca569f6ebe47be3782b92400407256f64e0314f628c841b53e8cd45216564736f6c634300080a0033",
  "immutableReferences": {},
  "source": "// SPDX-License-Identifier: MIT\npragma solidity ^0.8.0;\n\nimport \"@openzeppelin/contracts/access/Ownable.sol\";\nimport \"@openzeppelin/contracts/token/ERC721/ERC721.sol\";\n\n/// @title A contract creating a mechanism by which to bid on any NFT in a given collection\n/// @author Kamil Alizai Sadik\ncontract LiquidityFactory is Ownable, ERC721 {\n\n\tconstructor() public ERC721(\"NonFungibleToken\", \"NFT\") {}\n\n\t// Event that fires when a new bid is submitted\n\tevent NewBid(address payable bidderAddress, string collectionBaseUri, uint bidAmount, uint bidId, bool bidStatus);\n\t// Event that fires when a bid is canceled\n\tevent BidCanceled(address payable bidderAddress, string collectionBaseUri, uint bidAmount, uint bidId, bool bidStatus);\n\t// Event that fires when a bid is hit\n\tevent NewTrade(address payable sellerAddress, address payable buyerAddress, uint bidAmount, uint tokenId);\n\n\t// Percentage platform fee paid by the seller (i.e., seller receives proceeds equal to bid*(1 - platformFee/100)\n\tuint public platformFee = 2;\n\n\t// Struct containing Bid attributes\n\tstruct Bid {\n\t\taddress payable bidderAddress;\n\t\tstring collectionBaseUri;\n\t\tuint bidAmount;\n\t\tuint bidId;\n\t\tbool bidStatus;\n\t}\n\n\t// Array of all bids\n\tBid[] public bids;\n\n\t// Mapping from collections to bids on that collection\n\t//mapping (address => Bid[]) public collectionsToBids;\n\n\t/// @dev Creates a new bid\n\t/// @param _bidderAddress Address of the bidder\n\t/// @param _collectionBaseUri Base URI of the NFT collection to which the bid applies\n\t/// @param _bidAmount Amount of bid in ETH\n\tfunction submitBid(address payable _bidderAddress, string memory _collectionBaseUri, uint _bidAmount) external payable {\n\t\t// Require that bidding address is sender\n\t\trequire(msg.sender == _bidderAddress);\n\t\t// Reequire that message value is equal to _bidAmount\n\t\trequire (msg.value == _bidAmount);\n\t\t// Create bid id\n\t\tuint id = bids.length;\n\t\t// Add bid to bids array\n\t\tbids.push(Bid(_bidderAddress, _collectionBaseUri, _bidAmount, id, true));\n\t\t// Add bid to collectionsToBids mapping\n\t\t// Emit bid creation event\n\t\temit NewBid(_bidderAddress, _collectionBaseUri, _bidAmount, id, true);\n\t}\n\n\t/// @dev Cancels a bid\n\t/// @param _bidderAddress Address of the bidder\n\t/// @param _bidId Id of the bid being canceled\n\tfunction cancelBid(address payable _bidderAddress, uint _bidId) external {\n\t\t// Require that bidding address is sender\n\t\trequire(msg.sender == _bidderAddress);\n\t\t// Set bidStatus to false\n\t\tbids[_bidId].bidStatus = false;\n\t\t// Refund bidder\n\t\t_bidderAddress.transfer(bids[_bidId].bidAmount);\n\t\t// Emit bid cancelation event\n\t\temit BidCanceled(_bidderAddress, bids[_bidId].collectionBaseUri, bids[_bidId].bidAmount, bids[_bidId].bidId, false);\n\t}\n\n\t/// @dev Sells an NFT into a bid (i.e., \"hits\" the bid)\n\t/// @param _sellerAddress Address of the seller\n\t/// @param _bidId Bid id of the bid being sold into\n\t/// @param _tokenId Token id of the NFT in question\n\tfunction hitBid(address payable _sellerAddress, uint _bidId, uint _tokenId) external {\n\t\t// Require that _sellerAddress is sender\n\t\trequire(msg.sender == _sellerAddress);\n\t\t// Require that bidStatus of _bidId bid is true\n\t\trequire(bids[_bidId].bidStatus == true);\n\t\t// Transfer NFT from seller address to vault\n\t\t//ERC721Interface().safeTransferFrom(_sellerAddress, bids[_bidId].bidderAddress, _tokenId);\n\t\t// Transfer NFT from vault to buyer\n\t\t//bids[_bidId].collectionBaseUri\n\t\t// Calculate net proceeds that seller is owed after accounting for the platform fee\n\t\tuint netProceeds = bids[_bidId].bidAmount*(1-platformFee)/100;\n\t\t// Transfer net proceeds to seller address\n\t\t_sellerAddress.transfer(netProceeds);\n\t\t// Set owner wallet as payable\n\t\taddress payable OWNER = payable(owner());\n\t\t// Transfer platform fee to owner\n\t\tOWNER.transfer(bids[_bidId].bidAmount - netProceeds);\n\t\t// Set bidStatus of buyer's bid to false\n\t\tbids[_bidId].bidStatus == false;\n\t\t// Emit new trade event\n\t\temit NewTrade(_sellerAddress, bids[_bidId].bidderAddress, bids[_bidId].bidAmount, _tokenId);\n\t}\n\n\t/// @dev Allows owner to change platformFee\n\t/// @param _newPlatformFee New platform fee\n\tfunction changePlatformFee(uint _newPlatformFee) external onlyOwner {\n\t\tplatformFee = _newPlatformFee;\n\t}\n}",
  "sourcePath": "/Users/kamilalizaisadik/DeFi/Floorquidity/contracts/LiquidityFactory.sol",
  "compiler": {
    "name": "solc",
    "version": "0.8.10+commit.fc410830.Emscripten.clang"
  },
  "schemaVersion": "3.4.1",
  "updatedAt": "2021-11-28T01:15:37.779Z",
  "devdoc": {
    "author": "Kamil Alizai Sadik",
    "kind": "dev",
    "methods": {
      "approve(address,uint256)": {
        "details": "See {IERC721-approve}."
      },
      "balanceOf(address)": {
        "details": "See {IERC721-balanceOf}."
      },
      "cancelBid(address,uint256)": {
        "details": "Cancels a bid",
        "params": {
          "_bidId": "Id of the bid being canceled",
          "_bidderAddress": "Address of the bidder"
        }
      },
      "changePlatformFee(uint256)": {
        "details": "Allows owner to change platformFee",
        "params": {
          "_newPlatformFee": "New platform fee"
        }
      },
      "getApproved(uint256)": {
        "details": "See {IERC721-getApproved}."
      },
      "hitBid(address,uint256,uint256)": {
        "details": "Sells an NFT into a bid (i.e., \"hits\" the bid)",
        "params": {
          "_bidId": "Bid id of the bid being sold into",
          "_sellerAddress": "Address of the seller",
          "_tokenId": "Token id of the NFT in question"
        }
      },
      "isApprovedForAll(address,address)": {
        "details": "See {IERC721-isApprovedForAll}."
      },
      "name()": {
        "details": "See {IERC721Metadata-name}."
      },
      "owner()": {
        "details": "Returns the address of the current owner."
      },
      "ownerOf(uint256)": {
        "details": "See {IERC721-ownerOf}."
      },
      "renounceOwnership()": {
        "details": "Leaves the contract without owner. It will not be possible to call `onlyOwner` functions anymore. Can only be called by the current owner. NOTE: Renouncing ownership will leave the contract without an owner, thereby removing any functionality that is only available to the owner."
      },
      "safeTransferFrom(address,address,uint256)": {
        "details": "See {IERC721-safeTransferFrom}."
      },
      "safeTransferFrom(address,address,uint256,bytes)": {
        "details": "See {IERC721-safeTransferFrom}."
      },
      "setApprovalForAll(address,bool)": {
        "details": "See {IERC721-setApprovalForAll}."
      },
      "submitBid(address,string,uint256)": {
        "details": "Creates a new bid",
        "params": {
          "_bidAmount": "Amount of bid in ETH",
          "_bidderAddress": "Address of the bidder",
          "_collectionBaseUri": "Base URI of the NFT collection to which the bid applies"
        }
      },
      "supportsInterface(bytes4)": {
        "details": "See {IERC165-supportsInterface}."
      },
      "symbol()": {
        "details": "See {IERC721Metadata-symbol}."
      },
      "tokenURI(uint256)": {
        "details": "See {IERC721Metadata-tokenURI}."
      },
      "transferFrom(address,address,uint256)": {
        "details": "See {IERC721-transferFrom}."
      },
      "transferOwnership(address)": {
        "details": "Transfers ownership of the contract to a new account (`newOwner`). Can only be called by the current owner."
      }
    },
    "title": "A contract creating a mechanism by which to bid on any NFT in a given collection",
    "version": 1
  },
  "userdoc": {
    "kind": "user",
    "methods": {},
    "version": 1
  }
}