{
  "contractName": "LiquidityFactory",
  "abi": [
    {
      "inputs": [],
      "stateMutability": "nonpayable",
      "type": "constructor"
    },
    {
      "anonymous": false,
      "inputs": [
        {
          "indexed": true,
          "internalType": "address",
          "name": "owner",
          "type": "address"
        },
        {
          "indexed": true,
          "internalType": "address",
          "name": "approved",
          "type": "address"
        },
        {
          "indexed": true,
          "internalType": "uint256",
          "name": "tokenId",
          "type": "uint256"
        }
      ],
      "name": "Approval",
      "type": "event"
    },
    {
      "anonymous": false,
      "inputs": [
        {
          "indexed": true,
          "internalType": "address",
          "name": "owner",
          "type": "address"
        },
        {
          "indexed": true,
          "internalType": "address",
          "name": "operator",
          "type": "address"
        },
        {
          "indexed": false,
          "internalType": "bool",
          "name": "approved",
          "type": "bool"
        }
      ],
      "name": "ApprovalForAll",
      "type": "event"
    },
    {
      "anonymous": false,
      "inputs": [
        {
          "indexed": false,
          "internalType": "address payable",
          "name": "bidderAddress",
          "type": "address"
        },
        {
          "indexed": false,
          "internalType": "address",
          "name": "collectionAddress",
          "type": "address"
        },
        {
          "indexed": false,
          "internalType": "uint256",
          "name": "bidAmount",
          "type": "uint256"
        },
        {
          "indexed": false,
          "internalType": "uint256",
          "name": "bidId",
          "type": "uint256"
        },
        {
          "indexed": false,
          "internalType": "bool",
          "name": "bidStatus",
          "type": "bool"
        }
      ],
      "name": "BidCanceled",
      "type": "event"
    },
    {
      "anonymous": false,
      "inputs": [
        {
          "indexed": false,
          "internalType": "address payable",
          "name": "bidderAddress",
          "type": "address"
        },
        {
          "indexed": false,
          "internalType": "address",
          "name": "collectionAddress",
          "type": "address"
        },
        {
          "indexed": false,
          "internalType": "uint256",
          "name": "bidAmount",
          "type": "uint256"
        },
        {
          "indexed": false,
          "internalType": "uint256",
          "name": "bidId",
          "type": "uint256"
        },
        {
          "indexed": false,
          "internalType": "bool",
          "name": "bidStatus",
          "type": "bool"
        }
      ],
      "name": "NewBid",
      "type": "event"
    },
    {
      "anonymous": false,
      "inputs": [
        {
          "indexed": false,
          "internalType": "address payable",
          "name": "sellerAddress",
          "type": "address"
        },
        {
          "indexed": false,
          "internalType": "address payable",
          "name": "buyerAddress",
          "type": "address"
        },
        {
          "indexed": false,
          "internalType": "uint256",
          "name": "bidAmount",
          "type": "uint256"
        },
        {
          "indexed": false,
          "internalType": "uint256",
          "name": "tokenId",
          "type": "uint256"
        }
      ],
      "name": "NewTrade",
      "type": "event"
    },
    {
      "anonymous": false,
      "inputs": [
        {
          "indexed": true,
          "internalType": "address",
          "name": "previousOwner",
          "type": "address"
        },
        {
          "indexed": true,
          "internalType": "address",
          "name": "newOwner",
          "type": "address"
        }
      ],
      "name": "OwnershipTransferred",
      "type": "event"
    },
    {
      "anonymous": false,
      "inputs": [
        {
          "indexed": true,
          "internalType": "address",
          "name": "from",
          "type": "address"
        },
        {
          "indexed": true,
          "internalType": "address",
          "name": "to",
          "type": "address"
        },
        {
          "indexed": true,
          "internalType": "uint256",
          "name": "tokenId",
          "type": "uint256"
        }
      ],
      "name": "Transfer",
      "type": "event"
    },
    {
      "inputs": [
        {
          "internalType": "address",
          "name": "to",
          "type": "address"
        },
        {
          "internalType": "uint256",
          "name": "tokenId",
          "type": "uint256"
        }
      ],
      "name": "approve",
      "outputs": [],
      "stateMutability": "nonpayable",
      "type": "function"
    },
    {
      "inputs": [
        {
          "internalType": "address",
          "name": "owner",
          "type": "address"
        }
      ],
      "name": "balanceOf",
      "outputs": [
        {
          "internalType": "uint256",
          "name": "",
          "type": "uint256"
        }
      ],
      "stateMutability": "view",
      "type": "function"
    },
    {
      "inputs": [
        {
          "internalType": "uint256",
          "name": "",
          "type": "uint256"
        }
      ],
      "name": "bids",
      "outputs": [
        {
          "internalType": "address payable",
          "name": "bidderAddress",
          "type": "address"
        },
        {
          "internalType": "address",
          "name": "collectionAddress",
          "type": "address"
        },
        {
          "internalType": "uint256",
          "name": "bidAmount",
          "type": "uint256"
        },
        {
          "internalType": "uint256",
          "name": "bidId",
          "type": "uint256"
        },
        {
          "internalType": "bool",
          "name": "bidStatus",
          "type": "bool"
        }
      ],
      "stateMutability": "view",
      "type": "function"
    },
    {
      "inputs": [
        {
          "internalType": "uint256",
          "name": "tokenId",
          "type": "uint256"
        }
      ],
      "name": "getApproved",
      "outputs": [
        {
          "internalType": "address",
          "name": "",
          "type": "address"
        }
      ],
      "stateMutability": "view",
      "type": "function"
    },
    {
      "inputs": [
        {
          "internalType": "address",
          "name": "owner",
          "type": "address"
        },
        {
          "internalType": "address",
          "name": "operator",
          "type": "address"
        }
      ],
      "name": "isApprovedForAll",
      "outputs": [
        {
          "internalType": "bool",
          "name": "",
          "type": "bool"
        }
      ],
      "stateMutability": "view",
      "type": "function"
    },
    {
      "inputs": [],
      "name": "name",
      "outputs": [
        {
          "internalType": "string",
          "name": "",
          "type": "string"
        }
      ],
      "stateMutability": "view",
      "type": "function"
    },
    {
      "inputs": [],
      "name": "owner",
      "outputs": [
        {
          "internalType": "address",
          "name": "",
          "type": "address"
        }
      ],
      "stateMutability": "view",
      "type": "function"
    },
    {
      "inputs": [
        {
          "internalType": "uint256",
          "name": "tokenId",
          "type": "uint256"
        }
      ],
      "name": "ownerOf",
      "outputs": [
        {
          "internalType": "address",
          "name": "",
          "type": "address"
        }
      ],
      "stateMutability": "view",
      "type": "function"
    },
    {
      "inputs": [],
      "name": "platformFee",
      "outputs": [
        {
          "internalType": "uint256",
          "name": "",
          "type": "uint256"
        }
      ],
      "stateMutability": "view",
      "type": "function"
    },
    {
      "inputs": [],
      "name": "renounceOwnership",
      "outputs": [],
      "stateMutability": "nonpayable",
      "type": "function"
    },
    {
      "inputs": [
        {
          "internalType": "address",
          "name": "from",
          "type": "address"
        },
        {
          "internalType": "address",
          "name": "to",
          "type": "address"
        },
        {
          "internalType": "uint256",
          "name": "tokenId",
          "type": "uint256"
        }
      ],
      "name": "safeTransferFrom",
      "outputs": [],
      "stateMutability": "nonpayable",
      "type": "function"
    },
    {
      "inputs": [
        {
          "internalType": "address",
          "name": "from",
          "type": "address"
        },
        {
          "internalType": "address",
          "name": "to",
          "type": "address"
        },
        {
          "internalType": "uint256",
          "name": "tokenId",
          "type": "uint256"
        },
        {
          "internalType": "bytes",
          "name": "_data",
          "type": "bytes"
        }
      ],
      "name": "safeTransferFrom",
      "outputs": [],
      "stateMutability": "nonpayable",
      "type": "function"
    },
    {
      "inputs": [
        {
          "internalType": "address",
          "name": "operator",
          "type": "address"
        },
        {
          "internalType": "bool",
          "name": "approved",
          "type": "bool"
        }
      ],
      "name": "setApprovalForAll",
      "outputs": [],
      "stateMutability": "nonpayable",
      "type": "function"
    },
    {
      "inputs": [
        {
          "internalType": "bytes4",
          "name": "interfaceId",
          "type": "bytes4"
        }
      ],
      "name": "supportsInterface",
      "outputs": [
        {
          "internalType": "bool",
          "name": "",
          "type": "bool"
        }
      ],
      "stateMutability": "view",
      "type": "function"
    },
    {
      "inputs": [],
      "name": "symbol",
      "outputs": [
        {
          "internalType": "string",
          "name": "",
          "type": "string"
        }
      ],
      "stateMutability": "view",
      "type": "function"
    },
    {
      "inputs": [
        {
          "internalType": "uint256",
          "name": "tokenId",
          "type": "uint256"
        }
      ],
      "name": "tokenURI",
      "outputs": [
        {
          "internalType": "string",
          "name": "",
          "type": "string"
        }
      ],
      "stateMutability": "view",
      "type": "function"
    },
    {
      "inputs": [
        {
          "internalType": "address",
          "name": "from",
          "type": "address"
        },
        {
          "internalType": "address",
          "name": "to",
          "type": "address"
        },
        {
          "internalType": "uint256",
          "name": "tokenId",
          "type": "uint256"
        }
      ],
      "name": "transferFrom",
      "outputs": [],
      "stateMutability": "nonpayable",
      "type": "function"
    },
    {
      "inputs": [
        {
          "internalType": "address",
          "name": "newOwner",
          "type": "address"
        }
      ],
      "name": "transferOwnership",
      "outputs": [],
      "stateMutability": "nonpayable",
      "type": "function"
    },
    {
      "inputs": [
        {
          "internalType": "address payable",
          "name": "_bidderAddress",
          "type": "address"
        },
        {
          "internalType": "address",
          "name": "_collectionAddress",
          "type": "address"
        },
        {
          "internalType": "uint256",
          "name": "_bidAmount",
          "type": "uint256"
        }
      ],
      "name": "submitBid",
      "outputs": [],
      "stateMutability": "payable",
      "type": "function"
    },
    {
      "inputs": [
        {
          "internalType": "address payable",
          "name": "_bidderAddress",
          "type": "address"
        },
        {
          "internalType": "uint256",
          "name": "_bidId",
          "type": "uint256"
        }
      ],
      "name": "cancelBid",
      "outputs": [],
      "stateMutability": "nonpayable",
      "type": "function"
    },
    {
      "inputs": [
        {
          "internalType": "address payable",
          "name": "_sellerAddress",
          "type": "address"
        },
        {
          "internalType": "uint256",
          "name": "_bidId",
          "type": "uint256"
        },
        {
          "internalType": "uint256",
          "name": "_tokenId",
          "type": "uint256"
        }
      ],
      "name": "hitBid",
      "outputs": [],
      "stateMutability": "nonpayable",
      "type": "function"
    },
    {
      "inputs": [
        {
          "internalType": "uint256",
          "name": "_newPlatformFee",
          "type": "uint256"
        }
      ],
      "name": "changePlatformFee",
      "outputs": [],
      "stateMutability": "nonpayable",
      "type": "function"
    }
  ],
  "bytecode": "0x608060405260026007553480156200001657600080fd5b506040518060400160405280601081526020017f4e6f6e46756e6769626c65546f6b656e000000000000000000000000000000008152506040518060400160405280600381526020017f4e465400000000000000000000000000000000000000000000000000000000008152506000620000956200016d60201b60201c565b9050806000806101000a81548173ffffffffffffffffffffffffffffffffffffffff021916908373ffffffffffffffffffffffffffffffffffffffff1602179055508073ffffffffffffffffffffffffffffffffffffffff16600073ffffffffffffffffffffffffffffffffffffffff167f8be0079c531659141344cd1fd0a4f28419497f9722a3daafe3b4186f6b6457e060405160405180910390a35081600190805190602001906200014b92919062000175565b5080600290805190602001906200016492919062000175565b5050506200028a565b600033905090565b828054620001839062000254565b90600052602060002090601f016020900481019282620001a75760008555620001f3565b82601f10620001c257805160ff1916838001178555620001f3565b82800160010185558215620001f3579182015b82811115620001f2578251825591602001919060010190620001d5565b5b50905062000202919062000206565b5090565b5b808211156200022157600081600090555060010162000207565b5090565b7f4e487b7100000000000000000000000000000000000000000000000000000000600052602260045260246000fd5b600060028204905060018216806200026d57607f821691505b6020821081141562000284576200028362000225565b5b50919050565b61338e806200029a6000396000f3fe6080604052600436106101355760003560e01c80636352211e116100ab578063a22cb4651161006f578063a22cb4651461041b578063b88d4fde14610444578063c87b56dd1461046d578063d7a5791a146104aa578063e985e9c5146104d3578063f2fde38b1461051057610135565b80636352211e1461033457806370a0823114610371578063715018a6146103ae5780638da5cb5b146103c557806395d89b41146103f057610135565b806323b872dd116100fd57806323b872dd1461022457806326232a2e1461024d57806339b6b1e5146102785780633c916552146102a157806342842e0e146102ca5780634423c5f1146102f357610135565b806301ffc9a71461013a578063038851fd1461017757806306fdde0314610193578063081812fc146101be578063095ea7b3146101fb575b600080fd5b34801561014657600080fd5b50610161600480360381019061015c91906120c6565b610539565b60405161016e919061210e565b60405180910390f35b610191600480360381019061018c91906121fb565b61061b565b005b34801561019f57600080fd5b506101a86107f4565b6040516101b591906122e7565b60405180910390f35b3480156101ca57600080fd5b506101e560048036038101906101e09190612309565b610886565b6040516101f29190612345565b60405180910390f35b34801561020757600080fd5b50610222600480360381019061021d9190612360565b61090b565b005b34801561023057600080fd5b5061024b600480360381019061024691906123a0565b610a23565b005b34801561025957600080fd5b50610262610a83565b60405161026f9190612402565b60405180910390f35b34801561028457600080fd5b5061029f600480360381019061029a919061241d565b610a89565b005b3480156102ad57600080fd5b506102c860048036038101906102c3919061245d565b610c3e565b005b3480156102d657600080fd5b506102f160048036038101906102ec91906123a0565b610eb6565b005b3480156102ff57600080fd5b5061031a60048036038101906103159190612309565b610ed6565b60405161032b9594939291906124bf565b60405180910390f35b34801561034057600080fd5b5061035b60048036038101906103569190612309565b610f69565b6040516103689190612345565b60405180910390f35b34801561037d57600080fd5b5061039860048036038101906103939190612512565b61101b565b6040516103a59190612402565b60405180910390f35b3480156103ba57600080fd5b506103c36110d3565b005b3480156103d157600080fd5b506103da61120d565b6040516103e79190612345565b60405180910390f35b3480156103fc57600080fd5b50610405611236565b60405161041291906122e7565b60405180910390f35b34801561042757600080fd5b50610442600480360381019061043d919061256b565b6112c8565b005b34801561045057600080fd5b5061046b600480360381019061046691906126e0565b611449565b005b34801561047957600080fd5b50610494600480360381019061048f9190612309565b6114ab565b6040516104a191906122e7565b60405180910390f35b3480156104b657600080fd5b506104d160048036038101906104cc9190612309565b611552565b005b3480156104df57600080fd5b506104fa60048036038101906104f59190612763565b6115d8565b604051610507919061210e565b60405180910390f35b34801561051c57600080fd5b5061053760048036038101906105329190612512565b61166c565b005b60007f80ac58cd000000000000000000000000000000000000000000000000000000007bffffffffffffffffffffffffffffffffffffffffffffffffffffffff1916827bffffffffffffffffffffffffffffffffffffffffffffffffffffffff1916148061060457507f5b5e139f000000000000000000000000000000000000000000000000000000007bffffffffffffffffffffffffffffffffffffffffffffffffffffffff1916827bffffffffffffffffffffffffffffffffffffffffffffffffffffffff1916145b80610614575061061382611815565b5b9050919050565b8273ffffffffffffffffffffffffffffffffffffffff163373ffffffffffffffffffffffffffffffffffffffff161461065357600080fd5b80341461065f57600080fd5b6000600880549050905060086040518060a001604052808673ffffffffffffffffffffffffffffffffffffffff1681526020018573ffffffffffffffffffffffffffffffffffffffff16815260200184815260200183815260200160011515815250908060018154018082558091505060019003906000526020600020906005020160009091909190915060008201518160000160006101000a81548173ffffffffffffffffffffffffffffffffffffffff021916908373ffffffffffffffffffffffffffffffffffffffff16021790555060208201518160010160006101000a81548173ffffffffffffffffffffffffffffffffffffffff021916908373ffffffffffffffffffffffffffffffffffffffff160217905550604082015181600201556060820151816003015560808201518160040160006101000a81548160ff02191690831515021790555050507f074c80db53799d2524e44a5bb492cedd9c4f76adc5e71bc71b3aa17379203d1f8484848460016040516107e69594939291906124bf565b60405180910390a150505050565b606060018054610803906127d2565b80601f016020809104026020016040519081016040528092919081815260200182805461082f906127d2565b801561087c5780601f106108515761010080835404028352916020019161087c565b820191906000526020600020905b81548152906001019060200180831161085f57829003601f168201915b5050505050905090565b60006108918261187f565b6108d0576040517f08c379a00000000000000000000000000000000000000000000000000000000081526004016108c790612876565b60405180910390fd5b6005600083815260200190815260200160002060009054906101000a900473ffffffffffffffffffffffffffffffffffffffff169050919050565b600061091682610f69565b90508073ffffffffffffffffffffffffffffffffffffffff168373ffffffffffffffffffffffffffffffffffffffff161415610987576040517f08c379a000000000000000000000000000000000000000000000000000000000815260040161097e90612908565b60405180910390fd5b8073ffffffffffffffffffffffffffffffffffffffff166109a66118eb565b73ffffffffffffffffffffffffffffffffffffffff1614806109d557506109d4816109cf6118eb565b6115d8565b5b610a14576040517f08c379a0000000000000000000000000000000000000000000000000000000008152600401610a0b9061299a565b60405180910390fd5b610a1e83836118f3565b505050565b610a34610a2e6118eb565b826119ac565b610a73576040517f08c379a0000000000000000000000000000000000000000000000000000000008152600401610a6a90612a2c565b60405180910390fd5b610a7e838383611a8a565b505050565b60075481565b8173ffffffffffffffffffffffffffffffffffffffff163373ffffffffffffffffffffffffffffffffffffffff1614610ac157600080fd5b600060088281548110610ad757610ad6612a4c565b5b906000526020600020906005020160040160006101000a81548160ff0219169083151502179055508173ffffffffffffffffffffffffffffffffffffffff166108fc60088381548110610b2d57610b2c612a4c565b5b9060005260206000209060050201600201549081150290604051600060405180830381858888f19350505050158015610b6a573d6000803e3d6000fd5b507fea6a7351e45e05113308a70bb22204d46166e1997db0b44602f9389e7dd8365b8260088381548110610ba157610ba0612a4c565b5b906000526020600020906005020160010160009054906101000a900473ffffffffffffffffffffffffffffffffffffffff1660088481548110610be757610be6612a4c565b5b90600052602060002090600502016002015460088581548110610c0d57610c0c612a4c565b5b9060005260206000209060050201600301546000604051610c329594939291906124bf565b60405180910390a15050565b8273ffffffffffffffffffffffffffffffffffffffff163373ffffffffffffffffffffffffffffffffffffffff1614610c7657600080fd5b6001151560088381548110610c8e57610c8d612a4c565b5b906000526020600020906005020160040160009054906101000a900460ff16151514610cb957600080fd5b600060646007546001610ccc9190612aaa565b60088581548110610ce057610cdf612a4c565b5b906000526020600020906005020160020154610cfc9190612ade565b610d069190612b67565b90508373ffffffffffffffffffffffffffffffffffffffff166108fc829081150290604051600060405180830381858888f19350505050158015610d4e573d6000803e3d6000fd5b506000610d5961120d565b90508073ffffffffffffffffffffffffffffffffffffffff166108fc8360088781548110610d8a57610d89612a4c565b5b906000526020600020906005020160020154610da69190612aaa565b9081150290604051600060405180830381858888f19350505050158015610dd1573d6000803e3d6000fd5b506000151560088581548110610dea57610de9612a4c565b5b906000526020600020906005020160040160009054906101000a905050507f0e9aec950888c53f0a6f54e0cdc3efb9199efd02472d12044dd6262d0db291cd8560088681548110610e3e57610e3d612a4c565b5b906000526020600020906005020160000160009054906101000a900473ffffffffffffffffffffffffffffffffffffffff1660088781548110610e8457610e83612a4c565b5b90600052602060002090600502016002015486604051610ea79493929190612b98565b60405180910390a15050505050565b610ed183838360405180602001604052806000815250611449565b505050565b60088181548110610ee657600080fd5b90600052602060002090600502016000915090508060000160009054906101000a900473ffffffffffffffffffffffffffffffffffffffff16908060010160009054906101000a900473ffffffffffffffffffffffffffffffffffffffff16908060020154908060030154908060040160009054906101000a900460ff16905085565b6000806003600084815260200190815260200160002060009054906101000a900473ffffffffffffffffffffffffffffffffffffffff169050600073ffffffffffffffffffffffffffffffffffffffff168173ffffffffffffffffffffffffffffffffffffffff161415611012576040517f08c379a000000000000000000000000000000000000000000000000000000000815260040161100990612c4f565b60405180910390fd5b80915050919050565b60008073ffffffffffffffffffffffffffffffffffffffff168273ffffffffffffffffffffffffffffffffffffffff16141561108c576040517f08c379a000000000000000000000000000000000000000000000000000000000815260040161108390612ce1565b60405180910390fd5b600460008373ffffffffffffffffffffffffffffffffffffffff1673ffffffffffffffffffffffffffffffffffffffff168152602001908152602001600020549050919050565b6110db6118eb565b73ffffffffffffffffffffffffffffffffffffffff166110f961120d565b73ffffffffffffffffffffffffffffffffffffffff161461114f576040517f08c379a000000000000000000000000000000000000000000000000000000000815260040161114690612d4d565b60405180910390fd5b600073ffffffffffffffffffffffffffffffffffffffff1660008054906101000a900473ffffffffffffffffffffffffffffffffffffffff1673ffffffffffffffffffffffffffffffffffffffff167f8be0079c531659141344cd1fd0a4f28419497f9722a3daafe3b4186f6b6457e060405160405180910390a360008060006101000a81548173ffffffffffffffffffffffffffffffffffffffff021916908373ffffffffffffffffffffffffffffffffffffffff160217905550565b60008060009054906101000a900473ffffffffffffffffffffffffffffffffffffffff16905090565b606060028054611245906127d2565b80601f0160208091040260200160405190810160405280929190818152602001828054611271906127d2565b80156112be5780601f10611293576101008083540402835291602001916112be565b820191906000526020600020905b8154815290600101906020018083116112a157829003601f168201915b5050505050905090565b6112d06118eb565b73ffffffffffffffffffffffffffffffffffffffff168273ffffffffffffffffffffffffffffffffffffffff16141561133e576040517f08c379a000000000000000000000000000000000000000000000000000000000815260040161133590612db9565b60405180910390fd5b806006600061134b6118eb565b73ffffffffffffffffffffffffffffffffffffffff1673ffffffffffffffffffffffffffffffffffffffff16815260200190815260200160002060008473ffffffffffffffffffffffffffffffffffffffff1673ffffffffffffffffffffffffffffffffffffffff16815260200190815260200160002060006101000a81548160ff0219169083151502179055508173ffffffffffffffffffffffffffffffffffffffff166113f86118eb565b73ffffffffffffffffffffffffffffffffffffffff167f17307eab39ab6107e8899845ad3d59bd9653f200f220920489ca2b5937696c318360405161143d919061210e565b60405180910390a35050565b61145a6114546118eb565b836119ac565b611499576040517f08c379a000000000000000000000000000000000000000000000000000000000815260040161149090612a2c565b60405180910390fd5b6114a584848484611ce6565b50505050565b60606114b68261187f565b6114f5576040517f08c379a00000000000000000000000000000000000000000000000000000000081526004016114ec90612e4b565b60405180910390fd5b60006114ff611d42565b9050600081511161151f576040518060200160405280600081525061154a565b8061152984611d59565b60405160200161153a929190612ea7565b6040516020818303038152906040525b915050919050565b61155a6118eb565b73ffffffffffffffffffffffffffffffffffffffff1661157861120d565b73ffffffffffffffffffffffffffffffffffffffff16146115ce576040517f08c379a00000000000000000000000000000000000000000000000000000000081526004016115c590612d4d565b60405180910390fd5b8060078190555050565b6000600660008473ffffffffffffffffffffffffffffffffffffffff1673ffffffffffffffffffffffffffffffffffffffff16815260200190815260200160002060008373ffffffffffffffffffffffffffffffffffffffff1673ffffffffffffffffffffffffffffffffffffffff16815260200190815260200160002060009054906101000a900460ff16905092915050565b6116746118eb565b73ffffffffffffffffffffffffffffffffffffffff1661169261120d565b73ffffffffffffffffffffffffffffffffffffffff16146116e8576040517f08c379a00000000000000000000000000000000000000000000000000000000081526004016116df90612d4d565b60405180910390fd5b600073ffffffffffffffffffffffffffffffffffffffff168173ffffffffffffffffffffffffffffffffffffffff161415611758576040517f08c379a000000000000000000000000000000000000000000000000000000000815260040161174f90612f3d565b60405180910390fd5b8073ffffffffffffffffffffffffffffffffffffffff1660008054906101000a900473ffffffffffffffffffffffffffffffffffffffff1673ffffffffffffffffffffffffffffffffffffffff167f8be0079c531659141344cd1fd0a4f28419497f9722a3daafe3b4186f6b6457e060405160405180910390a3806000806101000a81548173ffffffffffffffffffffffffffffffffffffffff021916908373ffffffffffffffffffffffffffffffffffffffff16021790555050565b60007f01ffc9a7000000000000000000000000000000000000000000000000000000007bffffffffffffffffffffffffffffffffffffffffffffffffffffffff1916827bffffffffffffffffffffffffffffffffffffffffffffffffffffffff1916149050919050565b60008073ffffffffffffffffffffffffffffffffffffffff166003600084815260200190815260200160002060009054906101000a900473ffffffffffffffffffffffffffffffffffffffff1673ffffffffffffffffffffffffffffffffffffffff1614159050919050565b600033905090565b816005600083815260200190815260200160002060006101000a81548173ffffffffffffffffffffffffffffffffffffffff021916908373ffffffffffffffffffffffffffffffffffffffff160217905550808273ffffffffffffffffffffffffffffffffffffffff1661196683610f69565b73ffffffffffffffffffffffffffffffffffffffff167f8c5be1e5ebec7d5bd14f71427d1e84f3dd0314c0f7b2291e5b200ac8c7c3b92560405160405180910390a45050565b60006119b78261187f565b6119f6576040517f08c379a00000000000000000000000000000000000000000000000000000000081526004016119ed90612fcf565b60405180910390fd5b6000611a0183610f69565b90508073ffffffffffffffffffffffffffffffffffffffff168473ffffffffffffffffffffffffffffffffffffffff161480611a7057508373ffffffffffffffffffffffffffffffffffffffff16611a5884610886565b73ffffffffffffffffffffffffffffffffffffffff16145b80611a815750611a8081856115d8565b5b91505092915050565b8273ffffffffffffffffffffffffffffffffffffffff16611aaa82610f69565b73ffffffffffffffffffffffffffffffffffffffff1614611b00576040517f08c379a0000000000000000000000000000000000000000000000000000000008152600401611af790613061565b60405180910390fd5b600073ffffffffffffffffffffffffffffffffffffffff168273ffffffffffffffffffffffffffffffffffffffff161415611b70576040517f08c379a0000000000000000000000000000000000000000000000000000000008152600401611b67906130f3565b60405180910390fd5b611b7b838383611eba565b611b866000826118f3565b6001600460008573ffffffffffffffffffffffffffffffffffffffff1673ffffffffffffffffffffffffffffffffffffffff1681526020019081526020016000206000828254611bd69190612aaa565b925050819055506001600460008473ffffffffffffffffffffffffffffffffffffffff1673ffffffffffffffffffffffffffffffffffffffff1681526020019081526020016000206000828254611c2d9190613113565b92505081905550816003600083815260200190815260200160002060006101000a81548173ffffffffffffffffffffffffffffffffffffffff021916908373ffffffffffffffffffffffffffffffffffffffff160217905550808273ffffffffffffffffffffffffffffffffffffffff168473ffffffffffffffffffffffffffffffffffffffff167fddf252ad1be2c89b69c2b068fc378daa952ba7f163c4a11628f55a4df523b3ef60405160405180910390a4505050565b611cf1848484611a8a565b611cfd84848484611ebf565b611d3c576040517f08c379a0000000000000000000000000000000000000000000000000000000008152600401611d33906131db565b60405180910390fd5b50505050565b606060405180602001604052806000815250905090565b60606000821415611da1576040518060400160405280600181526020017f30000000000000000000000000000000000000000000000000000000000000008152509050611eb5565b600082905060005b60008214611dd3578080611dbc906131fb565b915050600a82611dcc9190612b67565b9150611da9565b60008167ffffffffffffffff811115611def57611dee6125b5565b5b6040519080825280601f01601f191660200182016040528015611e215781602001600182028036833780820191505090505b5090505b60008514611eae57600182611e3a9190612aaa565b9150600a85611e499190613244565b6030611e559190613113565b60f81b818381518110611e6b57611e6a612a4c565b5b60200101907effffffffffffffffffffffffffffffffffffffffffffffffffffffffffffff1916908160001a905350600a85611ea79190612b67565b9450611e25565b8093505050505b919050565b505050565b6000611ee08473ffffffffffffffffffffffffffffffffffffffff16612047565b1561203a578373ffffffffffffffffffffffffffffffffffffffff1663150b7a02611f096118eb565b8786866040518563ffffffff1660e01b8152600401611f2b94939291906132ca565b6020604051808303816000875af1925050508015611f6757506040513d601f19601f82011682018060405250810190611f64919061332b565b60015b611fea573d8060008114611f97576040519150601f19603f3d011682016040523d82523d6000602084013e611f9c565b606091505b50600081511415611fe2576040517f08c379a0000000000000000000000000000000000000000000000000000000008152600401611fd9906131db565b60405180910390fd5b805181602001fd5b63150b7a0260e01b7bffffffffffffffffffffffffffffffffffffffffffffffffffffffff1916817bffffffffffffffffffffffffffffffffffffffffffffffffffffffff19161491505061203f565b600190505b949350505050565b600080823b905060008111915050919050565b6000604051905090565b600080fd5b600080fd5b60007fffffffff0000000000000000000000000000000000000000000000000000000082169050919050565b6120a38161206e565b81146120ae57600080fd5b50565b6000813590506120c08161209a565b92915050565b6000602082840312156120dc576120db612064565b5b60006120ea848285016120b1565b91505092915050565b60008115159050919050565b612108816120f3565b82525050565b600060208201905061212360008301846120ff565b92915050565b600073ffffffffffffffffffffffffffffffffffffffff82169050919050565b600061215482612129565b9050919050565b61216481612149565b811461216f57600080fd5b50565b6000813590506121818161215b565b92915050565b600061219282612129565b9050919050565b6121a281612187565b81146121ad57600080fd5b50565b6000813590506121bf81612199565b92915050565b6000819050919050565b6121d8816121c5565b81146121e357600080fd5b50565b6000813590506121f5816121cf565b92915050565b60008060006060848603121561221457612213612064565b5b600061222286828701612172565b9350506020612233868287016121b0565b9250506040612244868287016121e6565b9150509250925092565b600081519050919050565b600082825260208201905092915050565b60005b8381101561228857808201518184015260208101905061226d565b83811115612297576000848401525b50505050565b6000601f19601f8301169050919050565b60006122b98261224e565b6122c38185612259565b93506122d381856020860161226a565b6122dc8161229d565b840191505092915050565b6000602082019050818103600083015261230181846122ae565b905092915050565b60006020828403121561231f5761231e612064565b5b600061232d848285016121e6565b91505092915050565b61233f81612187565b82525050565b600060208201905061235a6000830184612336565b92915050565b6000806040838503121561237757612376612064565b5b6000612385858286016121b0565b9250506020612396858286016121e6565b9150509250929050565b6000806000606084860312156123b9576123b8612064565b5b60006123c7868287016121b0565b93505060206123d8868287016121b0565b92505060406123e9868287016121e6565b9150509250925092565b6123fc816121c5565b82525050565b600060208201905061241760008301846123f3565b92915050565b6000806040838503121561243457612433612064565b5b600061244285828601612172565b9250506020612453858286016121e6565b9150509250929050565b60008060006060848603121561247657612475612064565b5b600061248486828701612172565b9350506020612495868287016121e6565b92505060406124a6868287016121e6565b9150509250925092565b6124b981612149565b82525050565b600060a0820190506124d460008301886124b0565b6124e16020830187612336565b6124ee60408301866123f3565b6124fb60608301856123f3565b61250860808301846120ff565b9695505050505050565b60006020828403121561252857612527612064565b5b6000612536848285016121b0565b91505092915050565b612548816120f3565b811461255357600080fd5b50565b6000813590506125658161253f565b92915050565b6000806040838503121561258257612581612064565b5b6000612590858286016121b0565b92505060206125a185828601612556565b9150509250929050565b600080fd5b600080fd5b7f4e487b7100000000000000000000000000000000000000000000000000000000600052604160045260246000fd5b6125ed8261229d565b810181811067ffffffffffffffff8211171561260c5761260b6125b5565b5b80604052505050565b600061261f61205a565b905061262b82826125e4565b919050565b600067ffffffffffffffff82111561264b5761264a6125b5565b5b6126548261229d565b9050602081019050919050565b82818337600083830152505050565b600061268361267e84612630565b612615565b90508281526020810184848401111561269f5761269e6125b0565b5b6126aa848285612661565b509392505050565b600082601f8301126126c7576126c66125ab565b5b81356126d7848260208601612670565b91505092915050565b600080600080608085870312156126fa576126f9612064565b5b6000612708878288016121b0565b9450506020612719878288016121b0565b935050604061272a878288016121e6565b925050606085013567ffffffffffffffff81111561274b5761274a612069565b5b612757878288016126b2565b91505092959194509250565b6000806040838503121561277a57612779612064565b5b6000612788858286016121b0565b9250506020612799858286016121b0565b9150509250929050565b7f4e487b7100000000000000000000000000000000000000000000000000000000600052602260045260246000fd5b600060028204905060018216806127ea57607f821691505b602082108114156127fe576127fd6127a3565b5b50919050565b7f4552433732313a20617070726f76656420717565727920666f72206e6f6e657860008201527f697374656e7420746f6b656e0000000000000000000000000000000000000000602082015250565b6000612860602c83612259565b915061286b82612804565b604082019050919050565b6000602082019050818103600083015261288f81612853565b9050919050565b7f4552433732313a20617070726f76616c20746f2063757272656e74206f776e6560008201527f7200000000000000000000000000000000000000000000000000000000000000602082015250565b60006128f2602183612259565b91506128fd82612896565b604082019050919050565b60006020820190508181036000830152612921816128e5565b9050919050565b7f4552433732313a20617070726f76652063616c6c6572206973206e6f74206f7760008201527f6e6572206e6f7220617070726f76656420666f7220616c6c0000000000000000602082015250565b6000612984603883612259565b915061298f82612928565b604082019050919050565b600060208201905081810360008301526129b381612977565b9050919050565b7f4552433732313a207472616e736665722063616c6c6572206973206e6f74206f60008201527f776e6572206e6f7220617070726f766564000000000000000000000000000000602082015250565b6000612a16603183612259565b9150612a21826129ba565b604082019050919050565b60006020820190508181036000830152612a4581612a09565b9050919050565b7f4e487b7100000000000000000000000000000000000000000000000000000000600052603260045260246000fd5b7f4e487b7100000000000000000000000000000000000000000000000000000000600052601160045260246000fd5b6000612ab5826121c5565b9150612ac0836121c5565b925082821015612ad357612ad2612a7b565b5b828203905092915050565b6000612ae9826121c5565b9150612af4836121c5565b9250817fffffffffffffffffffffffffffffffffffffffffffffffffffffffffffffffff0483118215151615612b2d57612b2c612a7b565b5b828202905092915050565b7f4e487b7100000000000000000000000000000000000000000000000000000000600052601260045260246000fd5b6000612b72826121c5565b9150612b7d836121c5565b925082612b8d57612b8c612b38565b5b828204905092915050565b6000608082019050612bad60008301876124b0565b612bba60208301866124b0565b612bc760408301856123f3565b612bd460608301846123f3565b95945050505050565b7f4552433732313a206f776e657220717565727920666f72206e6f6e657869737460008201527f656e7420746f6b656e0000000000000000000000000000000000000000000000602082015250565b6000612c39602983612259565b9150612c4482612bdd565b604082019050919050565b60006020820190508181036000830152612c6881612c2c565b9050919050565b7f4552433732313a2062616c616e636520717565727920666f7220746865207a6560008201527f726f206164647265737300000000000000000000000000000000000000000000602082015250565b6000612ccb602a83612259565b9150612cd682612c6f565b604082019050919050565b60006020820190508181036000830152612cfa81612cbe565b9050919050565b7f4f776e61626c653a2063616c6c6572206973206e6f7420746865206f776e6572600082015250565b6000612d37602083612259565b9150612d4282612d01565b602082019050919050565b60006020820190508181036000830152612d6681612d2a565b9050919050565b7f4552433732313a20617070726f766520746f2063616c6c657200000000000000600082015250565b6000612da3601983612259565b9150612dae82612d6d565b602082019050919050565b60006020820190508181036000830152612dd281612d96565b9050919050565b7f4552433732314d657461646174613a2055524920717565727920666f72206e6f60008201527f6e6578697374656e7420746f6b656e0000000000000000000000000000000000602082015250565b6000612e35602f83612259565b9150612e4082612dd9565b604082019050919050565b60006020820190508181036000830152612e6481612e28565b9050919050565b600081905092915050565b6000612e818261224e565b612e8b8185612e6b565b9350612e9b81856020860161226a565b80840191505092915050565b6000612eb38285612e76565b9150612ebf8284612e76565b91508190509392505050565b7f4f776e61626c653a206e6577206f776e657220697320746865207a65726f206160008201527f6464726573730000000000000000000000000000000000000000000000000000602082015250565b6000612f27602683612259565b9150612f3282612ecb565b604082019050919050565b60006020820190508181036000830152612f5681612f1a565b9050919050565b7f4552433732313a206f70657261746f7220717565727920666f72206e6f6e657860008201527f697374656e7420746f6b656e0000000000000000000000000000000000000000602082015250565b6000612fb9602c83612259565b9150612fc482612f5d565b604082019050919050565b60006020820190508181036000830152612fe881612fac565b9050919050565b7f4552433732313a207472616e73666572206f6620746f6b656e2074686174206960008201527f73206e6f74206f776e0000000000000000000000000000000000000000000000602082015250565b600061304b602983612259565b915061305682612fef565b604082019050919050565b6000602082019050818103600083015261307a8161303e565b9050919050565b7f4552433732313a207472616e7366657220746f20746865207a65726f2061646460008201527f7265737300000000000000000000000000000000000000000000000000000000602082015250565b60006130dd602483612259565b91506130e882613081565b604082019050919050565b6000602082019050818103600083015261310c816130d0565b9050919050565b600061311e826121c5565b9150613129836121c5565b9250827fffffffffffffffffffffffffffffffffffffffffffffffffffffffffffffffff0382111561315e5761315d612a7b565b5b828201905092915050565b7f4552433732313a207472616e7366657220746f206e6f6e20455243373231526560008201527f63656976657220696d706c656d656e7465720000000000000000000000000000602082015250565b60006131c5603283612259565b91506131d082613169565b604082019050919050565b600060208201905081810360008301526131f4816131b8565b9050919050565b6000613206826121c5565b91507fffffffffffffffffffffffffffffffffffffffffffffffffffffffffffffffff82141561323957613238612a7b565b5b600182019050919050565b600061324f826121c5565b915061325a836121c5565b92508261326a57613269612b38565b5b828206905092915050565b600081519050919050565b600082825260208201905092915050565b600061329c82613275565b6132a68185613280565b93506132b681856020860161226a565b6132bf8161229d565b840191505092915050565b60006080820190506132df6000830187612336565b6132ec6020830186612336565b6132f960408301856123f3565b818103606083015261330b8184613291565b905095945050505050565b6000815190506133258161209a565b92915050565b60006020828403121561334157613340612064565b5b600061334f84828501613316565b9150509291505056fea2646970667358221220066fede9c892fe41d5fc114286b09e521af001e13bd712097582e84186f68b7364736f6c634300080a0033",
  "immutableReferences": {},
  "source": "// SPDX-License-Identifier: MIT\npragma solidity ^0.8.0;\n\nimport \"@openzeppelin/contracts/access/Ownable.sol\";\nimport \"@openzeppelin/contracts/token/ERC721/ERC721.sol\";\n\n/// @title A contract creating a mechanism by which to bid on any NFT in a given collection\n/// @author Kamil Alizai Sadik\ncontract LiquidityFactory is Ownable, ERC721 {\n\n\tconstructor() public ERC721(\"NonFungibleToken\", \"NFT\") {}\n\n\t// Event that fires when a new bid is submitted\n\tevent NewBid(address payable bidderAddress, address collectionAddress, uint bidAmount, uint bidId, bool bidStatus);\n\t// Event that fires when a bid is canceled\n\tevent BidCanceled(address payable bidderAddress, address collectionAddress, uint bidAmount, uint bidId, bool bidStatus);\n\t// Event that fires when a bid is hit\n\tevent NewTrade(address payable sellerAddress, address payable buyerAddress, uint bidAmount, uint tokenId);\n\n\t// Percentage platform fee paid by the seller (i.e., seller receives proceeds equal to bid*(1 - platformFee/100)\n\tuint public platformFee = 2;\n\n\t// Struct containing Bid attributes\n\tstruct Bid {\n\t\taddress payable bidderAddress;\n\t\taddress collectionAddress;\n\t\tuint bidAmount;\n\t\tuint bidId;\n\t\tbool bidStatus;\n\t}\n\n\t// Array of all bids\n\tBid[] public bids;\n\n\t// Mapping from collections to bids on that collection\n\t//mapping (address => Bid[]) public collectionsToBids;\n\n\t/// @dev Creates a new bid\n\t/// @param _bidderAddress Address of the bidder\n\t/// @param _collectionAddress Contract address of the NFT collection to which the bid applies\n\t/// @param _bidAmount Amount of bid in ETH\n\tfunction submitBid(address payable _bidderAddress, address _collectionAddress, uint _bidAmount) external payable {\n\t\t// Require that bidding address is sender\n\t\trequire(msg.sender == _bidderAddress);\n\t\t// Reequire that message value is equal to _bidAmount\n\t\trequire (msg.value == _bidAmount);\n\t\t// Create bid id\n\t\tuint id = bids.length;\n\t\t// Add bid to bids array\n\t\tbids.push(Bid(_bidderAddress, _collectionAddress, _bidAmount, id, true));\n\t\t// Add bid to collectionsToBids mapping\n\t\t// Emit bid creation event\n\t\temit NewBid(_bidderAddress, _collectionAddress, _bidAmount, id, true);\n\t}\n\n\t/// @dev Cancels a bid\n\t/// @param _bidderAddress Address of the bidder\n\t/// @param _bidId Id of the bid being canceled\n\tfunction cancelBid(address payable _bidderAddress, uint _bidId) external {\n\t\t// Require that bidding address is sender\n\t\trequire(msg.sender == _bidderAddress);\n\t\t// Set bidStatus to false\n\t\tbids[_bidId].bidStatus = false;\n\t\t// Refund bidder\n\t\t_bidderAddress.transfer(bids[_bidId].bidAmount);\n\t\t// Emit bid cancelation event\n\t\temit BidCanceled(_bidderAddress, bids[_bidId].collectionAddress, bids[_bidId].bidAmount, bids[_bidId].bidId, false);\n\t}\n\n\t/// @dev Sells an NFT into a bid (i.e., \"hits\" the bid)\n\t/// @param _sellerAddress Address of the seller\n\t/// @param _bidId Bid id of the bid being sold into\n\t/// @param _tokenId Token id of the NFT in question\n\tfunction hitBid(address payable _sellerAddress, uint _bidId, uint _tokenId) external {\n\t\t// Require that _sellerAddress is sender\n\t\trequire(msg.sender == _sellerAddress);\n\t\t// Require that bidStatus of _bidId bid is true\n\t\trequire(bids[_bidId].bidStatus == true);\n\t\t// Transfer NFT from seller address to vault\n\t\t//ERC721Interface().safeTransferFrom(_sellerAddress, bids[_bidId].bidderAddress, _tokenId);\n\t\t// Transfer NFT from vault to buyer\n\t\t//bids[_bidId].collectionAddress\n\t\t// Calculate net proceeds that seller is owed after accounting for the platform fee\n\t\tuint netProceeds = bids[_bidId].bidAmount*(1-platformFee)/100;\n\t\t// Transfer net proceeds to seller address\n\t\t_sellerAddress.transfer(netProceeds);\n\t\t// Set owner wallet as payable\n\t\taddress payable OWNER = payable(owner());\n\t\t// Transfer platform fee to owner\n\t\tOWNER.transfer(bids[_bidId].bidAmount - netProceeds);\n\t\t// Set bidStatus of buyer's bid to false\n\t\tbids[_bidId].bidStatus == false;\n\t\t// Emit new trade event\n\t\temit NewTrade(_sellerAddress, bids[_bidId].bidderAddress, bids[_bidId].bidAmount, _tokenId);\n\t}\n\n\t/// @dev Allows owner to change platformFee\n\t/// @param _newPlatformFee New platform fee\n\tfunction changePlatformFee(uint _newPlatformFee) external onlyOwner {\n\t\tplatformFee = _newPlatformFee;\n\t}\n}",
  "sourcePath": "/Users/kamilalizaisadik/DeFi/Floorquidity/contracts/LiquidityFactory.sol",
  "compiler": {
    "name": "solc",
    "version": "0.8.10+commit.fc410830.Emscripten.clang"
  },
  "schemaVersion": "3.4.1",
  "updatedAt": "2021-11-28T00:48:48.833Z",
  "devdoc": {
    "author": "Kamil Alizai Sadik",
    "kind": "dev",
    "methods": {
      "approve(address,uint256)": {
        "details": "See {IERC721-approve}."
      },
      "balanceOf(address)": {
        "details": "See {IERC721-balanceOf}."
      },
      "cancelBid(address,uint256)": {
        "details": "Cancels a bid",
        "params": {
          "_bidId": "Id of the bid being canceled",
          "_bidderAddress": "Address of the bidder"
        }
      },
      "changePlatformFee(uint256)": {
        "details": "Allows owner to change platformFee",
        "params": {
          "_newPlatformFee": "New platform fee"
        }
      },
      "getApproved(uint256)": {
        "details": "See {IERC721-getApproved}."
      },
      "hitBid(address,uint256,uint256)": {
        "details": "Sells an NFT into a bid (i.e., \"hits\" the bid)",
        "params": {
          "_bidId": "Bid id of the bid being sold into",
          "_sellerAddress": "Address of the seller",
          "_tokenId": "Token id of the NFT in question"
        }
      },
      "isApprovedForAll(address,address)": {
        "details": "See {IERC721-isApprovedForAll}."
      },
      "name()": {
        "details": "See {IERC721Metadata-name}."
      },
      "owner()": {
        "details": "Returns the address of the current owner."
      },
      "ownerOf(uint256)": {
        "details": "See {IERC721-ownerOf}."
      },
      "renounceOwnership()": {
        "details": "Leaves the contract without owner. It will not be possible to call `onlyOwner` functions anymore. Can only be called by the current owner. NOTE: Renouncing ownership will leave the contract without an owner, thereby removing any functionality that is only available to the owner."
      },
      "safeTransferFrom(address,address,uint256)": {
        "details": "See {IERC721-safeTransferFrom}."
      },
      "safeTransferFrom(address,address,uint256,bytes)": {
        "details": "See {IERC721-safeTransferFrom}."
      },
      "setApprovalForAll(address,bool)": {
        "details": "See {IERC721-setApprovalForAll}."
      },
      "submitBid(address,address,uint256)": {
        "details": "Creates a new bid",
        "params": {
          "_bidAmount": "Amount of bid in ETH",
          "_bidderAddress": "Address of the bidder",
          "_collectionAddress": "Contract address of the NFT collection to which the bid applies"
        }
      },
      "supportsInterface(bytes4)": {
        "details": "See {IERC165-supportsInterface}."
      },
      "symbol()": {
        "details": "See {IERC721Metadata-symbol}."
      },
      "tokenURI(uint256)": {
        "details": "See {IERC721Metadata-tokenURI}."
      },
      "transferFrom(address,address,uint256)": {
        "details": "See {IERC721-transferFrom}."
      },
      "transferOwnership(address)": {
        "details": "Transfers ownership of the contract to a new account (`newOwner`). Can only be called by the current owner."
      }
    },
    "title": "A contract creating a mechanism by which to bid on any NFT in a given collection",
    "version": 1
  },
  "userdoc": {
    "kind": "user",
    "methods": {},
    "version": 1
  }
}