{
  "contractName": "LiquidityFactory",
  "abi": [
    {
      "anonymous": false,
      "inputs": [
        {
          "indexed": true,
          "internalType": "address",
          "name": "bidderAddress",
          "type": "address"
        },
        {
          "indexed": true,
          "internalType": "address",
          "name": "nftAddress",
          "type": "address"
        },
        {
          "indexed": false,
          "internalType": "uint256",
          "name": "weiPriceEach",
          "type": "uint256"
        },
        {
          "indexed": false,
          "internalType": "uint256",
          "name": "quantity",
          "type": "uint256"
        },
        {
          "indexed": false,
          "internalType": "uint256",
          "name": "tokenId",
          "type": "uint256"
        }
      ],
      "name": "BidCanceled",
      "type": "event"
    },
    {
      "anonymous": false,
      "inputs": [
        {
          "indexed": true,
          "internalType": "address",
          "name": "bidderAddress",
          "type": "address"
        },
        {
          "indexed": true,
          "internalType": "address",
          "name": "nftAddress",
          "type": "address"
        },
        {
          "indexed": false,
          "internalType": "uint256",
          "name": "weiPriceEach",
          "type": "uint256"
        },
        {
          "indexed": false,
          "internalType": "uint256",
          "name": "quantity",
          "type": "uint256"
        },
        {
          "indexed": false,
          "internalType": "uint256",
          "name": "tokenId",
          "type": "uint256"
        }
      ],
      "name": "NewBid",
      "type": "event"
    },
    {
      "anonymous": false,
      "inputs": [
        {
          "indexed": true,
          "internalType": "address",
          "name": "bidderAddress",
          "type": "address"
        },
        {
          "indexed": true,
          "internalType": "address",
          "name": "sellerAddress",
          "type": "address"
        },
        {
          "indexed": true,
          "internalType": "address",
          "name": "nftAddress",
          "type": "address"
        },
        {
          "indexed": false,
          "internalType": "uint256",
          "name": "weiPriceEach",
          "type": "uint256"
        },
        {
          "indexed": false,
          "internalType": "uint256",
          "name": "quantity",
          "type": "uint256"
        },
        {
          "indexed": false,
          "internalType": "uint256",
          "name": "tokenId",
          "type": "uint256"
        }
      ],
      "name": "NewTrade",
      "type": "event"
    },
    {
      "anonymous": false,
      "inputs": [
        {
          "indexed": true,
          "internalType": "address",
          "name": "previousOwner",
          "type": "address"
        },
        {
          "indexed": true,
          "internalType": "address",
          "name": "newOwner",
          "type": "address"
        }
      ],
      "name": "OwnershipTransferred",
      "type": "event"
    },
    {
      "inputs": [],
      "name": "owner",
      "outputs": [
        {
          "internalType": "address",
          "name": "",
          "type": "address"
        }
      ],
      "stateMutability": "view",
      "type": "function"
    },
    {
      "inputs": [],
      "name": "platformFee",
      "outputs": [
        {
          "internalType": "uint256",
          "name": "",
          "type": "uint256"
        }
      ],
      "stateMutability": "view",
      "type": "function"
    },
    {
      "inputs": [],
      "name": "renounceOwnership",
      "outputs": [],
      "stateMutability": "nonpayable",
      "type": "function"
    },
    {
      "inputs": [
        {
          "internalType": "address",
          "name": "newOwner",
          "type": "address"
        }
      ],
      "name": "transferOwnership",
      "outputs": [],
      "stateMutability": "nonpayable",
      "type": "function"
    },
    {
      "inputs": [
        {
          "internalType": "address",
          "name": "_nftAddress",
          "type": "address"
        },
        {
          "internalType": "uint256",
          "name": "_quantity",
          "type": "uint256"
        }
      ],
      "name": "submitBid",
      "outputs": [],
      "stateMutability": "payable",
      "type": "function"
    },
    {
      "inputs": [
        {
          "internalType": "address",
          "name": "_nftAddress",
          "type": "address"
        }
      ],
      "name": "cancelBid",
      "outputs": [],
      "stateMutability": "nonpayable",
      "type": "function"
    },
    {
      "inputs": [
        {
          "internalType": "address",
          "name": "_bidderAddress",
          "type": "address"
        },
        {
          "internalType": "address",
          "name": "_nftAddress",
          "type": "address"
        },
        {
          "internalType": "uint256",
          "name": "_tokenId",
          "type": "uint256"
        },
        {
          "internalType": "uint256",
          "name": "_expectedWeiPriceEach",
          "type": "uint256"
        }
      ],
      "name": "hitBid",
      "outputs": [
        {
          "internalType": "uint256",
          "name": "",
          "type": "uint256"
        }
      ],
      "stateMutability": "nonpayable",
      "type": "function"
    },
    {
      "inputs": [
        {
          "internalType": "address[]",
          "name": "_bidderAddresses",
          "type": "address[]"
        },
        {
          "internalType": "address",
          "name": "_nftAddress",
          "type": "address"
        },
        {
          "internalType": "uint256[]",
          "name": "_tokenIds",
          "type": "uint256[]"
        },
        {
          "internalType": "uint256[]",
          "name": "_expectedWeiPriceEach",
          "type": "uint256[]"
        }
      ],
      "name": "hitMultipleBids",
      "outputs": [
        {
          "internalType": "uint256[]",
          "name": "",
          "type": "uint256[]"
        }
      ],
      "stateMutability": "nonpayable",
      "type": "function"
    },
    {
      "inputs": [
        {
          "internalType": "uint256",
          "name": "_newPlatformFee",
          "type": "uint256"
        }
      ],
      "name": "changePlatformFee",
      "outputs": [],
      "stateMutability": "nonpayable",
      "type": "function"
    },
    {
      "inputs": [
        {
          "internalType": "address",
          "name": "_bidderAddress",
          "type": "address"
        },
        {
          "internalType": "address",
          "name": "_nftAddress",
          "type": "address"
        }
      ],
      "name": "getBid",
      "outputs": [
        {
          "components": [
            {
              "internalType": "uint256",
              "name": "weiPriceEach",
              "type": "uint256"
            },
            {
              "internalType": "uint256",
              "name": "quantity",
              "type": "uint256"
            }
          ],
          "internalType": "struct LiquidityFactory.Bid",
          "name": "",
          "type": "tuple"
        }
      ],
      "stateMutability": "view",
      "type": "function"
    },
    {
      "inputs": [
        {
          "internalType": "address[]",
          "name": "_bidderAddresses",
          "type": "address[]"
        },
        {
          "internalType": "address[]",
          "name": "_nftAddresses",
          "type": "address[]"
        }
      ],
      "name": "getBids",
      "outputs": [
        {
          "components": [
            {
              "internalType": "uint256",
              "name": "weiPriceEach",
              "type": "uint256"
            },
            {
              "internalType": "uint256",
              "name": "quantity",
              "type": "uint256"
            }
          ],
          "internalType": "struct LiquidityFactory.Bid[]",
          "name": "",
          "type": "tuple[]"
        }
      ],
      "stateMutability": "view",
      "type": "function"
    }
  ],
  "bytecode": "0x608060405260c860015534801561001557600080fd5b5060006100266100c960201b60201c565b9050806000806101000a81548173ffffffffffffffffffffffffffffffffffffffff021916908373ffffffffffffffffffffffffffffffffffffffff1602179055508073ffffffffffffffffffffffffffffffffffffffff16600073ffffffffffffffffffffffffffffffffffffffff167f8be0079c531659141344cd1fd0a4f28419497f9722a3daafe3b4186f6b6457e060405160405180910390a3506100d1565b600033905090565b612249806100e06000396000f3fe60806040526004361061009c5760003560e01c80638da5cb5b116100645780638da5cb5b14610186578063a68c9bbb146101b1578063d7a5791a146101ee578063f2a4f2d614610217578063f2fde38b14610233578063f7762b971461025c5761009c565b806326232a2e146100a15780633f3a5027146100cc5780635646ad45146100f55780636680a87314610132578063715018a61461016f575b600080fd5b3480156100ad57600080fd5b506100b6610299565b6040516100c39190611295565b60405180910390f35b3480156100d857600080fd5b506100f360048036038101906100ee9190611322565b61029f565b005b34801561010157600080fd5b5061011c600480360381019061011791906114a8565b6104aa565b604051610129919061160d565b60405180910390f35b34801561013e57600080fd5b506101596004803603810190610154919061165b565b61061c565b6040516101669190611295565b60405180910390f35b34801561017b57600080fd5b50610184610932565b005b34801561019257600080fd5b5061019b610a6c565b6040516101a891906116d1565b60405180910390f35b3480156101bd57600080fd5b506101d860048036038101906101d391906116ec565b610a95565b6040516101e5919061175b565b60405180910390f35b3480156101fa57600080fd5b5061021560048036038101906102109190611776565b610b40565b005b610231600480360381019061022c91906117a3565b610bc6565b005b34801561023f57600080fd5b5061025a60048036038101906102559190611322565b610e77565b005b34801561026857600080fd5b50610283600480360381019061027e91906118a6565b611020565b6040516102909190611a10565b60405180910390f35b60015481565b6000600260003373ffffffffffffffffffffffffffffffffffffffff1673ffffffffffffffffffffffffffffffffffffffff16815260200190815260200160002060008373ffffffffffffffffffffffffffffffffffffffff1673ffffffffffffffffffffffffffffffffffffffff1681526020019081526020016000206040518060400160405290816000820154815260200160018201548152505090506000816020015182600001516103549190611a61565b9050600081141561039a576040517f08c379a000000000000000000000000000000000000000000000000000000000815260040161039190611b3e565b60405180910390fd5b600260003373ffffffffffffffffffffffffffffffffffffffff1673ffffffffffffffffffffffffffffffffffffffff16815260200190815260200160002060008473ffffffffffffffffffffffffffffffffffffffff1673ffffffffffffffffffffffffffffffffffffffff168152602001908152602001600020600080820160009055600182016000905550506104333382611166565b8273ffffffffffffffffffffffffffffffffffffffff163373ffffffffffffffffffffffffffffffffffffffff167fac86862bd75c1a456d082679c83d18254b660d83b51a9351d80f1bbff667e9f084600001518560200151600060405161049d93929190611ba3565b60405180910390a3505050565b60606000835167ffffffffffffffff8111156104c9576104c8611365565b5b60405190808252806020026020018201604052801561050257816020015b6104ef611262565b8152602001906001900390816104e75790505b50905060005b8451811015610611576002600086838151811061052857610527611bda565b5b602002602001015173ffffffffffffffffffffffffffffffffffffffff1673ffffffffffffffffffffffffffffffffffffffff168152602001908152602001600020600085838151811061057f5761057e611bda565b5b602002602001015173ffffffffffffffffffffffffffffffffffffffff1673ffffffffffffffffffffffffffffffffffffffff168152602001908152602001600020604051806040016040529081600082015481526020016001820154815250508282815181106105f3576105f2611bda565b5b6020026020010181905250808061060990611c09565b915050610508565b508091505092915050565b600080600260008773ffffffffffffffffffffffffffffffffffffffff1673ffffffffffffffffffffffffffffffffffffffff16815260200190815260200160002060008673ffffffffffffffffffffffffffffffffffffffff1673ffffffffffffffffffffffffffffffffffffffff1681526020019081526020016000206040518060400160405290816000820154815260200160018201548152505090506000816020015111610703576040517f08c379a00000000000000000000000000000000000000000000000000000000081526004016106fa90611c9e565b60405180910390fd5b828160000151101561074a576040517f08c379a000000000000000000000000000000000000000000000000000000000815260040161074190611d0a565b60405180910390fd5b6001816020015161075b9190611d2a565b600260008873ffffffffffffffffffffffffffffffffffffffff1673ffffffffffffffffffffffffffffffffffffffff16815260200190815260200160002060008773ffffffffffffffffffffffffffffffffffffffff1673ffffffffffffffffffffffffffffffffffffffff16815260200190815260200160002060010181905550600061271060015483600001516107f59190611a61565b6107ff9190611d8d565b905061081261080c610a6c565b82611166565b8573ffffffffffffffffffffffffffffffffffffffff166342842e0e3389886040518463ffffffff1660e01b815260040161084f93929190611dbe565b600060405180830381600087803b15801561086957600080fd5b505af115801561087d573d6000803e3d6000fd5b5050505060008183600001516108939190611d2a565b905061089f3382611166565b8673ffffffffffffffffffffffffffffffffffffffff163373ffffffffffffffffffffffffffffffffffffffff168973ffffffffffffffffffffffffffffffffffffffff167f82e5eeacc4d7f1d267e5a406341bed50eebba642a88138ef034a9ccff864a99b866000015160018b60405161091c93929190611e30565b60405180910390a4809350505050949350505050565b61093a61125a565b73ffffffffffffffffffffffffffffffffffffffff16610958610a6c565b73ffffffffffffffffffffffffffffffffffffffff16146109ae576040517f08c379a00000000000000000000000000000000000000000000000000000000081526004016109a590611eb3565b60405180910390fd5b600073ffffffffffffffffffffffffffffffffffffffff1660008054906101000a900473ffffffffffffffffffffffffffffffffffffffff1673ffffffffffffffffffffffffffffffffffffffff167f8be0079c531659141344cd1fd0a4f28419497f9722a3daafe3b4186f6b6457e060405160405180910390a360008060006101000a81548173ffffffffffffffffffffffffffffffffffffffff021916908373ffffffffffffffffffffffffffffffffffffffff160217905550565b60008060009054906101000a900473ffffffffffffffffffffffffffffffffffffffff16905090565b610a9d611262565b600260008473ffffffffffffffffffffffffffffffffffffffff1673ffffffffffffffffffffffffffffffffffffffff16815260200190815260200160002060008373ffffffffffffffffffffffffffffffffffffffff1673ffffffffffffffffffffffffffffffffffffffff16815260200190815260200160002060405180604001604052908160008201548152602001600182015481525050905092915050565b610b4861125a565b73ffffffffffffffffffffffffffffffffffffffff16610b66610a6c565b73ffffffffffffffffffffffffffffffffffffffff1614610bbc576040517f08c379a0000000000000000000000000000000000000000000000000000000008152600401610bb390611eb3565b60405180910390fd5b8060018190555050565b6000600260003373ffffffffffffffffffffffffffffffffffffffff1673ffffffffffffffffffffffffffffffffffffffff16815260200190815260200160002060008473ffffffffffffffffffffffffffffffffffffffff1673ffffffffffffffffffffffffffffffffffffffff1681526020019081526020016000206040518060400160405290816000820154815260200160018201548152505090506000816020015114610cac576040517f08c379a0000000000000000000000000000000000000000000000000000000008152600401610ca390611f45565b60405180910390fd5b60003411610cef576040517f08c379a0000000000000000000000000000000000000000000000000000000008152600401610ce690611fb1565b60405180910390fd5b60008234610cfd9190611d8d565b905080600260003373ffffffffffffffffffffffffffffffffffffffff1673ffffffffffffffffffffffffffffffffffffffff16815260200190815260200160002060008673ffffffffffffffffffffffffffffffffffffffff1673ffffffffffffffffffffffffffffffffffffffff1681526020019081526020016000206000018190555082600260003373ffffffffffffffffffffffffffffffffffffffff1673ffffffffffffffffffffffffffffffffffffffff16815260200190815260200160002060008673ffffffffffffffffffffffffffffffffffffffff1673ffffffffffffffffffffffffffffffffffffffff168152602001908152602001600020600101819055508373ffffffffffffffffffffffffffffffffffffffff163373ffffffffffffffffffffffffffffffffffffffff167f911d834cc781bcb7a08922b9dd1f1d175c0a0467d9705194c2e200f8ce2786bb83866000604051610e6993929190611ba3565b60405180910390a350505050565b610e7f61125a565b73ffffffffffffffffffffffffffffffffffffffff16610e9d610a6c565b73ffffffffffffffffffffffffffffffffffffffff1614610ef3576040517f08c379a0000000000000000000000000000000000000000000000000000000008152600401610eea90611eb3565b60405180910390fd5b600073ffffffffffffffffffffffffffffffffffffffff168173ffffffffffffffffffffffffffffffffffffffff161415610f63576040517f08c379a0000000000000000000000000000000000000000000000000000000008152600401610f5a90612043565b60405180910390fd5b8073ffffffffffffffffffffffffffffffffffffffff1660008054906101000a900473ffffffffffffffffffffffffffffffffffffffff1673ffffffffffffffffffffffffffffffffffffffff167f8be0079c531659141344cd1fd0a4f28419497f9722a3daafe3b4186f6b6457e060405160405180910390a3806000806101000a81548173ffffffffffffffffffffffffffffffffffffffff021916908373ffffffffffffffffffffffffffffffffffffffff16021790555050565b606082518551148015611034575081518351145b611073576040517f08c379a000000000000000000000000000000000000000000000000000000000815260040161106a906120af565b60405180910390fd5b6000855167ffffffffffffffff8111156110905761108f611365565b5b6040519080825280602002602001820160405280156110be5781602001602082028036833780820191505090505b50905060005b8651811015611159576111278782815181106110e3576110e2611bda565b5b6020026020010151878784815181106110ff576110fe611bda565b5b602002602001015187858151811061111a57611119611bda565b5b602002602001015161061c565b82828151811061113a57611139611bda565b5b602002602001018181525050808061115190611c09565b9150506110c4565b5080915050949350505050565b804710156111a9576040517f08c379a00000000000000000000000000000000000000000000000000000000081526004016111a09061211b565b60405180910390fd5b60008273ffffffffffffffffffffffffffffffffffffffff16826040516111cf9061216c565b60006040518083038185875af1925050503d806000811461120c576040519150601f19603f3d011682016040523d82523d6000602084013e611211565b606091505b5050905080611255576040517f08c379a000000000000000000000000000000000000000000000000000000000815260040161124c906121f3565b60405180910390fd5b505050565b600033905090565b604051806040016040528060008152602001600081525090565b6000819050919050565b61128f8161127c565b82525050565b60006020820190506112aa6000830184611286565b92915050565b6000604051905090565b600080fd5b600080fd5b600073ffffffffffffffffffffffffffffffffffffffff82169050919050565b60006112ef826112c4565b9050919050565b6112ff816112e4565b811461130a57600080fd5b50565b60008135905061131c816112f6565b92915050565b600060208284031215611338576113376112ba565b5b60006113468482850161130d565b91505092915050565b600080fd5b6000601f19601f8301169050919050565b7f4e487b7100000000000000000000000000000000000000000000000000000000600052604160045260246000fd5b61139d82611354565b810181811067ffffffffffffffff821117156113bc576113bb611365565b5b80604052505050565b60006113cf6112b0565b90506113db8282611394565b919050565b600067ffffffffffffffff8211156113fb576113fa611365565b5b602082029050602081019050919050565b600080fd5b600061142461141f846113e0565b6113c5565b905080838252602082019050602084028301858111156114475761144661140c565b5b835b81811015611470578061145c888261130d565b845260208401935050602081019050611449565b5050509392505050565b600082601f83011261148f5761148e61134f565b5b813561149f848260208601611411565b91505092915050565b600080604083850312156114bf576114be6112ba565b5b600083013567ffffffffffffffff8111156114dd576114dc6112bf565b5b6114e98582860161147a565b925050602083013567ffffffffffffffff81111561150a576115096112bf565b5b6115168582860161147a565b9150509250929050565b600081519050919050565b600082825260208201905092915050565b6000819050602082019050919050565b6115558161127c565b82525050565b604082016000820151611571600085018261154c565b506020820151611584602085018261154c565b50505050565b6000611596838361155b565b60408301905092915050565b6000602082019050919050565b60006115ba82611520565b6115c4818561152b565b93506115cf8361153c565b8060005b838110156116005781516115e7888261158a565b97506115f2836115a2565b9250506001810190506115d3565b5085935050505092915050565b6000602082019050818103600083015261162781846115af565b905092915050565b6116388161127c565b811461164357600080fd5b50565b6000813590506116558161162f565b92915050565b60008060008060808587031215611675576116746112ba565b5b60006116838782880161130d565b94505060206116948782880161130d565b93505060406116a587828801611646565b92505060606116b687828801611646565b91505092959194509250565b6116cb816112e4565b82525050565b60006020820190506116e660008301846116c2565b92915050565b60008060408385031215611703576117026112ba565b5b60006117118582860161130d565b92505060206117228582860161130d565b9150509250929050565b604082016000820151611742600085018261154c565b506020820151611755602085018261154c565b50505050565b6000604082019050611770600083018461172c565b92915050565b60006020828403121561178c5761178b6112ba565b5b600061179a84828501611646565b91505092915050565b600080604083850312156117ba576117b96112ba565b5b60006117c88582860161130d565b92505060206117d985828601611646565b9150509250929050565b600067ffffffffffffffff8211156117fe576117fd611365565b5b602082029050602081019050919050565b600061182261181d846117e3565b6113c5565b905080838252602082019050602084028301858111156118455761184461140c565b5b835b8181101561186e578061185a8882611646565b845260208401935050602081019050611847565b5050509392505050565b600082601f83011261188d5761188c61134f565b5b813561189d84826020860161180f565b91505092915050565b600080600080608085870312156118c0576118bf6112ba565b5b600085013567ffffffffffffffff8111156118de576118dd6112bf565b5b6118ea8782880161147a565b94505060206118fb8782880161130d565b935050604085013567ffffffffffffffff81111561191c5761191b6112bf565b5b61192887828801611878565b925050606085013567ffffffffffffffff811115611949576119486112bf565b5b61195587828801611878565b91505092959194509250565b600081519050919050565b600082825260208201905092915050565b6000819050602082019050919050565b6000611999838361154c565b60208301905092915050565b6000602082019050919050565b60006119bd82611961565b6119c7818561196c565b93506119d28361197d565b8060005b83811015611a035781516119ea888261198d565b97506119f5836119a5565b9250506001810190506119d6565b5085935050505092915050565b60006020820190508181036000830152611a2a81846119b2565b905092915050565b7f4e487b7100000000000000000000000000000000000000000000000000000000600052601160045260246000fd5b6000611a6c8261127c565b9150611a778361127c565b9250817fffffffffffffffffffffffffffffffffffffffffffffffffffffffffffffffff0483118215151615611ab057611aaf611a32565b5b828202905092915050565b600082825260208201905092915050565b7f596f752068617665206e6f206c697665206269647320666f722074686973206360008201527f6f6c6c656374696f6e2e00000000000000000000000000000000000000000000602082015250565b6000611b28602a83611abb565b9150611b3382611acc565b604082019050919050565b60006020820190508181036000830152611b5781611b1b565b9050919050565b6000819050919050565b6000819050919050565b6000611b8d611b88611b8384611b5e565b611b68565b61127c565b9050919050565b611b9d81611b72565b82525050565b6000606082019050611bb86000830186611286565b611bc56020830185611286565b611bd26040830184611b94565b949350505050565b7f4e487b7100000000000000000000000000000000000000000000000000000000600052603260045260246000fd5b6000611c148261127c565b91507fffffffffffffffffffffffffffffffffffffffffffffffffffffffffffffffff821415611c4757611c46611a32565b5b600182019050919050565b7f546869732062696420646f6573206e6f742065786973742e0000000000000000600082015250565b6000611c88601883611abb565b9150611c9382611c52565b602082019050919050565b60006020820190508181036000830152611cb781611c7b565b9050919050565b7f42696420697320696e73756666696369656e742e000000000000000000000000600082015250565b6000611cf4601483611abb565b9150611cff82611cbe565b602082019050919050565b60006020820190508181036000830152611d2381611ce7565b9050919050565b6000611d358261127c565b9150611d408361127c565b925082821015611d5357611d52611a32565b5b828203905092915050565b7f4e487b7100000000000000000000000000000000000000000000000000000000600052601260045260246000fd5b6000611d988261127c565b9150611da38361127c565b925082611db357611db2611d5e565b5b828204905092915050565b6000606082019050611dd360008301866116c2565b611de060208301856116c2565b611ded6040830184611286565b949350505050565b6000819050919050565b6000611e1a611e15611e1084611df5565b611b68565b61127c565b9050919050565b611e2a81611dff565b82525050565b6000606082019050611e456000830186611286565b611e526020830185611e21565b611e5f6040830184611286565b949350505050565b7f4f776e61626c653a2063616c6c6572206973206e6f7420746865206f776e6572600082015250565b6000611e9d602083611abb565b9150611ea882611e67565b602082019050919050565b60006020820190508181036000830152611ecc81611e90565b9050919050565b7f43616e63656c206578697374696e6720626964206265666f726520706c61636960008201527f6e672061206e6577206f6e652e00000000000000000000000000000000000000602082015250565b6000611f2f602d83611abb565b9150611f3a82611ed3565b604082019050919050565b60006020820190508181036000830152611f5e81611f22565b9050919050565b7f4269642076616c7565206d757374206578636565642030204554482e00000000600082015250565b6000611f9b601c83611abb565b9150611fa682611f65565b602082019050919050565b60006020820190508181036000830152611fca81611f8e565b9050919050565b7f4f776e61626c653a206e6577206f776e657220697320746865207a65726f206160008201527f6464726573730000000000000000000000000000000000000000000000000000602082015250565b600061202d602683611abb565b915061203882611fd1565b604082019050919050565b6000602082019050818103600083015261205c81612020565b9050919050565b7f4d69736d61746368696e67206172726179206c656e6774687300000000000000600082015250565b6000612099601983611abb565b91506120a482612063565b602082019050919050565b600060208201905081810360008301526120c88161208c565b9050919050565b7f416464726573733a20696e73756666696369656e742062616c616e6365000000600082015250565b6000612105601d83611abb565b9150612110826120cf565b602082019050919050565b60006020820190508181036000830152612134816120f8565b9050919050565b600081905092915050565b50565b600061215660008361213b565b915061216182612146565b600082019050919050565b600061217782612149565b9150819050919050565b7f416464726573733a20756e61626c6520746f2073656e642076616c75652c207260008201527f6563697069656e74206d61792068617665207265766572746564000000000000602082015250565b60006121dd603a83611abb565b91506121e882612181565b604082019050919050565b6000602082019050818103600083015261220c816121d0565b905091905056fea2646970667358221220c3640e50b772674e3378b14543fe6b43e3b78f6ae2525ad4614794388eee178164736f6c634300080b0033",
  "immutableReferences": {},
  "source": "// SPDX-License-Identifier: MIT\npragma solidity ^0.8.0;\n\nimport \"@openzeppelin/contracts/access/Ownable.sol\";\nimport \"hardhat/console.sol\";\n\ninterface IERC721 {\n\tfunction safeTransferFrom(address _from, address _to, uint256 _tokenId) external payable;\n}\n\n/// @title A contract enabling bidders to bid on any NFT in a given collection, and holders to sell any NFT from that collection into such a bid\n/// @author Kamil Alizai Sadik\ncontract LiquidityFactory is Ownable {\n\n\t// Percentage platform fee paid by the seller, in basis points\n\tuint256 public platformFee = 200;\n\n\t// Event that fires when a new bid is submitted\n\tevent NewBid(address indexed bidderAddress, address indexed nftAddress, uint weiPriceEach, uint quantity, uint tokenId);\n\t// Event that fires when a bid is canceled\n\tevent BidCanceled(address indexed bidderAddress, address indexed nftAddress, uint weiPriceEach, uint quantity, uint tokenId);\n\t// Event that fires when a bid is hit\n\tevent NewTrade(address indexed bidderAddress, address indexed sellerAddress, address indexed nftAddress, uint weiPriceEach, uint quantity, uint tokenId);\n\n\t// Struct containing Bid attributes\n\tstruct Bid {\n\t\tuint256 weiPriceEach;\n\t\tuint256 quantity;\n\t}\n\n\t// Array of all bids (bidder => NFT collection address => Bid {weiPriceEach, quantity})\n\tmapping(address => mapping(address => Bid)) bids;\n\n\t/// @dev Creates a new bid\n\t/// @param _nftAddress Address of desired NFT collection\n\t/// @param _quantity Quantity of desired NFT\n\tfunction submitBid(address _nftAddress, uint _quantity) external payable {\n\t\t// Initialize bid\n\t\tBid memory bid = bids[msg.sender][_nftAddress];\n\t\t// Require that bidder does not already have a bid on this collection\n\t\trequire(bid.quantity == 0, \"Cancel existing bid before placing a new one.\");\n\t\t// Require that message value is > 0\n\t\trequire (msg.value > 0, \"Bid value must exceed 0 ETH.\");\n\t\t// Compute value of each bid, in wei\n\t\tuint256 weiPriceEach = uint256(msg.value) / _quantity;\n\t\t// Update bids mapping\n\t\tbids[msg.sender][_nftAddress].weiPriceEach = weiPriceEach;\n\t\tbids[msg.sender][_nftAddress].quantity = _quantity;\n\t\t// Emit bid creation event\n\t\temit NewBid(msg.sender, _nftAddress, weiPriceEach, _quantity, 0);\n\t}\n\n\t/// @dev Cancels a bid\n\t/// @param _nftAddress Address of NFT collection for which bid is being canceled\n\tfunction cancelBid(address _nftAddress) external {\n\t\t// Initialize bid\n\t\tBid memory bid = bids[msg.sender][_nftAddress];\n\t\t// Compute refund\n\t\tuint256 refund = bid.weiPriceEach * bid.quantity;\n\t\t// Require that bidder is due a refund\n\t\trequire(refund != 0, \"You have no live bids for this collection.\");\n\t\t// Delete bid\n\t\tdelete bids[msg.sender][_nftAddress];\n\t\t// Refund bidder\n\t\tsendValue(payable(msg.sender), refund);\n\t\t// Emit bid cancelation event\n\t\temit BidCanceled(msg.sender, _nftAddress, bid.weiPriceEach, bid.quantity, 0);\n\t}\n\n\t/// @dev Sells NFT into a bid (i.e., \"hits\" the bid)\n\t/// @param _bidderAddress Address of the bidder\n\t/// @param _nftAddress Address of collection to which the bid applies\n\t/// @param _tokenId Token id of the NFT in question\n\t/// @param _expectedWeiPriceEach Price (in wei) that seller expects to receive for each NFT\n\t/// @return Proceeds remitted to seller\n\tfunction hitBid(address _bidderAddress, address _nftAddress, uint256 _tokenId, uint256 _expectedWeiPriceEach) public returns (uint256) {\n\t\t// Initialize bid\n\t\tBid memory bid = bids[_bidderAddress][_nftAddress];\n\t\t// Require that bid exists\n\t\trequire(bid.quantity > 0, \"This bid does not exist.\");\n\t\t// Require that bid amount is at least what the seller expects\n\t\trequire(bid.weiPriceEach >= _expectedWeiPriceEach, \"Bid is insufficient.\");\n\t\t// Decrement bidder's bid quantity for this collection\n\t\tbids[_bidderAddress][_nftAddress].quantity = bid.quantity - 1;\n\t\t// Compute platform fee proceeds\n\t\tuint256 platformFeeProceeds = bid.weiPriceEach * platformFee / 10000;\n\t\t// Remit platform fee proceeds to owner\n\t\tsendValue(payable(owner()), platformFeeProceeds);\n\t\t// Transfer NFT to bidder\n\t\tIERC721(_nftAddress).safeTransferFrom(msg.sender, _bidderAddress, _tokenId);\n\t\t// Compute seller proceeds\n\t\tuint256 sellerProceeds = bid.weiPriceEach - platformFeeProceeds;\n\t\t// Remit seller proceeds to seller\n\t\tsendValue(payable(msg.sender), sellerProceeds);\n\t\t// Emit new trade event\n\t\temit NewTrade(_bidderAddress, msg.sender, _nftAddress, bid.weiPriceEach, 1, _tokenId);\n\t\t// Return seller proceeds\n\t\treturn sellerProceeds;\n\t}\n\n\t/// @dev Sells multiple NFTs into multiple bids (i.e., \"hits\" multiple bids)\n\t/// @param _bidderAddresses Array of addresses of bidders\n\t/// @param _nftAddress Address of collection to which the bids apply\n\t/// @param _tokenIds Array of token ids of the NFTs in question\n\t/// @param _expectedWeiPriceEach Array of prices (in wei) that seller expects to receive for each NFT\n\t/// @return Array of proceeds remitted to seller for each sold NFT\n\tfunction hitMultipleBids(address[] memory _bidderAddresses, address _nftAddress, uint256[] memory _tokenIds, uint256[] memory _expectedWeiPriceEach) external returns (uint256[] memory){\n\t\t// Check that number of bids matches number of expected sales\n\t\trequire(_bidderAddresses.length == _tokenIds.length && _tokenIds.length == _expectedWeiPriceEach.length, \"Mismatching array lengths\");\n\t\t// Initialize output array of sellerProceeds\n\t\tuint256[] memory output = new uint256[](_bidderAddresses.length);\n\t\t// Iteratively sell NFTs to bidder\n\t\tfor (uint256 i = 0; i < _bidderAddresses.length; i++) {\n\t\t\toutput[i] = hitBid(_bidderAddresses[i], _nftAddress, _tokenIds[i], _expectedWeiPriceEach[i]);\n\t\t}\n\t\t// Return array of seller proceeds\n\t\treturn output;\n\t}\n\n\t/// @dev Allows owner to change platformFee\n\t/// @param _newPlatformFee New platform fee\n\tfunction changePlatformFee(uint _newPlatformFee) external onlyOwner {\n\t\tplatformFee = _newPlatformFee;\n\t}\n\n\t/// @dev OpenZeppelin sendValue function\n\t/// @param recipient Address receiving funds\n\t/// @param amount Amount of funds being sent\n\tfunction sendValue(address payable recipient, uint256 amount) internal {\n\t\trequire(address(this).balance >= amount, \"Address: insufficient balance\");\n\t\t(bool success, ) = recipient.call{ value: amount }(\"\");\n\t\trequire(success, \"Address: unable to send value, recipient may have reverted\");\n\t}\n\n\t/// @dev Getter function to display a single bid on front-end\n\t/// @param _bidderAddress Address of bidder\n\t/// @param _nftAddress Address of collection to which the bid applies\n\t/// @return Desired bid\n\tfunction getBid(address _bidderAddress, address _nftAddress) external view returns (Bid memory) {\n\t\treturn bids[_bidderAddress][_nftAddress];\n\t}\n\n\t/// @dev Getter function to display multiple bids on front-end\n\t/// @param _bidderAddresses Array of bidders\n\t/// @param _nftAddresses Array of collections to which each bid (respectively) applies\n\t/// @return Array of desired bids\n\tfunction getBids(address[] memory _bidderAddresses, address[] memory _nftAddresses) external view returns (Bid[] memory) {\n\t\tBid[] memory output = new Bid[](_bidderAddresses.length);\n\t\tfor (uint i = 0; i < _bidderAddresses.length; i++) {\n\t\t\toutput[i] = bids[_bidderAddresses[i]][_nftAddresses[i]];\n\t\t}\n\t\treturn output;\n\t}\n\n}",
  "sourcePath": "/Users/kamilalizaisadik/DeFi/Floorquidity/contracts/LiquidityFactory.sol",
  "compiler": {
    "name": "solc",
    "version": "0.8.11+commit.d7f03943.Emscripten.clang"
  },
  "schemaVersion": "3.4.1",
  "updatedAt": "2022-02-01T18:55:28.848Z",
  "devdoc": {
    "author": "Kamil Alizai Sadik",
    "kind": "dev",
    "methods": {
      "cancelBid(address)": {
        "details": "Cancels a bid",
        "params": {
          "_nftAddress": "Address of NFT collection for which bid is being canceled"
        }
      },
      "changePlatformFee(uint256)": {
        "details": "Allows owner to change platformFee",
        "params": {
          "_newPlatformFee": "New platform fee"
        }
      },
      "getBid(address,address)": {
        "details": "Getter function to display a single bid on front-end",
        "params": {
          "_bidderAddress": "Address of bidder",
          "_nftAddress": "Address of collection to which the bid applies"
        },
        "returns": {
          "_0": "Desired bid"
        }
      },
      "getBids(address[],address[])": {
        "details": "Getter function to display multiple bids on front-end",
        "params": {
          "_bidderAddresses": "Array of bidders",
          "_nftAddresses": "Array of collections to which each bid (respectively) applies"
        },
        "returns": {
          "_0": "Array of desired bids"
        }
      },
      "hitBid(address,address,uint256,uint256)": {
        "details": "Sells NFT into a bid (i.e., \"hits\" the bid)",
        "params": {
          "_bidderAddress": "Address of the bidder",
          "_expectedWeiPriceEach": "Price (in wei) that seller expects to receive for each NFT",
          "_nftAddress": "Address of collection to which the bid applies",
          "_tokenId": "Token id of the NFT in question"
        },
        "returns": {
          "_0": "Proceeds remitted to seller"
        }
      },
      "hitMultipleBids(address[],address,uint256[],uint256[])": {
        "details": "Sells multiple NFTs into multiple bids (i.e., \"hits\" multiple bids)",
        "params": {
          "_bidderAddresses": "Array of addresses of bidders",
          "_expectedWeiPriceEach": "Array of prices (in wei) that seller expects to receive for each NFT",
          "_nftAddress": "Address of collection to which the bids apply",
          "_tokenIds": "Array of token ids of the NFTs in question"
        },
        "returns": {
          "_0": "Array of proceeds remitted to seller for each sold NFT"
        }
      },
      "owner()": {
        "details": "Returns the address of the current owner."
      },
      "renounceOwnership()": {
        "details": "Leaves the contract without owner. It will not be possible to call `onlyOwner` functions anymore. Can only be called by the current owner. NOTE: Renouncing ownership will leave the contract without an owner, thereby removing any functionality that is only available to the owner."
      },
      "submitBid(address,uint256)": {
        "details": "Creates a new bid",
        "params": {
          "_nftAddress": "Address of desired NFT collection",
          "_quantity": "Quantity of desired NFT"
        }
      },
      "transferOwnership(address)": {
        "details": "Transfers ownership of the contract to a new account (`newOwner`). Can only be called by the current owner."
      }
    },
    "title": "A contract enabling bidders to bid on any NFT in a given collection, and holders to sell any NFT from that collection into such a bid",
    "version": 1
  },
  "userdoc": {
    "kind": "user",
    "methods": {},
    "version": 1
  }
}