{
  "contractName": "LiquidityFactory",
  "abi": [
    {
      "anonymous": false,
      "inputs": [
        {
          "indexed": true,
          "internalType": "address",
          "name": "bidderAddress",
          "type": "address"
        },
        {
          "indexed": true,
          "internalType": "address",
          "name": "nftAddress",
          "type": "address"
        },
        {
          "indexed": false,
          "internalType": "uint256",
          "name": "weiPriceEach",
          "type": "uint256"
        },
        {
          "indexed": false,
          "internalType": "uint256",
          "name": "quantity",
          "type": "uint256"
        },
        {
          "indexed": false,
          "internalType": "uint256",
          "name": "tokenId",
          "type": "uint256"
        }
      ],
      "name": "BidCanceled",
      "type": "event"
    },
    {
      "anonymous": false,
      "inputs": [
        {
          "indexed": true,
          "internalType": "address",
          "name": "bidderAddress",
          "type": "address"
        },
        {
          "indexed": true,
          "internalType": "address",
          "name": "nftAddress",
          "type": "address"
        },
        {
          "indexed": false,
          "internalType": "uint256",
          "name": "weiPriceEach",
          "type": "uint256"
        },
        {
          "indexed": false,
          "internalType": "uint256",
          "name": "quantity",
          "type": "uint256"
        },
        {
          "indexed": false,
          "internalType": "uint256",
          "name": "tokenId",
          "type": "uint256"
        }
      ],
      "name": "NewBid",
      "type": "event"
    },
    {
      "anonymous": false,
      "inputs": [
        {
          "indexed": true,
          "internalType": "address",
          "name": "bidderAddress",
          "type": "address"
        },
        {
          "indexed": true,
          "internalType": "address",
          "name": "sellerAddress",
          "type": "address"
        },
        {
          "indexed": true,
          "internalType": "address",
          "name": "nftAddress",
          "type": "address"
        },
        {
          "indexed": false,
          "internalType": "uint256",
          "name": "weiPriceEach",
          "type": "uint256"
        },
        {
          "indexed": false,
          "internalType": "uint256",
          "name": "quantity",
          "type": "uint256"
        },
        {
          "indexed": false,
          "internalType": "uint256",
          "name": "tokenId",
          "type": "uint256"
        }
      ],
      "name": "NewTrade",
      "type": "event"
    },
    {
      "anonymous": false,
      "inputs": [
        {
          "indexed": true,
          "internalType": "address",
          "name": "previousOwner",
          "type": "address"
        },
        {
          "indexed": true,
          "internalType": "address",
          "name": "newOwner",
          "type": "address"
        }
      ],
      "name": "OwnershipTransferred",
      "type": "event"
    },
    {
      "inputs": [],
      "name": "owner",
      "outputs": [
        {
          "internalType": "address",
          "name": "",
          "type": "address"
        }
      ],
      "stateMutability": "view",
      "type": "function"
    },
    {
      "inputs": [],
      "name": "platformFee",
      "outputs": [
        {
          "internalType": "uint256",
          "name": "",
          "type": "uint256"
        }
      ],
      "stateMutability": "view",
      "type": "function"
    },
    {
      "inputs": [],
      "name": "renounceOwnership",
      "outputs": [],
      "stateMutability": "nonpayable",
      "type": "function"
    },
    {
      "inputs": [
        {
          "internalType": "address",
          "name": "newOwner",
          "type": "address"
        }
      ],
      "name": "transferOwnership",
      "outputs": [],
      "stateMutability": "nonpayable",
      "type": "function"
    },
    {
      "inputs": [
        {
          "internalType": "address",
          "name": "_nftAddress",
          "type": "address"
        },
        {
          "internalType": "uint256",
          "name": "_quantity",
          "type": "uint256"
        }
      ],
      "name": "submitBid",
      "outputs": [],
      "stateMutability": "payable",
      "type": "function"
    },
    {
      "inputs": [
        {
          "internalType": "address",
          "name": "_nftAddress",
          "type": "address"
        }
      ],
      "name": "cancelBid",
      "outputs": [],
      "stateMutability": "nonpayable",
      "type": "function"
    },
    {
      "inputs": [
        {
          "internalType": "address",
          "name": "_bidderAddress",
          "type": "address"
        },
        {
          "internalType": "address",
          "name": "_nftAddress",
          "type": "address"
        },
        {
          "internalType": "uint256",
          "name": "_tokenId",
          "type": "uint256"
        },
        {
          "internalType": "uint256",
          "name": "_expectedWeiPriceEach",
          "type": "uint256"
        }
      ],
      "name": "hitBid",
      "outputs": [
        {
          "internalType": "uint256",
          "name": "",
          "type": "uint256"
        }
      ],
      "stateMutability": "nonpayable",
      "type": "function"
    },
    {
      "inputs": [
        {
          "internalType": "address[]",
          "name": "_bidderAddresses",
          "type": "address[]"
        },
        {
          "internalType": "address",
          "name": "_nftAddress",
          "type": "address"
        },
        {
          "internalType": "uint256[]",
          "name": "_tokenIds",
          "type": "uint256[]"
        },
        {
          "internalType": "uint256[]",
          "name": "_expectedWeiPriceEach",
          "type": "uint256[]"
        }
      ],
      "name": "hitMultipleBids",
      "outputs": [
        {
          "internalType": "uint256[]",
          "name": "",
          "type": "uint256[]"
        }
      ],
      "stateMutability": "nonpayable",
      "type": "function"
    },
    {
      "inputs": [
        {
          "internalType": "uint256",
          "name": "_newPlatformFee",
          "type": "uint256"
        }
      ],
      "name": "changePlatformFee",
      "outputs": [],
      "stateMutability": "nonpayable",
      "type": "function"
    },
    {
      "inputs": [
        {
          "internalType": "address",
          "name": "_bidderAddress",
          "type": "address"
        },
        {
          "internalType": "address",
          "name": "_nftAddress",
          "type": "address"
        }
      ],
      "name": "getBid",
      "outputs": [
        {
          "components": [
            {
              "internalType": "uint256",
              "name": "weiPriceEach",
              "type": "uint256"
            },
            {
              "internalType": "uint256",
              "name": "quantity",
              "type": "uint256"
            }
          ],
          "internalType": "struct LiquidityFactory.Bid",
          "name": "",
          "type": "tuple"
        }
      ],
      "stateMutability": "view",
      "type": "function"
    },
    {
      "inputs": [
        {
          "internalType": "address[]",
          "name": "_bidderAddresses",
          "type": "address[]"
        },
        {
          "internalType": "address[]",
          "name": "_nftAddresses",
          "type": "address[]"
        }
      ],
      "name": "getBids",
      "outputs": [
        {
          "components": [
            {
              "internalType": "uint256",
              "name": "weiPriceEach",
              "type": "uint256"
            },
            {
              "internalType": "uint256",
              "name": "quantity",
              "type": "uint256"
            }
          ],
          "internalType": "struct LiquidityFactory.Bid[]",
          "name": "",
          "type": "tuple[]"
        }
      ],
      "stateMutability": "view",
      "type": "function"
    }
  ],
  "bytecode": "0x6080604052620000146200011d60201b60201c565b600160006101000a81548173ffffffffffffffffffffffffffffffffffffffff021916908373ffffffffffffffffffffffffffffffffffffffff16021790555060c86002553480156200006657600080fd5b506000620000796200014660201b60201c565b9050806000806101000a81548173ffffffffffffffffffffffffffffffffffffffff021916908373ffffffffffffffffffffffffffffffffffffffff1602179055508073ffffffffffffffffffffffffffffffffffffffff16600073ffffffffffffffffffffffffffffffffffffffff167f8be0079c531659141344cd1fd0a4f28419497f9722a3daafe3b4186f6b6457e060405160405180910390a3506200014e565b60008060009054906101000a900473ffffffffffffffffffffffffffffffffffffffff16905090565b600033905090565b612561806200015e6000396000f3fe60806040526004361061009c5760003560e01c80638da5cb5b116100645780638da5cb5b14610186578063a68c9bbb146101b1578063d7a5791a146101ee578063f2a4f2d614610217578063f2fde38b14610233578063f7762b971461025c5761009c565b806326232a2e146100a15780633f3a5027146100cc5780635646ad45146100f55780636680a87314610132578063715018a61461016f575b600080fd5b3480156100ad57600080fd5b506100b6610299565b6040516100c391906114dd565b60405180910390f35b3480156100d857600080fd5b506100f360048036038101906100ee919061156a565b61029f565b005b34801561010157600080fd5b5061011c600480360381019061011791906116f0565b6104aa565b6040516101299190611855565b60405180910390f35b34801561013e57600080fd5b50610159600480360381019061015491906118a3565b61061c565b60405161016691906114dd565b60405180910390f35b34801561017b57600080fd5b50610184610ab5565b005b34801561019257600080fd5b5061019b610bef565b6040516101a89190611919565b60405180910390f35b3480156101bd57600080fd5b506101d860048036038101906101d39190611934565b610c18565b6040516101e591906119a3565b60405180910390f35b3480156101fa57600080fd5b50610215600480360381019061021091906119be565b610cc3565b005b610231600480360381019061022c91906119eb565b610d49565b005b34801561023f57600080fd5b5061025a6004803603810190610255919061156a565b610ffa565b005b34801561026857600080fd5b50610283600480360381019061027e9190611aee565b6111a3565b6040516102909190611c58565b60405180910390f35b60025481565b6000600360003373ffffffffffffffffffffffffffffffffffffffff1673ffffffffffffffffffffffffffffffffffffffff16815260200190815260200160002060008373ffffffffffffffffffffffffffffffffffffffff1673ffffffffffffffffffffffffffffffffffffffff1681526020019081526020016000206040518060400160405290816000820154815260200160018201548152505090506000816020015182600001516103549190611ca9565b9050600081141561039a576040517f08c379a000000000000000000000000000000000000000000000000000000000815260040161039190611d86565b60405180910390fd5b600360003373ffffffffffffffffffffffffffffffffffffffff1673ffffffffffffffffffffffffffffffffffffffff16815260200190815260200160002060008473ffffffffffffffffffffffffffffffffffffffff1673ffffffffffffffffffffffffffffffffffffffff1681526020019081526020016000206000808201600090556001820160009055505061043333826112e9565b8273ffffffffffffffffffffffffffffffffffffffff163373ffffffffffffffffffffffffffffffffffffffff167fac86862bd75c1a456d082679c83d18254b660d83b51a9351d80f1bbff667e9f084600001518560200151600060405161049d93929190611deb565b60405180910390a3505050565b60606000835167ffffffffffffffff8111156104c9576104c86115ad565b5b60405190808252806020026020018201604052801561050257816020015b6104ef6114aa565b8152602001906001900390816104e75790505b50905060005b8451811015610611576003600086838151811061052857610527611e22565b5b602002602001015173ffffffffffffffffffffffffffffffffffffffff1673ffffffffffffffffffffffffffffffffffffffff168152602001908152602001600020600085838151811061057f5761057e611e22565b5b602002602001015173ffffffffffffffffffffffffffffffffffffffff1673ffffffffffffffffffffffffffffffffffffffff168152602001908152602001600020604051806040016040529081600082015481526020016001820154815250508282815181106105f3576105f2611e22565b5b6020026020010181905250808061060990611e51565b915050610508565b508091505092915050565b600061065d6040518060400160405280601681526020017f6d73672e73656e646572206f66206869744269743a2000000000000000000000815250336113dd565b6000600360008773ffffffffffffffffffffffffffffffffffffffff1673ffffffffffffffffffffffffffffffffffffffff16815260200190815260200160002060008673ffffffffffffffffffffffffffffffffffffffff1673ffffffffffffffffffffffffffffffffffffffff1681526020019081526020016000206040518060400160405290816000820154815260200160018201548152505090506000816020015111610743576040517f08c379a000000000000000000000000000000000000000000000000000000000815260040161073a90611ee6565b60405180910390fd5b828160000151101561078a576040517f08c379a000000000000000000000000000000000000000000000000000000000815260040161078190611f52565b60405180910390fd5b6001816020015161079b9190611f72565b600360008873ffffffffffffffffffffffffffffffffffffffff1673ffffffffffffffffffffffffffffffffffffffff16815260200190815260200160002060008773ffffffffffffffffffffffffffffffffffffffff1673ffffffffffffffffffffffffffffffffffffffff16815260200190815260200160002060010181905550600061271060025483600001516108359190611ca9565b61083f9190611fd5565b905061086d600160009054906101000a900473ffffffffffffffffffffffffffffffffffffffff16826112e9565b73b47e3cd837ddf8e4c57f05d70ab865de6e193bbb73ffffffffffffffffffffffffffffffffffffffff168673ffffffffffffffffffffffffffffffffffffffff161415610927578573ffffffffffffffffffffffffffffffffffffffff16638b72a2ec88876040518363ffffffff1660e01b81526004016108f0929190612006565b600060405180830381600087803b15801561090a57600080fd5b505af115801561091e573d6000803e3d6000fd5b50505050610a04565b8573ffffffffffffffffffffffffffffffffffffffff1663095ea7b330876040518363ffffffff1660e01b8152600401610962929190612006565b600060405180830381600087803b15801561097c57600080fd5b505af1158015610990573d6000803e3d6000fd5b505050508573ffffffffffffffffffffffffffffffffffffffff166342842e0e3389886040518463ffffffff1660e01b81526004016109d19392919061202f565b600060405180830381600087803b1580156109eb57600080fd5b505af11580156109ff573d6000803e3d6000fd5b505050505b6000818360000151610a169190611f72565b9050610a2233826112e9565b8673ffffffffffffffffffffffffffffffffffffffff163373ffffffffffffffffffffffffffffffffffffffff168973ffffffffffffffffffffffffffffffffffffffff167f82e5eeacc4d7f1d267e5a406341bed50eebba642a88138ef034a9ccff864a99b866000015160018b604051610a9f939291906120a1565b60405180910390a4809350505050949350505050565b610abd611479565b73ffffffffffffffffffffffffffffffffffffffff16610adb610bef565b73ffffffffffffffffffffffffffffffffffffffff1614610b31576040517f08c379a0000000000000000000000000000000000000000000000000000000008152600401610b2890612124565b60405180910390fd5b600073ffffffffffffffffffffffffffffffffffffffff1660008054906101000a900473ffffffffffffffffffffffffffffffffffffffff1673ffffffffffffffffffffffffffffffffffffffff167f8be0079c531659141344cd1fd0a4f28419497f9722a3daafe3b4186f6b6457e060405160405180910390a360008060006101000a81548173ffffffffffffffffffffffffffffffffffffffff021916908373ffffffffffffffffffffffffffffffffffffffff160217905550565b60008060009054906101000a900473ffffffffffffffffffffffffffffffffffffffff16905090565b610c206114aa565b600360008473ffffffffffffffffffffffffffffffffffffffff1673ffffffffffffffffffffffffffffffffffffffff16815260200190815260200160002060008373ffffffffffffffffffffffffffffffffffffffff1673ffffffffffffffffffffffffffffffffffffffff16815260200190815260200160002060405180604001604052908160008201548152602001600182015481525050905092915050565b610ccb611479565b73ffffffffffffffffffffffffffffffffffffffff16610ce9610bef565b73ffffffffffffffffffffffffffffffffffffffff1614610d3f576040517f08c379a0000000000000000000000000000000000000000000000000000000008152600401610d3690612124565b60405180910390fd5b8060028190555050565b6000600360003373ffffffffffffffffffffffffffffffffffffffff1673ffffffffffffffffffffffffffffffffffffffff16815260200190815260200160002060008473ffffffffffffffffffffffffffffffffffffffff1673ffffffffffffffffffffffffffffffffffffffff1681526020019081526020016000206040518060400160405290816000820154815260200160018201548152505090506000816020015114610e2f576040517f08c379a0000000000000000000000000000000000000000000000000000000008152600401610e26906121b6565b60405180910390fd5b60003411610e72576040517f08c379a0000000000000000000000000000000000000000000000000000000008152600401610e6990612222565b60405180910390fd5b60008234610e809190611fd5565b905080600360003373ffffffffffffffffffffffffffffffffffffffff1673ffffffffffffffffffffffffffffffffffffffff16815260200190815260200160002060008673ffffffffffffffffffffffffffffffffffffffff1673ffffffffffffffffffffffffffffffffffffffff1681526020019081526020016000206000018190555082600360003373ffffffffffffffffffffffffffffffffffffffff1673ffffffffffffffffffffffffffffffffffffffff16815260200190815260200160002060008673ffffffffffffffffffffffffffffffffffffffff1673ffffffffffffffffffffffffffffffffffffffff168152602001908152602001600020600101819055508373ffffffffffffffffffffffffffffffffffffffff163373ffffffffffffffffffffffffffffffffffffffff167f911d834cc781bcb7a08922b9dd1f1d175c0a0467d9705194c2e200f8ce2786bb83866000604051610fec93929190611deb565b60405180910390a350505050565b611002611479565b73ffffffffffffffffffffffffffffffffffffffff16611020610bef565b73ffffffffffffffffffffffffffffffffffffffff1614611076576040517f08c379a000000000000000000000000000000000000000000000000000000000815260040161106d90612124565b60405180910390fd5b600073ffffffffffffffffffffffffffffffffffffffff168173ffffffffffffffffffffffffffffffffffffffff1614156110e6576040517f08c379a00000000000000000000000000000000000000000000000000000000081526004016110dd906122b4565b60405180910390fd5b8073ffffffffffffffffffffffffffffffffffffffff1660008054906101000a900473ffffffffffffffffffffffffffffffffffffffff1673ffffffffffffffffffffffffffffffffffffffff167f8be0079c531659141344cd1fd0a4f28419497f9722a3daafe3b4186f6b6457e060405160405180910390a3806000806101000a81548173ffffffffffffffffffffffffffffffffffffffff021916908373ffffffffffffffffffffffffffffffffffffffff16021790555050565b6060825185511480156111b7575081518351145b6111f6576040517f08c379a00000000000000000000000000000000000000000000000000000000081526004016111ed90612320565b60405180910390fd5b6000855167ffffffffffffffff811115611213576112126115ad565b5b6040519080825280602002602001820160405280156112415781602001602082028036833780820191505090505b50905060005b86518110156112dc576112aa87828151811061126657611265611e22565b5b60200260200101518787848151811061128257611281611e22565b5b602002602001015187858151811061129d5761129c611e22565b5b602002602001015161061c565b8282815181106112bd576112bc611e22565b5b60200260200101818152505080806112d490611e51565b915050611247565b5080915050949350505050565b8047101561132c576040517f08c379a00000000000000000000000000000000000000000000000000000000081526004016113239061238c565b60405180910390fd5b60008273ffffffffffffffffffffffffffffffffffffffff1682604051611352906123dd565b60006040518083038185875af1925050503d806000811461138f576040519150601f19603f3d011682016040523d82523d6000602084013e611394565b606091505b50509050806113d8576040517f08c379a00000000000000000000000000000000000000000000000000000000081526004016113cf90612464565b60405180910390fd5b505050565b61147582826040516024016113f39291906124fb565b6040516020818303038152906040527f319af333000000000000000000000000000000000000000000000000000000007bffffffffffffffffffffffffffffffffffffffffffffffffffffffff19166020820180517bffffffffffffffffffffffffffffffffffffffffffffffffffffffff8381831617835250505050611481565b5050565b600033905090565b60008151905060006a636f6e736f6c652e6c6f679050602083016000808483855afa5050505050565b604051806040016040528060008152602001600081525090565b6000819050919050565b6114d7816114c4565b82525050565b60006020820190506114f260008301846114ce565b92915050565b6000604051905090565b600080fd5b600080fd5b600073ffffffffffffffffffffffffffffffffffffffff82169050919050565b60006115378261150c565b9050919050565b6115478161152c565b811461155257600080fd5b50565b6000813590506115648161153e565b92915050565b6000602082840312156115805761157f611502565b5b600061158e84828501611555565b91505092915050565b600080fd5b6000601f19601f8301169050919050565b7f4e487b7100000000000000000000000000000000000000000000000000000000600052604160045260246000fd5b6115e58261159c565b810181811067ffffffffffffffff82111715611604576116036115ad565b5b80604052505050565b60006116176114f8565b905061162382826115dc565b919050565b600067ffffffffffffffff821115611643576116426115ad565b5b602082029050602081019050919050565b600080fd5b600061166c61166784611628565b61160d565b9050808382526020820190506020840283018581111561168f5761168e611654565b5b835b818110156116b857806116a48882611555565b845260208401935050602081019050611691565b5050509392505050565b600082601f8301126116d7576116d6611597565b5b81356116e7848260208601611659565b91505092915050565b6000806040838503121561170757611706611502565b5b600083013567ffffffffffffffff81111561172557611724611507565b5b611731858286016116c2565b925050602083013567ffffffffffffffff81111561175257611751611507565b5b61175e858286016116c2565b9150509250929050565b600081519050919050565b600082825260208201905092915050565b6000819050602082019050919050565b61179d816114c4565b82525050565b6040820160008201516117b96000850182611794565b5060208201516117cc6020850182611794565b50505050565b60006117de83836117a3565b60408301905092915050565b6000602082019050919050565b600061180282611768565b61180c8185611773565b935061181783611784565b8060005b8381101561184857815161182f88826117d2565b975061183a836117ea565b92505060018101905061181b565b5085935050505092915050565b6000602082019050818103600083015261186f81846117f7565b905092915050565b611880816114c4565b811461188b57600080fd5b50565b60008135905061189d81611877565b92915050565b600080600080608085870312156118bd576118bc611502565b5b60006118cb87828801611555565b94505060206118dc87828801611555565b93505060406118ed8782880161188e565b92505060606118fe8782880161188e565b91505092959194509250565b6119138161152c565b82525050565b600060208201905061192e600083018461190a565b92915050565b6000806040838503121561194b5761194a611502565b5b600061195985828601611555565b925050602061196a85828601611555565b9150509250929050565b60408201600082015161198a6000850182611794565b50602082015161199d6020850182611794565b50505050565b60006040820190506119b86000830184611974565b92915050565b6000602082840312156119d4576119d3611502565b5b60006119e28482850161188e565b91505092915050565b60008060408385031215611a0257611a01611502565b5b6000611a1085828601611555565b9250506020611a218582860161188e565b9150509250929050565b600067ffffffffffffffff821115611a4657611a456115ad565b5b602082029050602081019050919050565b6000611a6a611a6584611a2b565b61160d565b90508083825260208201905060208402830185811115611a8d57611a8c611654565b5b835b81811015611ab65780611aa2888261188e565b845260208401935050602081019050611a8f565b5050509392505050565b600082601f830112611ad557611ad4611597565b5b8135611ae5848260208601611a57565b91505092915050565b60008060008060808587031215611b0857611b07611502565b5b600085013567ffffffffffffffff811115611b2657611b25611507565b5b611b32878288016116c2565b9450506020611b4387828801611555565b935050604085013567ffffffffffffffff811115611b6457611b63611507565b5b611b7087828801611ac0565b925050606085013567ffffffffffffffff811115611b9157611b90611507565b5b611b9d87828801611ac0565b91505092959194509250565b600081519050919050565b600082825260208201905092915050565b6000819050602082019050919050565b6000611be18383611794565b60208301905092915050565b6000602082019050919050565b6000611c0582611ba9565b611c0f8185611bb4565b9350611c1a83611bc5565b8060005b83811015611c4b578151611c328882611bd5565b9750611c3d83611bed565b925050600181019050611c1e565b5085935050505092915050565b60006020820190508181036000830152611c728184611bfa565b905092915050565b7f4e487b7100000000000000000000000000000000000000000000000000000000600052601160045260246000fd5b6000611cb4826114c4565b9150611cbf836114c4565b9250817fffffffffffffffffffffffffffffffffffffffffffffffffffffffffffffffff0483118215151615611cf857611cf7611c7a565b5b828202905092915050565b600082825260208201905092915050565b7f596f752068617665206e6f206c697665206269647320666f722074686973206360008201527f6f6c6c656374696f6e2e00000000000000000000000000000000000000000000602082015250565b6000611d70602a83611d03565b9150611d7b82611d14565b604082019050919050565b60006020820190508181036000830152611d9f81611d63565b9050919050565b6000819050919050565b6000819050919050565b6000611dd5611dd0611dcb84611da6565b611db0565b6114c4565b9050919050565b611de581611dba565b82525050565b6000606082019050611e0060008301866114ce565b611e0d60208301856114ce565b611e1a6040830184611ddc565b949350505050565b7f4e487b7100000000000000000000000000000000000000000000000000000000600052603260045260246000fd5b6000611e5c826114c4565b91507fffffffffffffffffffffffffffffffffffffffffffffffffffffffffffffffff821415611e8f57611e8e611c7a565b5b600182019050919050565b7f546869732062696420646f6573206e6f742065786973742e0000000000000000600082015250565b6000611ed0601883611d03565b9150611edb82611e9a565b602082019050919050565b60006020820190508181036000830152611eff81611ec3565b9050919050565b7f42696420697320696e73756666696369656e742e000000000000000000000000600082015250565b6000611f3c601483611d03565b9150611f4782611f06565b602082019050919050565b60006020820190508181036000830152611f6b81611f2f565b9050919050565b6000611f7d826114c4565b9150611f88836114c4565b925082821015611f9b57611f9a611c7a565b5b828203905092915050565b7f4e487b7100000000000000000000000000000000000000000000000000000000600052601260045260246000fd5b6000611fe0826114c4565b9150611feb836114c4565b925082611ffb57611ffa611fa6565b5b828204905092915050565b600060408201905061201b600083018561190a565b61202860208301846114ce565b9392505050565b6000606082019050612044600083018661190a565b612051602083018561190a565b61205e60408301846114ce565b949350505050565b6000819050919050565b600061208b61208661208184612066565b611db0565b6114c4565b9050919050565b61209b81612070565b82525050565b60006060820190506120b660008301866114ce565b6120c36020830185612092565b6120d060408301846114ce565b949350505050565b7f4f776e61626c653a2063616c6c6572206973206e6f7420746865206f776e6572600082015250565b600061210e602083611d03565b9150612119826120d8565b602082019050919050565b6000602082019050818103600083015261213d81612101565b9050919050565b7f43616e63656c206578697374696e6720626964206265666f726520706c61636960008201527f6e672061206e6577206f6e652e00000000000000000000000000000000000000602082015250565b60006121a0602d83611d03565b91506121ab82612144565b604082019050919050565b600060208201905081810360008301526121cf81612193565b9050919050565b7f4269642076616c7565206d757374206578636565642030204554482e00000000600082015250565b600061220c601c83611d03565b9150612217826121d6565b602082019050919050565b6000602082019050818103600083015261223b816121ff565b9050919050565b7f4f776e61626c653a206e6577206f776e657220697320746865207a65726f206160008201527f6464726573730000000000000000000000000000000000000000000000000000602082015250565b600061229e602683611d03565b91506122a982612242565b604082019050919050565b600060208201905081810360008301526122cd81612291565b9050919050565b7f4d69736d61746368696e67206172726179206c656e6774687300000000000000600082015250565b600061230a601983611d03565b9150612315826122d4565b602082019050919050565b60006020820190508181036000830152612339816122fd565b9050919050565b7f416464726573733a20696e73756666696369656e742062616c616e6365000000600082015250565b6000612376601d83611d03565b915061238182612340565b602082019050919050565b600060208201905081810360008301526123a581612369565b9050919050565b600081905092915050565b50565b60006123c76000836123ac565b91506123d2826123b7565b600082019050919050565b60006123e8826123ba565b9150819050919050565b7f416464726573733a20756e61626c6520746f2073656e642076616c75652c207260008201527f6563697069656e74206d61792068617665207265766572746564000000000000602082015250565b600061244e603a83611d03565b9150612459826123f2565b604082019050919050565b6000602082019050818103600083015261247d81612441565b9050919050565b600081519050919050565b60005b838110156124ad578082015181840152602081019050612492565b838111156124bc576000848401525b50505050565b60006124cd82612484565b6124d78185611d03565b93506124e781856020860161248f565b6124f08161159c565b840191505092915050565b6000604082019050818103600083015261251581856124c2565b9050612524602083018461190a565b939250505056fea2646970667358221220430352db2c040a9b0273ae750b151f056b3d7310703e9fe7c678c0fe9a2df3d664736f6c634300080b0033",
  "immutableReferences": {},
  "source": "// SPDX-License-Identifier: MIT\npragma solidity ^0.8.0;\n\nimport \"@openzeppelin/contracts/access/Ownable.sol\";\nimport \"hardhat/console.sol\";\n\ninterface IERC721 {\n\tfunction approve(address _approved, uint256 _tokenId) external;\n\t//function ownerOf(uint256 _tokenId) external returns (address);\n\tfunction safeTransferFrom(address _from, address _to, uint256 _tokenId) external payable;\n}\ninterface CryptopunkInterface {\n\tfunction transferPunk(address _to, uint _tokenId) external;\n}\n\n/// @title A contract enabling bidders to bid on any NFT in a given collection, and holders to sell any NFT from that collection into such a bid\n/// @author Kamil Alizai Sadik\ncontract LiquidityFactory is Ownable {\n\n\t// Set owner wallet as payable\n\taddress payable OWNER = payable(owner());\n\t// Percentage platform fee paid by the seller, in basis points\n\tuint256 public platformFee = 200;\n\n\t// Event that fires when a new bid is submitted\n\tevent NewBid(address indexed bidderAddress, address indexed nftAddress, uint weiPriceEach, uint quantity, uint tokenId);\n\t// Event that fires when a bid is canceled\n\tevent BidCanceled(address indexed bidderAddress, address indexed nftAddress, uint weiPriceEach, uint quantity, uint tokenId);\n\t// Event that fires when a bid is hit\n\tevent NewTrade(address indexed bidderAddress, address indexed sellerAddress, address indexed nftAddress, uint weiPriceEach, uint quantity, uint tokenId);\n\n\t// Struct containing Bid attributes\n\tstruct Bid {\n\t\tuint256 weiPriceEach;\n\t\tuint256 quantity;\n\t}\n\n\t// Array of all bids (bidder => NFT collection address => Bid {weiPriceEach, quantity})\n\tmapping(address => mapping(address => Bid)) bids;\n\n\t/// @dev Creates a new bid\n\t/// @param _nftAddress Address of desired NFT collection\n\t/// @param _quantity Quantity of desired NFT\n\tfunction submitBid(address _nftAddress, uint _quantity) external payable {\n\t\t// Initialize bid\n\t\tBid memory bid = bids[msg.sender][_nftAddress];\n\t\t// Require that bidder does not already have a bid on this collection\n\t\trequire(bid.quantity == 0, \"Cancel existing bid before placing a new one.\");\n\t\t// Require that message value is > 0\n\t\trequire (msg.value > 0, \"Bid value must exceed 0 ETH.\");\n\t\t// Compute value of each bid, in wei\n\t\tuint256 weiPriceEach = uint256(msg.value) / _quantity;\n\t\t// Update bids mapping\n\t\tbids[msg.sender][_nftAddress].weiPriceEach = weiPriceEach;\n\t\tbids[msg.sender][_nftAddress].quantity = _quantity;\n\t\t// Emit bid creation event\n\t\temit NewBid(msg.sender, _nftAddress, weiPriceEach, _quantity, 0);\n\t}\n\n\t/// @dev Cancels a bid\n\t/// @param _nftAddress Address of NFT collection for which bid is being canceled\n\tfunction cancelBid(address _nftAddress) external {\n\t\t// Initialize bid\n\t\tBid memory bid = bids[msg.sender][_nftAddress];\n\t\t// Compute refund\n\t\tuint256 refund = bid.weiPriceEach * bid.quantity;\n\t\t// Require that bidder is due a refund\n\t\trequire(refund != 0, \"You have no live bids for this collection.\");\n\t\t// Delete bid\n\t\tdelete bids[msg.sender][_nftAddress];\n\t\t// Refund bidder\n\t\tsendValue(payable(msg.sender), refund);\n\t\t// Emit bid cancelation event\n\t\temit BidCanceled(msg.sender, _nftAddress, bid.weiPriceEach, bid.quantity, 0);\n\t}\n\n\t// @dev Returns address that owns a particular NFT\n\t// @param _nftAddress Contract address of the NFT\n\t// @param _tokenId Token ID of the NFT\n\t// @return Address of the NFT owner\n\t//function checkOwner(address _nftAddress, uint _tokenId) public view returns (address) {\n\t//\taddress nftOwner = IERC721(_nftAddress).ownerOf(_tokenId)[0];\n\t//\treturn nftOwner;\n\t//}\n\n\t/// @dev Sells NFT into a bid (i.e., \"hits\" the bid)\n\t/// @param _bidderAddress Address of the bidder\n\t/// @param _nftAddress Address of collection to which the bid applies\n\t/// @param _tokenId Token id of the NFT in question\n\t/// @param _expectedWeiPriceEach Price (in wei) that seller expects to receive for each NFT\n\t/// @return Proceeds remitted to seller\n\tfunction hitBid(address _bidderAddress, address _nftAddress, uint256 _tokenId, uint256 _expectedWeiPriceEach) public returns (uint256) {\n\t\tconsole.log(\"msg.sender of hitBit: \", msg.sender);\n\t\t// Initialize bid\n\t\tBid memory bid = bids[_bidderAddress][_nftAddress];\n\t\t// Require that bid exists\n\t\trequire(bid.quantity > 0, \"This bid does not exist.\");\n\t\t// Require that bid amount is at least what the seller expects\n\t\trequire(bid.weiPriceEach >= _expectedWeiPriceEach, \"Bid is insufficient.\");\n\t\t// Decrement bidder's bid quantity for this collection\n\t\tbids[_bidderAddress][_nftAddress].quantity = bid.quantity - 1;\n\t\t// Compute platform fee proceeds\n\t\tuint256 platformFeeProceeds = bid.weiPriceEach * platformFee / 10000;\n\t\t// Remit platform fee proceeds to owner\n\t\tsendValue(OWNER, platformFeeProceeds);\n\t\t// Transfer NFT to bidder\n\t\t// Check whether _nftAddress is Cryptopunks address\n\t\tif (_nftAddress == 0xb47e3cd837dDF8e4c57F05d70Ab865de6e193BBB) {\n\t\t\tCryptopunkInterface(_nftAddress).transferPunk(_bidderAddress, _tokenId);\n\t\t} else {\n\t\t\tIERC721(_nftAddress).approve(address(this), _tokenId);\n\t\t\t//require(IERC721(_nftAddress).ownerOf(_tokenId) == msg.sender);\n\t\t\tIERC721(_nftAddress).safeTransferFrom(msg.sender, _bidderAddress, _tokenId);\n\t\t}\n\t\t// Compute seller proceeds\n\t\tuint256 sellerProceeds = bid.weiPriceEach - platformFeeProceeds;\n\t\t// Remit seller proceeds to seller\n\t\tsendValue(payable(msg.sender), sellerProceeds);\n\t\t// Emit new trade event\n\t\temit NewTrade(_bidderAddress, msg.sender, _nftAddress, bid.weiPriceEach, 1, _tokenId);\n\t\t// Return seller proceeds\n\t\treturn sellerProceeds;\n\t}\n\n\t/// @dev Sells multiple NFTs into multiple bids (i.e., \"hits\" multiple bids)\n\t/// @param _bidderAddresses Array of addresses of bidders\n\t/// @param _nftAddress Address of collection to which the bids apply\n\t/// @param _tokenIds Array of token ids of the NFTs in question\n\t/// @param _expectedWeiPriceEach Array of prices (in wei) that seller expects to receive for each NFT\n\t/// @return Array of proceeds remitted to seller for each sold NFT\n\tfunction hitMultipleBids(address[] memory _bidderAddresses, address _nftAddress, uint256[] memory _tokenIds, uint256[] memory _expectedWeiPriceEach) external returns (uint256[] memory){\n\t\t// Check that number of bids matches number of expected sales\n\t\trequire(_bidderAddresses.length == _tokenIds.length && _tokenIds.length == _expectedWeiPriceEach.length, \"Mismatching array lengths\");\n\t\t// Initialize output array of sellerProceeds\n\t\tuint256[] memory output = new uint256[](_bidderAddresses.length);\n\t\t// Iteratively sell NFTs to bidder\n\t\tfor (uint256 i = 0; i < _bidderAddresses.length; i++) {\n\t\t\toutput[i] = hitBid(_bidderAddresses[i], _nftAddress, _tokenIds[i], _expectedWeiPriceEach[i]);\n\t\t}\n\t\t// Return array of seller proceeds\n\t\treturn output;\n\t}\n\n\t/// @dev Allows owner to change platformFee\n\t/// @param _newPlatformFee New platform fee\n\tfunction changePlatformFee(uint _newPlatformFee) external onlyOwner {\n\t\tplatformFee = _newPlatformFee;\n\t}\n\n\t/// @dev OpenZeppelin sendValue function\n\t/// @param recipient Address receiving funds\n\t/// @param amount Amount of funds being sent\n\tfunction sendValue(address payable recipient, uint256 amount) internal {\n\t\trequire(address(this).balance >= amount, \"Address: insufficient balance\");\n\t\t(bool success, ) = recipient.call{ value: amount }(\"\");\n\t\trequire(success, \"Address: unable to send value, recipient may have reverted\");\n\t}\n\n\t/// @dev Getter function to display a single bid on front-end\n\t/// @param _bidderAddress Address of bidder\n\t/// @param _nftAddress Address of collection to which the bid applies\n\t/// @return Desired bid\n\tfunction getBid(address _bidderAddress, address _nftAddress) external view returns (Bid memory) {\n\t\treturn bids[_bidderAddress][_nftAddress];\n\t}\n\n\t/// @dev Getter function to display multiple bids on front-end\n\t/// @param _bidderAddresses Array of bidders\n\t/// @param _nftAddresses Array of collections to which each bid (respectively) applies\n\t/// @return Array of desired bids\n\tfunction getBids(address[] memory _bidderAddresses, address[] memory _nftAddresses) external view returns (Bid[] memory) {\n\t\tBid[] memory output = new Bid[](_bidderAddresses.length);\n\t\tfor (uint i = 0; i < _bidderAddresses.length; i++) {\n\t\t\toutput[i] = bids[_bidderAddresses[i]][_nftAddresses[i]];\n\t\t}\n\t\treturn output;\n\t}\n\n}",
  "sourcePath": "/Users/kamilalizaisadik/DeFi/Floorquidity/contracts/LiquidityFactory.sol",
  "compiler": {
    "name": "solc",
    "version": "0.8.11+commit.d7f03943.Emscripten.clang"
  },
  "schemaVersion": "3.4.1",
  "updatedAt": "2022-01-09T15:23:15.870Z",
  "devdoc": {
    "author": "Kamil Alizai Sadik",
    "kind": "dev",
    "methods": {
      "cancelBid(address)": {
        "details": "Cancels a bid",
        "params": {
          "_nftAddress": "Address of NFT collection for which bid is being canceled"
        }
      },
      "changePlatformFee(uint256)": {
        "details": "Allows owner to change platformFee",
        "params": {
          "_newPlatformFee": "New platform fee"
        }
      },
      "getBid(address,address)": {
        "details": "Getter function to display a single bid on front-end",
        "params": {
          "_bidderAddress": "Address of bidder",
          "_nftAddress": "Address of collection to which the bid applies"
        },
        "returns": {
          "_0": "Desired bid"
        }
      },
      "getBids(address[],address[])": {
        "details": "Getter function to display multiple bids on front-end",
        "params": {
          "_bidderAddresses": "Array of bidders",
          "_nftAddresses": "Array of collections to which each bid (respectively) applies"
        },
        "returns": {
          "_0": "Array of desired bids"
        }
      },
      "hitBid(address,address,uint256,uint256)": {
        "details": "Sells NFT into a bid (i.e., \"hits\" the bid)",
        "params": {
          "_bidderAddress": "Address of the bidder",
          "_expectedWeiPriceEach": "Price (in wei) that seller expects to receive for each NFT",
          "_nftAddress": "Address of collection to which the bid applies",
          "_tokenId": "Token id of the NFT in question"
        },
        "returns": {
          "_0": "Proceeds remitted to seller"
        }
      },
      "hitMultipleBids(address[],address,uint256[],uint256[])": {
        "details": "Sells multiple NFTs into multiple bids (i.e., \"hits\" multiple bids)",
        "params": {
          "_bidderAddresses": "Array of addresses of bidders",
          "_expectedWeiPriceEach": "Array of prices (in wei) that seller expects to receive for each NFT",
          "_nftAddress": "Address of collection to which the bids apply",
          "_tokenIds": "Array of token ids of the NFTs in question"
        },
        "returns": {
          "_0": "Array of proceeds remitted to seller for each sold NFT"
        }
      },
      "owner()": {
        "details": "Returns the address of the current owner."
      },
      "renounceOwnership()": {
        "details": "Leaves the contract without owner. It will not be possible to call `onlyOwner` functions anymore. Can only be called by the current owner. NOTE: Renouncing ownership will leave the contract without an owner, thereby removing any functionality that is only available to the owner."
      },
      "submitBid(address,uint256)": {
        "details": "Creates a new bid",
        "params": {
          "_nftAddress": "Address of desired NFT collection",
          "_quantity": "Quantity of desired NFT"
        }
      },
      "transferOwnership(address)": {
        "details": "Transfers ownership of the contract to a new account (`newOwner`). Can only be called by the current owner."
      }
    },
    "title": "A contract enabling bidders to bid on any NFT in a given collection, and holders to sell any NFT from that collection into such a bid",
    "version": 1
  },
  "userdoc": {
    "kind": "user",
    "methods": {},
    "version": 1
  }
}